{
  "contractName": "DebtContracts",
  "abi": [
    {
      "inputs": [],
      "stateMutability": "nonpayable",
      "type": "constructor"
    },
    {
      "inputs": [
        {
          "internalType": "uint256",
          "name": "x",
          "type": "uint256"
        },
        {
          "internalType": "uint256",
          "name": "y",
          "type": "uint256"
        }
      ],
      "name": "PRBMath_MulDiv18_Overflow",
      "type": "error"
    },
    {
      "inputs": [
        {
          "internalType": "uint256",
          "name": "x",
          "type": "uint256"
        },
        {
          "internalType": "uint256",
          "name": "y",
          "type": "uint256"
        },
        {
          "internalType": "uint256",
          "name": "denominator",
          "type": "uint256"
        }
      ],
      "name": "PRBMath_MulDiv_Overflow",
      "type": "error"
    },
    {
      "inputs": [],
      "name": "PRBMath_SD59x18_Abs_MinSD59x18",
      "type": "error"
    },
    {
      "inputs": [
        {
          "internalType": "SD59x18",
          "name": "x",
          "type": "int256"
        }
      ],
      "name": "PRBMath_SD59x18_Ceil_Overflow",
      "type": "error"
    },
    {
      "inputs": [],
      "name": "PRBMath_SD59x18_Div_InputTooSmall",
      "type": "error"
    },
    {
      "inputs": [
        {
          "internalType": "SD59x18",
          "name": "x",
          "type": "int256"
        },
        {
          "internalType": "SD59x18",
          "name": "y",
          "type": "int256"
        }
      ],
      "name": "PRBMath_SD59x18_Div_Overflow",
      "type": "error"
    },
    {
      "inputs": [
        {
          "internalType": "SD59x18",
          "name": "x",
          "type": "int256"
        }
      ],
      "name": "PRBMath_SD59x18_Exp2_InputTooBig",
      "type": "error"
    },
    {
      "inputs": [
        {
          "internalType": "SD59x18",
          "name": "x",
          "type": "int256"
        }
      ],
      "name": "PRBMath_SD59x18_Log_InputTooSmall",
      "type": "error"
    },
    {
      "inputs": [],
      "name": "PRBMath_SD59x18_Mul_InputTooSmall",
      "type": "error"
    },
    {
      "inputs": [
        {
          "internalType": "SD59x18",
          "name": "x",
          "type": "int256"
        },
        {
          "internalType": "SD59x18",
          "name": "y",
          "type": "int256"
        }
      ],
      "name": "PRBMath_SD59x18_Mul_Overflow",
      "type": "error"
    },
    {
      "inputs": [
        {
          "internalType": "SD59x18",
          "name": "x",
          "type": "int256"
        },
        {
          "internalType": "uint256",
          "name": "y",
          "type": "uint256"
        }
      ],
      "name": "PRBMath_SD59x18_Powu_Overflow",
      "type": "error"
    },
    {
      "anonymous": false,
      "inputs": [
        {
          "indexed": true,
          "internalType": "address",
          "name": "previousOwner",
          "type": "address"
        },
        {
          "indexed": true,
          "internalType": "address",
          "name": "newOwner",
          "type": "address"
        }
      ],
      "name": "OwnershipTransferred",
      "type": "event"
    },
    {
      "anonymous": false,
      "inputs": [
        {
          "indexed": false,
          "internalType": "address",
          "name": "account",
          "type": "address"
        }
      ],
      "name": "Paused",
      "type": "event"
    },
    {
      "anonymous": false,
      "inputs": [
        {
          "indexed": true,
          "internalType": "bytes32",
          "name": "role",
          "type": "bytes32"
        },
        {
          "indexed": true,
          "internalType": "bytes32",
          "name": "previousAdminRole",
          "type": "bytes32"
        },
        {
          "indexed": true,
          "internalType": "bytes32",
          "name": "newAdminRole",
          "type": "bytes32"
        }
      ],
      "name": "RoleAdminChanged",
      "type": "event"
    },
    {
      "anonymous": false,
      "inputs": [
        {
          "indexed": true,
          "internalType": "bytes32",
          "name": "role",
          "type": "bytes32"
        },
        {
          "indexed": true,
          "internalType": "address",
          "name": "account",
          "type": "address"
        },
        {
          "indexed": true,
          "internalType": "address",
          "name": "sender",
          "type": "address"
        }
      ],
      "name": "RoleGranted",
      "type": "event"
    },
    {
      "anonymous": false,
      "inputs": [
        {
          "indexed": true,
          "internalType": "bytes32",
          "name": "role",
          "type": "bytes32"
        },
        {
          "indexed": true,
          "internalType": "address",
          "name": "account",
          "type": "address"
        },
        {
          "indexed": true,
          "internalType": "address",
          "name": "sender",
          "type": "address"
        }
      ],
      "name": "RoleRevoked",
      "type": "event"
    },
    {
      "anonymous": false,
      "inputs": [
        {
          "indexed": false,
          "internalType": "address",
          "name": "account",
          "type": "address"
        }
      ],
      "name": "Unpaused",
      "type": "event"
    },
    {
      "inputs": [],
      "name": "DEFAULT_ADMIN_ROLE",
      "outputs": [
        {
          "internalType": "bytes32",
          "name": "",
          "type": "bytes32"
        }
      ],
      "stateMutability": "view",
      "type": "function",
      "constant": true
    },
    {
      "inputs": [],
      "name": "QLE_ROLE",
      "outputs": [
        {
          "internalType": "bytes32",
          "name": "",
          "type": "bytes32"
        }
      ],
      "stateMutability": "view",
      "type": "function",
      "constant": true
    },
    {
      "inputs": [
        {
          "internalType": "bytes32",
          "name": "role",
          "type": "bytes32"
        }
      ],
      "name": "getRoleAdmin",
      "outputs": [
        {
          "internalType": "bytes32",
          "name": "",
          "type": "bytes32"
        }
      ],
      "stateMutability": "view",
      "type": "function",
      "constant": true
    },
    {
      "inputs": [
        {
          "internalType": "bytes32",
          "name": "role",
          "type": "bytes32"
        },
        {
          "internalType": "address",
          "name": "account",
          "type": "address"
        }
      ],
      "name": "grantRole",
      "outputs": [],
      "stateMutability": "nonpayable",
      "type": "function"
    },
    {
      "inputs": [
        {
          "internalType": "bytes32",
          "name": "role",
          "type": "bytes32"
        },
        {
          "internalType": "address",
          "name": "account",
          "type": "address"
        }
      ],
      "name": "hasRole",
      "outputs": [
        {
          "internalType": "bool",
          "name": "",
          "type": "bool"
        }
      ],
      "stateMutability": "view",
      "type": "function",
      "constant": true
    },
    {
      "inputs": [],
      "name": "owner",
      "outputs": [
        {
          "internalType": "address",
          "name": "",
          "type": "address"
        }
      ],
      "stateMutability": "view",
      "type": "function",
      "constant": true
    },
    {
      "inputs": [],
      "name": "paused",
      "outputs": [
        {
          "internalType": "bool",
          "name": "",
          "type": "bool"
        }
      ],
      "stateMutability": "view",
      "type": "function",
      "constant": true
    },
    {
      "inputs": [
        {
          "internalType": "uint256",
          "name": "",
          "type": "uint256"
        }
      ],
      "name": "preliminaryDebtContracts",
      "outputs": [
        {
          "internalType": "uint256",
          "name": "",
          "type": "uint256"
        }
      ],
      "stateMutability": "view",
      "type": "function",
      "constant": true
    },
    {
      "inputs": [],
      "name": "renounceOwnership",
      "outputs": [],
      "stateMutability": "nonpayable",
      "type": "function"
    },
    {
      "inputs": [
        {
          "internalType": "bytes32",
          "name": "role",
          "type": "bytes32"
        },
        {
          "internalType": "address",
          "name": "account",
          "type": "address"
        }
      ],
      "name": "renounceRole",
      "outputs": [],
      "stateMutability": "nonpayable",
      "type": "function"
    },
    {
      "inputs": [
        {
          "internalType": "bytes32",
          "name": "role",
          "type": "bytes32"
        },
        {
          "internalType": "address",
          "name": "account",
          "type": "address"
        }
      ],
      "name": "revokeRole",
      "outputs": [],
      "stateMutability": "nonpayable",
      "type": "function"
    },
    {
      "inputs": [
        {
          "internalType": "bytes4",
          "name": "interfaceId",
          "type": "bytes4"
        }
      ],
      "name": "supportsInterface",
      "outputs": [
        {
          "internalType": "bool",
          "name": "",
          "type": "bool"
        }
      ],
      "stateMutability": "view",
      "type": "function",
      "constant": true
    },
    {
      "inputs": [],
      "name": "systemInterestRate",
      "outputs": [
        {
          "internalType": "SD59x18",
          "name": "",
          "type": "int256"
        }
      ],
      "stateMutability": "view",
      "type": "function",
      "constant": true
    },
    {
      "inputs": [
        {
          "internalType": "address",
          "name": "newOwner",
          "type": "address"
        }
      ],
      "name": "transferOwnership",
      "outputs": [],
      "stateMutability": "nonpayable",
      "type": "function"
    },
    {
      "inputs": [],
      "name": "pauseSystem",
      "outputs": [],
      "stateMutability": "nonpayable",
      "type": "function"
    },
    {
      "inputs": [],
      "name": "unpauseSystem",
      "outputs": [],
      "stateMutability": "nonpayable",
      "type": "function"
    },
    {
      "inputs": [
        {
          "internalType": "SD59x18",
          "name": "_systemInterestRate",
          "type": "int256"
        }
      ],
      "name": "setSystemInterestRate",
      "outputs": [],
      "stateMutability": "nonpayable",
      "type": "function"
    },
    {
      "inputs": [
        {
          "internalType": "address",
          "name": "_qle",
          "type": "address"
        }
      ],
      "name": "grantQLERole",
      "outputs": [],
      "stateMutability": "nonpayable",
      "type": "function"
    },
    {
      "inputs": [
        {
          "internalType": "address",
          "name": "borrower",
          "type": "address"
        },
        {
          "internalType": "address",
          "name": "qualifiedLegalEntity",
          "type": "address"
        },
        {
          "internalType": "SD59x18",
          "name": "creditworthiness",
          "type": "int256"
        },
        {
          "internalType": "SD59x18",
          "name": "loanCategory",
          "type": "int256"
        },
        {
          "internalType": "SD59x18",
          "name": "collateralCategory",
          "type": "int256"
        },
        {
          "internalType": "SD59x18",
          "name": "collateralValue",
          "type": "int256"
        },
        {
          "internalType": "SD59x18",
          "name": "principalTotal",
          "type": "int256"
        },
        {
          "internalType": "SD59x18",
          "name": "totalPaymentPeriods",
          "type": "int256"
        },
        {
          "internalType": "SD59x18",
          "name": "interestRateMultiplier",
          "type": "int256"
        }
      ],
      "name": "createDebtContract",
      "outputs": [
        {
          "internalType": "uint256",
          "name": "",
          "type": "uint256"
        }
      ],
      "stateMutability": "nonpayable",
      "type": "function"
    },
    {
      "inputs": [
        {
          "internalType": "uint256",
          "name": "id",
          "type": "uint256"
        }
      ],
      "name": "calculateNextPayment",
      "outputs": [
        {
          "internalType": "bool",
          "name": "",
          "type": "bool"
        },
        {
          "internalType": "SD59x18",
          "name": "",
          "type": "int256"
        }
      ],
      "stateMutability": "view",
      "type": "function",
      "constant": true
    },
    {
      "inputs": [
        {
          "internalType": "uint256",
          "name": "id",
          "type": "uint256"
        }
      ],
      "name": "calculateDebtContractValue",
      "outputs": [
        {
          "internalType": "SD59x18",
          "name": "",
          "type": "int256"
        }
      ],
      "stateMutability": "view",
      "type": "function",
      "constant": true
    },
    {
      "inputs": [
        {
          "internalType": "uint256",
          "name": "id",
          "type": "uint256"
        },
        {
          "internalType": "SD59x18",
          "name": "amount",
          "type": "int256"
        }
      ],
      "name": "processPayment",
      "outputs": [],
      "stateMutability": "nonpayable",
      "type": "function"
    },
    {
      "inputs": [
        {
          "internalType": "SD59x18",
          "name": "n",
          "type": "int256"
        }
      ],
      "name": "sdToString",
      "outputs": [
        {
          "internalType": "string",
          "name": "",
          "type": "string"
        }
      ],
      "stateMutability": "pure",
      "type": "function",
      "constant": true
    }
  ],
  "bytecode": "0x60806040523480156200001157600080fd5b5062000032620000266200006b60201b60201c565b6200007360201b60201c565b6000600160146101000a81548160ff0219169083151502179055506200005f60006200013960201b60201c565b6006819055506200015d565b600033905090565b6000600160009054906101000a900473ffffffffffffffffffffffffffffffffffffffff16905081600160006101000a81548173ffffffffffffffffffffffffffffffffffffffff021916908373ffffffffffffffffffffffffffffffffffffffff1602179055508173ffffffffffffffffffffffffffffffffffffffff168173ffffffffffffffffffffffffffffffffffffffff167f8be0079c531659141344cd1fd0a4f28419497f9722a3daafe3b4186f6b6457e060405160405180910390a35050565b60006200014c826200015360201b60201c565b9050919050565b6000819050919050565b613de1806200016d6000396000f3fe608060405234801561001057600080fd5b506004361061014d5760003560e01c8063717198d5116100c3578063cabe970e1161007c578063cabe970e14610378578063cff52a4d146103a8578063d547741f146103d8578063dc1d4fb7146103f4578063ee8703ee146103fe578063f2fde38b1461042f5761014d565b8063717198d5146102b657806375fb5319146102d25780638da5cb5b146102f057806391d148541461030e578063a217fddf1461033e578063ad3322df1461035c5761014d565b806336568abe1161011557806336568abe1461021a5780634c761240146102365780635aa79c30146102405780635bd48d6d1461025e5780635c975abb1461028e578063715018a6146102ac5761014d565b806301ffc9a71461015257806303906dc31461018257806318f7f9c7146101b2578063248a9ca3146101ce5780632f2ff15d146101fe575b600080fd5b61016c60048036038101906101679190612e4c565b61044b565b6040516101799190612e94565b60405180910390f35b61019c60048036038101906101979190612f43565b6104c5565b6040516101a99190613026565b60405180910390f35b6101cc60048036038101906101c79190613041565b610632565b005b6101e860048036038101906101e391906130a4565b610667565b6040516101f591906130e0565b60405180910390f35b610218600480360381019061021391906130fb565b610686565b005b610234600480360381019061022f91906130fb565b6106a7565b005b61023e61072a565b005b61024861073c565b6040516102559190613176565b60405180910390f35b610278600480360381019061027391906131bd565b610742565b6040516102859190613176565b60405180910390f35b610296610865565b6040516102a39190612e94565b60405180910390f35b6102b461087c565b005b6102d060048036038101906102cb91906131ea565b610890565b005b6102da6108a2565b6040516102e791906130e0565b60405180910390f35b6102f86108c6565b6040516103059190613226565b60405180910390f35b610328600480360381019061032391906130fb565b6108f0565b6040516103359190612e94565b60405180910390f35b61034661095a565b60405161035391906130e0565b60405180910390f35b61037660048036038101906103719190613241565b610961565b005b610392600480360381019061038d91906131bd565b610c74565b60405161039f9190613026565b60405180910390f35b6103c260048036038101906103bd91906131ea565b610c98565b6040516103cf9190613311565b60405180910390f35b6103f260048036038101906103ed91906130fb565b610cb2565b005b6103fc610cd3565b005b610418600480360381019061041391906131bd565b610ce5565b604051610426929190613333565b60405180910390f35b61044960048036038101906104449190613041565b610db7565b005b60007f7965db0b000000000000000000000000000000000000000000000000000000007bffffffffffffffffffffffffffffffffffffffffffffffffffffffff1916827bffffffffffffffffffffffffffffffffffffffffffffffffffffffff191614806104be57506104bd82610e3a565b5b9050919050565b60007f4e8e4103f8a7bb86e2b34057884c362523b15b127fc3c34b8f6e81545bd455b06104f181610ea4565b6104f9610eb8565b6002600081548092919061050c9061338b565b91905055506000600360006002548152602001908152602001600020905060018160000160006101000a81548160ff0219169083151502179055508b8160000160016101000a81548173ffffffffffffffffffffffffffffffffffffffff021916908373ffffffffffffffffffffffffffffffffffffffff1602179055508a8160010160006101000a81548173ffffffffffffffffffffffffffffffffffffffff021916908373ffffffffffffffffffffffffffffffffffffffff1602179055508981600201819055508881600301819055508781600401819055508681600501819055508581600601819055508581600701819055508481600801819055508481600901819055508381600c0181905550600254925050509998505050505050505050565b61063a610f02565b6106647f4e8e4103f8a7bb86e2b34057884c362523b15b127fc3c34b8f6e81545bd455b082610f80565b50565b6000806000838152602001908152602001600020600101549050919050565b61068f82610667565b61069881610ea4565b6106a28383610f80565b505050565b6106af611060565b73ffffffffffffffffffffffffffffffffffffffff168173ffffffffffffffffffffffffffffffffffffffff161461071c576040517f08c379a000000000000000000000000000000000000000000000000000000000815260040161071390613445565b60405180910390fd5b6107268282611068565b5050565b610732610f02565b61073a611149565b565b60055481565b600080600061075084610ce5565b915091508115610764578092505050610860565b6000600360008681526020019081526020016000209050600061079682600c01546005546111ac90919063ffffffff16565b905060006107a4600061133c565b905060005b6107b6846009015461134e565b8110156108415760006107f4826107e6866107d8670de0b6b3a764000061133c565b61136b90919063ffffffff16565b61139990919063ffffffff16565b905061082b61081c8261080e670de0b6b3a764000061133c565b6114c090919063ffffffff16565b8461136b90919063ffffffff16565b92505080806108399061338b565b9150506107a9565b5061085584826111ac90919063ffffffff16565b905080955050505050505b919050565b6000600160149054906101000a900460ff16905090565b610884610f02565b61088e6000611659565b565b610898610f02565b8060058190555050565b7f4e8e4103f8a7bb86e2b34057884c362523b15b127fc3c34b8f6e81545bd455b081565b6000600160009054906101000a900473ffffffffffffffffffffffffffffffffffffffff16905090565b600080600084815260200190815260200160002060000160008373ffffffffffffffffffffffffffffffffffffffff1673ffffffffffffffffffffffffffffffffffffffff16815260200190815260200160002060009054906101000a900460ff16905092915050565b6000801b81565b600060036000848152602001908152602001600020905060008061098485610ce5565b9150915061099b848261171f90919063ffffffff16565b6109da576040517f08c379a00000000000000000000000000000000000000000000000000000000081526004016109d1906134d7565b60405180910390fd5b6109fa6109e7600061133c565b846009015461173c90919063ffffffff16565b15610a9657610a1683600701548261171f90919063ffffffff16565b610a55576040517f08c379a0000000000000000000000000000000000000000000000000000000008152600401610a4c90613543565b60405180910390fd5b81610a95576040517f08c379a0000000000000000000000000000000000000000000000000000000008152600401610a8c906135af565b60405180910390fd5b5b610aad84846007015461175a90919063ffffffff16565b83600701819055506000610ac086610742565b9050610aed84600b0154610adf8360065461136b90919063ffffffff16565b61175a90919063ffffffff16565b6006819055508084600b01819055508484600a0181905550610b25610b12600061133c565b856009015461173c90919063ffffffff16565b15610c4457610b4a610b37600061133c565b856007015461171f90919063ffffffff16565b610b89576040517f08c379a0000000000000000000000000000000000000000000000000000000008152600401610b809061361b565b60405180910390fd5b610ba9610b96600061133c565b856009015461171f90919063ffffffff16565b610be8576040517f08c379a0000000000000000000000000000000000000000000000000000000008152600401610bdf90613687565b60405180910390fd5b610c04610bf5600061133c565b8261171f90919063ffffffff16565b610c43576040517f08c379a0000000000000000000000000000000000000000000000000000000008152600401610c3a906136f3565b60405180910390fd5b5b610c64610c51600161133c565b856009015461175a90919063ffffffff16565b8460090181905550505050505050565b60048181548110610c8457600080fd5b906000526020600020016000915090505481565b6060610cab610ca68361134e565b611788565b9050919050565b610cbb82610667565b610cc481610ea4565b610cce8383611068565b505050565b610cdb610f02565b610ce3611856565b565b6000806000600360008581526020019081526020016000209050610d1f610d0c600061133c565b826009015461173c90919063ffffffff16565b15610d3557600181600701549250925050610db2565b6000610d5082600c01546005546111ac90919063ffffffff16565b90506000610d978360090154610d89610d768660090154866118b890919063ffffffff16565b86600701546111ac90919063ffffffff16565b6114c090919063ffffffff16565b90506000610da482611938565b905060008195509550505050505b915091565b610dbf610f02565b600073ffffffffffffffffffffffffffffffffffffffff168173ffffffffffffffffffffffffffffffffffffffff1603610e2e576040517f08c379a0000000000000000000000000000000000000000000000000000000008152600401610e2590613785565b60405180910390fd5b610e3781611659565b50565b60007f01ffc9a7000000000000000000000000000000000000000000000000000000007bffffffffffffffffffffffffffffffffffffffffffffffffffffffff1916827bffffffffffffffffffffffffffffffffffffffffffffffffffffffff1916149050919050565b610eb581610eb0611060565b611a05565b50565b610ec0610865565b15610f00576040517f08c379a0000000000000000000000000000000000000000000000000000000008152600401610ef7906137f1565b60405180910390fd5b565b610f0a611060565b73ffffffffffffffffffffffffffffffffffffffff16610f286108c6565b73ffffffffffffffffffffffffffffffffffffffff1614610f7e576040517f08c379a0000000000000000000000000000000000000000000000000000000008152600401610f759061385d565b60405180910390fd5b565b610f8a82826108f0565b61105c57600160008084815260200190815260200160002060000160008373ffffffffffffffffffffffffffffffffffffffff1673ffffffffffffffffffffffffffffffffffffffff16815260200190815260200160002060006101000a81548160ff021916908315150217905550611001611060565b73ffffffffffffffffffffffffffffffffffffffff168173ffffffffffffffffffffffffffffffffffffffff16837f2f8788117e7eff1d82e926ec794901d17c78024a50270940304540a733656f0d60405160405180910390a45b5050565b600033905090565b61107282826108f0565b1561114557600080600084815260200190815260200160002060000160008373ffffffffffffffffffffffffffffffffffffffff1673ffffffffffffffffffffffffffffffffffffffff16815260200190815260200160002060006101000a81548160ff0219169083151502179055506110ea611060565b73ffffffffffffffffffffffffffffffffffffffff168173ffffffffffffffffffffffffffffffffffffffff16837ff6391f5c32d9c69d2a47ea670b442974b53935d1edc7fd64eb21e047a839171b60405160405180910390a45b5050565b611151611a8a565b6000600160146101000a81548160ff0219169083151502179055507f5db9ee0a495bf2e6ff9c91a7834c1ba4fdd244a5e8aa4e537bd38aeae4b073aa611195611060565b6040516111a29190613226565b60405180910390a1565b6000806111b884611ad3565b905060006111c584611ad3565b90507f800000000000000000000000000000000000000000000000000000000000000082148061121457507f800000000000000000000000000000000000000000000000000000000000000081145b1561124b576040517fa6070c2500000000000000000000000000000000000000000000000000000000815260040160405180910390fd5b6000806000841261125c5783611261565b836000035b9150600083126112715782611276565b826000035b905060006112848383611add565b90507f7fffffffffffffffffffffffffffffffffffffffffffffffffffffffffffffff8111156112ed5787876040517f120b5b430000000000000000000000000000000000000000000000000000000081526004016112e492919061387d565b60405180910390fd5b60007fffffffffffffffffffffffffffffffffffffffffffffffffffffffffffffffff85871813905061132e816113275782600003611329565b825b611bc8565b965050505050505092915050565b600061134782611bc8565b9050919050565b6000670de0b6b3a76400008261136491906138d5565b9050919050565b600061139161137983611ad3565b61138285611ad3565b61138c919061393f565b611bc8565b905092915050565b6000806113ad6113a885611bd2565b611ad3565b905060008060018516116113c957670de0b6b3a76400006113cb565b815b90506000849050600181901c90505b6000811115611414576113ed8384611add565b92506000600182161115611408576114058284611add565b91505b600181901c90506113da565b7f7fffffffffffffffffffffffffffffffffffffffffffffffffffffffffffffff82111561147b5785856040517f8f053ff6000000000000000000000000000000000000000000000000000000008152600401611472929190613983565b60405180910390fd5b600082905060008061148c89611ad3565b12801561149b57506001808816145b905080156114aa578160000391505b6114b382611bc8565b9550505050505092915050565b6000806114cc84611ad3565b905060006114d984611ad3565b90507f800000000000000000000000000000000000000000000000000000000000000082148061152857507f800000000000000000000000000000000000000000000000000000000000000081145b1561155f576040517f9fe2b45000000000000000000000000000000000000000000000000000000000815260040160405180910390fd5b600080600084126115705783611575565b836000035b915060008312611585578261158a565b826000035b905060006115a183670de0b6b3a764000084611c62565b90507f7fffffffffffffffffffffffffffffffffffffffffffffffffffffffffffffff81111561160a5787876040517fd49c26b300000000000000000000000000000000000000000000000000000000815260040161160192919061387d565b60405180910390fd5b60007fffffffffffffffffffffffffffffffffffffffffffffffffffffffffffffffff85871813905061164b816116445782600003611646565b825b611bc8565b965050505050505092915050565b6000600160009054906101000a900473ffffffffffffffffffffffffffffffffffffffff16905081600160006101000a81548173ffffffffffffffffffffffffffffffffffffffff021916908373ffffffffffffffffffffffffffffffffffffffff1602179055508173ffffffffffffffffffffffffffffffffffffffff168173ffffffffffffffffffffffffffffffffffffffff167f8be0079c531659141344cd1fd0a4f28419497f9722a3daafe3b4186f6b6457e060405160405180910390a35050565b600061172a82611ad3565b61173384611ad3565b14905092915050565b600061174782611ad3565b61175084611ad3565b1315905092915050565b600061178061176883611ad3565b61177185611ad3565b61177b91906139ac565b611bc8565b905092915050565b60606000600161179784611d79565b01905060008167ffffffffffffffff8111156117b6576117b56139ef565b5b6040519080825280601f01601f1916602001820160405280156117e85781602001600182028036833780820191505090505b509050600082602001820190505b60011561184b578080600190039150507f3031323334353637383961626364656600000000000000000000000000000000600a86061a8153600a858161183f5761183e6138a6565b5b049450600085036117f6575b819350505050919050565b61185e610eb8565b60018060146101000a81548160ff0219169083151502179055507f62e78cea01bee320cd4e420270b5ea74000d11b0c9f74754ebdbfc544b05a2586118a1611060565b6040516118ae9190613226565b60405180910390a1565b6000806118c484611ad3565b905060006118d184611ad3565b9050600082036118fb57600081146118ea5760006118f4565b670de0b6b3a76400005b9250611930565b670de0b6b3a764000081036119125784925061192f565b61192c61192761192187611ecc565b866111ac565b61205f565b92505b5b505092915050565b60008061194483611ad3565b90507f7ffffffffffffffffffffffffffffffffffffffffffffffff5023c99044000008113156119ab57826040517f742fb98c0000000000000000000000000000000000000000000000000000000081526004016119a29190613176565b60405180910390fd5b6000670de0b6b3a7640000826119c19190613a1e565b9050600081036119d3578392506119fe565b6000818303905060008313156119f157670de0b6b3a7640000810190505b6119fa81611bc8565b9350505b5050919050565b611a0f82826108f0565b611a8657611a1c8161217c565b611a2a8360001c60206121a9565b604051602001611a3b929190613b23565b6040516020818303038152906040526040517f08c379a0000000000000000000000000000000000000000000000000000000008152600401611a7d9190613311565b60405180910390fd5b5050565b611a92610865565b611ad1576040517f08c379a0000000000000000000000000000000000000000000000000000000008152600401611ac890613ba9565b60405180910390fd5b565b6000819050919050565b60008060008019848609848602925082811083820303915050670de0b6b3a76400008110611b445784846040517f5173648d000000000000000000000000000000000000000000000000000000008152600401611b3b929190613bc9565b60405180910390fd5b6000670de0b6b3a7640000858709905060008203611b7f57670de0b6b3a76400008381611b7457611b736138a6565b5b049350505050611bc2565b7faccb18165bd6fe31ae1cf318dc5b51eee0e1ba569b88cd74c1773b91fac106696001620400008060000304018483118403026204000083860304170293505050505b92915050565b6000819050919050565b600080611bde83611ad3565b90507f80000000000000000000000000000000000000000000000000000000000000008103611c39576040517fec2b9e6700000000000000000000000000000000000000000000000000000000815260040160405180910390fd5b60008112611c475782611c5a565b611c5981611c5490613bf2565b611bc8565b5b915050919050565b6000806000801985870985870292508281108382030391505060008103611c9d57838281611c9357611c926138a6565b5b0492505050611d72565b838110611ce5578585856040517f63a05778000000000000000000000000000000000000000000000000000000008152600401611cdc93929190613c3a565b60405180910390fd5b60008486880990508281118203915080830392506000600186190186169050808604955080840493506001818260000304019050808302841793506000600287600302189050808702600203810290508087026002038102905080870260020381029050808702600203810290508087026002038102905080870260020381029050808502955050505050505b9392505050565b600080600090507a184f03e93ff9f4daa797ed6e38ed64bf6a1f0100000000000000008310611dd7577a184f03e93ff9f4daa797ed6e38ed64bf6a1f0100000000000000008381611dcd57611dcc6138a6565b5b0492506040810190505b6d04ee2d6d415b85acef81000000008310611e14576d04ee2d6d415b85acef81000000008381611e0a57611e096138a6565b5b0492506020810190505b662386f26fc100008310611e4357662386f26fc100008381611e3957611e386138a6565b5b0492506010810190505b6305f5e1008310611e6c576305f5e1008381611e6257611e616138a6565b5b0492506008810190505b6127108310611e91576127108381611e8757611e866138a6565b5b0492506004810190505b60648310611eb45760648381611eaa57611ea96138a6565b5b0492506002810190505b600a8310611ec3576001810190505b80915050919050565b600080611ed883611ad3565b905060008113611f1f57826040517f059b101b000000000000000000000000000000000000000000000000000000008152600401611f169190613176565b60405180910390fd5b6000670de0b6b3a76400008212611f395760019050611f7f565b7fffffffffffffffffffffffffffffffffffffffffffffffffffffffffffffffff9050816ec097ce7bc90715b34b9f100000000081611f7b57611f7a6138a6565b5b0591505b6000611fa2670de0b6b3a76400008481611f9c57611f9b6138a6565b5b056123e5565b90506000670de0b6b3a76400008202905060008285901d9050670de0b6b3a76400008103611fe157611fd5848302611bc8565b9550505050505061205a565b6000671bc16d674ec80000905060006706f05b59d3b2000090505b600081131561204257670de0b6b3a76400008384028161201f5761201e6138a6565b5b059250818312612036578084019350600183901d92505b600181901d9050611ffc565b50848302925061205183611bc8565b96505050505050505b919050565b60008061206b83611ad3565b905060008112156120f2577ffffffffffffffffffffffffffffffffffffffffffffffffcc22e87f6eb468eeb8112156120a8576000915050612177565b6120eb6120c76120c26120bd84600003611bc8565b61205f565b611ad3565b6ec097ce7bc90715b34b9f1000000000816120e5576120e46138a6565b5b05611bc8565b9150612175565b680a688906bd8b000000811261213f57826040517f0360d0280000000000000000000000000000000000000000000000000000000081526004016121369190613176565b60405180910390fd5b6000670de0b6b3a7640000604083901b8161215d5761215c6138a6565b5b05905061217161216c8261248e565b611bc8565b9250505b505b919050565b60606121a28273ffffffffffffffffffffffffffffffffffffffff16601460ff166121a9565b9050919050565b6060600060028360026121bc9190613c71565b6121c69190613cb3565b67ffffffffffffffff8111156121df576121de6139ef565b5b6040519080825280601f01601f1916602001820160405280156122115781602001600182028036833780820191505090505b5090507f30000000000000000000000000000000000000000000000000000000000000008160008151811061224957612248613ce7565b5b60200101907effffffffffffffffffffffffffffffffffffffffffffffffffffffffffffff1916908160001a9053507f7800000000000000000000000000000000000000000000000000000000000000816001815181106122ad576122ac613ce7565b5b60200101907effffffffffffffffffffffffffffffffffffffffffffffffffffffffffffff1916908160001a905350600060018460026122ed9190613c71565b6122f79190613cb3565b90505b6001811115612397577f3031323334353637383961626364656600000000000000000000000000000000600f86166010811061233957612338613ce7565b5b1a60f81b8282815181106123505761234f613ce7565b5b60200101907effffffffffffffffffffffffffffffffffffffffffffffffffffffffffffff1916908160001a905350600485901c94508061239090613d16565b90506122fa565b50600084146123db576040517f08c379a00000000000000000000000000000000000000000000000000000000081526004016123d290613d8b565b60405180910390fd5b8091505092915050565b60006fffffffffffffffffffffffffffffffff821160071b82811c925080821791505067ffffffffffffffff821160061b82811c925080821791505063ffffffff821160051b82811c925080821791505061ffff821160041b82811c925080821791505060ff821160031b82811c9250808217915050600f821160021b82811c92508082179150506003821160011b82811c925080821791505060018211808217915050919050565b6000778000000000000000000000000000000000000000000000009050600067ff00000000000000831611156125ef576000678000000000000000831611156124e457604068016a09e667f3bcc9098202901c90505b60006740000000000000008316111561250a5760406801306fe0a31b7152df8202901c90505b6000672000000000000000831611156125305760406801172b83c7d517adce8202901c90505b60006710000000000000008316111561255657604068010b5586cf9890f62a8202901c90505b60006708000000000000008316111561257c5760406801059b0d31585743ae8202901c90505b6000670400000000000000831611156125a2576040680102c9a3e778060ee78202901c90505b6000670200000000000000831611156125c857604068010163da9fb33356d88202901c90505b6000670100000000000000831611156125ee576040680100b1afa5abcbed618202901c90505b5b600066ff0000000000008316111561272a57600066800000000000008316111561262657604068010058c86da1c09ea28202901c90505b600066400000000000008316111561264b5760406801002c605e2e8cec508202901c90505b6000662000000000000083161115612670576040680100162f3904051fa18202901c90505b60006610000000000000831611156126955760406801000b175effdc76ba8202901c90505b60006608000000000000831611156126ba576040680100058ba01fb9f96d8202901c90505b60006604000000000000831611156126df57604068010002c5cc37da94928202901c90505b60006602000000000000831611156127045760406801000162e525ee05478202901c90505b600066010000000000008316111561272957604068010000b17255775c048202901c90505b5b600065ff00000000008316111561285c576000658000000000008316111561275f5760406801000058b91b5bc9ae8202901c90505b60006540000000000083161115612783576040680100002c5c89d5ec6d8202901c90505b600065200000000000831611156127a757604068010000162e43f4f8318202901c90505b600065100000000000831611156127cb576040680100000b1721bcfc9a8202901c90505b600065080000000000831611156127ef57604068010000058b90cf1e6e8202901c90505b600065040000000000831611156128135760406801000002c5c863b73f8202901c90505b60006502000000000083161115612837576040680100000162e430e5a28202901c90505b6000650100000000008316111561285b5760406801000000b1721835518202901c90505b5b600064ff00000000831611156129855760006480000000008316111561288f576040680100000058b90c0b498202901c90505b6000644000000000831611156128b257604068010000002c5c8601cc8202901c90505b6000642000000000831611156128d55760406801000000162e42fff08202901c90505b6000641000000000831611156128f857604068010000000b17217fbb8202901c90505b60006408000000008316111561291b5760406801000000058b90bfce8202901c90505b60006404000000008316111561293e576040680100000002c5c85fe38202901c90505b60006402000000008316111561296157604068010000000162e42ff18202901c90505b600064010000000083161115612984576040680100000000b17217f88202901c90505b5b600064ff0000000083161115612aa65760006380000000831611156129b757604068010000000058b90bfc8202901c90505b60006340000000831611156129d95760406801000000002c5c85fe8202901c90505b60006320000000831611156129fb576040680100000000162e42ff8202901c90505b6000631000000083161115612a1d5760406801000000000b17217f8202901c90505b6000630800000083161115612a3f576040680100000000058b90c08202901c90505b6000630400000083161115612a6157604068010000000002c5c8608202901c90505b6000630200000083161115612a835760406801000000000162e4308202901c90505b6000630100000083161115612aa557604068010000000000b172188202901c90505b5b600062ff000083161115612bbd5760006280000083161115612ad55760406801000000000058b90c8202901c90505b60006240000083161115612af6576040680100000000002c5c868202901c90505b60006220000083161115612b1757604068010000000000162e438202901c90505b60006210000083161115612b38576040680100000000000b17218202901c90505b60006208000083161115612b5957604068010000000000058b918202901c90505b60006204000083161115612b7a5760406801000000000002c5c88202901c90505b60006202000083161115612b9b576040680100000000000162e48202901c90505b60006201000083161115612bbc5760406801000000000000b1728202901c90505b5b600061ff0083161115612ccb57600061800083161115612bea576040680100000000000058b98202901c90505b600061400083161115612c0a57604068010000000000002c5d8202901c90505b600061200083161115612c2a5760406801000000000000162e8202901c90505b600061100083161115612c4a57604068010000000000000b178202901c90505b600061080083161115612c6a5760406801000000000000058c8202901c90505b600061040083161115612c8a576040680100000000000002c68202901c90505b600061020083161115612caa576040680100000000000001638202901c90505b600061010083161115612cca576040680100000000000000b18202901c90505b5b600060ff83161115612dd0576000608083161115612cf6576040680100000000000000598202901c90505b6000604083161115612d155760406801000000000000002c8202901c90505b6000602083161115612d34576040680100000000000000168202901c90505b6000601083161115612d535760406801000000000000000b8202901c90505b6000600883161115612d72576040680100000000000000068202901c90505b6000600483161115612d91576040680100000000000000038202901c90505b6000600283161115612db0576040680100000000000000018202901c90505b6000600183161115612dcf576040680100000000000000018202901c90505b5b670de0b6b3a764000081029050604082901c60bf0381901c9050919050565b600080fd5b60007fffffffff0000000000000000000000000000000000000000000000000000000082169050919050565b612e2981612df4565b8114612e3457600080fd5b50565b600081359050612e4681612e20565b92915050565b600060208284031215612e6257612e61612def565b5b6000612e7084828501612e37565b91505092915050565b60008115159050919050565b612e8e81612e79565b82525050565b6000602082019050612ea96000830184612e85565b92915050565b600073ffffffffffffffffffffffffffffffffffffffff82169050919050565b6000612eda82612eaf565b9050919050565b612eea81612ecf565b8114612ef557600080fd5b50565b600081359050612f0781612ee1565b92915050565b6000819050919050565b612f2081612f0d565b8114612f2b57600080fd5b50565b600081359050612f3d81612f17565b92915050565b60008060008060008060008060006101208a8c031215612f6657612f65612def565b5b6000612f748c828d01612ef8565b9950506020612f858c828d01612ef8565b9850506040612f968c828d01612f2e565b9750506060612fa78c828d01612f2e565b9650506080612fb88c828d01612f2e565b95505060a0612fc98c828d01612f2e565b94505060c0612fda8c828d01612f2e565b93505060e0612feb8c828d01612f2e565b925050610100612ffd8c828d01612f2e565b9150509295985092959850929598565b6000819050919050565b6130208161300d565b82525050565b600060208201905061303b6000830184613017565b92915050565b60006020828403121561305757613056612def565b5b600061306584828501612ef8565b91505092915050565b6000819050919050565b6130818161306e565b811461308c57600080fd5b50565b60008135905061309e81613078565b92915050565b6000602082840312156130ba576130b9612def565b5b60006130c88482850161308f565b91505092915050565b6130da8161306e565b82525050565b60006020820190506130f560008301846130d1565b92915050565b6000806040838503121561311257613111612def565b5b60006131208582860161308f565b925050602061313185828601612ef8565b9150509250929050565b6000819050919050565b600061316061315b61315684612f0d565b61313b565b612f0d565b9050919050565b61317081613145565b82525050565b600060208201905061318b6000830184613167565b92915050565b61319a8161300d565b81146131a557600080fd5b50565b6000813590506131b781613191565b92915050565b6000602082840312156131d3576131d2612def565b5b60006131e1848285016131a8565b91505092915050565b600060208284031215613200576131ff612def565b5b600061320e84828501612f2e565b91505092915050565b61322081612ecf565b82525050565b600060208201905061323b6000830184613217565b92915050565b6000806040838503121561325857613257612def565b5b6000613266858286016131a8565b925050602061327785828601612f2e565b9150509250929050565b600081519050919050565b600082825260208201905092915050565b60005b838110156132bb5780820151818401526020810190506132a0565b60008484015250505050565b6000601f19601f8301169050919050565b60006132e382613281565b6132ed818561328c565b93506132fd81856020860161329d565b613306816132c7565b840191505092915050565b6000602082019050818103600083015261332b81846132d8565b905092915050565b60006040820190506133486000830185612e85565b6133556020830184613167565b9392505050565b7f4e487b7100000000000000000000000000000000000000000000000000000000600052601160045260246000fd5b60006133968261300d565b91507fffffffffffffffffffffffffffffffffffffffffffffffffffffffffffffffff82036133c8576133c761335c565b5b600182019050919050565b7f416363657373436f6e74726f6c3a2063616e206f6e6c792072656e6f756e636560008201527f20726f6c657320666f722073656c660000000000000000000000000000000000602082015250565b600061342f602f8361328c565b915061343a826133d3565b604082019050919050565b6000602082019050818103600083015261345e81613422565b9050919050565b7f54686520616d6f756e7420776173206e6f7420657175616c20746f207768617460008201527f2073686f756c6420626520706169640000000000000000000000000000000000602082015250565b60006134c1602f8361328c565b91506134cc82613465565b604082019050919050565b600060208201905081810360008301526134f0816134b4565b9050919050565b7f636174617374726f70686963206661696c757265203100000000000000000000600082015250565b600061352d60168361328c565b9150613538826134f7565b602082019050919050565b6000602082019050818103600083015261355c81613520565b9050919050565b7f6366203800000000000000000000000000000000000000000000000000000000600082015250565b600061359960048361328c565b91506135a482613563565b602082019050919050565b600060208201905081810360008301526135c88161358c565b9050919050565b7f6366203500000000000000000000000000000000000000000000000000000000600082015250565b600061360560048361328c565b9150613610826135cf565b602082019050919050565b60006020820190508181036000830152613634816135f8565b9050919050565b7f6366203600000000000000000000000000000000000000000000000000000000600082015250565b600061367160048361328c565b915061367c8261363b565b602082019050919050565b600060208201905081810360008301526136a081613664565b9050919050565b7f6366203700000000000000000000000000000000000000000000000000000000600082015250565b60006136dd60048361328c565b91506136e8826136a7565b602082019050919050565b6000602082019050818103600083015261370c816136d0565b9050919050565b7f4f776e61626c653a206e6577206f776e657220697320746865207a65726f206160008201527f6464726573730000000000000000000000000000000000000000000000000000602082015250565b600061376f60268361328c565b915061377a82613713565b604082019050919050565b6000602082019050818103600083015261379e81613762565b9050919050565b7f5061757361626c653a2070617573656400000000000000000000000000000000600082015250565b60006137db60108361328c565b91506137e6826137a5565b602082019050919050565b6000602082019050818103600083015261380a816137ce565b9050919050565b7f4f776e61626c653a2063616c6c6572206973206e6f7420746865206f776e6572600082015250565b600061384760208361328c565b915061385282613811565b602082019050919050565b600060208201905081810360008301526138768161383a565b9050919050565b60006040820190506138926000830185613167565b61389f6020830184613167565b9392505050565b7f4e487b7100000000000000000000000000000000000000000000000000000000600052601260045260246000fd5b60006138e082612f0d565b91506138eb83612f0d565b9250826138fb576138fa6138a6565b5b600160000383147f8000000000000000000000000000000000000000000000000000000000000000831416156139345761393361335c565b5b828205905092915050565b600061394a82612f0d565b915061395583612f0d565b92508282019050828112156000831216838212600084121516171561397d5761397c61335c565b5b92915050565b60006040820190506139986000830185613167565b6139a56020830184613017565b9392505050565b60006139b782612f0d565b91506139c283612f0d565b92508282039050818112600084121682821360008512151617156139e9576139e861335c565b5b92915050565b7f4e487b7100000000000000000000000000000000000000000000000000000000600052604160045260246000fd5b6000613a2982612f0d565b9150613a3483612f0d565b925082613a4457613a436138a6565b5b828207905092915050565b600081905092915050565b7f416363657373436f6e74726f6c3a206163636f756e7420000000000000000000600082015250565b6000613a90601783613a4f565b9150613a9b82613a5a565b601782019050919050565b6000613ab182613281565b613abb8185613a4f565b9350613acb81856020860161329d565b80840191505092915050565b7f206973206d697373696e6720726f6c6520000000000000000000000000000000600082015250565b6000613b0d601183613a4f565b9150613b1882613ad7565b601182019050919050565b6000613b2e82613a83565b9150613b3a8285613aa6565b9150613b4582613b00565b9150613b518284613aa6565b91508190509392505050565b7f5061757361626c653a206e6f7420706175736564000000000000000000000000600082015250565b6000613b9360148361328c565b9150613b9e82613b5d565b602082019050919050565b60006020820190508181036000830152613bc281613b86565b9050919050565b6000604082019050613bde6000830185613017565b613beb6020830184613017565b9392505050565b6000613bfd82612f0d565b91507f80000000000000000000000000000000000000000000000000000000000000008203613c2f57613c2e61335c565b5b816000039050919050565b6000606082019050613c4f6000830186613017565b613c5c6020830185613017565b613c696040830184613017565b949350505050565b6000613c7c8261300d565b9150613c878361300d565b9250828202613c958161300d565b91508282048414831517613cac57613cab61335c565b5b5092915050565b6000613cbe8261300d565b9150613cc98361300d565b9250828201905080821115613ce157613ce061335c565b5b92915050565b7f4e487b7100000000000000000000000000000000000000000000000000000000600052603260045260246000fd5b6000613d218261300d565b915060008203613d3457613d3361335c565b5b600182039050919050565b7f537472696e67733a20686578206c656e67746820696e73756666696369656e74600082015250565b6000613d7560208361328c565b9150613d8082613d3f565b602082019050919050565b60006020820190508181036000830152613da481613d68565b905091905056fea264697066735822122037343a4f0ea9fba91de50d2e6dd44122bdcedfd86773a4f1347062a051b247eb64736f6c63430008130033",
  "immutableReferences": {},
  "source": "// SPDX-License-Identifier: UNLICENSED\npragma solidity ^0.8.19;\n\nimport \"@openzeppelin/contracts/access/Ownable.sol\";\nimport \"@openzeppelin/contracts/access/AccessControl.sol\";\nimport { SD59x18, sd, convert } from \"@prb/math/src/SD59x18.sol\";\n// import { UD60x18, ud } from \"@prb/math/src/UD60x18.sol\";\nimport \"@openzeppelin/contracts/utils/math/SafeMath.sol\";\nimport \"@openzeppelin/contracts/security/Pausable.sol\";\nimport \"truffle/console.sol\";\nimport \"@openzeppelin/contracts/utils/Strings.sol\";\n\n// This contract is an MVP, a proper contract would be way more complex\ncontract DebtContracts is AccessControl, Ownable, Pausable {\n    //using UD60x18 for uint256;\n    //using SD59x18 for int256;\n    /*\n        Encapsulate all personal variables, such as credit history, income, employement, savings, debt-to-income ratio, personal liquid assets, personal illiquid assets, etc.. into a single metric (1) for simplicity and MVPiniess, (2) for privacy. Can these variables be zkified? This variable can be called creditwhortiness. Increase the decentralization of these variables, so that they cannot be manipulated, ex: get employement from employer, degree from university, value of liquid assets from wallet, etc etc.\n\n        Assume montly payments happens exactly when they should, no early payback, exact repayments, etc\n    */\n    bytes32 public constant QLE_ROLE = keccak256(\"QLE_ROLE\");\n\n    // MVP: 256 variables because I like to pay for gas\n    // Use SD59x18 for now for everything to make it simple\n    struct DebtContract {\n        bool activated;\n        address borrower; // const\n        address qualifiedLegalEntity; // const\n        SD59x18 creditworthiness;\n        SD59x18 loanCategory;\n        SD59x18 collateralCategory; \n        SD59x18 collateralValue;\n        // address collateral;\n        SD59x18 principalTotal; // The principal at the start of the loan, how much money was borrowed?\n        SD59x18 remainingDebt; // the remaining debt\n        SD59x18 totalPaymentPeriods; // how many months\n        SD59x18 remainingPaymentPeriods;\n        SD59x18 lastMonthlyPaymentAmount;\n        SD59x18 lastPresentValue;\n        SD59x18 interestRateMultiplier;\n    }\n\n    uint256 private nonce;\n    mapping(uint256 => DebtContract) debtContracts;\n    uint[] public preliminaryDebtContracts;\n    SD59x18 public systemInterestRate;\n    SD59x18 pooledDebtContractValue;\n    \n    constructor() {\n        pooledDebtContractValue = sd(0);\n    }\n    /**\n    * @dev Pauses the creation of new debt contracts during a tau cycle to process new debt applications\n    */\n    function pauseSystem() external onlyOwner {\n        _pause();\n    }\n\n    /**\n    * @dev Unpauses the system after the tau cycles finnishes\n    */\n    function unpauseSystem() external onlyOwner {\n        _unpause();\n    }\n\n    /**\n     * @dev Sets the system interest rate\n     * @param _systemInterestRate The new system interest rate, in basis points\n     */\n    function setSystemInterestRate(SD59x18 _systemInterestRate) external onlyOwner {\n        systemInterestRate = _systemInterestRate;\n    }\n\n    /**\n    * @dev Grants the QLE role to the specified address.\n    * @param _qle The address to grant the QLE role to.\n    */\n    function grantQLERole(address _qle) external onlyOwner {\n        _grantRole(QLE_ROLE, _qle);\n    }\n\n/**\n * @dev Creates a new debt contract and stores it in the `debtContracts` mapping.\n * @param borrower The address of the borrower.\n * @param qualifiedLegalEntity The address of the qualified legal entity.\n * @param creditworthiness The creditworthiness of the borrower, as a SD59x18 number.\n * @param loanCategory The category of the loan, as a SD59x18 number.\n * @param collateralCategory The category of the collateral, as a SD59x18 number.\n * @param collateralValue The value of the collateral, as a SD59x18 number.\n * @param principalTotal The total principal of the loan, as a SD59x18 number.\n * @param totalPaymentPeriods The total number of payment periods for the loan, as a SD59x18 number.\n * @param interestRateMultiplier The interest rate multiplier for the loan, as a SD59x18 number.\n * @return ID nonce of the new debt contract.\n */\nfunction createDebtContract(\n    address borrower,\n    address qualifiedLegalEntity,\n    SD59x18 creditworthiness,\n    SD59x18 loanCategory,\n    SD59x18 collateralCategory,\n    SD59x18 collateralValue,\n    SD59x18 principalTotal,\n    SD59x18 totalPaymentPeriods,\n    SD59x18 interestRateMultiplier\n) public onlyRole(QLE_ROLE) whenNotPaused returns (uint256) {\n    nonce++;\n    DebtContract storage newDebtContract = debtContracts[nonce];\n    newDebtContract.activated = true;\n    newDebtContract.borrower = borrower;\n    newDebtContract.qualifiedLegalEntity = qualifiedLegalEntity;\n    newDebtContract.creditworthiness = creditworthiness;\n    newDebtContract.loanCategory = loanCategory;\n    newDebtContract.collateralCategory = collateralCategory;\n    newDebtContract.collateralValue = collateralValue;\n    newDebtContract.principalTotal = principalTotal;\n    newDebtContract.remainingDebt = principalTotal;\n    newDebtContract.totalPaymentPeriods = totalPaymentPeriods;\n    newDebtContract.remainingPaymentPeriods = totalPaymentPeriods;\n    newDebtContract.interestRateMultiplier = interestRateMultiplier;\n    return nonce;\n}\n\n    /**\n    * @dev Processes a specified number of preliminary debt contracts and deletes them from the array\n    * @param numContracts The number of contracts to process\n    * @param startTau The starting tau to set for the activated contracts\n    * @return The remaining length of the preliminaryDebtContracts array. \n    */\n    /*\n    function processPreliminaryDebtContracts(uint256 numContracts, uint256 startTau) external onlyOwner whenPaused returns (uint256) {\n        require(preliminaryDebtContracts.length > 0, \"there are no preliminary debt contracts to process\");\n        uint256 lastIndex = preliminaryDebtContracts.length - 1;\n        (bool overflow, uint256 iterationStop) = lastIndex.trySub(numContracts);\n        if (overflow) {\n            iterationStop = 0;\n        }\n        for (uint256 i = lastIndex; i >= iterationStop; i--) {\n            debtContracts[preliminaryDebtContracts[i]].activated = true;\n            debtContracts[preliminaryDebtContracts[i]].startTau = startTau;\n            preliminaryDebtContracts.pop();\n        }\n        return preliminaryDebtContracts.length;\n    }\n    */\n\n    /**\n     * @dev Calculates the next payment for a given debt contract, based on the current state and the interest rate\n     * @param id The id of the debt contract to calculate the next payment for\n     * @return (isLast, nextPaymentAmount) \n     */\n    function calculateNextPayment(uint256 id) public view returns (bool, SD59x18) {\n        DebtContract storage dc = debtContracts[id];\n\n        // if the loan has matured, the remaining principal must be paid in its entirity\n        if (dc.remainingPaymentPeriods.lte(sd(0))) {\n            return (true, dc.remainingDebt);\n        }\n\n        // according to the simplified formula in the paper\n        SD59x18 specificInterestRate = systemInterestRate.mul(dc.interestRateMultiplier);\n        SD59x18 nextPayment = dc.remainingDebt.mul(specificInterestRate.pow(dc.remainingPaymentPeriods)).div(dc.remainingPaymentPeriods);\n        SD59x18 _np = nextPayment.ceil();\n        return (false, _np);\n    }\n\n    /**\n    * @dev Calculates the current value of a debt contract\n    * @param id The ID of the debt contract to calculate the value of\n    * @return The current value of the debt contract\n    */\n    function calculateDebtContractValue(uint256 id) public view returns (SD59x18) {\n        (bool isLast, SD59x18 currentMonthlyPayment) = calculateNextPayment(id);\n        // if this is the last payment the value is the next payment\n        if (isLast) {\n            return currentMonthlyPayment;\n        }\n\n        DebtContract storage dc = debtContracts[id];\n        SD59x18 specificInterestRate = systemInterestRate.mul(dc.interestRateMultiplier);\n\n        SD59x18 presentValue = sd(0);\n        for (uint i = 0; i < uint(convert(dc.remainingPaymentPeriods)); i++) {\n            SD59x18 discountFactor = sd(1e18).add(specificInterestRate).powu(i);\n            presentValue = presentValue.add(sd(1e18).div(discountFactor));\n        }\n        presentValue = presentValue.mul(currentMonthlyPayment);\n        \n        return presentValue;\n    }\n\n    /**\n    * @dev Processes a payment for the specified debt contract and sets the present value of the PDC. \n    * @param id The ID of the debt contract to process the payment for.\n    * @param amount The amount of the payment in SST\n    */\n    function processPayment(uint256 id, SD59x18 amount) public {\n        // for now imagine that SSTs are being transfered :D\n        DebtContract storage dc = debtContracts[id];\n\n        (bool isLast, SD59x18 nextPayment) = calculateNextPayment(id);\n        require(nextPayment.eq(amount), \"The amount was not equal to what should be paid\");\n        if (dc.remainingPaymentPeriods.lte(sd(0))) {\n            require(nextPayment.eq(dc.remainingDebt), \"catastrophic failure 1\");\n            require(isLast, \"cf 8\");\n        }\n\n\n        // decrease principal\n        dc.remainingDebt = dc.remainingDebt.sub(amount);\n\n        // calculate present value\n        SD59x18 pv = calculateDebtContractValue(id);\n\n        // update PDC value\n        pooledDebtContractValue = pooledDebtContractValue.add(pv).sub(dc.lastPresentValue);\n\n        // set old \n        dc.lastPresentValue = pv;\n        dc.lastMonthlyPaymentAmount = amount;\n\n        // decrease remaining duration\n        if (dc.remainingPaymentPeriods.lte(sd(0))) {\n            require(dc.remainingDebt.eq(sd(0)), \"cf 5\");\n            require(dc.remainingPaymentPeriods.eq(sd(0)), \"cf 6\");\n            require(pv.eq(sd(0)), \"cf 7\");\n        }\n        dc.remainingPaymentPeriods = dc.remainingPaymentPeriods.sub(sd(1));\n\n    }\n\n    function sdToString(SD59x18 n) public pure returns (string memory) {\n        // first convert to int256, then to uint256, then to string because people hate int256\n        return Strings.toString(uint256(convert(n)));\n    }\n}",
  "sourcePath": "/Users/kim/projects/E2/prototype/contracts/DebtContracts.sol",
  "compiler": {
    "name": "solc",
    "version": "0.8.19+commit.7dd6d404.Emscripten.clang"
  },
  "schemaVersion": "3.4.13",
  "updatedAt": "2023-03-24T18:40:17.991Z",
  "networkType": "ethereum",
  "devdoc": {
    "events": {
      "Paused(address)": {
        "details": "Emitted when the pause is triggered by `account`."
      },
      "RoleAdminChanged(bytes32,bytes32,bytes32)": {
        "details": "Emitted when `newAdminRole` is set as ``role``'s admin role, replacing `previousAdminRole` `DEFAULT_ADMIN_ROLE` is the starting admin for all roles, despite {RoleAdminChanged} not being emitted signaling this. _Available since v3.1._"
      },
      "RoleGranted(bytes32,address,address)": {
        "details": "Emitted when `account` is granted `role`. `sender` is the account that originated the contract call, an admin role bearer except when using {AccessControl-_setupRole}."
      },
      "RoleRevoked(bytes32,address,address)": {
        "details": "Emitted when `account` is revoked `role`. `sender` is the account that originated the contract call:   - if using `revokeRole`, it is the admin role bearer   - if using `renounceRole`, it is the role bearer (i.e. `account`)"
      },
      "Unpaused(address)": {
        "details": "Emitted when the pause is lifted by `account`."
      }
    },
    "kind": "dev",
    "methods": {
      "calculateDebtContractValue(uint256)": {
        "details": "Calculates the current value of a debt contract",
        "params": {
          "id": "The ID of the debt contract to calculate the value of"
        },
        "returns": {
          "_0": "The current value of the debt contract"
        }
      },
      "calculateNextPayment(uint256)": {
        "details": "Calculates the next payment for a given debt contract, based on the current state and the interest rate",
        "params": {
          "id": "The id of the debt contract to calculate the next payment for"
        },
        "returns": {
          "_0": "(isLast, nextPaymentAmount) "
        }
      },
      "createDebtContract(address,address,int256,int256,int256,int256,int256,int256,int256)": {
        "details": "Creates a new debt contract and stores it in the `debtContracts` mapping.",
        "params": {
          "borrower": "The address of the borrower.",
          "collateralCategory": "The category of the collateral, as a SD59x18 number.",
          "collateralValue": "The value of the collateral, as a SD59x18 number.",
          "creditworthiness": "The creditworthiness of the borrower, as a SD59x18 number.",
          "interestRateMultiplier": "The interest rate multiplier for the loan, as a SD59x18 number.",
          "loanCategory": "The category of the loan, as a SD59x18 number.",
          "principalTotal": "The total principal of the loan, as a SD59x18 number.",
          "qualifiedLegalEntity": "The address of the qualified legal entity.",
          "totalPaymentPeriods": "The total number of payment periods for the loan, as a SD59x18 number."
        },
        "returns": {
          "_0": "ID nonce of the new debt contract."
        }
      },
      "getRoleAdmin(bytes32)": {
        "details": "Returns the admin role that controls `role`. See {grantRole} and {revokeRole}. To change a role's admin, use {_setRoleAdmin}."
      },
      "grantQLERole(address)": {
        "details": "Grants the QLE role to the specified address.",
        "params": {
          "_qle": "The address to grant the QLE role to."
        }
      },
      "grantRole(bytes32,address)": {
        "details": "Grants `role` to `account`. If `account` had not been already granted `role`, emits a {RoleGranted} event. Requirements: - the caller must have ``role``'s admin role. May emit a {RoleGranted} event."
      },
      "hasRole(bytes32,address)": {
        "details": "Returns `true` if `account` has been granted `role`."
      },
      "owner()": {
        "details": "Returns the address of the current owner."
      },
      "pauseSystem()": {
        "details": "Pauses the creation of new debt contracts during a tau cycle to process new debt applications"
      },
      "paused()": {
        "details": "Returns true if the contract is paused, and false otherwise."
      },
      "processPayment(uint256,int256)": {
        "details": "Processes a payment for the specified debt contract and sets the present value of the PDC. ",
        "params": {
          "amount": "The amount of the payment in SST",
          "id": "The ID of the debt contract to process the payment for."
        }
      },
      "renounceOwnership()": {
        "details": "Leaves the contract without owner. It will not be possible to call `onlyOwner` functions anymore. Can only be called by the current owner. NOTE: Renouncing ownership will leave the contract without an owner, thereby removing any functionality that is only available to the owner."
      },
      "renounceRole(bytes32,address)": {
        "details": "Revokes `role` from the calling account. Roles are often managed via {grantRole} and {revokeRole}: this function's purpose is to provide a mechanism for accounts to lose their privileges if they are compromised (such as when a trusted device is misplaced). If the calling account had been revoked `role`, emits a {RoleRevoked} event. Requirements: - the caller must be `account`. May emit a {RoleRevoked} event."
      },
      "revokeRole(bytes32,address)": {
        "details": "Revokes `role` from `account`. If `account` had been granted `role`, emits a {RoleRevoked} event. Requirements: - the caller must have ``role``'s admin role. May emit a {RoleRevoked} event."
      },
      "setSystemInterestRate(int256)": {
        "details": "Sets the system interest rate",
        "params": {
          "_systemInterestRate": "The new system interest rate, in basis points"
        }
      },
      "supportsInterface(bytes4)": {
        "details": "See {IERC165-supportsInterface}."
      },
      "transferOwnership(address)": {
        "details": "Transfers ownership of the contract to a new account (`newOwner`). Can only be called by the current owner."
      },
      "unpauseSystem()": {
        "details": "Unpauses the system after the tau cycles finnishes"
      }
    },
    "version": 1
  },
  "userdoc": {
    "errors": {
      "PRBMath_MulDiv18_Overflow(uint256,uint256)": [
        {
          "notice": "Emitted when the ending result in the fixed-point version of `mulDiv` would overflow uint256."
        }
      ],
      "PRBMath_MulDiv_Overflow(uint256,uint256,uint256)": [
        {
          "notice": "Emitted when the ending result in `mulDiv` would overflow uint256."
        }
      ],
      "PRBMath_SD59x18_Abs_MinSD59x18()": [
        {
          "notice": "Emitted when taking the absolute value of `MIN_SD59x18`."
        }
      ],
      "PRBMath_SD59x18_Ceil_Overflow(int256)": [
        {
          "notice": "Emitted when ceiling a number overflows SD59x18."
        }
      ],
      "PRBMath_SD59x18_Div_InputTooSmall()": [
        {
          "notice": "Emitted when dividing two numbers and one of them is `MIN_SD59x18`."
        }
      ],
      "PRBMath_SD59x18_Div_Overflow(int256,int256)": [
        {
          "notice": "Emitted when dividing two numbers and one of the intermediary unsigned results overflows SD59x18."
        }
      ],
      "PRBMath_SD59x18_Exp2_InputTooBig(int256)": [
        {
          "notice": "Emitted when taking the binary exponent of a base greater than 192."
        }
      ],
      "PRBMath_SD59x18_Log_InputTooSmall(int256)": [
        {
          "notice": "Emitted when taking the logarithm of a number less than or equal to zero."
        }
      ],
      "PRBMath_SD59x18_Mul_InputTooSmall()": [
        {
          "notice": "Emitted when multiplying two numbers and one of the inputs is `MIN_SD59x18`."
        }
      ],
      "PRBMath_SD59x18_Mul_Overflow(int256,int256)": [
        {
          "notice": "Emitted when multiplying two numbers and the intermediary absolute result overflows SD59x18."
        }
      ],
      "PRBMath_SD59x18_Powu_Overflow(int256,uint256)": [
        {
          "notice": "Emitted when raising a number to a power and hte intermediary absolute result overflows SD59x18."
        }
      ]
    },
    "kind": "user",
    "methods": {},
    "version": 1
  }
}