{
  "contractName": "DebtContracts",
  "abi": [
    {
      "inputs": [
        {
          "internalType": "address",
          "name": "_addrSST",
          "type": "address"
        }
      ],
      "stateMutability": "nonpayable",
      "type": "constructor"
    },
    {
      "inputs": [
        {
          "internalType": "uint256",
          "name": "x",
          "type": "uint256"
        },
        {
          "internalType": "uint256",
          "name": "y",
          "type": "uint256"
        }
      ],
      "name": "PRBMath_MulDiv18_Overflow",
      "type": "error"
    },
    {
      "inputs": [
        {
          "internalType": "uint256",
          "name": "x",
          "type": "uint256"
        },
        {
          "internalType": "uint256",
          "name": "y",
          "type": "uint256"
        },
        {
          "internalType": "uint256",
          "name": "denominator",
          "type": "uint256"
        }
      ],
      "name": "PRBMath_MulDiv_Overflow",
      "type": "error"
    },
    {
      "inputs": [],
      "name": "PRBMath_SD59x18_Abs_MinSD59x18",
      "type": "error"
    },
    {
      "inputs": [
        {
          "internalType": "int256",
          "name": "x",
          "type": "int256"
        }
      ],
      "name": "PRBMath_SD59x18_Convert_Overflow",
      "type": "error"
    },
    {
      "inputs": [
        {
          "internalType": "int256",
          "name": "x",
          "type": "int256"
        }
      ],
      "name": "PRBMath_SD59x18_Convert_Underflow",
      "type": "error"
    },
    {
      "inputs": [],
      "name": "PRBMath_SD59x18_Div_InputTooSmall",
      "type": "error"
    },
    {
      "inputs": [
        {
          "internalType": "SD59x18",
          "name": "x",
          "type": "int256"
        },
        {
          "internalType": "SD59x18",
          "name": "y",
          "type": "int256"
        }
      ],
      "name": "PRBMath_SD59x18_Div_Overflow",
      "type": "error"
    },
    {
      "inputs": [
        {
          "internalType": "SD59x18",
          "name": "x",
          "type": "int256"
        }
      ],
      "name": "PRBMath_SD59x18_Exp2_InputTooBig",
      "type": "error"
    },
    {
      "inputs": [
        {
          "internalType": "SD59x18",
          "name": "x",
          "type": "int256"
        }
      ],
      "name": "PRBMath_SD59x18_Floor_Underflow",
      "type": "error"
    },
    {
      "inputs": [
        {
          "internalType": "SD59x18",
          "name": "x",
          "type": "int256"
        }
      ],
      "name": "PRBMath_SD59x18_IntoUint256_Underflow",
      "type": "error"
    },
    {
      "inputs": [
        {
          "internalType": "SD59x18",
          "name": "x",
          "type": "int256"
        }
      ],
      "name": "PRBMath_SD59x18_Log_InputTooSmall",
      "type": "error"
    },
    {
      "inputs": [],
      "name": "PRBMath_SD59x18_Mul_InputTooSmall",
      "type": "error"
    },
    {
      "inputs": [
        {
          "internalType": "SD59x18",
          "name": "x",
          "type": "int256"
        },
        {
          "internalType": "SD59x18",
          "name": "y",
          "type": "int256"
        }
      ],
      "name": "PRBMath_SD59x18_Mul_Overflow",
      "type": "error"
    },
    {
      "inputs": [
        {
          "internalType": "SD59x18",
          "name": "x",
          "type": "int256"
        },
        {
          "internalType": "uint256",
          "name": "y",
          "type": "uint256"
        }
      ],
      "name": "PRBMath_SD59x18_Powu_Overflow",
      "type": "error"
    },
    {
      "anonymous": false,
      "inputs": [
        {
          "indexed": true,
          "internalType": "uint256",
          "name": "id",
          "type": "uint256"
        },
        {
          "indexed": true,
          "internalType": "address",
          "name": "borrower",
          "type": "address"
        },
        {
          "indexed": false,
          "internalType": "string",
          "name": "principalTotal",
          "type": "string"
        },
        {
          "indexed": false,
          "internalType": "string",
          "name": "totalPaymentPeriods",
          "type": "string"
        },
        {
          "indexed": false,
          "internalType": "string",
          "name": "interestRateMultiplier",
          "type": "string"
        }
      ],
      "name": "DebtContractCreated",
      "type": "event"
    },
    {
      "anonymous": false,
      "inputs": [
        {
          "indexed": false,
          "internalType": "string",
          "name": "desc",
          "type": "string"
        },
        {
          "indexed": false,
          "internalType": "string",
          "name": "s",
          "type": "string"
        }
      ],
      "name": "Debugg",
      "type": "event"
    },
    {
      "anonymous": false,
      "inputs": [
        {
          "indexed": false,
          "internalType": "address",
          "name": "account",
          "type": "address"
        }
      ],
      "name": "Paused",
      "type": "event"
    },
    {
      "anonymous": false,
      "inputs": [
        {
          "indexed": true,
          "internalType": "uint256",
          "name": "id",
          "type": "uint256"
        },
        {
          "indexed": true,
          "internalType": "address",
          "name": "payer",
          "type": "address"
        },
        {
          "indexed": false,
          "internalType": "string",
          "name": "paymentAmount",
          "type": "string"
        },
        {
          "indexed": false,
          "internalType": "string",
          "name": "remainingDebt",
          "type": "string"
        },
        {
          "indexed": false,
          "internalType": "string",
          "name": "remainingPaymentPeriods",
          "type": "string"
        },
        {
          "indexed": false,
          "internalType": "string",
          "name": "dcPresentValue",
          "type": "string"
        },
        {
          "indexed": false,
          "internalType": "string",
          "name": "pdcPresentValue",
          "type": "string"
        }
      ],
      "name": "PaymentMade",
      "type": "event"
    },
    {
      "anonymous": false,
      "inputs": [
        {
          "indexed": true,
          "internalType": "bytes32",
          "name": "role",
          "type": "bytes32"
        },
        {
          "indexed": true,
          "internalType": "bytes32",
          "name": "previousAdminRole",
          "type": "bytes32"
        },
        {
          "indexed": true,
          "internalType": "bytes32",
          "name": "newAdminRole",
          "type": "bytes32"
        }
      ],
      "name": "RoleAdminChanged",
      "type": "event"
    },
    {
      "anonymous": false,
      "inputs": [
        {
          "indexed": true,
          "internalType": "bytes32",
          "name": "role",
          "type": "bytes32"
        },
        {
          "indexed": true,
          "internalType": "address",
          "name": "account",
          "type": "address"
        },
        {
          "indexed": true,
          "internalType": "address",
          "name": "sender",
          "type": "address"
        }
      ],
      "name": "RoleGranted",
      "type": "event"
    },
    {
      "anonymous": false,
      "inputs": [
        {
          "indexed": true,
          "internalType": "bytes32",
          "name": "role",
          "type": "bytes32"
        },
        {
          "indexed": true,
          "internalType": "address",
          "name": "account",
          "type": "address"
        },
        {
          "indexed": true,
          "internalType": "address",
          "name": "sender",
          "type": "address"
        }
      ],
      "name": "RoleRevoked",
      "type": "event"
    },
    {
      "anonymous": false,
      "inputs": [
        {
          "indexed": false,
          "internalType": "address",
          "name": "account",
          "type": "address"
        }
      ],
      "name": "Unpaused",
      "type": "event"
    },
    {
      "anonymous": false,
      "inputs": [
        {
          "indexed": false,
          "internalType": "string",
          "name": "value",
          "type": "string"
        }
      ],
      "name": "UpdatedPooledDebtContractValue",
      "type": "event"
    },
    {
      "inputs": [],
      "name": "DEFAULT_ADMIN_ROLE",
      "outputs": [
        {
          "internalType": "bytes32",
          "name": "",
          "type": "bytes32"
        }
      ],
      "stateMutability": "view",
      "type": "function"
    },
    {
      "inputs": [],
      "name": "QLE_ROLE",
      "outputs": [
        {
          "internalType": "bytes32",
          "name": "",
          "type": "bytes32"
        }
      ],
      "stateMutability": "view",
      "type": "function"
    },
    {
      "inputs": [
        {
          "internalType": "SD59x18",
          "name": "n",
          "type": "int256"
        }
      ],
      "name": "SDtoString",
      "outputs": [
        {
          "internalType": "string",
          "name": "",
          "type": "string"
        }
      ],
      "stateMutability": "view",
      "type": "function"
    },
    {
      "inputs": [
        {
          "internalType": "string",
          "name": "s",
          "type": "string"
        },
        {
          "internalType": "SD59x18",
          "name": "n",
          "type": "int256"
        }
      ],
      "name": "consoleLogSD",
      "outputs": [],
      "stateMutability": "view",
      "type": "function"
    },
    {
      "inputs": [
        {
          "internalType": "bytes32",
          "name": "role",
          "type": "bytes32"
        }
      ],
      "name": "getRoleAdmin",
      "outputs": [
        {
          "internalType": "bytes32",
          "name": "",
          "type": "bytes32"
        }
      ],
      "stateMutability": "view",
      "type": "function"
    },
    {
      "inputs": [
        {
          "internalType": "bytes32",
          "name": "role",
          "type": "bytes32"
        },
        {
          "internalType": "address",
          "name": "account",
          "type": "address"
        }
      ],
      "name": "grantRole",
      "outputs": [],
      "stateMutability": "nonpayable",
      "type": "function"
    },
    {
      "inputs": [
        {
          "internalType": "bytes32",
          "name": "role",
          "type": "bytes32"
        },
        {
          "internalType": "address",
          "name": "account",
          "type": "address"
        }
      ],
      "name": "hasRole",
      "outputs": [
        {
          "internalType": "bool",
          "name": "",
          "type": "bool"
        }
      ],
      "stateMutability": "view",
      "type": "function"
    },
    {
      "inputs": [],
      "name": "paused",
      "outputs": [
        {
          "internalType": "bool",
          "name": "",
          "type": "bool"
        }
      ],
      "stateMutability": "view",
      "type": "function"
    },
    {
      "inputs": [],
      "name": "pooledDebtContractValue",
      "outputs": [
        {
          "internalType": "SD59x18",
          "name": "",
          "type": "int256"
        }
      ],
      "stateMutability": "view",
      "type": "function"
    },
    {
      "inputs": [
        {
          "internalType": "uint256",
          "name": "",
          "type": "uint256"
        }
      ],
      "name": "preliminaryDebtContracts",
      "outputs": [
        {
          "internalType": "uint256",
          "name": "",
          "type": "uint256"
        }
      ],
      "stateMutability": "view",
      "type": "function"
    },
    {
      "inputs": [
        {
          "internalType": "bytes32",
          "name": "role",
          "type": "bytes32"
        },
        {
          "internalType": "address",
          "name": "account",
          "type": "address"
        }
      ],
      "name": "renounceRole",
      "outputs": [],
      "stateMutability": "nonpayable",
      "type": "function"
    },
    {
      "inputs": [
        {
          "internalType": "bytes32",
          "name": "role",
          "type": "bytes32"
        },
        {
          "internalType": "address",
          "name": "account",
          "type": "address"
        }
      ],
      "name": "revokeRole",
      "outputs": [],
      "stateMutability": "nonpayable",
      "type": "function"
    },
    {
      "inputs": [
        {
          "internalType": "bytes4",
          "name": "interfaceId",
          "type": "bytes4"
        }
      ],
      "name": "supportsInterface",
      "outputs": [
        {
          "internalType": "bool",
          "name": "",
          "type": "bool"
        }
      ],
      "stateMutability": "view",
      "type": "function"
    },
    {
      "inputs": [],
      "name": "systemInterestRate",
      "outputs": [
        {
          "internalType": "SD59x18",
          "name": "",
          "type": "int256"
        }
      ],
      "stateMutability": "view",
      "type": "function"
    },
    {
      "inputs": [],
      "name": "testSDtoString",
      "outputs": [
        {
          "internalType": "string",
          "name": "",
          "type": "string"
        }
      ],
      "stateMutability": "view",
      "type": "function"
    },
    {
      "inputs": [
        {
          "internalType": "address",
          "name": "_addrSMSS",
          "type": "address"
        }
      ],
      "name": "secondInit",
      "outputs": [],
      "stateMutability": "nonpayable",
      "type": "function"
    },
    {
      "inputs": [],
      "name": "pauseSystem",
      "outputs": [],
      "stateMutability": "nonpayable",
      "type": "function"
    },
    {
      "inputs": [],
      "name": "unpauseSystem",
      "outputs": [],
      "stateMutability": "nonpayable",
      "type": "function"
    },
    {
      "inputs": [
        {
          "internalType": "SD59x18",
          "name": "_systemInterestRate",
          "type": "int256"
        }
      ],
      "name": "setSystemInterestRate",
      "outputs": [],
      "stateMutability": "nonpayable",
      "type": "function"
    },
    {
      "inputs": [
        {
          "internalType": "address",
          "name": "_qle",
          "type": "address"
        }
      ],
      "name": "grantQLERole",
      "outputs": [],
      "stateMutability": "nonpayable",
      "type": "function"
    },
    {
      "inputs": [
        {
          "internalType": "address",
          "name": "borrower",
          "type": "address"
        },
        {
          "internalType": "int256",
          "name": "principalTotal",
          "type": "int256"
        },
        {
          "internalType": "int256",
          "name": "totalPaymentPeriods",
          "type": "int256"
        },
        {
          "internalType": "int256",
          "name": "interestRateMultiplier",
          "type": "int256"
        }
      ],
      "name": "createDebtContract",
      "outputs": [
        {
          "internalType": "uint256",
          "name": "",
          "type": "uint256"
        }
      ],
      "stateMutability": "nonpayable",
      "type": "function"
    },
    {
      "inputs": [
        {
          "internalType": "uint256",
          "name": "id",
          "type": "uint256"
        }
      ],
      "name": "calculateNextPayment",
      "outputs": [
        {
          "internalType": "SD59x18",
          "name": "",
          "type": "int256"
        }
      ],
      "stateMutability": "view",
      "type": "function"
    },
    {
      "inputs": [
        {
          "internalType": "SD59x18",
          "name": "systemIR",
          "type": "int256"
        },
        {
          "internalType": "SD59x18",
          "name": "irm",
          "type": "int256"
        },
        {
          "internalType": "SD59x18",
          "name": "rpp",
          "type": "int256"
        },
        {
          "internalType": "SD59x18",
          "name": "rd",
          "type": "int256"
        }
      ],
      "name": "_calculateNextPayment",
      "outputs": [
        {
          "internalType": "SD59x18",
          "name": "",
          "type": "int256"
        }
      ],
      "stateMutability": "view",
      "type": "function"
    },
    {
      "inputs": [
        {
          "internalType": "SD59x18",
          "name": "irm",
          "type": "int256"
        }
      ],
      "name": "calcSpecificInterestRate",
      "outputs": [
        {
          "internalType": "SD59x18",
          "name": "",
          "type": "int256"
        }
      ],
      "stateMutability": "view",
      "type": "function"
    },
    {
      "inputs": [
        {
          "internalType": "SD59x18",
          "name": "systemIR",
          "type": "int256"
        },
        {
          "internalType": "SD59x18",
          "name": "irm",
          "type": "int256"
        }
      ],
      "name": "_calcSpecificInterestRate",
      "outputs": [
        {
          "internalType": "SD59x18",
          "name": "",
          "type": "int256"
        }
      ],
      "stateMutability": "view",
      "type": "function"
    },
    {
      "inputs": [
        {
          "internalType": "uint256",
          "name": "id",
          "type": "uint256"
        }
      ],
      "name": "calculateDebtContractValue",
      "outputs": [
        {
          "internalType": "SD59x18",
          "name": "",
          "type": "int256"
        }
      ],
      "stateMutability": "view",
      "type": "function"
    },
    {
      "inputs": [
        {
          "internalType": "uint256",
          "name": "id",
          "type": "uint256"
        }
      ],
      "name": "pay",
      "outputs": [],
      "stateMutability": "nonpayable",
      "type": "function"
    }
  ],
  "bytecode": "0x60806040523480156200001157600080fd5b5060405162004d2a38038062004d2a833981810160405281019062000037919062000287565b6000600160006101000a81548160ff0219169083151502179055506200006460006200013160201b60201c565b60068190555080600760006101000a81548173ffffffffffffffffffffffffffffffffffffffff021916908373ffffffffffffffffffffffffffffffffffffffff160217905550620000f16040518060400160405280601381526020017f54657374696e6720636f6e736f6c652e6c6f67000000000000000000000000008152506200014b60201b60201c565b620001096608c30f2db2bee06200013160201b60201c565b6005819055506000600860146101000a81548160ff0219169083151502179055505062000377565b60006200014482620001ee60201b60201c565b9050919050565b620001eb8160405160240162000162919062000353565b6040516020818303038152906040527f41304fac000000000000000000000000000000000000000000000000000000007bffffffffffffffffffffffffffffffffffffffffffffffffffffffff19166020820180517bffffffffffffffffffffffffffffffffffffffffffffffffffffffff8381831617835250505050620001f860201b60201c565b50565b6000819050919050565b60006a636f6e736f6c652e6c6f6790508151602083016000808383865afa5050505050565b600080fd5b600073ffffffffffffffffffffffffffffffffffffffff82169050919050565b60006200024f8262000222565b9050919050565b620002618162000242565b81146200026d57600080fd5b50565b600081519050620002818162000256565b92915050565b600060208284031215620002a0576200029f6200021d565b5b6000620002b08482850162000270565b91505092915050565b600081519050919050565b600082825260208201905092915050565b60005b83811015620002f5578082015181840152602081019050620002d8565b60008484015250505050565b6000601f19601f8301169050919050565b60006200031f82620002b9565b6200032b8185620002c4565b93506200033d818560208601620002d5565b620003488162000301565b840191505092915050565b600060208201905081810360008301526200036f818462000312565b905092915050565b6149a380620003876000396000f3fe608060405234801561001057600080fd5b50600436106101a95760003560e01c806361bca8da116100f9578063b5f437a311610097578063d547741f11610071578063d547741f146104e0578063dc1d4fb7146104fc578063ee8703ee14610506578063fa03aad014610536576101a9565b8063b5f437a314610464578063c290d69114610494578063cabe970e146104b0576101a9565b80637cf38157116100d35780637cf38157146103b657806391d14854146103e6578063a12f629614610416578063a217fddf14610446576101a9565b806361bca8da14610360578063717198d51461037c57806375fb531914610398576101a9565b806336568abe116101665780635aa79c30116101405780635aa79c30146102d85780635bd48d6d146102f65780635c975abb1461032657806360a6cde114610344576101a9565b806336568abe1461029457806349d35b09146102b05780634c761240146102ce576101a9565b806301ffc9a7146101ae57806318f7f9c7146101de578063201fbe63146101fa578063248a9ca314610218578063281d294d146102485780632f2ff15d14610278575b600080fd5b6101c860048036038101906101c391906137b5565b610566565b6040516101d591906137fd565b60405180910390f35b6101f860048036038101906101f39190613876565b6105e0565b005b61020261060d565b60405161020f9190613933565b60405180910390f35b610232600480360381019061022d919061398b565b610633565b60405161023f91906139c7565b60405180910390f35b610262600480360381019061025d9190613a18565b610652565b60405161026f9190613a80565b60405180910390f35b610292600480360381019061028d9190613a9b565b610667565b005b6102ae60048036038101906102a99190613a9b565b610688565b005b6102b861070b565b6040516102c59190613a80565b60405180910390f35b6102d6610711565b005b6102e061071b565b6040516102ed9190613a80565b60405180910390f35b610310600480360381019061030b9190613b11565b610721565b60405161031d9190613a80565b60405180910390f35b61032e6108cd565b60405161033b91906137fd565b60405180910390f35b61035e60048036038101906103599190613876565b6108e4565b005b61037a60048036038101906103759190613c73565b610963565b005b61039660048036038101906103919190613a18565b610999565b005b6103a06109a3565b6040516103ad91906139c7565b60405180910390f35b6103d060048036038101906103cb9190613cfb565b6109c7565b6040516103dd9190613d71565b60405180910390f35b61040060048036038101906103fb9190613a9b565b610ce0565b60405161040d91906137fd565b60405180910390f35b610430600480360381019061042b9190613d8c565b610d4a565b60405161043d9190613a80565b60405180910390f35b61044e610e13565b60405161045b91906139c7565b60405180910390f35b61047e60048036038101906104799190613a18565b610e1a565b60405161048b9190613933565b60405180910390f35b6104ae60048036038101906104a99190613b11565b6110c8565b005b6104ca60048036038101906104c59190613b11565b611539565b6040516104d79190613d71565b60405180910390f35b6104fa60048036038101906104f59190613a9b565b61155d565b005b61050461157e565b005b610520600480360381019061051b9190613b11565b611588565b60405161052d9190613a80565b60405180910390f35b610550600480360381019061054b9190613df3565b6115c2565b60405161055d9190613a80565b60405180910390f35b60007f7965db0b000000000000000000000000000000000000000000000000000000007bffffffffffffffffffffffffffffffffffffffffffffffffffffffff1916827bffffffffffffffffffffffffffffffffffffffffffffffffffffffff191614806105d957506105d882611669565b5b9050919050565b61060a7f4e8e4103f8a7bb86e2b34057884c362523b15b127fc3c34b8f6e81545bd455b0826116d3565b50565b60606000610622670e083032ce3a71bc6117b3565b905061062d81610e1a565b91505090565b6000806000838152602001908152602001600020600101549050919050565b6000610660600554836115c2565b9050919050565b61067082610633565b610679816117c5565b61068383836116d3565b505050565b6106906117d9565b73ffffffffffffffffffffffffffffffffffffffff168173ffffffffffffffffffffffffffffffffffffffff16146106fd576040517f08c379a00000000000000000000000000000000000000000000000000000000081526004016106f490613ea5565b60405180910390fd5b61070782826117e1565b5050565b60065481565b6107196118c2565b565b60055481565b60008061072d83611588565b9050600060036000858152602001908152602001600020905061076661075360006117b3565b826005015461192590919063ffffffff16565b156107755781925050506108c8565b60006107848260080154610652565b90506107a261079360006117b3565b8261194390919063ffffffff16565b156107c8576107be82600501548461196090919063ffffffff16565b93505050506108c8565b60006107d460006117b3565b905060005b6107e68460050154611af0565b8110156108aa5760006108028285611b0d90919063ffffffff16565b905061082061081160006117b3565b82611c3490919063ffffffff16565b61085f576040517f08c379a000000000000000000000000000000000000000000000000000000000815260040161085690613f11565b60405180910390fd5b61089461088582610877670de0b6b3a76400006117b3565b611c5290919063ffffffff16565b84611deb90919063ffffffff16565b92505080806108a290613f60565b9150506107d9565b506108be848261196090919063ffffffff16565b9050809450505050505b919050565b6000600160009054906101000a900460ff16905090565b60001515600860149054906101000a900460ff1615151461090457600080fd5b80600860006101000a81548173ffffffffffffffffffffffffffffffffffffffff021916908373ffffffffffffffffffffffffffffffffffffffff1602179055506001600860146101000a81548160ff02191690831515021790555050565b6109958261097083610e1a565b60405160200161098192919061400a565b604051602081830303815290604052611e19565b5050565b8060058190555050565b7f4e8e4103f8a7bb86e2b34057884c362523b15b127fc3c34b8f6e81545bd455b081565b6000600260008154809291906109dc90613f60565b91905055506000600360006002548152602001908152602001600020905060018160000160006101000a81548160ff021916908315150217905550858160000160016101000a81548173ffffffffffffffffffffffffffffffffffffffff021916908373ffffffffffffffffffffffffffffffffffffffff160217905550610a6385611eb2565b8160020181905550610a7485611eb2565b8160030181905550610a8584611eb2565b8160040181905550610a9684611eb2565b8160050181905550610ab9662386f26fc1000084610ab4919061403d565b6117b3565b81600801819055506000610ad08260020154611fb6565b9050600760009054906101000a900473ffffffffffffffffffffffffffffffffffffffff1673ffffffffffffffffffffffffffffffffffffffff166340c10f1988836040518363ffffffff1660e01b8152600401610b2f9291906140c4565b600060405180830381600087803b158015610b4957600080fd5b505af1158015610b5d573d6000803e3d6000fd5b505050506000610b6e600254610721565b9050808360070181905550610b8e81600654611deb90919063ffffffff16565b6006819055507f2e85d0ccfb2575477fd9a871ba6d80eb2b90fa1c8abf7a00acb692e0bf743977610bc0600654610e1a565b604051610bcd9190613933565b60405180910390a18773ffffffffffffffffffffffffffffffffffffffff166002547f20854106929a6c264e91a7975a730cb3a217866133beba86cd57d53b9fc97d95610c1d8660020154610e1a565b610c2a8760040154610e1a565b610c378860080154610e1a565b604051610c46939291906140ed565b60405180910390a3600860009054906101000a900473ffffffffffffffffffffffffffffffffffffffff1673ffffffffffffffffffffffffffffffffffffffff1663fcedbc436040518163ffffffff1660e01b8152600401600060405180830381600087803b158015610cb857600080fd5b505af1158015610ccc573d6000803e3d6000fd5b505050506002549350505050949350505050565b600080600084815260200190815260200160002060000160008373ffffffffffffffffffffffffffffffffffffffff1673ffffffffffffffffffffffffffffffffffffffff16815260200190815260200160002060009054906101000a900460ff16905092915050565b600080610d5786866115c2565b90506000610d91610d7a610d6b6001611eb2565b87611deb90919063ffffffff16565b610d838461200b565b61209b90919063ffffffff16565b9050610daf610da060006117b3565b8261194390919063ffffffff16565b15610dc157610dbe6001611eb2565b90505b6000610e03610de2610dd36001611eb2565b88611deb90919063ffffffff16565b610df5848861196090919063ffffffff16565b611c5290919063ffffffff16565b9050809350505050949350505050565b6000801b81565b6060600080604051806020016040528060008152509050610e4d610e3e60006117b3565b8561211b90919063ffffffff16565b15610e9a57610e5b8461200b565b91506040518060400160405280600181526020017f2d000000000000000000000000000000000000000000000000000000000000008152509050610e9e565b8391505b6000610ea983612138565b90506000610ec0828561220590919063ffffffff16565b90506000610ed5610ed084611af0565b612233565b90506000610eea610ee584611fb6565b612233565b905060008190506000601267ffffffffffffffff811115610f0e57610f0d613b48565b5b6040519080825280601f01601f191660200182016040528015610f405781602001600182028036833780820191505090505b50905060128251101561109457600082516012610f5d9190614139565b905060005b601281101561105957808211610fe257838282610f7f9190614139565b81518110610f9057610f8f61416d565b5b602001015160f81c60f81b838281518110610fae57610fad61416d565b5b60200101907effffffffffffffffffffffffffffffffffffffffffffffffffffffffffffff1916908160001a905350611046565b7f30000000000000000000000000000000000000000000000000000000000000008382815181106110165761101561416d565b5b60200101907effffffffffffffffffffffffffffffffffffffffffffffffffffffffffffff1916908160001a9053505b808061105190613f60565b915050610f62565b506000829050888682604051602001611074939291906141c2565b6040516020818303038152906040529a50505050505050505050506110c3565b8684846040516020016110a9939291906141c2565b604051602081830303815290604052985050505050505050505b919050565b600060036000838152602001908152602001600020905060006110ea83611588565b905060006110fb8360080154610652565b905061111481846003015461196090919063ffffffff16565b836003018190555061113c61112960006117b3565b846005015461192590919063ffffffff16565b156111985761115883600301548361194390919063ffffffff16565b611197576040517f08c379a000000000000000000000000000000000000000000000000000000000815260040161118e9061424e565b60405180910390fd5b5b6111af82846003015461220590919063ffffffff16565b836003018190555060006111c285610721565b90506111ef84600701546111e183600654611deb90919063ffffffff16565b61220590919063ffffffff16565b60068190555080846007018190555082846006018190555061122761121460006117b3565b856005015461192590919063ffffffff16565b156113675761124c61123960006117b3565b856003015461194390919063ffffffff16565b61128b576040517f08c379a0000000000000000000000000000000000000000000000000000000008152600401611282906142ba565b60405180910390fd5b6112ab61129860006117b3565b856005015461194390919063ffffffff16565b6112ea576040517f08c379a00000000000000000000000000000000000000000000000000000000081526004016112e190614326565b60405180910390fd5b6113066112f760006117b3565b8261194390919063ffffffff16565b611345576040517f08c379a000000000000000000000000000000000000000000000000000000000815260040161133c90614392565b60405180910390fd5b60008460000160006101000a81548160ff021916908315150217905550611390565b6113876113746001611eb2565b856005015461220590919063ffffffff16565b84600501819055505b600760009054906101000a900473ffffffffffffffffffffffffffffffffffffffff1673ffffffffffffffffffffffffffffffffffffffff166379cc6790336113d886611fb6565b6040518363ffffffff1660e01b81526004016113f59291906140c4565b600060405180830381600087803b15801561140f57600080fd5b505af1158015611423573d6000803e3d6000fd5b505050503373ffffffffffffffffffffffffffffffffffffffff16857f8414c4055ef6c6b82056a6b49e345cf2650f9026594312141fcfd64a579fa1f061146986610e1a565b6114768860030154610e1a565b6114838960050154610e1a565b61148c87610e1a565b611497600654610e1a565b6040516114a89594939291906143b2565b60405180910390a3600860009054906101000a900473ffffffffffffffffffffffffffffffffffffffff1673ffffffffffffffffffffffffffffffffffffffff1663fcedbc436040518163ffffffff1660e01b8152600401600060405180830381600087803b15801561151a57600080fd5b505af115801561152e573d6000803e3d6000fd5b505050505050505050565b6004818154811061154957600080fd5b906000526020600020016000915090505481565b61156682610633565b61156f816117c5565b61157983836117e1565b505050565b611586612301565b565b6000806003600084815260200190815260200160002090506115ba600554826008015483600501548460030154610d4a565b915050919050565b6000806115d8838561196090919063ffffffff16565b90506115f66115e760006117b3565b8261236390919063ffffffff16565b1561161e576116176116086001611eb2565b82611deb90919063ffffffff16565b905061165f565b61163a61162b60006117b3565b8261211b90919063ffffffff16565b1561165e5761165b61164c6001611eb2565b8261220590919063ffffffff16565b90505b5b8091505092915050565b60007f01ffc9a7000000000000000000000000000000000000000000000000000000007bffffffffffffffffffffffffffffffffffffffffffffffffffffffff1916827bffffffffffffffffffffffffffffffffffffffffffffffffffffffff1916149050919050565b6116dd8282610ce0565b6117af57600160008084815260200190815260200160002060000160008373ffffffffffffffffffffffffffffffffffffffff1673ffffffffffffffffffffffffffffffffffffffff16815260200190815260200160002060006101000a81548160ff0219169083151502179055506117546117d9565b73ffffffffffffffffffffffffffffffffffffffff168173ffffffffffffffffffffffffffffffffffffffff16837f2f8788117e7eff1d82e926ec794901d17c78024a50270940304540a733656f0d60405160405180910390a45b5050565b60006117be82612380565b9050919050565b6117d6816117d16117d9565b61238a565b50565b600033905090565b6117eb8282610ce0565b156118be57600080600084815260200190815260200160002060000160008373ffffffffffffffffffffffffffffffffffffffff1673ffffffffffffffffffffffffffffffffffffffff16815260200190815260200160002060006101000a81548160ff0219169083151502179055506118636117d9565b73ffffffffffffffffffffffffffffffffffffffff168173ffffffffffffffffffffffffffffffffffffffff16837ff6391f5c32d9c69d2a47ea670b442974b53935d1edc7fd64eb21e047a839171b60405160405180910390a45b5050565b6118ca61240f565b6000600160006101000a81548160ff0219169083151502179055507f5db9ee0a495bf2e6ff9c91a7834c1ba4fdd244a5e8aa4e537bd38aeae4b073aa61190e6117d9565b60405161191b9190614428565b60405180910390a1565b600061193082612458565b61193984612458565b1315905092915050565b600061194e82612458565b61195784612458565b14905092915050565b60008061196c84612458565b9050600061197984612458565b90507f80000000000000000000000000000000000000000000000000000000000000008214806119c857507f800000000000000000000000000000000000000000000000000000000000000081145b156119ff576040517fa6070c2500000000000000000000000000000000000000000000000000000000815260040160405180910390fd5b60008060008412611a105783611a15565b836000035b915060008312611a255782611a2a565b826000035b90506000611a388383612462565b90507f7fffffffffffffffffffffffffffffffffffffffffffffffffffffffffffffff811115611aa15787876040517f120b5b43000000000000000000000000000000000000000000000000000000008152600401611a98929190614443565b60405180910390fd5b60007fffffffffffffffffffffffffffffffffffffffffffffffffffffffffffffffff858718139050611ae281611adb5782600003611add565b825b612380565b965050505050505092915050565b6000670de0b6b3a764000082611b06919061449b565b9050919050565b600080611b21611b1c8561200b565b612458565b90506000806001851611611b3d57670de0b6b3a7640000611b3f565b815b90506000849050600181901c90505b6000811115611b8857611b618384612462565b92506000600182161115611b7c57611b798284612462565b91505b600181901c9050611b4e565b7f7fffffffffffffffffffffffffffffffffffffffffffffffffffffffffffffff821115611bef5785856040517f8f053ff6000000000000000000000000000000000000000000000000000000008152600401611be6929190614505565b60405180910390fd5b6000829050600080611c0089612458565b128015611c0f57506001808816145b90508015611c1e578160000391505b611c2782612380565b9550505050505092915050565b6000611c3f82612458565b611c4884612458565b1415905092915050565b600080611c5e84612458565b90506000611c6b84612458565b90507f8000000000000000000000000000000000000000000000000000000000000000821480611cba57507f800000000000000000000000000000000000000000000000000000000000000081145b15611cf1576040517f9fe2b45000000000000000000000000000000000000000000000000000000000815260040160405180910390fd5b60008060008412611d025783611d07565b836000035b915060008312611d175782611d1c565b826000035b90506000611d3383670de0b6b3a76400008461254d565b90507f7fffffffffffffffffffffffffffffffffffffffffffffffffffffffffffffff811115611d9c5787876040517fd49c26b3000000000000000000000000000000000000000000000000000000008152600401611d93929190614443565b60405180910390fd5b60007fffffffffffffffffffffffffffffffffffffffffffffffffffffffffffffffff858718139050611ddd81611dd65782600003611dd8565b825b612380565b965050505050505092915050565b6000611e11611df983612458565b611e0285612458565b611e0c919061452e565b612380565b905092915050565b611eaf81604051602401611e2d9190613933565b6040516020818303038152906040527f41304fac000000000000000000000000000000000000000000000000000000007bffffffffffffffffffffffffffffffffffffffffffffffffffffffff19166020820180517bffffffffffffffffffffffffffffffffffffffffffffffffffffffff8381831617835250505050612664565b50565b6000670de0b6b3a76400007f8000000000000000000000000000000000000000000000000000000000000000611ee8919061449b565b821215611f2c57816040517f99474eeb000000000000000000000000000000000000000000000000000000008152600401611f239190614581565b60405180910390fd5b670de0b6b3a76400007f7fffffffffffffffffffffffffffffffffffffffffffffffffffffffffffffff611f60919061449b565b821315611fa457816040517f9d581091000000000000000000000000000000000000000000000000000000008152600401611f9b9190614581565b60405180910390fd5b670de0b6b3a764000082029050919050565b600080829050600081121561200257826040517f2463f3d5000000000000000000000000000000000000000000000000000000008152600401611ff99190613a80565b60405180910390fd5b80915050919050565b60008061201783612458565b90507f80000000000000000000000000000000000000000000000000000000000000008103612072576040517fec2b9e6700000000000000000000000000000000000000000000000000000000815260040160405180910390fd5b600081126120805782612093565b6120928161208d9061459c565b612380565b5b915050919050565b6000806120a784612458565b905060006120b484612458565b9050600082036120de57600081146120cd5760006120d7565b670de0b6b3a76400005b9250612113565b670de0b6b3a764000081036120f557849250612112565b61210f61210a61210487612689565b86611960565b61281c565b92505b5b505092915050565b600061212682612458565b61212f84612458565b12905092915050565b60008061214483612458565b90507f8000000000000000000000000000000000000000000000000afdc366fbc000008112156121ab57826040517f270640540000000000000000000000000000000000000000000000000000000081526004016121a29190613a80565b60405180910390fd5b6000670de0b6b3a7640000826121c191906145e4565b9050600081036121d3578392506121fe565b6000818303905060008312156121f157670de0b6b3a7640000810390505b6121fa81612380565b9350505b5050919050565b600061222b61221383612458565b61221c85612458565b6122269190614615565b612380565b905092915050565b60606000600161224284612939565b01905060008167ffffffffffffffff81111561226157612260613b48565b5b6040519080825280601f01601f1916602001820160405280156122935781602001600182028036833780820191505090505b509050600082602001820190505b6001156122f6578080600190039150507f3031323334353637383961626364656600000000000000000000000000000000600a86061a8153600a85816122ea576122e961446c565b5b049450600085036122a1575b819350505050919050565b612309612a8c565b60018060006101000a81548160ff0219169083151502179055507f62e78cea01bee320cd4e420270b5ea74000d11b0c9f74754ebdbfc544b05a25861234c6117d9565b6040516123599190614428565b60405180910390a1565b600061236e82612458565b61237784612458565b13905092915050565b6000819050919050565b6123948282610ce0565b61240b576123a181612ad6565b6123af8360001c6020612b03565b6040516020016123c09291906146f0565b6040516020818303038152906040526040517f08c379a00000000000000000000000000000000000000000000000000000000081526004016124029190613933565b60405180910390fd5b5050565b6124176108cd565b612456576040517f08c379a000000000000000000000000000000000000000000000000000000000815260040161244d90614776565b60405180910390fd5b565b6000819050919050565b60008060008019848609848602925082811083820303915050670de0b6b3a764000081106124c95784846040517f5173648d0000000000000000000000000000000000000000000000000000000081526004016124c0929190614796565b60405180910390fd5b6000670de0b6b3a764000085870990506000820361250457670de0b6b3a764000083816124f9576124f861446c565b5b049350505050612547565b7faccb18165bd6fe31ae1cf318dc5b51eee0e1ba569b88cd74c1773b91fac106696001620400008060000304018483118403026204000083860304170293505050505b92915050565b60008060008019858709858702925082811083820303915050600081036125885783828161257e5761257d61446c565b5b049250505061265d565b8381106125d0578585856040517f63a057780000000000000000000000000000000000000000000000000000000081526004016125c7939291906147bf565b60405180910390fd5b60008486880990508281118203915080830392506000600186190186169050808604955080840493506001818260000304019050808302841793506000600287600302189050808702600203810290508087026002038102905080870260020381029050808702600203810290508087026002038102905080870260020381029050808502955050505050505b9392505050565b60006a636f6e736f6c652e6c6f6790508151602083016000808383865afa5050505050565b60008061269583612458565b9050600081136126dc57826040517f059b101b0000000000000000000000000000000000000000000000000000000081526004016126d39190613a80565b60405180910390fd5b6000670de0b6b3a764000082126126f6576001905061273c565b7fffffffffffffffffffffffffffffffffffffffffffffffffffffffffffffffff9050816ec097ce7bc90715b34b9f1000000000816127385761273761446c565b5b0591505b600061275f670de0b6b3a764000084816127595761275861446c565b5b05612d3f565b90506000670de0b6b3a76400008202905060008285901d9050670de0b6b3a7640000810361279e57612792848302612380565b95505050505050612817565b6000671bc16d674ec80000905060006706f05b59d3b2000090505b60008113156127ff57670de0b6b3a7640000838402816127dc576127db61446c565b5b0592508183126127f3578084019350600183901d92505b600181901d90506127b9565b50848302925061280e83612380565b96505050505050505b919050565b60008061282883612458565b905060008112156128af577ffffffffffffffffffffffffffffffffffffffffffffffffcc22e87f6eb468eeb811215612865576000915050612934565b6128a861288461287f61287a84600003612380565b61281c565b612458565b6ec097ce7bc90715b34b9f1000000000816128a2576128a161446c565b5b05612380565b9150612932565b680a688906bd8b00000081126128fc57826040517f0360d0280000000000000000000000000000000000000000000000000000000081526004016128f39190613a80565b60405180910390fd5b6000670de0b6b3a7640000604083901b8161291a5761291961446c565b5b05905061292e61292982612de8565b612380565b9250505b505b919050565b600080600090507a184f03e93ff9f4daa797ed6e38ed64bf6a1f0100000000000000008310612997577a184f03e93ff9f4daa797ed6e38ed64bf6a1f010000000000000000838161298d5761298c61446c565b5b0492506040810190505b6d04ee2d6d415b85acef810000000083106129d4576d04ee2d6d415b85acef810000000083816129ca576129c961446c565b5b0492506020810190505b662386f26fc100008310612a0357662386f26fc1000083816129f9576129f861446c565b5b0492506010810190505b6305f5e1008310612a2c576305f5e1008381612a2257612a2161446c565b5b0492506008810190505b6127108310612a51576127108381612a4757612a4661446c565b5b0492506004810190505b60648310612a745760648381612a6a57612a6961446c565b5b0492506002810190505b600a8310612a83576001810190505b80915050919050565b612a946108cd565b15612ad4576040517f08c379a0000000000000000000000000000000000000000000000000000000008152600401612acb90614842565b60405180910390fd5b565b6060612afc8273ffffffffffffffffffffffffffffffffffffffff16601460ff16612b03565b9050919050565b606060006002836002612b169190614862565b612b2091906148a4565b67ffffffffffffffff811115612b3957612b38613b48565b5b6040519080825280601f01601f191660200182016040528015612b6b5781602001600182028036833780820191505090505b5090507f300000000000000000000000000000000000000000000000000000000000000081600081518110612ba357612ba261416d565b5b60200101907effffffffffffffffffffffffffffffffffffffffffffffffffffffffffffff1916908160001a9053507f780000000000000000000000000000000000000000000000000000000000000081600181518110612c0757612c0661416d565b5b60200101907effffffffffffffffffffffffffffffffffffffffffffffffffffffffffffff1916908160001a90535060006001846002612c479190614862565b612c5191906148a4565b90505b6001811115612cf1577f3031323334353637383961626364656600000000000000000000000000000000600f861660108110612c9357612c9261416d565b5b1a60f81b828281518110612caa57612ca961416d565b5b60200101907effffffffffffffffffffffffffffffffffffffffffffffffffffffffffffff1916908160001a905350600485901c945080612cea906148d8565b9050612c54565b5060008414612d35576040517f08c379a0000000000000000000000000000000000000000000000000000000008152600401612d2c9061494d565b60405180910390fd5b8091505092915050565b60006fffffffffffffffffffffffffffffffff821160071b82811c925080821791505067ffffffffffffffff821160061b82811c925080821791505063ffffffff821160051b82811c925080821791505061ffff821160041b82811c925080821791505060ff821160031b82811c9250808217915050600f821160021b82811c92508082179150506003821160011b82811c925080821791505060018211808217915050919050565b6000778000000000000000000000000000000000000000000000009050600067ff0000000000000083161115612f4957600067800000000000000083161115612e3e57604068016a09e667f3bcc9098202901c90505b600067400000000000000083161115612e645760406801306fe0a31b7152df8202901c90505b600067200000000000000083161115612e8a5760406801172b83c7d517adce8202901c90505b600067100000000000000083161115612eb057604068010b5586cf9890f62a8202901c90505b600067080000000000000083161115612ed65760406801059b0d31585743ae8202901c90505b600067040000000000000083161115612efc576040680102c9a3e778060ee78202901c90505b600067020000000000000083161115612f2257604068010163da9fb33356d88202901c90505b600067010000000000000083161115612f48576040680100b1afa5abcbed618202901c90505b5b600066ff00000000000083161115613084576000668000000000000083161115612f8057604068010058c86da1c09ea28202901c90505b6000664000000000000083161115612fa55760406801002c605e2e8cec508202901c90505b6000662000000000000083161115612fca576040680100162f3904051fa18202901c90505b6000661000000000000083161115612fef5760406801000b175effdc76ba8202901c90505b6000660800000000000083161115613014576040680100058ba01fb9f96d8202901c90505b600066040000000000008316111561303957604068010002c5cc37da94928202901c90505b600066020000000000008316111561305e5760406801000162e525ee05478202901c90505b600066010000000000008316111561308357604068010000b17255775c048202901c90505b5b600065ff0000000000831611156131b657600065800000000000831611156130b95760406801000058b91b5bc9ae8202901c90505b600065400000000000831611156130dd576040680100002c5c89d5ec6d8202901c90505b6000652000000000008316111561310157604068010000162e43f4f8318202901c90505b60006510000000000083161115613125576040680100000b1721bcfc9a8202901c90505b6000650800000000008316111561314957604068010000058b90cf1e6e8202901c90505b6000650400000000008316111561316d5760406801000002c5c863b73f8202901c90505b60006502000000000083161115613191576040680100000162e430e5a28202901c90505b600065010000000000831611156131b55760406801000000b1721835518202901c90505b5b600064ff00000000831611156132df576000648000000000831611156131e9576040680100000058b90c0b498202901c90505b60006440000000008316111561320c57604068010000002c5c8601cc8202901c90505b60006420000000008316111561322f5760406801000000162e42fff08202901c90505b60006410000000008316111561325257604068010000000b17217fbb8202901c90505b6000640800000000831611156132755760406801000000058b90bfce8202901c90505b600064040000000083161115613298576040680100000002c5c85fe38202901c90505b6000640200000000831611156132bb57604068010000000162e42ff18202901c90505b6000640100000000831611156132de576040680100000000b17217f88202901c90505b5b600064ff000000008316111561340057600063800000008316111561331157604068010000000058b90bfc8202901c90505b60006340000000831611156133335760406801000000002c5c85fe8202901c90505b6000632000000083161115613355576040680100000000162e42ff8202901c90505b60006310000000831611156133775760406801000000000b17217f8202901c90505b6000630800000083161115613399576040680100000000058b90c08202901c90505b60006304000000831611156133bb57604068010000000002c5c8608202901c90505b60006302000000831611156133dd5760406801000000000162e4308202901c90505b60006301000000831611156133ff57604068010000000000b172188202901c90505b5b600062ff000083161115613517576000628000008316111561342f5760406801000000000058b90c8202901c90505b60006240000083161115613450576040680100000000002c5c868202901c90505b6000622000008316111561347157604068010000000000162e438202901c90505b60006210000083161115613492576040680100000000000b17218202901c90505b600062080000831611156134b357604068010000000000058b918202901c90505b600062040000831611156134d45760406801000000000002c5c88202901c90505b600062020000831611156134f5576040680100000000000162e48202901c90505b600062010000831611156135165760406801000000000000b1728202901c90505b5b600061ff008316111561362557600061800083161115613544576040680100000000000058b98202901c90505b60006140008316111561356457604068010000000000002c5d8202901c90505b6000612000831611156135845760406801000000000000162e8202901c90505b6000611000831611156135a457604068010000000000000b178202901c90505b6000610800831611156135c45760406801000000000000058c8202901c90505b6000610400831611156135e4576040680100000000000002c68202901c90505b600061020083161115613604576040680100000000000001638202901c90505b600061010083161115613624576040680100000000000000b18202901c90505b5b600060ff8316111561372a576000608083161115613650576040680100000000000000598202901c90505b600060408316111561366f5760406801000000000000002c8202901c90505b600060208316111561368e576040680100000000000000168202901c90505b60006010831611156136ad5760406801000000000000000b8202901c90505b60006008831611156136cc576040680100000000000000068202901c90505b60006004831611156136eb576040680100000000000000038202901c90505b600060028316111561370a576040680100000000000000018202901c90505b6000600183161115613729576040680100000000000000018202901c90505b5b670de0b6b3a764000081029050604082901c60bf0381901c9050919050565b6000604051905090565b600080fd5b600080fd5b60007fffffffff0000000000000000000000000000000000000000000000000000000082169050919050565b6137928161375d565b811461379d57600080fd5b50565b6000813590506137af81613789565b92915050565b6000602082840312156137cb576137ca613753565b5b60006137d9848285016137a0565b91505092915050565b60008115159050919050565b6137f7816137e2565b82525050565b600060208201905061381260008301846137ee565b92915050565b600073ffffffffffffffffffffffffffffffffffffffff82169050919050565b600061384382613818565b9050919050565b61385381613838565b811461385e57600080fd5b50565b6000813590506138708161384a565b92915050565b60006020828403121561388c5761388b613753565b5b600061389a84828501613861565b91505092915050565b600081519050919050565b600082825260208201905092915050565b60005b838110156138dd5780820151818401526020810190506138c2565b60008484015250505050565b6000601f19601f8301169050919050565b6000613905826138a3565b61390f81856138ae565b935061391f8185602086016138bf565b613928816138e9565b840191505092915050565b6000602082019050818103600083015261394d81846138fa565b905092915050565b6000819050919050565b61396881613955565b811461397357600080fd5b50565b6000813590506139858161395f565b92915050565b6000602082840312156139a1576139a0613753565b5b60006139af84828501613976565b91505092915050565b6139c181613955565b82525050565b60006020820190506139dc60008301846139b8565b92915050565b6000819050919050565b6139f5816139e2565b8114613a0057600080fd5b50565b600081359050613a12816139ec565b92915050565b600060208284031215613a2e57613a2d613753565b5b6000613a3c84828501613a03565b91505092915050565b6000819050919050565b6000613a6a613a65613a60846139e2565b613a45565b6139e2565b9050919050565b613a7a81613a4f565b82525050565b6000602082019050613a956000830184613a71565b92915050565b60008060408385031215613ab257613ab1613753565b5b6000613ac085828601613976565b9250506020613ad185828601613861565b9150509250929050565b6000819050919050565b613aee81613adb565b8114613af957600080fd5b50565b600081359050613b0b81613ae5565b92915050565b600060208284031215613b2757613b26613753565b5b6000613b3584828501613afc565b91505092915050565b600080fd5b600080fd5b7f4e487b7100000000000000000000000000000000000000000000000000000000600052604160045260246000fd5b613b80826138e9565b810181811067ffffffffffffffff82111715613b9f57613b9e613b48565b5b80604052505050565b6000613bb2613749565b9050613bbe8282613b77565b919050565b600067ffffffffffffffff821115613bde57613bdd613b48565b5b613be7826138e9565b9050602081019050919050565b82818337600083830152505050565b6000613c16613c1184613bc3565b613ba8565b905082815260208101848484011115613c3257613c31613b43565b5b613c3d848285613bf4565b509392505050565b600082601f830112613c5a57613c59613b3e565b5b8135613c6a848260208601613c03565b91505092915050565b60008060408385031215613c8a57613c89613753565b5b600083013567ffffffffffffffff811115613ca857613ca7613758565b5b613cb485828601613c45565b9250506020613cc585828601613a03565b9150509250929050565b613cd8816139e2565b8114613ce357600080fd5b50565b600081359050613cf581613ccf565b92915050565b60008060008060808587031215613d1557613d14613753565b5b6000613d2387828801613861565b9450506020613d3487828801613ce6565b9350506040613d4587828801613ce6565b9250506060613d5687828801613ce6565b91505092959194509250565b613d6b81613adb565b82525050565b6000602082019050613d866000830184613d62565b92915050565b60008060008060808587031215613da657613da5613753565b5b6000613db487828801613a03565b9450506020613dc587828801613a03565b9350506040613dd687828801613a03565b9250506060613de787828801613a03565b91505092959194509250565b60008060408385031215613e0a57613e09613753565b5b6000613e1885828601613a03565b9250506020613e2985828601613a03565b9150509250929050565b7f416363657373436f6e74726f6c3a2063616e206f6e6c792072656e6f756e636560008201527f20726f6c657320666f722073656c660000000000000000000000000000000000602082015250565b6000613e8f602f836138ae565b9150613e9a82613e33565b604082019050919050565b60006020820190508181036000830152613ebe81613e82565b9050919050565b7f646973636f756e7420666163746f722077617320300000000000000000000000600082015250565b6000613efb6015836138ae565b9150613f0682613ec5565b602082019050919050565b60006020820190508181036000830152613f2a81613eee565b9050919050565b7f4e487b7100000000000000000000000000000000000000000000000000000000600052601160045260246000fd5b6000613f6b82613adb565b91507fffffffffffffffffffffffffffffffffffffffffffffffffffffffffffffffff8203613f9d57613f9c613f31565b5b600182019050919050565b600081905092915050565b6000613fbe826138a3565b613fc88185613fa8565b9350613fd88185602086016138bf565b80840191505092915050565b7f2000000000000000000000000000000000000000000000000000000000000000815250565b60006140168285613fb3565b915061402182613fe4565b6001820191506140318284613fb3565b91508190509392505050565b6000614048826139e2565b9150614053836139e2565b9250828202614061816139e2565b91507f8000000000000000000000000000000000000000000000000000000000000000841460008412161561409957614098613f31565b5b82820584148315176140ae576140ad613f31565b5b5092915050565b6140be81613838565b82525050565b60006040820190506140d960008301856140b5565b6140e66020830184613d62565b9392505050565b6000606082019050818103600083015261410781866138fa565b9050818103602083015261411b81856138fa565b9050818103604083015261412f81846138fa565b9050949350505050565b600061414482613adb565b915061414f83613adb565b925082820390508181111561416757614166613f31565b5b92915050565b7f4e487b7100000000000000000000000000000000000000000000000000000000600052603260045260246000fd5b7f2e00000000000000000000000000000000000000000000000000000000000000815250565b60006141ce8286613fb3565b91506141da8285613fb3565b91506141e58261419c565b6001820191506141f58284613fb3565b9150819050949350505050565b7f636174617374726f70686963206661696c757265203100000000000000000000600082015250565b60006142386016836138ae565b915061424382614202565b602082019050919050565b600060208201905081810360008301526142678161422b565b9050919050565b7f6366203500000000000000000000000000000000000000000000000000000000600082015250565b60006142a46004836138ae565b91506142af8261426e565b602082019050919050565b600060208201905081810360008301526142d381614297565b9050919050565b7f6366203600000000000000000000000000000000000000000000000000000000600082015250565b60006143106004836138ae565b915061431b826142da565b602082019050919050565b6000602082019050818103600083015261433f81614303565b9050919050565b7f6366203700000000000000000000000000000000000000000000000000000000600082015250565b600061437c6004836138ae565b915061438782614346565b602082019050919050565b600060208201905081810360008301526143ab8161436f565b9050919050565b600060a08201905081810360008301526143cc81886138fa565b905081810360208301526143e081876138fa565b905081810360408301526143f481866138fa565b9050818103606083015261440881856138fa565b9050818103608083015261441c81846138fa565b90509695505050505050565b600060208201905061443d60008301846140b5565b92915050565b60006040820190506144586000830185613a71565b6144656020830184613a71565b9392505050565b7f4e487b7100000000000000000000000000000000000000000000000000000000600052601260045260246000fd5b60006144a6826139e2565b91506144b1836139e2565b9250826144c1576144c061446c565b5b600160000383147f8000000000000000000000000000000000000000000000000000000000000000831416156144fa576144f9613f31565b5b828205905092915050565b600060408201905061451a6000830185613a71565b6145276020830184613d62565b9392505050565b6000614539826139e2565b9150614544836139e2565b92508282019050828112156000831216838212600084121516171561456c5761456b613f31565b5b92915050565b61457b816139e2565b82525050565b60006020820190506145966000830184614572565b92915050565b60006145a7826139e2565b91507f800000000000000000000000000000000000000000000000000000000000000082036145d9576145d8613f31565b5b816000039050919050565b60006145ef826139e2565b91506145fa836139e2565b92508261460a5761460961446c565b5b828207905092915050565b6000614620826139e2565b915061462b836139e2565b925082820390508181126000841216828213600085121516171561465257614651613f31565b5b92915050565b7f416363657373436f6e74726f6c3a206163636f756e7420000000000000000000600082015250565b600061468e601783613fa8565b915061469982614658565b601782019050919050565b7f206973206d697373696e6720726f6c6520000000000000000000000000000000600082015250565b60006146da601183613fa8565b91506146e5826146a4565b601182019050919050565b60006146fb82614681565b91506147078285613fb3565b9150614712826146cd565b915061471e8284613fb3565b91508190509392505050565b7f5061757361626c653a206e6f7420706175736564000000000000000000000000600082015250565b60006147606014836138ae565b915061476b8261472a565b602082019050919050565b6000602082019050818103600083015261478f81614753565b9050919050565b60006040820190506147ab6000830185613d62565b6147b86020830184613d62565b9392505050565b60006060820190506147d46000830186613d62565b6147e16020830185613d62565b6147ee6040830184613d62565b949350505050565b7f5061757361626c653a2070617573656400000000000000000000000000000000600082015250565b600061482c6010836138ae565b9150614837826147f6565b602082019050919050565b6000602082019050818103600083015261485b8161481f565b9050919050565b600061486d82613adb565b915061487883613adb565b925082820261488681613adb565b9150828204841483151761489d5761489c613f31565b5b5092915050565b60006148af82613adb565b91506148ba83613adb565b92508282019050808211156148d2576148d1613f31565b5b92915050565b60006148e382613adb565b9150600082036148f6576148f5613f31565b5b600182039050919050565b7f537472696e67733a20686578206c656e67746820696e73756666696369656e74600082015250565b60006149376020836138ae565b915061494282614901565b602082019050919050565b600060208201905081810360008301526149668161492a565b905091905056fea2646970667358221220030df87883e619754631a22c6af4449f3c9afbefbcfd90b58c6cf461381d2a2364736f6c63430008130033",
  "immutableReferences": {},
  "source": "// SPDX-License-Identifier: UNLICENSED\npragma solidity ^0.8.19;\n\n//import \"@openzeppelin/contracts/access/Ownable.sol\";\nimport \"@openzeppelin/contracts/access/AccessControl.sol\";\nimport { SD59x18, sd, convert } from \"@prb/math/src/SD59x18.sol\";\n// import { UD60x18, ud } from \"@prb/math/src/UD60x18.sol\";\nimport \"@openzeppelin/contracts/utils/math/SafeMath.sol\";\nimport \"@openzeppelin/contracts/security/Pausable.sol\";\nimport \"truffle/console.sol\";\nimport \"@openzeppelin/contracts/utils/Strings.sol\";\nimport \"./SelfSovereignToken.sol\";\nimport \"./SelfSovereignMoneySystem.sol\";\nimport \"./Utils.sol\";\n\n// This contract is an MVP, a proper contract would be way more complex\ncontract DebtContracts is AccessControl, Pausable, Utils {\n    //using UD60x18 for uint256;\n    //using SD59x18 for int256;\n    /*\n        Encapsulate all personal variables, such as credit history, income, employement, savings, debt-to-income ratio, personal liquid assets, personal illiquid assets, etc.. into a single metric (1) for simplicity and MVPiniess, (2) for privacy. Can these variables be zkified? This variable can be called creditwhortiness. Increase the decentralization of these variables, so that they cannot be manipulated, ex: get employement from employer, degree from university, value of liquid assets from wallet, etc etc.\n\n        Assume montly payments happens exactly when they should, no early payback, exact repayments, etc\n    */\n    bytes32 public constant QLE_ROLE = keccak256(\"QLE_ROLE\");\n\n    // MVP: 256 variables because I like to pay for gas\n    // Use SD59x18 for now for everything to make it simple\n    struct DebtContract {\n        bool activated;\n        address borrower; // const\n        // address qualifiedLegalEntity; // const\n        //SD59x18 creditworthiness;\n        //SD59x18 loanCategory;\n        //SD59x18 collateralCategory; \n        //SD59x18 collateralValue;\n        // address collateral;\n        SD59x18 principalOriginal;\n        SD59x18 principalTotal; // The principal at the start of the loan, how much money was borrowed?\n        SD59x18 remainingDebt; // the remaining debt\n        SD59x18 totalPaymentPeriods; // how many months\n        SD59x18 remainingPaymentPeriods;\n        SD59x18 lastMonthlyPaymentAmount;\n        SD59x18 lastPresentValue;\n        SD59x18 interestRateMultiplier;\n    }\n\n    uint256 private nonce;\n    mapping(uint256 => DebtContract) debtContracts;\n    uint[] public preliminaryDebtContracts;\n    SD59x18 public systemInterestRate;\n    SD59x18 public pooledDebtContractValue;\n\n    event DebtContractCreated(uint256 indexed id, address indexed borrower, string principalTotal, string totalPaymentPeriods, string interestRateMultiplier);\n    event PaymentMade(uint256 indexed id, address indexed payer, string paymentAmount, string remainingDebt, string remainingPaymentPeriods, string dcPresentValue, string pdcPresentValue);\n    event UpdatedPooledDebtContractValue(string value);\n\n    SelfSovereignToken SST;\n    SelfSovereignMoneySystem SSMS;\n    \n    bool secondInitRan;\n    constructor(address _addrSST) {\n        pooledDebtContractValue = sd(0);\n        SST = SelfSovereignToken(_addrSST);\n        console.log(\"Testing console.log\");\n        systemInterestRate = sd(0.0024662697723e18);\n        secondInitRan = false;\n    }\n\n    function secondInit(address _addrSMSS) external {\n        require(secondInitRan == false);\n        SSMS = SelfSovereignMoneySystem(_addrSMSS);\n        secondInitRan = true;\n    }\n\n    /**\n    * @dev Pauses the creation of new debt contracts during a tau cycle to process new debt applications\n    */\n    function pauseSystem() external {\n        _pause();\n    }\n\n    /**\n    * @dev Unpauses the system after the tau cycles finnishes\n    */\n    function unpauseSystem() external {\n        _unpause();\n    }\n\n    /**\n     * @dev Sets the system interest rate\n     * @param _systemInterestRate The new system interest rate, in basis points\n     */\n    function setSystemInterestRate(SD59x18 _systemInterestRate) external {\n        systemInterestRate = _systemInterestRate;\n    }\n\n    /**\n    * @dev Grants the QLE role to the specified address.\n    * @param _qle The address to grant the QLE role to.\n    */\n    function grantQLERole(address _qle) external {\n        _grantRole(QLE_ROLE, _qle);\n    }\n\n    event Debugg(string desc, string s);\n\n    /**\n    * @dev Creates a new debt contract and stores it in the `debtContracts` mapping.\n    * @param borrower The address of the borrower.\n    * @param principalTotal The total principal of the loan, as a SD59x18 number.\n    * @param totalPaymentPeriods The total number of payment periods for the loan, as a SD59x18 number.\n    * @param interestRateMultiplier The interest rate multiplier for the loan. Will be multiplied with 0.01. So 100% -> 100 (equal to systemInterestRate)\n    * @return ID nonce of the new debt contract.\n    */\n    function createDebtContract(\n        address borrower,\n        int256 principalTotal,\n        int256 totalPaymentPeriods,\n        int256 interestRateMultiplier\n    ) public returns (uint256) {\n        // temp anyone can call it, but only QLEs should be able to call it\n        nonce++;\n        DebtContract storage newDebtContract = debtContracts[nonce];\n        newDebtContract.activated = true;\n        newDebtContract.borrower = borrower;\n        newDebtContract.principalTotal = convert(principalTotal);\n        newDebtContract.remainingDebt = convert(principalTotal);\n        newDebtContract.totalPaymentPeriods = convert(totalPaymentPeriods);\n        newDebtContract.remainingPaymentPeriods = convert(totalPaymentPeriods);\n        newDebtContract.interestRateMultiplier = sd(interestRateMultiplier * 0.01e18);\n        \n        // consoleLogSD(\"irm\", newDebtContract.interestRateMultiplier);\n            \n        // create SST token and transfer to borrower\n        uint256 amountToMint = newDebtContract.principalTotal.intoUint256();\n\n        // consoleLogSD(\"Amount to mint\", newDebtContract.principalTotal);\n        SST.mint(borrower, amountToMint);\n\n        \n\n        // calculate and add the value to the PDC\n        SD59x18 presentValue = calculateDebtContractValue(nonce);\n        // consoleLogSD(\"pv\", presentValue);\n        \n\n        newDebtContract.lastPresentValue = presentValue;\n\n        pooledDebtContractValue = pooledDebtContractValue.add(presentValue);\n        // consoleLogSD(\"PDCV\", pooledDebtContractValue);\n        emit UpdatedPooledDebtContractValue(SDtoString(pooledDebtContractValue));\n\n        emit DebtContractCreated(nonce, borrower, SDtoString(newDebtContract.principalTotal), SDtoString(newDebtContract.totalPaymentPeriods), SDtoString(newDebtContract.interestRateMultiplier));\n\n        // update system interest rate\n        SSMS.updateSystemInterestRate();\n\n        return nonce;\n    }\n\n    /**\n    * @dev Processes a specified number of preliminary debt contracts and deletes them from the array\n    * @param numContracts The number of contracts to process\n    * @param startTau The starting tau to set for the activated contracts\n    * @return The remaining length of the preliminaryDebtContracts array. \n    */\n    /*\n    function processPreliminaryDebtContracts(uint256 numContracts, uint256 startTau) external onlyOwner whenPaused returns (uint256) {\n        require(preliminaryDebtContracts.length > 0, \"there are no preliminary debt contracts to process\");\n        uint256 lastIndex = preliminaryDebtContracts.length - 1;\n        (bool overflow, uint256 iterationStop) = lastIndex.trySub(numContracts);\n        if (overflow) {\n            iterationStop = 0;\n        }\n        for (uint256 i = lastIndex; i >= iterationStop; i--) {\n            debtContracts[preliminaryDebtContracts[i]].activated = true;\n            debtContracts[preliminaryDebtContracts[i]].startTau = startTau;\n            preliminaryDebtContracts.pop();\n        }\n        return preliminaryDebtContracts.length;\n    }\n    */\n\n    /**\n     * @dev Calculates the next payment for a given debt contract, based on the current state and the interest rate\n     * @param id The id of the debt contract to calculate the next payment for\n     * @return (isLast, nextPaymentAmount) \n     */\n    function calculateNextPayment(uint256 id) public view returns (SD59x18) {\n        DebtContract storage dc = debtContracts[id];\n        return _calculateNextPayment(systemInterestRate, dc.interestRateMultiplier, dc.remainingPaymentPeriods, dc.remainingDebt);\n    }\n\n    function _calculateNextPayment(SD59x18 systemIR, SD59x18 irm, SD59x18 rpp, SD59x18 rd) public view returns (SD59x18) {\n        // according to the simplified formula in the paper\n        //consoleLogSD(\"ssr\", systemInterestRate);\n        SD59x18 specificInterestRate = _calcSpecificInterestRate(systemIR, irm);\n        //consoleLogSD(\"sir\", specificInterestRate);\n        //consoleLogSD(\"111\", convert(1));\n        //consoleLogSD(\"rpp\", dc.remainingPaymentPeriods);\n        //return (false, convert(1));\n        // TODO ADD 1 in formula\n        // consoleLogSD(\"rrp + 1\", rpp.add(convert(1)));\n        SD59x18 tmp = specificInterestRate.abs().pow(rpp.add(convert(1)));\n        // consoleLogSD(\"tmp\", tmp);\n        if (tmp.eq(sd(0))) {\n            tmp = convert(1);\n        }\n        // consoleLogSD(\"tmp\", tmp);/\n        //consoleLogSD(\"tmp\", tmp);\n        SD59x18 nextPayment = rd.mul(tmp).div(rpp.add(convert(1)));\n        //SD59x18 nextPayment = sd(0);\n        // consoleLogSD(\"rd\", rd);\n        // consoleLogSD(\"np\", nextPayment);\n\n        return nextPayment;\n    }\n\n    function calcSpecificInterestRate(SD59x18 irm) public view returns (SD59x18) {\n        return _calcSpecificInterestRate(systemInterestRate, irm);\n    }\n\n    function _calcSpecificInterestRate(SD59x18 systemIR, SD59x18 irm) public view returns (SD59x18) {\n        // consoleLogSD(\"irm\", irm);\n        // consoleLogSD(\"systemIR\", systemIR);\n        SD59x18 specificInterestRate = systemIR.mul(irm);\n        // consoleLogSD(\"sir\", specificInterestRate);\n        if (specificInterestRate.gt(sd(0))) {\n            specificInterestRate = specificInterestRate.add(convert(1));\n        } else if (specificInterestRate.lt(sd(0))) {\n            specificInterestRate = specificInterestRate.sub(convert(1));\n        }\n        // consoleLogSD(\"sir2\", specificInterestRate);\n        return specificInterestRate;\n    }\n\n    /**\n    * @dev Calculates the current value of a debt contract\n    * @param id The ID of the debt contract to calculate the value of\n    * @return The current value of the debt contract\n    */\n    function calculateDebtContractValue(uint256 id) public view returns (SD59x18) {\n        SD59x18 currentMonthlyPayment = calculateNextPayment(id);\n        DebtContract storage dc = debtContracts[id];\n\n        // if this is the last payment the value is the next payment\n        //console.log(\"isLast\", isLast);\n        //consoleLogSD(\"cmp\", currentMonthlyPayment);\n        if (dc.remainingPaymentPeriods.lte(sd(0))) {\n            return currentMonthlyPayment;\n        }\n\n\n        SD59x18 specificInterestRate = calcSpecificInterestRate(dc.interestRateMultiplier);\n        // consoleLogSD(\"sir2\", specificInterestRate);\n        if (specificInterestRate.eq(sd(0))) {\n            // console.log(\"sir 0\");\n            return currentMonthlyPayment.mul(dc.remainingPaymentPeriods);\n        }\n\n        SD59x18 presentValue = sd(0);\n        for (uint i = 0; i < uint(convert(dc.remainingPaymentPeriods)); i++) {\n            SD59x18 discountFactor = specificInterestRate.powu(i);\n            // consoleLogSD(\"df\", discountFactor);\n            require(discountFactor.neq(sd(0)), \"discount factor was 0\");\n            presentValue = presentValue.add(sd(1e18).div(discountFactor));\n            // consoleLogSD(\"ipv\", presentValue);\n        }\n        presentValue = presentValue.mul(currentMonthlyPayment);\n        // consoleLogSD(\"pv\", presentValue);\n        \n        return presentValue;\n    }\n\n    // MISSING: Include time. \n    /**\n    * @dev Processes a payment for the specified debt contract and sets the present value of the PDC. \n    * @param id The ID of the debt contract to process the payment for.\n    */\n    function pay(uint256 id) public {\n        DebtContract storage dc = debtContracts[id];\n        \n        // you dont actually need to supply an amount, because the next payment will be calculated for you\n        \n        SD59x18 nextPayment = calculateNextPayment(id);\n\n        // add interest rate to remainingDebt\n        SD59x18 specificInterestRate = calcSpecificInterestRate(dc.interestRateMultiplier);\n        // consoleLogSD(\"sir\", specificInterestRate);\n        dc.remainingDebt = dc.remainingDebt.mul(specificInterestRate);\n\n        // consoleLogSD(\"nextPayment: \", nextPayment);\n        if (dc.remainingPaymentPeriods.lte(sd(0))) {\n            require(nextPayment.eq(dc.remainingDebt), \"catastrophic failure 1\");\n            // consoleLogSD(\"remaining Payment Periods\", dc.remainingPaymentPeriods);\n        }\n\n        // decrease principal\n        dc.remainingDebt = dc.remainingDebt.sub(nextPayment);\n        // consoleLogSD(\"remaining Principal\", dc.remainingDebt);\n\n        // calculate interest on the remaining principal.\n\n        // calculate present value\n        SD59x18 pv = calculateDebtContractValue(id);\n        // consoleLogSD(\"dcv\", pv);\n\n        // update PDC value\n        pooledDebtContractValue = pooledDebtContractValue.add(pv).sub(dc.lastPresentValue);\n        // consoleLogSD(\"new PDCV\", pooledDebtContractValue);\n\n        // set old \n        dc.lastPresentValue = pv;\n        dc.lastMonthlyPaymentAmount = nextPayment;\n\n        // decrease remaining duration\n        if (dc.remainingPaymentPeriods.lte(sd(0))) {\n            require(dc.remainingDebt.eq(sd(0)), \"cf 5\");\n            require(dc.remainingPaymentPeriods.eq(sd(0)), \"cf 6\");\n            require(pv.eq(sd(0)), \"cf 7\");\n            dc.activated = false;\n            // console.log(\"Last payment hurray!\");\n        } else {\n            dc.remainingPaymentPeriods = dc.remainingPaymentPeriods.sub(convert(1));\n        }\n\n        // consoleLogSD(\"remaining payment periods\", dc.remainingPaymentPeriods);\n    \n        // console.log(\"Burning this\", nextPayment.intoUint256());\n        // For now, instead of sending SST to PDT, just burn it. \n        SST.burnFrom(msg.sender, nextPayment.intoUint256());\n        // console.log(\"Total supply\", SST.totalSupply());\n        // console.log(\"Balance\", SST.balanceOf(msg.sender));\n\n         emit PaymentMade(\n            id, \n            msg.sender, \n            SDtoString(nextPayment), \n            SDtoString(dc.remainingDebt), \n            SDtoString(dc.remainingPaymentPeriods), \n            SDtoString(pv), \n            SDtoString(pooledDebtContractValue)\n        );\n\n        // update system interest rate\n        SSMS.updateSystemInterestRate();\n    }\n\n}",
  "sourcePath": "/Users/kim/projects/E2/prototype/contracts/DebtContracts.sol",
  "compiler": {
    "name": "solc",
    "version": "0.8.19+commit.7dd6d404.Emscripten.clang"
  },
  "schemaVersion": "3.4.13",
  "updatedAt": "2023-03-26T12:42:09.039Z",
  "devdoc": {
    "events": {
      "Paused(address)": {
        "details": "Emitted when the pause is triggered by `account`."
      },
      "RoleAdminChanged(bytes32,bytes32,bytes32)": {
        "details": "Emitted when `newAdminRole` is set as ``role``'s admin role, replacing `previousAdminRole` `DEFAULT_ADMIN_ROLE` is the starting admin for all roles, despite {RoleAdminChanged} not being emitted signaling this. _Available since v3.1._"
      },
      "RoleGranted(bytes32,address,address)": {
        "details": "Emitted when `account` is granted `role`. `sender` is the account that originated the contract call, an admin role bearer except when using {AccessControl-_setupRole}."
      },
      "RoleRevoked(bytes32,address,address)": {
        "details": "Emitted when `account` is revoked `role`. `sender` is the account that originated the contract call:   - if using `revokeRole`, it is the admin role bearer   - if using `renounceRole`, it is the role bearer (i.e. `account`)"
      },
      "Unpaused(address)": {
        "details": "Emitted when the pause is lifted by `account`."
      }
    },
    "kind": "dev",
    "methods": {
      "calculateDebtContractValue(uint256)": {
        "details": "Calculates the current value of a debt contract",
        "params": {
          "id": "The ID of the debt contract to calculate the value of"
        },
        "returns": {
          "_0": "The current value of the debt contract"
        }
      },
      "calculateNextPayment(uint256)": {
        "details": "Calculates the next payment for a given debt contract, based on the current state and the interest rate",
        "params": {
          "id": "The id of the debt contract to calculate the next payment for"
        },
        "returns": {
          "_0": "(isLast, nextPaymentAmount) "
        }
      },
      "createDebtContract(address,int256,int256,int256)": {
        "details": "Creates a new debt contract and stores it in the `debtContracts` mapping.",
        "params": {
          "borrower": "The address of the borrower.",
          "interestRateMultiplier": "The interest rate multiplier for the loan. Will be multiplied with 0.01. So 100% -> 100 (equal to systemInterestRate)",
          "principalTotal": "The total principal of the loan, as a SD59x18 number.",
          "totalPaymentPeriods": "The total number of payment periods for the loan, as a SD59x18 number."
        },
        "returns": {
          "_0": "ID nonce of the new debt contract."
        }
      },
      "getRoleAdmin(bytes32)": {
        "details": "Returns the admin role that controls `role`. See {grantRole} and {revokeRole}. To change a role's admin, use {_setRoleAdmin}."
      },
      "grantQLERole(address)": {
        "details": "Grants the QLE role to the specified address.",
        "params": {
          "_qle": "The address to grant the QLE role to."
        }
      },
      "grantRole(bytes32,address)": {
        "details": "Grants `role` to `account`. If `account` had not been already granted `role`, emits a {RoleGranted} event. Requirements: - the caller must have ``role``'s admin role. May emit a {RoleGranted} event."
      },
      "hasRole(bytes32,address)": {
        "details": "Returns `true` if `account` has been granted `role`."
      },
      "pauseSystem()": {
        "details": "Pauses the creation of new debt contracts during a tau cycle to process new debt applications"
      },
      "paused()": {
        "details": "Returns true if the contract is paused, and false otherwise."
      },
      "pay(uint256)": {
        "details": "Processes a payment for the specified debt contract and sets the present value of the PDC. ",
        "params": {
          "id": "The ID of the debt contract to process the payment for."
        }
      },
      "renounceRole(bytes32,address)": {
        "details": "Revokes `role` from the calling account. Roles are often managed via {grantRole} and {revokeRole}: this function's purpose is to provide a mechanism for accounts to lose their privileges if they are compromised (such as when a trusted device is misplaced). If the calling account had been revoked `role`, emits a {RoleRevoked} event. Requirements: - the caller must be `account`. May emit a {RoleRevoked} event."
      },
      "revokeRole(bytes32,address)": {
        "details": "Revokes `role` from `account`. If `account` had been granted `role`, emits a {RoleRevoked} event. Requirements: - the caller must have ``role``'s admin role. May emit a {RoleRevoked} event."
      },
      "setSystemInterestRate(int256)": {
        "details": "Sets the system interest rate",
        "params": {
          "_systemInterestRate": "The new system interest rate, in basis points"
        }
      },
      "supportsInterface(bytes4)": {
        "details": "See {IERC165-supportsInterface}."
      },
      "unpauseSystem()": {
        "details": "Unpauses the system after the tau cycles finnishes"
      }
    },
    "version": 1
  },
  "userdoc": {
    "errors": {
      "PRBMath_MulDiv18_Overflow(uint256,uint256)": [
        {
          "notice": "Emitted when the ending result in the fixed-point version of `mulDiv` would overflow uint256."
        }
      ],
      "PRBMath_MulDiv_Overflow(uint256,uint256,uint256)": [
        {
          "notice": "Emitted when the ending result in `mulDiv` would overflow uint256."
        }
      ],
      "PRBMath_SD59x18_Abs_MinSD59x18()": [
        {
          "notice": "Emitted when taking the absolute value of `MIN_SD59x18`."
        }
      ],
      "PRBMath_SD59x18_Convert_Overflow(int256)": [
        {
          "notice": "Emitted when converting a basic integer to the fixed-point format overflows SD59x18."
        }
      ],
      "PRBMath_SD59x18_Convert_Underflow(int256)": [
        {
          "notice": "Emitted when converting a basic integer to the fixed-point format underflows SD59x18."
        }
      ],
      "PRBMath_SD59x18_Div_InputTooSmall()": [
        {
          "notice": "Emitted when dividing two numbers and one of them is `MIN_SD59x18`."
        }
      ],
      "PRBMath_SD59x18_Div_Overflow(int256,int256)": [
        {
          "notice": "Emitted when dividing two numbers and one of the intermediary unsigned results overflows SD59x18."
        }
      ],
      "PRBMath_SD59x18_Exp2_InputTooBig(int256)": [
        {
          "notice": "Emitted when taking the binary exponent of a base greater than 192."
        }
      ],
      "PRBMath_SD59x18_Floor_Underflow(int256)": [
        {
          "notice": "Emitted when flooring a number underflows SD59x18."
        }
      ],
      "PRBMath_SD59x18_IntoUint256_Underflow(int256)": [
        {
          "notice": "Emitted when trying to cast an UD60x18 number that doesn't fit in uint256."
        }
      ],
      "PRBMath_SD59x18_Log_InputTooSmall(int256)": [
        {
          "notice": "Emitted when taking the logarithm of a number less than or equal to zero."
        }
      ],
      "PRBMath_SD59x18_Mul_InputTooSmall()": [
        {
          "notice": "Emitted when multiplying two numbers and one of the inputs is `MIN_SD59x18`."
        }
      ],
      "PRBMath_SD59x18_Mul_Overflow(int256,int256)": [
        {
          "notice": "Emitted when multiplying two numbers and the intermediary absolute result overflows SD59x18."
        }
      ],
      "PRBMath_SD59x18_Powu_Overflow(int256,uint256)": [
        {
          "notice": "Emitted when raising a number to a power and hte intermediary absolute result overflows SD59x18."
        }
      ]
    },
    "kind": "user",
    "methods": {},
    "version": 1
  }
}