{
  "contractName": "QualifiedLegalEntites",
  "abi": [
    {
      "inputs": [],
      "stateMutability": "nonpayable",
      "type": "constructor"
    },
    {
      "anonymous": false,
      "inputs": [
        {
          "indexed": true,
          "internalType": "address",
          "name": "previousOwner",
          "type": "address"
        },
        {
          "indexed": true,
          "internalType": "address",
          "name": "newOwner",
          "type": "address"
        }
      ],
      "name": "OwnershipTransferred",
      "type": "event"
    },
    {
      "anonymous": false,
      "inputs": [
        {
          "indexed": true,
          "internalType": "bytes32",
          "name": "role",
          "type": "bytes32"
        },
        {
          "indexed": true,
          "internalType": "bytes32",
          "name": "previousAdminRole",
          "type": "bytes32"
        },
        {
          "indexed": true,
          "internalType": "bytes32",
          "name": "newAdminRole",
          "type": "bytes32"
        }
      ],
      "name": "RoleAdminChanged",
      "type": "event"
    },
    {
      "anonymous": false,
      "inputs": [
        {
          "indexed": true,
          "internalType": "bytes32",
          "name": "role",
          "type": "bytes32"
        },
        {
          "indexed": true,
          "internalType": "address",
          "name": "account",
          "type": "address"
        },
        {
          "indexed": true,
          "internalType": "address",
          "name": "sender",
          "type": "address"
        }
      ],
      "name": "RoleGranted",
      "type": "event"
    },
    {
      "anonymous": false,
      "inputs": [
        {
          "indexed": true,
          "internalType": "bytes32",
          "name": "role",
          "type": "bytes32"
        },
        {
          "indexed": true,
          "internalType": "address",
          "name": "account",
          "type": "address"
        },
        {
          "indexed": true,
          "internalType": "address",
          "name": "sender",
          "type": "address"
        }
      ],
      "name": "RoleRevoked",
      "type": "event"
    },
    {
      "inputs": [],
      "name": "DEFAULT_ADMIN_ROLE",
      "outputs": [
        {
          "internalType": "bytes32",
          "name": "",
          "type": "bytes32"
        }
      ],
      "stateMutability": "view",
      "type": "function",
      "constant": true
    },
    {
      "inputs": [
        {
          "internalType": "bytes32",
          "name": "role",
          "type": "bytes32"
        }
      ],
      "name": "getRoleAdmin",
      "outputs": [
        {
          "internalType": "bytes32",
          "name": "",
          "type": "bytes32"
        }
      ],
      "stateMutability": "view",
      "type": "function",
      "constant": true
    },
    {
      "inputs": [
        {
          "internalType": "bytes32",
          "name": "role",
          "type": "bytes32"
        },
        {
          "internalType": "address",
          "name": "account",
          "type": "address"
        }
      ],
      "name": "grantRole",
      "outputs": [],
      "stateMutability": "nonpayable",
      "type": "function"
    },
    {
      "inputs": [
        {
          "internalType": "bytes32",
          "name": "role",
          "type": "bytes32"
        },
        {
          "internalType": "address",
          "name": "account",
          "type": "address"
        }
      ],
      "name": "hasRole",
      "outputs": [
        {
          "internalType": "bool",
          "name": "",
          "type": "bool"
        }
      ],
      "stateMutability": "view",
      "type": "function",
      "constant": true
    },
    {
      "inputs": [],
      "name": "owner",
      "outputs": [
        {
          "internalType": "address",
          "name": "",
          "type": "address"
        }
      ],
      "stateMutability": "view",
      "type": "function",
      "constant": true
    },
    {
      "inputs": [],
      "name": "renounceOwnership",
      "outputs": [],
      "stateMutability": "nonpayable",
      "type": "function"
    },
    {
      "inputs": [
        {
          "internalType": "bytes32",
          "name": "role",
          "type": "bytes32"
        },
        {
          "internalType": "address",
          "name": "account",
          "type": "address"
        }
      ],
      "name": "renounceRole",
      "outputs": [],
      "stateMutability": "nonpayable",
      "type": "function"
    },
    {
      "inputs": [
        {
          "internalType": "bytes32",
          "name": "role",
          "type": "bytes32"
        },
        {
          "internalType": "address",
          "name": "account",
          "type": "address"
        }
      ],
      "name": "revokeRole",
      "outputs": [],
      "stateMutability": "nonpayable",
      "type": "function"
    },
    {
      "inputs": [
        {
          "internalType": "bytes4",
          "name": "interfaceId",
          "type": "bytes4"
        }
      ],
      "name": "supportsInterface",
      "outputs": [
        {
          "internalType": "bool",
          "name": "",
          "type": "bool"
        }
      ],
      "stateMutability": "view",
      "type": "function",
      "constant": true
    },
    {
      "inputs": [
        {
          "internalType": "address",
          "name": "newOwner",
          "type": "address"
        }
      ],
      "name": "transferOwnership",
      "outputs": [],
      "stateMutability": "nonpayable",
      "type": "function"
    }
  ],
  "bytecode": "0x608060405234801561001057600080fd5b5061002d61002261003260201b60201c565b61003a60201b60201c565b610100565b600033905090565b6000600160009054906101000a900473ffffffffffffffffffffffffffffffffffffffff16905081600160006101000a81548173ffffffffffffffffffffffffffffffffffffffff021916908373ffffffffffffffffffffffffffffffffffffffff1602179055508173ffffffffffffffffffffffffffffffffffffffff168173ffffffffffffffffffffffffffffffffffffffff167f8be0079c531659141344cd1fd0a4f28419497f9722a3daafe3b4186f6b6457e060405160405180910390a35050565b61125c8061010f6000396000f3fe608060405234801561001057600080fd5b506004361061009e5760003560e01c80638da5cb5b116100665780638da5cb5b1461014557806391d1485414610163578063a217fddf14610193578063d547741f146101b1578063f2fde38b146101cd5761009e565b806301ffc9a7146100a3578063248a9ca3146100d35780632f2ff15d1461010357806336568abe1461011f578063715018a61461013b575b600080fd5b6100bd60048036038101906100b89190610b4f565b6101e9565b6040516100ca9190610b97565b60405180910390f35b6100ed60048036038101906100e89190610be8565b610263565b6040516100fa9190610c24565b60405180910390f35b61011d60048036038101906101189190610c9d565b610282565b005b61013960048036038101906101349190610c9d565b6102a3565b005b610143610326565b005b61014d61033a565b60405161015a9190610cec565b60405180910390f35b61017d60048036038101906101789190610c9d565b610364565b60405161018a9190610b97565b60405180910390f35b61019b6103ce565b6040516101a89190610c24565b60405180910390f35b6101cb60048036038101906101c69190610c9d565b6103d5565b005b6101e760048036038101906101e29190610d07565b6103f6565b005b60007f7965db0b000000000000000000000000000000000000000000000000000000007bffffffffffffffffffffffffffffffffffffffffffffffffffffffff1916827bffffffffffffffffffffffffffffffffffffffffffffffffffffffff1916148061025c575061025b82610479565b5b9050919050565b6000806000838152602001908152602001600020600101549050919050565b61028b82610263565b610294816104e3565b61029e83836104f7565b505050565b6102ab6105d7565b73ffffffffffffffffffffffffffffffffffffffff168173ffffffffffffffffffffffffffffffffffffffff1614610318576040517f08c379a000000000000000000000000000000000000000000000000000000000815260040161030f90610db7565b60405180910390fd5b61032282826105df565b5050565b61032e6106c0565b610338600061073e565b565b6000600160009054906101000a900473ffffffffffffffffffffffffffffffffffffffff16905090565b600080600084815260200190815260200160002060000160008373ffffffffffffffffffffffffffffffffffffffff1673ffffffffffffffffffffffffffffffffffffffff16815260200190815260200160002060009054906101000a900460ff16905092915050565b6000801b81565b6103de82610263565b6103e7816104e3565b6103f183836105df565b505050565b6103fe6106c0565b600073ffffffffffffffffffffffffffffffffffffffff168173ffffffffffffffffffffffffffffffffffffffff160361046d576040517f08c379a000000000000000000000000000000000000000000000000000000000815260040161046490610e49565b60405180910390fd5b6104768161073e565b50565b60007f01ffc9a7000000000000000000000000000000000000000000000000000000007bffffffffffffffffffffffffffffffffffffffffffffffffffffffff1916827bffffffffffffffffffffffffffffffffffffffffffffffffffffffff1916149050919050565b6104f4816104ef6105d7565b610804565b50565b6105018282610364565b6105d357600160008084815260200190815260200160002060000160008373ffffffffffffffffffffffffffffffffffffffff1673ffffffffffffffffffffffffffffffffffffffff16815260200190815260200160002060006101000a81548160ff0219169083151502179055506105786105d7565b73ffffffffffffffffffffffffffffffffffffffff168173ffffffffffffffffffffffffffffffffffffffff16837f2f8788117e7eff1d82e926ec794901d17c78024a50270940304540a733656f0d60405160405180910390a45b5050565b600033905090565b6105e98282610364565b156106bc57600080600084815260200190815260200160002060000160008373ffffffffffffffffffffffffffffffffffffffff1673ffffffffffffffffffffffffffffffffffffffff16815260200190815260200160002060006101000a81548160ff0219169083151502179055506106616105d7565b73ffffffffffffffffffffffffffffffffffffffff168173ffffffffffffffffffffffffffffffffffffffff16837ff6391f5c32d9c69d2a47ea670b442974b53935d1edc7fd64eb21e047a839171b60405160405180910390a45b5050565b6106c86105d7565b73ffffffffffffffffffffffffffffffffffffffff166106e661033a565b73ffffffffffffffffffffffffffffffffffffffff161461073c576040517f08c379a000000000000000000000000000000000000000000000000000000000815260040161073390610eb5565b60405180910390fd5b565b6000600160009054906101000a900473ffffffffffffffffffffffffffffffffffffffff16905081600160006101000a81548173ffffffffffffffffffffffffffffffffffffffff021916908373ffffffffffffffffffffffffffffffffffffffff1602179055508173ffffffffffffffffffffffffffffffffffffffff168173ffffffffffffffffffffffffffffffffffffffff167f8be0079c531659141344cd1fd0a4f28419497f9722a3daafe3b4186f6b6457e060405160405180910390a35050565b61080e8282610364565b6108855761081b81610889565b6108298360001c60206108b6565b60405160200161083a929190610fde565b6040516020818303038152906040526040517f08c379a000000000000000000000000000000000000000000000000000000000815260040161087c9190611062565b60405180910390fd5b5050565b60606108af8273ffffffffffffffffffffffffffffffffffffffff16601460ff166108b6565b9050919050565b6060600060028360026108c991906110bd565b6108d391906110ff565b67ffffffffffffffff8111156108ec576108eb611133565b5b6040519080825280601f01601f19166020018201604052801561091e5781602001600182028036833780820191505090505b5090507f30000000000000000000000000000000000000000000000000000000000000008160008151811061095657610955611162565b5b60200101907effffffffffffffffffffffffffffffffffffffffffffffffffffffffffffff1916908160001a9053507f7800000000000000000000000000000000000000000000000000000000000000816001815181106109ba576109b9611162565b5b60200101907effffffffffffffffffffffffffffffffffffffffffffffffffffffffffffff1916908160001a905350600060018460026109fa91906110bd565b610a0491906110ff565b90505b6001811115610aa4577f3031323334353637383961626364656600000000000000000000000000000000600f861660108110610a4657610a45611162565b5b1a60f81b828281518110610a5d57610a5c611162565b5b60200101907effffffffffffffffffffffffffffffffffffffffffffffffffffffffffffff1916908160001a905350600485901c945080610a9d90611191565b9050610a07565b5060008414610ae8576040517f08c379a0000000000000000000000000000000000000000000000000000000008152600401610adf90611206565b60405180910390fd5b8091505092915050565b600080fd5b60007fffffffff0000000000000000000000000000000000000000000000000000000082169050919050565b610b2c81610af7565b8114610b3757600080fd5b50565b600081359050610b4981610b23565b92915050565b600060208284031215610b6557610b64610af2565b5b6000610b7384828501610b3a565b91505092915050565b60008115159050919050565b610b9181610b7c565b82525050565b6000602082019050610bac6000830184610b88565b92915050565b6000819050919050565b610bc581610bb2565b8114610bd057600080fd5b50565b600081359050610be281610bbc565b92915050565b600060208284031215610bfe57610bfd610af2565b5b6000610c0c84828501610bd3565b91505092915050565b610c1e81610bb2565b82525050565b6000602082019050610c396000830184610c15565b92915050565b600073ffffffffffffffffffffffffffffffffffffffff82169050919050565b6000610c6a82610c3f565b9050919050565b610c7a81610c5f565b8114610c8557600080fd5b50565b600081359050610c9781610c71565b92915050565b60008060408385031215610cb457610cb3610af2565b5b6000610cc285828601610bd3565b9250506020610cd385828601610c88565b9150509250929050565b610ce681610c5f565b82525050565b6000602082019050610d016000830184610cdd565b92915050565b600060208284031215610d1d57610d1c610af2565b5b6000610d2b84828501610c88565b91505092915050565b600082825260208201905092915050565b7f416363657373436f6e74726f6c3a2063616e206f6e6c792072656e6f756e636560008201527f20726f6c657320666f722073656c660000000000000000000000000000000000602082015250565b6000610da1602f83610d34565b9150610dac82610d45565b604082019050919050565b60006020820190508181036000830152610dd081610d94565b9050919050565b7f4f776e61626c653a206e6577206f776e657220697320746865207a65726f206160008201527f6464726573730000000000000000000000000000000000000000000000000000602082015250565b6000610e33602683610d34565b9150610e3e82610dd7565b604082019050919050565b60006020820190508181036000830152610e6281610e26565b9050919050565b7f4f776e61626c653a2063616c6c6572206973206e6f7420746865206f776e6572600082015250565b6000610e9f602083610d34565b9150610eaa82610e69565b602082019050919050565b60006020820190508181036000830152610ece81610e92565b9050919050565b600081905092915050565b7f416363657373436f6e74726f6c3a206163636f756e7420000000000000000000600082015250565b6000610f16601783610ed5565b9150610f2182610ee0565b601782019050919050565b600081519050919050565b60005b83811015610f55578082015181840152602081019050610f3a565b60008484015250505050565b6000610f6c82610f2c565b610f768185610ed5565b9350610f86818560208601610f37565b80840191505092915050565b7f206973206d697373696e6720726f6c6520000000000000000000000000000000600082015250565b6000610fc8601183610ed5565b9150610fd382610f92565b601182019050919050565b6000610fe982610f09565b9150610ff58285610f61565b915061100082610fbb565b915061100c8284610f61565b91508190509392505050565b6000601f19601f8301169050919050565b600061103482610f2c565b61103e8185610d34565b935061104e818560208601610f37565b61105781611018565b840191505092915050565b6000602082019050818103600083015261107c8184611029565b905092915050565b6000819050919050565b7f4e487b7100000000000000000000000000000000000000000000000000000000600052601160045260246000fd5b60006110c882611084565b91506110d383611084565b92508282026110e181611084565b915082820484148315176110f8576110f761108e565b5b5092915050565b600061110a82611084565b915061111583611084565b925082820190508082111561112d5761112c61108e565b5b92915050565b7f4e487b7100000000000000000000000000000000000000000000000000000000600052604160045260246000fd5b7f4e487b7100000000000000000000000000000000000000000000000000000000600052603260045260246000fd5b600061119c82611084565b9150600082036111af576111ae61108e565b5b600182039050919050565b7f537472696e67733a20686578206c656e67746820696e73756666696369656e74600082015250565b60006111f0602083610d34565b91506111fb826111ba565b602082019050919050565b6000602082019050818103600083015261121f816111e3565b905091905056fea2646970667358221220de7dd882e00afd94895b3577e8284a67df695002ea3090589c98e93f162bb29a64736f6c63430008130033",
  "immutableReferences": {},
  "source": "// SPDX-License-Identifier: UNLICENSED\npragma solidity ^0.8.19;\n\nimport \"@openzeppelin/contracts/access/AccessControl.sol\";\nimport \"@openzeppelin/contracts/access/Ownable.sol\";\n\ncontract QualifiedLegalEntites is AccessControl, Ownable {\n    constructor() {\n    }\n}",
  "sourcePath": "/Users/kim/projects/E2/prototype/contracts/QualifiedLegalEntites.sol",
  "compiler": {
    "name": "solc",
    "version": "0.8.19+commit.7dd6d404.Emscripten.clang"
  },
  "schemaVersion": "3.4.13",
  "updatedAt": "2023-03-24T22:01:16.040Z",
  "networkType": "ethereum",
  "devdoc": {
    "events": {
      "RoleAdminChanged(bytes32,bytes32,bytes32)": {
        "details": "Emitted when `newAdminRole` is set as ``role``'s admin role, replacing `previousAdminRole` `DEFAULT_ADMIN_ROLE` is the starting admin for all roles, despite {RoleAdminChanged} not being emitted signaling this. _Available since v3.1._"
      },
      "RoleGranted(bytes32,address,address)": {
        "details": "Emitted when `account` is granted `role`. `sender` is the account that originated the contract call, an admin role bearer except when using {AccessControl-_setupRole}."
      },
      "RoleRevoked(bytes32,address,address)": {
        "details": "Emitted when `account` is revoked `role`. `sender` is the account that originated the contract call:   - if using `revokeRole`, it is the admin role bearer   - if using `renounceRole`, it is the role bearer (i.e. `account`)"
      }
    },
    "kind": "dev",
    "methods": {
      "getRoleAdmin(bytes32)": {
        "details": "Returns the admin role that controls `role`. See {grantRole} and {revokeRole}. To change a role's admin, use {_setRoleAdmin}."
      },
      "grantRole(bytes32,address)": {
        "details": "Grants `role` to `account`. If `account` had not been already granted `role`, emits a {RoleGranted} event. Requirements: - the caller must have ``role``'s admin role. May emit a {RoleGranted} event."
      },
      "hasRole(bytes32,address)": {
        "details": "Returns `true` if `account` has been granted `role`."
      },
      "owner()": {
        "details": "Returns the address of the current owner."
      },
      "renounceOwnership()": {
        "details": "Leaves the contract without owner. It will not be possible to call `onlyOwner` functions anymore. Can only be called by the current owner. NOTE: Renouncing ownership will leave the contract without an owner, thereby removing any functionality that is only available to the owner."
      },
      "renounceRole(bytes32,address)": {
        "details": "Revokes `role` from the calling account. Roles are often managed via {grantRole} and {revokeRole}: this function's purpose is to provide a mechanism for accounts to lose their privileges if they are compromised (such as when a trusted device is misplaced). If the calling account had been revoked `role`, emits a {RoleRevoked} event. Requirements: - the caller must be `account`. May emit a {RoleRevoked} event."
      },
      "revokeRole(bytes32,address)": {
        "details": "Revokes `role` from `account`. If `account` had been granted `role`, emits a {RoleRevoked} event. Requirements: - the caller must have ``role``'s admin role. May emit a {RoleRevoked} event."
      },
      "supportsInterface(bytes4)": {
        "details": "See {IERC165-supportsInterface}."
      },
      "transferOwnership(address)": {
        "details": "Transfers ownership of the contract to a new account (`newOwner`). Can only be called by the current owner."
      }
    },
    "version": 1
  },
  "userdoc": {
    "kind": "user",
    "methods": {},
    "version": 1
  }
}