{
  "contractName": "SelfSovereignMoneySystem",
  "abi": [
    {
      "inputs": [
        {
          "internalType": "address",
          "name": "_addrSST",
          "type": "address"
        },
        {
          "internalType": "address",
          "name": "_addrPDT",
          "type": "address"
        },
        {
          "internalType": "address",
          "name": "_addrQLE",
          "type": "address"
        },
        {
          "internalType": "address",
          "name": "_addrDC",
          "type": "address"
        }
      ],
      "stateMutability": "nonpayable",
      "type": "constructor"
    },
    {
      "inputs": [
        {
          "internalType": "uint256",
          "name": "x",
          "type": "uint256"
        },
        {
          "internalType": "uint256",
          "name": "y",
          "type": "uint256"
        }
      ],
      "name": "PRBMath_MulDiv18_Overflow",
      "type": "error"
    },
    {
      "inputs": [
        {
          "internalType": "uint256",
          "name": "x",
          "type": "uint256"
        },
        {
          "internalType": "uint256",
          "name": "y",
          "type": "uint256"
        },
        {
          "internalType": "uint256",
          "name": "denominator",
          "type": "uint256"
        }
      ],
      "name": "PRBMath_MulDiv_Overflow",
      "type": "error"
    },
    {
      "inputs": [
        {
          "internalType": "int256",
          "name": "x",
          "type": "int256"
        }
      ],
      "name": "PRBMath_SD59x18_Convert_Overflow",
      "type": "error"
    },
    {
      "inputs": [
        {
          "internalType": "int256",
          "name": "x",
          "type": "int256"
        }
      ],
      "name": "PRBMath_SD59x18_Convert_Underflow",
      "type": "error"
    },
    {
      "inputs": [],
      "name": "PRBMath_SD59x18_Div_InputTooSmall",
      "type": "error"
    },
    {
      "inputs": [
        {
          "internalType": "SD59x18",
          "name": "x",
          "type": "int256"
        },
        {
          "internalType": "SD59x18",
          "name": "y",
          "type": "int256"
        }
      ],
      "name": "PRBMath_SD59x18_Div_Overflow",
      "type": "error"
    },
    {
      "inputs": [
        {
          "internalType": "SD59x18",
          "name": "x",
          "type": "int256"
        }
      ],
      "name": "PRBMath_SD59x18_Exp2_InputTooBig",
      "type": "error"
    },
    {
      "inputs": [
        {
          "internalType": "SD59x18",
          "name": "x",
          "type": "int256"
        }
      ],
      "name": "PRBMath_SD59x18_Floor_Underflow",
      "type": "error"
    },
    {
      "inputs": [
        {
          "internalType": "SD59x18",
          "name": "x",
          "type": "int256"
        }
      ],
      "name": "PRBMath_SD59x18_IntoUint256_Underflow",
      "type": "error"
    },
    {
      "inputs": [
        {
          "internalType": "SD59x18",
          "name": "x",
          "type": "int256"
        }
      ],
      "name": "PRBMath_SD59x18_Log_InputTooSmall",
      "type": "error"
    },
    {
      "inputs": [],
      "name": "PRBMath_SD59x18_Mul_InputTooSmall",
      "type": "error"
    },
    {
      "inputs": [
        {
          "internalType": "SD59x18",
          "name": "x",
          "type": "int256"
        },
        {
          "internalType": "SD59x18",
          "name": "y",
          "type": "int256"
        }
      ],
      "name": "PRBMath_SD59x18_Mul_Overflow",
      "type": "error"
    },
    {
      "inputs": [],
      "name": "DC",
      "outputs": [
        {
          "internalType": "contract DebtContracts",
          "name": "",
          "type": "address"
        }
      ],
      "stateMutability": "view",
      "type": "function"
    },
    {
      "inputs": [],
      "name": "PDT",
      "outputs": [
        {
          "internalType": "contract PooledDebtToken",
          "name": "",
          "type": "address"
        }
      ],
      "stateMutability": "view",
      "type": "function"
    },
    {
      "inputs": [],
      "name": "QLE",
      "outputs": [
        {
          "internalType": "contract QualifiedLegalEntites",
          "name": "",
          "type": "address"
        }
      ],
      "stateMutability": "view",
      "type": "function"
    },
    {
      "inputs": [],
      "name": "SST",
      "outputs": [
        {
          "internalType": "contract SelfSovereignToken",
          "name": "",
          "type": "address"
        }
      ],
      "stateMutability": "view",
      "type": "function"
    },
    {
      "inputs": [],
      "name": "calculateLastMoneySupplyTarget",
      "outputs": [],
      "stateMutability": "nonpayable",
      "type": "function"
    },
    {
      "inputs": [
        {
          "internalType": "string",
          "name": "s",
          "type": "string"
        },
        {
          "internalType": "SD59x18",
          "name": "n",
          "type": "int256"
        }
      ],
      "name": "consoleLogSD",
      "outputs": [],
      "stateMutability": "view",
      "type": "function"
    },
    {
      "inputs": [
        {
          "internalType": "SD59x18",
          "name": "n",
          "type": "int256"
        }
      ],
      "name": "consoleLogSD",
      "outputs": [],
      "stateMutability": "view",
      "type": "function"
    },
    {
      "inputs": [
        {
          "internalType": "SD59x18",
          "name": "n",
          "type": "int256"
        }
      ],
      "name": "sdToString",
      "outputs": [
        {
          "internalType": "string",
          "name": "",
          "type": "string"
        }
      ],
      "stateMutability": "pure",
      "type": "function"
    }
  ],
  "bytecode": "0x60806040523480156200001157600080fd5b506040516200272a3803806200272a83398181016040528101906200003791906200020a565b836000806101000a81548173ffffffffffffffffffffffffffffffffffffffff021916908373ffffffffffffffffffffffffffffffffffffffff16021790555082600160006101000a81548173ffffffffffffffffffffffffffffffffffffffff021916908373ffffffffffffffffffffffffffffffffffffffff16021790555081600260006101000a81548173ffffffffffffffffffffffffffffffffffffffff021916908373ffffffffffffffffffffffffffffffffffffffff16021790555080600360006101000a81548173ffffffffffffffffffffffffffffffffffffffff021916908373ffffffffffffffffffffffffffffffffffffffff160217905550620001526608c30f2db2bee06200017c60201b60201c565b60048190555060045460058190555042600681905550622820a8600781905550505050506200027c565b60006200018f826200019660201b60201c565b9050919050565b6000819050919050565b600080fd5b600073ffffffffffffffffffffffffffffffffffffffff82169050919050565b6000620001d282620001a5565b9050919050565b620001e481620001c5565b8114620001f057600080fd5b50565b6000815190506200020481620001d9565b92915050565b60008060008060808587031215620002275762000226620001a0565b5b60006200023787828801620001f3565b94505060206200024a87828801620001f3565b93505060406200025d87828801620001f3565b92505060606200027087828801620001f3565b91505092959194509250565b61249e806200028c6000396000f3fe608060405234801561001057600080fd5b50600436106100885760003560e01c80637c64f2361161005b5780637c64f236146100ef578063c49c127a1461010b578063cfe012db14610129578063cff52a4d1461014757610088565b80632383a2301461008d57806361bca8da146100ab5780636a1a2fb7146100c7578063780249cd146100d1575b600080fd5b610095610177565b6040516100a29190611d7a565b60405180910390f35b6100c560048036038101906100c09190611f25565b61019b565b005b6100cf6101d9565b005b6100d961040d565b6040516100e69190611fa2565b60405180910390f35b61010960048036038101906101049190611fbd565b610433565b005b610113610486565b604051610120919061200b565b60405180910390f35b6101316104ac565b60405161013e9190612047565b60405180910390f35b610161600480360381019061015c9190611fbd565b6104d2565b60405161016e91906120e1565b60405180910390f35b60008054906101000a900473ffffffffffffffffffffffffffffffffffffffff1681565b6101d5826040516020016101af9190612165565b6040516020818303038152906040526101c7836104d2565b6101d0846104ec565b610541565b5050565b60006101e66006546105e0565b905060006101f56007546105e0565b90506000610202426105e0565b9050600061021060006106e4565b905060006102398461022b85886106f690919063ffffffff16565b61072490919063ffffffff16565b90506000610246826108bd565b90506102876040518060400160405280600581526020017f6e4c6173740000000000000000000000000000000000000000000000000000008152508261019b565b60006102cb6102bc836102ae61029d60016105e0565b60045461098a90919063ffffffff16565b6109b890919063ffffffff16565b8561098a90919063ffffffff16565b905061030c6040518060400160405280600581526020017f6d5f745f6e0000000000000000000000000000000000000000000000000000008152508261019b565b600061036b61035c61033061032160016105e0565b8661098a90919063ffffffff16565b61034e61033d60016105e0565b60045461098a90919063ffffffff16565b6109b890919063ffffffff16565b8661098a90919063ffffffff16565b90506103ac6040518060400160405280600781526020017f6d5f745f6e7031000000000000000000000000000000000000000000000000008152508261019b565b60006103c184866106f690919063ffffffff16565b90506104026040518060400160405280600381526020017f70746e00000000000000000000000000000000000000000000000000000000008152508261019b565b505050505050505050565b600360009054906101000a900473ffffffffffffffffffffffffffffffffffffffff1681565b6104836040518060400160405280601b81526020017f636f6e7665727465643a2025732c206f726967696e616c3a2025640000000000815250610475836104d2565b61047e846104ec565b610541565b50565b600160009054906101000a900473ffffffffffffffffffffffffffffffffffffffff1681565b600260009054906101000a900473ffffffffffffffffffffffffffffffffffffffff1681565b60606104e56104e083610a38565b610a55565b9050919050565b600080829050600081121561053857826040517f2463f3d500000000000000000000000000000000000000000000000000000000815260040161052f91906121bc565b60405180910390fd5b80915050919050565b6105db838383604051602401610559939291906121f0565b6040516020818303038152906040527f5821efa1000000000000000000000000000000000000000000000000000000007bffffffffffffffffffffffffffffffffffffffffffffffffffffffff19166020820180517bffffffffffffffffffffffffffffffffffffffffffffffffffffffff8381831617835250505050610b23565b505050565b6000670de0b6b3a76400007f80000000000000000000000000000000000000000000000000000000000000006106169190612293565b82121561065a57816040517f99474eeb000000000000000000000000000000000000000000000000000000008152600401610651919061230c565b60405180910390fd5b670de0b6b3a76400007f7fffffffffffffffffffffffffffffffffffffffffffffffffffffffffffffff61068e9190612293565b8213156106d257816040517f9d5810910000000000000000000000000000000000000000000000000000000081526004016106c9919061230c565b60405180910390fd5b670de0b6b3a764000082029050919050565b60006106ef82610b48565b9050919050565b600061071c61070483610b52565b61070d85610b52565b6107179190612327565b610b48565b905092915050565b60008061073084610b52565b9050600061073d84610b52565b90507f800000000000000000000000000000000000000000000000000000000000000082148061078c57507f800000000000000000000000000000000000000000000000000000000000000081145b156107c3576040517f9fe2b45000000000000000000000000000000000000000000000000000000000815260040160405180910390fd5b600080600084126107d457836107d9565b836000035b9150600083126107e957826107ee565b826000035b9050600061080583670de0b6b3a764000084610b5c565b90507f7fffffffffffffffffffffffffffffffffffffffffffffffffffffffffffffff81111561086e5787876040517fd49c26b300000000000000000000000000000000000000000000000000000000815260040161086592919061236a565b60405180910390fd5b60007fffffffffffffffffffffffffffffffffffffffffffffffffffffffffffffffff8587181390506108af816108a857826000036108aa565b825b610b48565b965050505050505092915050565b6000806108c983610b52565b90507f8000000000000000000000000000000000000000000000000afdc366fbc0000081121561093057826040517f2706405400000000000000000000000000000000000000000000000000000000815260040161092791906121bc565b60405180910390fd5b6000670de0b6b3a7640000826109469190612393565b90506000810361095857839250610983565b60008183039050600083121561097657670de0b6b3a7640000810390505b61097f81610b48565b9350505b5050919050565b60006109b061099883610b52565b6109a185610b52565b6109ab91906123c4565b610b48565b905092915050565b6000806109c484610b52565b905060006109d184610b52565b9050600082036109fb57600081146109ea5760006109f4565b670de0b6b3a76400005b9250610a30565b670de0b6b3a76400008103610a1257849250610a2f565b610a2c610a27610a2187610c73565b86610e06565b610f96565b92505b5b505092915050565b6000670de0b6b3a764000082610a4e9190612293565b9050919050565b606060006001610a64846110b3565b01905060008167ffffffffffffffff811115610a8357610a82611dc4565b5b6040519080825280601f01601f191660200182016040528015610ab55781602001600182028036833780820191505090505b509050600082602001820190505b600115610b18578080600190039150507f3031323334353637383961626364656600000000000000000000000000000000600a86061a8153600a8581610b0c57610b0b612235565b5b04945060008503610ac3575b819350505050919050565b60006a636f6e736f6c652e6c6f6790508151602083016000808383865afa5050505050565b6000819050919050565b6000819050919050565b6000806000801985870985870292508281108382030391505060008103610b9757838281610b8d57610b8c612235565b5b0492505050610c6c565b838110610bdf578585856040517f63a05778000000000000000000000000000000000000000000000000000000008152600401610bd693929190612408565b60405180910390fd5b60008486880990508281118203915080830392506000600186190186169050808604955080840493506001818260000304019050808302841793506000600287600302189050808702600203810290508087026002038102905080870260020381029050808702600203810290508087026002038102905080870260020381029050808502955050505050505b9392505050565b600080610c7f83610b52565b905060008113610cc657826040517f059b101b000000000000000000000000000000000000000000000000000000008152600401610cbd91906121bc565b60405180910390fd5b6000670de0b6b3a76400008212610ce05760019050610d26565b7fffffffffffffffffffffffffffffffffffffffffffffffffffffffffffffffff9050816ec097ce7bc90715b34b9f100000000081610d2257610d21612235565b5b0591505b6000610d49670de0b6b3a76400008481610d4357610d42612235565b5b05611206565b90506000670de0b6b3a76400008202905060008285901d9050670de0b6b3a76400008103610d8857610d7c848302610b48565b95505050505050610e01565b6000671bc16d674ec80000905060006706f05b59d3b2000090505b6000811315610de957670de0b6b3a764000083840281610dc657610dc5612235565b5b059250818312610ddd578084019350600183901d92505b600181901d9050610da3565b508483029250610df883610b48565b96505050505050505b919050565b600080610e1284610b52565b90506000610e1f84610b52565b90507f8000000000000000000000000000000000000000000000000000000000000000821480610e6e57507f800000000000000000000000000000000000000000000000000000000000000081145b15610ea5576040517fa6070c2500000000000000000000000000000000000000000000000000000000815260040160405180910390fd5b60008060008412610eb65783610ebb565b836000035b915060008312610ecb5782610ed0565b826000035b90506000610ede83836112af565b90507f7fffffffffffffffffffffffffffffffffffffffffffffffffffffffffffffff811115610f475787876040517f120b5b43000000000000000000000000000000000000000000000000000000008152600401610f3e92919061236a565b60405180910390fd5b60007fffffffffffffffffffffffffffffffffffffffffffffffffffffffffffffffff858718139050610f8881610f815782600003610f83565b825b610b48565b965050505050505092915050565b600080610fa283610b52565b90506000811215611029577ffffffffffffffffffffffffffffffffffffffffffffffffcc22e87f6eb468eeb811215610fdf5760009150506110ae565b611022610ffe610ff9610ff484600003610b48565b610f96565b610b52565b6ec097ce7bc90715b34b9f10000000008161101c5761101b612235565b5b05610b48565b91506110ac565b680a688906bd8b000000811261107657826040517f0360d02800000000000000000000000000000000000000000000000000000000815260040161106d91906121bc565b60405180910390fd5b6000670de0b6b3a7640000604083901b8161109457611093612235565b5b0590506110a86110a38261139a565b610b48565b9250505b505b919050565b600080600090507a184f03e93ff9f4daa797ed6e38ed64bf6a1f0100000000000000008310611111577a184f03e93ff9f4daa797ed6e38ed64bf6a1f010000000000000000838161110757611106612235565b5b0492506040810190505b6d04ee2d6d415b85acef8100000000831061114e576d04ee2d6d415b85acef8100000000838161114457611143612235565b5b0492506020810190505b662386f26fc10000831061117d57662386f26fc10000838161117357611172612235565b5b0492506010810190505b6305f5e10083106111a6576305f5e100838161119c5761119b612235565b5b0492506008810190505b61271083106111cb5761271083816111c1576111c0612235565b5b0492506004810190505b606483106111ee57606483816111e4576111e3612235565b5b0492506002810190505b600a83106111fd576001810190505b80915050919050565b60006fffffffffffffffffffffffffffffffff821160071b82811c925080821791505067ffffffffffffffff821160061b82811c925080821791505063ffffffff821160051b82811c925080821791505061ffff821160041b82811c925080821791505060ff821160031b82811c9250808217915050600f821160021b82811c92508082179150506003821160011b82811c925080821791505060018211808217915050919050565b60008060008019848609848602925082811083820303915050670de0b6b3a764000081106113165784846040517f5173648d00000000000000000000000000000000000000000000000000000000815260040161130d92919061243f565b60405180910390fd5b6000670de0b6b3a764000085870990506000820361135157670de0b6b3a7640000838161134657611345612235565b5b049350505050611394565b7faccb18165bd6fe31ae1cf318dc5b51eee0e1ba569b88cd74c1773b91fac106696001620400008060000304018483118403026204000083860304170293505050505b92915050565b6000778000000000000000000000000000000000000000000000009050600067ff00000000000000831611156114fb576000678000000000000000831611156113f057604068016a09e667f3bcc9098202901c90505b6000674000000000000000831611156114165760406801306fe0a31b7152df8202901c90505b60006720000000000000008316111561143c5760406801172b83c7d517adce8202901c90505b60006710000000000000008316111561146257604068010b5586cf9890f62a8202901c90505b6000670800000000000000831611156114885760406801059b0d31585743ae8202901c90505b6000670400000000000000831611156114ae576040680102c9a3e778060ee78202901c90505b6000670200000000000000831611156114d457604068010163da9fb33356d88202901c90505b6000670100000000000000831611156114fa576040680100b1afa5abcbed618202901c90505b5b600066ff0000000000008316111561163657600066800000000000008316111561153257604068010058c86da1c09ea28202901c90505b60006640000000000000831611156115575760406801002c605e2e8cec508202901c90505b600066200000000000008316111561157c576040680100162f3904051fa18202901c90505b60006610000000000000831611156115a15760406801000b175effdc76ba8202901c90505b60006608000000000000831611156115c6576040680100058ba01fb9f96d8202901c90505b60006604000000000000831611156115eb57604068010002c5cc37da94928202901c90505b60006602000000000000831611156116105760406801000162e525ee05478202901c90505b600066010000000000008316111561163557604068010000b17255775c048202901c90505b5b600065ff000000000083161115611768576000658000000000008316111561166b5760406801000058b91b5bc9ae8202901c90505b6000654000000000008316111561168f576040680100002c5c89d5ec6d8202901c90505b600065200000000000831611156116b357604068010000162e43f4f8318202901c90505b600065100000000000831611156116d7576040680100000b1721bcfc9a8202901c90505b600065080000000000831611156116fb57604068010000058b90cf1e6e8202901c90505b6000650400000000008316111561171f5760406801000002c5c863b73f8202901c90505b60006502000000000083161115611743576040680100000162e430e5a28202901c90505b600065010000000000831611156117675760406801000000b1721835518202901c90505b5b600064ff00000000831611156118915760006480000000008316111561179b576040680100000058b90c0b498202901c90505b6000644000000000831611156117be57604068010000002c5c8601cc8202901c90505b6000642000000000831611156117e15760406801000000162e42fff08202901c90505b60006410000000008316111561180457604068010000000b17217fbb8202901c90505b6000640800000000831611156118275760406801000000058b90bfce8202901c90505b60006404000000008316111561184a576040680100000002c5c85fe38202901c90505b60006402000000008316111561186d57604068010000000162e42ff18202901c90505b600064010000000083161115611890576040680100000000b17217f88202901c90505b5b600064ff00000000831611156119b25760006380000000831611156118c357604068010000000058b90bfc8202901c90505b60006340000000831611156118e55760406801000000002c5c85fe8202901c90505b6000632000000083161115611907576040680100000000162e42ff8202901c90505b60006310000000831611156119295760406801000000000b17217f8202901c90505b600063080000008316111561194b576040680100000000058b90c08202901c90505b600063040000008316111561196d57604068010000000002c5c8608202901c90505b600063020000008316111561198f5760406801000000000162e4308202901c90505b60006301000000831611156119b157604068010000000000b172188202901c90505b5b600062ff000083161115611ac957600062800000831611156119e15760406801000000000058b90c8202901c90505b60006240000083161115611a02576040680100000000002c5c868202901c90505b60006220000083161115611a2357604068010000000000162e438202901c90505b60006210000083161115611a44576040680100000000000b17218202901c90505b60006208000083161115611a6557604068010000000000058b918202901c90505b60006204000083161115611a865760406801000000000002c5c88202901c90505b60006202000083161115611aa7576040680100000000000162e48202901c90505b60006201000083161115611ac85760406801000000000000b1728202901c90505b5b600061ff0083161115611bd757600061800083161115611af6576040680100000000000058b98202901c90505b600061400083161115611b1657604068010000000000002c5d8202901c90505b600061200083161115611b365760406801000000000000162e8202901c90505b600061100083161115611b5657604068010000000000000b178202901c90505b600061080083161115611b765760406801000000000000058c8202901c90505b600061040083161115611b96576040680100000000000002c68202901c90505b600061020083161115611bb6576040680100000000000001638202901c90505b600061010083161115611bd6576040680100000000000000b18202901c90505b5b600060ff83161115611cdc576000608083161115611c02576040680100000000000000598202901c90505b6000604083161115611c215760406801000000000000002c8202901c90505b6000602083161115611c40576040680100000000000000168202901c90505b6000601083161115611c5f5760406801000000000000000b8202901c90505b6000600883161115611c7e576040680100000000000000068202901c90505b6000600483161115611c9d576040680100000000000000038202901c90505b6000600283161115611cbc576040680100000000000000018202901c90505b6000600183161115611cdb576040680100000000000000018202901c90505b5b670de0b6b3a764000081029050604082901c60bf0381901c9050919050565b600073ffffffffffffffffffffffffffffffffffffffff82169050919050565b6000819050919050565b6000611d40611d3b611d3684611cfb565b611d1b565b611cfb565b9050919050565b6000611d5282611d25565b9050919050565b6000611d6482611d47565b9050919050565b611d7481611d59565b82525050565b6000602082019050611d8f6000830184611d6b565b92915050565b6000604051905090565b600080fd5b600080fd5b600080fd5b600080fd5b6000601f19601f8301169050919050565b7f4e487b7100000000000000000000000000000000000000000000000000000000600052604160045260246000fd5b611dfc82611db3565b810181811067ffffffffffffffff82111715611e1b57611e1a611dc4565b5b80604052505050565b6000611e2e611d95565b9050611e3a8282611df3565b919050565b600067ffffffffffffffff821115611e5a57611e59611dc4565b5b611e6382611db3565b9050602081019050919050565b82818337600083830152505050565b6000611e92611e8d84611e3f565b611e24565b905082815260208101848484011115611eae57611ead611dae565b5b611eb9848285611e70565b509392505050565b600082601f830112611ed657611ed5611da9565b5b8135611ee6848260208601611e7f565b91505092915050565b6000819050919050565b611f0281611eef565b8114611f0d57600080fd5b50565b600081359050611f1f81611ef9565b92915050565b60008060408385031215611f3c57611f3b611d9f565b5b600083013567ffffffffffffffff811115611f5a57611f59611da4565b5b611f6685828601611ec1565b9250506020611f7785828601611f10565b9150509250929050565b6000611f8c82611d47565b9050919050565b611f9c81611f81565b82525050565b6000602082019050611fb76000830184611f93565b92915050565b600060208284031215611fd357611fd2611d9f565b5b6000611fe184828501611f10565b91505092915050565b6000611ff582611d47565b9050919050565b61200581611fea565b82525050565b60006020820190506120206000830184611ffc565b92915050565b600061203182611d47565b9050919050565b61204181612026565b82525050565b600060208201905061205c6000830184612038565b92915050565b600081519050919050565b600082825260208201905092915050565b60005b8381101561209c578082015181840152602081019050612081565b60008484015250505050565b60006120b382612062565b6120bd818561206d565b93506120cd81856020860161207e565b6120d681611db3565b840191505092915050565b600060208201905081810360008301526120fb81846120a8565b905092915050565b600081905092915050565b600061211982612062565b6121238185612103565b935061213381856020860161207e565b80840191505092915050565b7f2c20636f6e7665727465643a2025732c206f726967696e616c3a202564000000815250565b6000612171828461210e565b915061217c8261213f565b601d8201915081905092915050565b60006121a66121a161219c84611eef565b611d1b565b611eef565b9050919050565b6121b68161218b565b82525050565b60006020820190506121d160008301846121ad565b92915050565b6000819050919050565b6121ea816121d7565b82525050565b6000606082019050818103600083015261220a81866120a8565b9050818103602083015261221e81856120a8565b905061222d60408301846121e1565b949350505050565b7f4e487b7100000000000000000000000000000000000000000000000000000000600052601260045260246000fd5b7f4e487b7100000000000000000000000000000000000000000000000000000000600052601160045260246000fd5b600061229e82611eef565b91506122a983611eef565b9250826122b9576122b8612235565b5b600160000383147f8000000000000000000000000000000000000000000000000000000000000000831416156122f2576122f1612264565b5b828205905092915050565b61230681611eef565b82525050565b600060208201905061232160008301846122fd565b92915050565b600061233282611eef565b915061233d83611eef565b925082820390508181126000841216828213600085121516171561236457612363612264565b5b92915050565b600060408201905061237f60008301856121ad565b61238c60208301846121ad565b9392505050565b600061239e82611eef565b91506123a983611eef565b9250826123b9576123b8612235565b5b828207905092915050565b60006123cf82611eef565b91506123da83611eef565b92508282019050828112156000831216838212600084121516171561240257612401612264565b5b92915050565b600060608201905061241d60008301866121e1565b61242a60208301856121e1565b61243760408301846121e1565b949350505050565b600060408201905061245460008301856121e1565b61246160208301846121e1565b939250505056fea264697066735822122020b8f1ce065ad693fcaceb6cdd5e7b2895b3befd0689316b7892f124d4b513b564736f6c63430008130033",
  "immutableReferences": {},
  "source": "// SPDX-License-Identifier: UNLICENSED\npragma solidity ^0.8.19;\n\nimport \"./SelfSovereignToken.sol\";\nimport \"./PooledDebtToken.sol\";\nimport \"./QualifiedLegalEntites.sol\";\nimport \"./DebtContracts.sol\";\nimport { SD59x18, sd } from \"@prb/math/src/SD59x18.sol\";\nimport { UD60x18, ud } from \"@prb/math/src/UD60x18.sol\";\n\ncontract SelfSovereignMoneySystem {\n\n  SelfSovereignToken public SST;\n  PooledDebtToken public PDT;\n  QualifiedLegalEntites public QLE;\n  DebtContracts public DC;\n\n  SD59x18 monthlyTarget; //gdp in monthly\n  SD59x18 systemInterestRate;\n\n\n  uint256 startTimestamp;\n  uint256 periodicity; // one month in seconds\n\n  constructor(address _addrSST, address _addrPDT, address _addrQLE, address _addrDC) public {\n    SST = SelfSovereignToken(_addrSST);\n    PDT = PooledDebtToken(_addrPDT);\n    QLE = QualifiedLegalEntites(_addrQLE);\n    DC = DebtContracts(_addrDC);\n\n    monthlyTarget = sd(0.0024662697723e18); // 3% anually in monthly interest rate\n    systemInterestRate = monthlyTarget;\n    startTimestamp = block.timestamp;\n\n    // bruh time is wimey, and leap years can leap off a cliff, either way 3 normal years 1 leap year = 1461 days -> 31557600 seconds on average in a year, not counting leap seconds, other bs, and other leap year shenanigans. For a MVP, good enough :D\n    periodicity = 2629800; // 1 month in seconds\n  }\n\n  function calculateLastMoneySupplyTarget() public {\n    \n    SD59x18 st = convert(int(startTimestamp));\n    SD59x18 p = convert(int(periodicity));\n    SD59x18 _now = convert(int(block.timestamp));\n    SD59x18 c_0 = sd(0); // lets say we begin with nothing\n\n    // amount of periods elapsed, we are currently in the n+1 period\n    SD59x18 nNow = st.sub(_now).div(p);\n    SD59x18 nLast = nNow.floor();\n    consoleLogSD(\"nLast\", nLast);\n    \n    // calculate the money supply target of n\n    SD59x18 m_t_n = c_0.add(monthlyTarget.add(convert(1)).pow(nLast));\n    consoleLogSD(\"m_t_n\", m_t_n );\n\n    // calculate the money supply target of n+1\n    SD59x18 m_t_np1 = c_0.add(monthlyTarget.add(convert(1)).pow(nLast.add(convert(1))));\n    consoleLogSD(\"m_t_np1\", m_t_np1 );\n\n    // take a linear approach to figure out where we should be at this exact moment\n\n    SD59x18 percentageToNext = nNow.sub(nLast);\n    consoleLogSD(\"ptn\", percentageToNext);\n\n\n    //SD59x18 m_t_now = m_t_np1.\n\n\n  }\n\n    function consoleLogSD(SD59x18 n) public view {\n        console.log(\"converted: %s, original: %d\", sdToString(n), n.intoUint256());\n    }\n\n    function consoleLogSD(string memory s, SD59x18 n) public view {\n        console.log(string.concat(s, \", converted: %s, original: %d\"), sdToString(n), n.intoUint256());\n    }\n\n    function sdToString(SD59x18 n) public pure returns (string memory) {\n        // first convert to int256, then to uint256, then to string because people hate int256\n        return Strings.toString(uint256(convert(n)));\n    }\n\n}\n",
  "sourcePath": "/Users/kim/projects/E2/prototype/contracts/SelfSovereignMoneySystem.sol",
  "compiler": {
    "name": "solc",
    "version": "0.8.19+commit.7dd6d404.Emscripten.clang"
  },
  "schemaVersion": "3.4.13",
  "updatedAt": "2023-03-25T14:23:08.377Z",
  "devdoc": {
    "kind": "dev",
    "methods": {},
    "version": 1
  },
  "userdoc": {
    "errors": {
      "PRBMath_MulDiv18_Overflow(uint256,uint256)": [
        {
          "notice": "Emitted when the ending result in the fixed-point version of `mulDiv` would overflow uint256."
        }
      ],
      "PRBMath_MulDiv_Overflow(uint256,uint256,uint256)": [
        {
          "notice": "Emitted when the ending result in `mulDiv` would overflow uint256."
        }
      ],
      "PRBMath_SD59x18_Convert_Overflow(int256)": [
        {
          "notice": "Emitted when converting a basic integer to the fixed-point format overflows SD59x18."
        }
      ],
      "PRBMath_SD59x18_Convert_Underflow(int256)": [
        {
          "notice": "Emitted when converting a basic integer to the fixed-point format underflows SD59x18."
        }
      ],
      "PRBMath_SD59x18_Div_InputTooSmall()": [
        {
          "notice": "Emitted when dividing two numbers and one of them is `MIN_SD59x18`."
        }
      ],
      "PRBMath_SD59x18_Div_Overflow(int256,int256)": [
        {
          "notice": "Emitted when dividing two numbers and one of the intermediary unsigned results overflows SD59x18."
        }
      ],
      "PRBMath_SD59x18_Exp2_InputTooBig(int256)": [
        {
          "notice": "Emitted when taking the binary exponent of a base greater than 192."
        }
      ],
      "PRBMath_SD59x18_Floor_Underflow(int256)": [
        {
          "notice": "Emitted when flooring a number underflows SD59x18."
        }
      ],
      "PRBMath_SD59x18_IntoUint256_Underflow(int256)": [
        {
          "notice": "Emitted when trying to cast an UD60x18 number that doesn't fit in uint256."
        }
      ],
      "PRBMath_SD59x18_Log_InputTooSmall(int256)": [
        {
          "notice": "Emitted when taking the logarithm of a number less than or equal to zero."
        }
      ],
      "PRBMath_SD59x18_Mul_InputTooSmall()": [
        {
          "notice": "Emitted when multiplying two numbers and one of the inputs is `MIN_SD59x18`."
        }
      ],
      "PRBMath_SD59x18_Mul_Overflow(int256,int256)": [
        {
          "notice": "Emitted when multiplying two numbers and the intermediary absolute result overflows SD59x18."
        }
      ]
    },
    "kind": "user",
    "methods": {},
    "version": 1
  }
}