{
  "contractName": "SelfSovereignToken",
  "abi": [
    {
      "inputs": [],
      "stateMutability": "nonpayable",
      "type": "constructor"
    },
    {
      "anonymous": false,
      "inputs": [
        {
          "indexed": true,
          "internalType": "address",
          "name": "owner",
          "type": "address"
        },
        {
          "indexed": true,
          "internalType": "address",
          "name": "spender",
          "type": "address"
        },
        {
          "indexed": false,
          "internalType": "uint256",
          "name": "value",
          "type": "uint256"
        }
      ],
      "name": "Approval",
      "type": "event"
    },
    {
      "anonymous": false,
      "inputs": [
        {
          "indexed": true,
          "internalType": "address",
          "name": "previousOwner",
          "type": "address"
        },
        {
          "indexed": true,
          "internalType": "address",
          "name": "newOwner",
          "type": "address"
        }
      ],
      "name": "OwnershipTransferred",
      "type": "event"
    },
    {
      "anonymous": false,
      "inputs": [
        {
          "indexed": true,
          "internalType": "bytes32",
          "name": "role",
          "type": "bytes32"
        },
        {
          "indexed": true,
          "internalType": "bytes32",
          "name": "previousAdminRole",
          "type": "bytes32"
        },
        {
          "indexed": true,
          "internalType": "bytes32",
          "name": "newAdminRole",
          "type": "bytes32"
        }
      ],
      "name": "RoleAdminChanged",
      "type": "event"
    },
    {
      "anonymous": false,
      "inputs": [
        {
          "indexed": true,
          "internalType": "bytes32",
          "name": "role",
          "type": "bytes32"
        },
        {
          "indexed": true,
          "internalType": "address",
          "name": "account",
          "type": "address"
        },
        {
          "indexed": true,
          "internalType": "address",
          "name": "sender",
          "type": "address"
        }
      ],
      "name": "RoleGranted",
      "type": "event"
    },
    {
      "anonymous": false,
      "inputs": [
        {
          "indexed": true,
          "internalType": "bytes32",
          "name": "role",
          "type": "bytes32"
        },
        {
          "indexed": true,
          "internalType": "address",
          "name": "account",
          "type": "address"
        },
        {
          "indexed": true,
          "internalType": "address",
          "name": "sender",
          "type": "address"
        }
      ],
      "name": "RoleRevoked",
      "type": "event"
    },
    {
      "anonymous": false,
      "inputs": [
        {
          "indexed": true,
          "internalType": "address",
          "name": "from",
          "type": "address"
        },
        {
          "indexed": true,
          "internalType": "address",
          "name": "to",
          "type": "address"
        },
        {
          "indexed": false,
          "internalType": "uint256",
          "name": "value",
          "type": "uint256"
        }
      ],
      "name": "Transfer",
      "type": "event"
    },
    {
      "inputs": [],
      "name": "DEFAULT_ADMIN_ROLE",
      "outputs": [
        {
          "internalType": "bytes32",
          "name": "",
          "type": "bytes32"
        }
      ],
      "stateMutability": "view",
      "type": "function",
      "constant": true
    },
    {
      "inputs": [],
      "name": "MINTER_ROLE",
      "outputs": [
        {
          "internalType": "bytes32",
          "name": "",
          "type": "bytes32"
        }
      ],
      "stateMutability": "view",
      "type": "function",
      "constant": true
    },
    {
      "inputs": [
        {
          "internalType": "address",
          "name": "owner",
          "type": "address"
        },
        {
          "internalType": "address",
          "name": "spender",
          "type": "address"
        }
      ],
      "name": "allowance",
      "outputs": [
        {
          "internalType": "uint256",
          "name": "",
          "type": "uint256"
        }
      ],
      "stateMutability": "view",
      "type": "function",
      "constant": true
    },
    {
      "inputs": [
        {
          "internalType": "address",
          "name": "spender",
          "type": "address"
        },
        {
          "internalType": "uint256",
          "name": "amount",
          "type": "uint256"
        }
      ],
      "name": "approve",
      "outputs": [
        {
          "internalType": "bool",
          "name": "",
          "type": "bool"
        }
      ],
      "stateMutability": "nonpayable",
      "type": "function"
    },
    {
      "inputs": [
        {
          "internalType": "address",
          "name": "account",
          "type": "address"
        }
      ],
      "name": "balanceOf",
      "outputs": [
        {
          "internalType": "uint256",
          "name": "",
          "type": "uint256"
        }
      ],
      "stateMutability": "view",
      "type": "function",
      "constant": true
    },
    {
      "inputs": [
        {
          "internalType": "uint256",
          "name": "amount",
          "type": "uint256"
        }
      ],
      "name": "burn",
      "outputs": [],
      "stateMutability": "nonpayable",
      "type": "function"
    },
    {
      "inputs": [
        {
          "internalType": "address",
          "name": "account",
          "type": "address"
        },
        {
          "internalType": "uint256",
          "name": "amount",
          "type": "uint256"
        }
      ],
      "name": "burnFrom",
      "outputs": [],
      "stateMutability": "nonpayable",
      "type": "function"
    },
    {
      "inputs": [],
      "name": "decimals",
      "outputs": [
        {
          "internalType": "uint8",
          "name": "",
          "type": "uint8"
        }
      ],
      "stateMutability": "view",
      "type": "function",
      "constant": true
    },
    {
      "inputs": [
        {
          "internalType": "address",
          "name": "spender",
          "type": "address"
        },
        {
          "internalType": "uint256",
          "name": "subtractedValue",
          "type": "uint256"
        }
      ],
      "name": "decreaseAllowance",
      "outputs": [
        {
          "internalType": "bool",
          "name": "",
          "type": "bool"
        }
      ],
      "stateMutability": "nonpayable",
      "type": "function"
    },
    {
      "inputs": [
        {
          "internalType": "bytes32",
          "name": "role",
          "type": "bytes32"
        }
      ],
      "name": "getRoleAdmin",
      "outputs": [
        {
          "internalType": "bytes32",
          "name": "",
          "type": "bytes32"
        }
      ],
      "stateMutability": "view",
      "type": "function",
      "constant": true
    },
    {
      "inputs": [
        {
          "internalType": "bytes32",
          "name": "role",
          "type": "bytes32"
        },
        {
          "internalType": "address",
          "name": "account",
          "type": "address"
        }
      ],
      "name": "grantRole",
      "outputs": [],
      "stateMutability": "nonpayable",
      "type": "function"
    },
    {
      "inputs": [
        {
          "internalType": "bytes32",
          "name": "role",
          "type": "bytes32"
        },
        {
          "internalType": "address",
          "name": "account",
          "type": "address"
        }
      ],
      "name": "hasRole",
      "outputs": [
        {
          "internalType": "bool",
          "name": "",
          "type": "bool"
        }
      ],
      "stateMutability": "view",
      "type": "function",
      "constant": true
    },
    {
      "inputs": [
        {
          "internalType": "address",
          "name": "spender",
          "type": "address"
        },
        {
          "internalType": "uint256",
          "name": "addedValue",
          "type": "uint256"
        }
      ],
      "name": "increaseAllowance",
      "outputs": [
        {
          "internalType": "bool",
          "name": "",
          "type": "bool"
        }
      ],
      "stateMutability": "nonpayable",
      "type": "function"
    },
    {
      "inputs": [],
      "name": "name",
      "outputs": [
        {
          "internalType": "string",
          "name": "",
          "type": "string"
        }
      ],
      "stateMutability": "view",
      "type": "function",
      "constant": true
    },
    {
      "inputs": [],
      "name": "owner",
      "outputs": [
        {
          "internalType": "address",
          "name": "",
          "type": "address"
        }
      ],
      "stateMutability": "view",
      "type": "function",
      "constant": true
    },
    {
      "inputs": [],
      "name": "renounceOwnership",
      "outputs": [],
      "stateMutability": "nonpayable",
      "type": "function"
    },
    {
      "inputs": [
        {
          "internalType": "bytes32",
          "name": "role",
          "type": "bytes32"
        },
        {
          "internalType": "address",
          "name": "account",
          "type": "address"
        }
      ],
      "name": "renounceRole",
      "outputs": [],
      "stateMutability": "nonpayable",
      "type": "function"
    },
    {
      "inputs": [
        {
          "internalType": "bytes32",
          "name": "role",
          "type": "bytes32"
        },
        {
          "internalType": "address",
          "name": "account",
          "type": "address"
        }
      ],
      "name": "revokeRole",
      "outputs": [],
      "stateMutability": "nonpayable",
      "type": "function"
    },
    {
      "inputs": [
        {
          "internalType": "bytes4",
          "name": "interfaceId",
          "type": "bytes4"
        }
      ],
      "name": "supportsInterface",
      "outputs": [
        {
          "internalType": "bool",
          "name": "",
          "type": "bool"
        }
      ],
      "stateMutability": "view",
      "type": "function",
      "constant": true
    },
    {
      "inputs": [],
      "name": "symbol",
      "outputs": [
        {
          "internalType": "string",
          "name": "",
          "type": "string"
        }
      ],
      "stateMutability": "view",
      "type": "function",
      "constant": true
    },
    {
      "inputs": [],
      "name": "totalSupply",
      "outputs": [
        {
          "internalType": "uint256",
          "name": "",
          "type": "uint256"
        }
      ],
      "stateMutability": "view",
      "type": "function",
      "constant": true
    },
    {
      "inputs": [
        {
          "internalType": "address",
          "name": "to",
          "type": "address"
        },
        {
          "internalType": "uint256",
          "name": "amount",
          "type": "uint256"
        }
      ],
      "name": "transfer",
      "outputs": [
        {
          "internalType": "bool",
          "name": "",
          "type": "bool"
        }
      ],
      "stateMutability": "nonpayable",
      "type": "function"
    },
    {
      "inputs": [
        {
          "internalType": "address",
          "name": "from",
          "type": "address"
        },
        {
          "internalType": "address",
          "name": "to",
          "type": "address"
        },
        {
          "internalType": "uint256",
          "name": "amount",
          "type": "uint256"
        }
      ],
      "name": "transferFrom",
      "outputs": [
        {
          "internalType": "bool",
          "name": "",
          "type": "bool"
        }
      ],
      "stateMutability": "nonpayable",
      "type": "function"
    },
    {
      "inputs": [
        {
          "internalType": "address",
          "name": "newOwner",
          "type": "address"
        }
      ],
      "name": "transferOwnership",
      "outputs": [],
      "stateMutability": "nonpayable",
      "type": "function"
    },
    {
      "inputs": [
        {
          "internalType": "address",
          "name": "minter",
          "type": "address"
        }
      ],
      "name": "grantMintRole",
      "outputs": [],
      "stateMutability": "nonpayable",
      "type": "function"
    },
    {
      "inputs": [
        {
          "internalType": "address",
          "name": "minter",
          "type": "address"
        }
      ],
      "name": "revokeMintRole",
      "outputs": [],
      "stateMutability": "nonpayable",
      "type": "function"
    },
    {
      "inputs": [
        {
          "internalType": "address",
          "name": "to",
          "type": "address"
        },
        {
          "internalType": "uint256",
          "name": "amount",
          "type": "uint256"
        }
      ],
      "name": "mint",
      "outputs": [],
      "stateMutability": "nonpayable",
      "type": "function"
    }
  ],
  "bytecode": "0x60806040523480156200001157600080fd5b506040518060400160405280601281526020017f53656c66536f7665726569676e546f6b656e00000000000000000000000000008152506040518060400160405280600381526020017f535354000000000000000000000000000000000000000000000000000000000081525081600390816200008f9190620005a1565b508060049081620000a19190620005a1565b505050620000c4620000b8620000fc60201b60201c565b6200010460201b60201c565b620000f67f9f2df0fed2c77648de5860a4cc508cd0818c85b8b8a1ab4ceeef8d981c8956a633620001ca60201b60201c565b62000688565b600033905090565b6000600560009054906101000a900473ffffffffffffffffffffffffffffffffffffffff16905081600560006101000a81548173ffffffffffffffffffffffffffffffffffffffff021916908373ffffffffffffffffffffffffffffffffffffffff1602179055508173ffffffffffffffffffffffffffffffffffffffff168173ffffffffffffffffffffffffffffffffffffffff167f8be0079c531659141344cd1fd0a4f28419497f9722a3daafe3b4186f6b6457e060405160405180910390a35050565b620001dc8282620002bc60201b60201c565b620002b85760016006600084815260200190815260200160002060000160008373ffffffffffffffffffffffffffffffffffffffff1673ffffffffffffffffffffffffffffffffffffffff16815260200190815260200160002060006101000a81548160ff0219169083151502179055506200025d620000fc60201b60201c565b73ffffffffffffffffffffffffffffffffffffffff168173ffffffffffffffffffffffffffffffffffffffff16837f2f8788117e7eff1d82e926ec794901d17c78024a50270940304540a733656f0d60405160405180910390a45b5050565b60006006600084815260200190815260200160002060000160008373ffffffffffffffffffffffffffffffffffffffff1673ffffffffffffffffffffffffffffffffffffffff16815260200190815260200160002060009054906101000a900460ff16905092915050565b600081519050919050565b7f4e487b7100000000000000000000000000000000000000000000000000000000600052604160045260246000fd5b7f4e487b7100000000000000000000000000000000000000000000000000000000600052602260045260246000fd5b60006002820490506001821680620003a957607f821691505b602082108103620003bf57620003be62000361565b5b50919050565b60008190508160005260206000209050919050565b60006020601f8301049050919050565b600082821b905092915050565b600060088302620004297fffffffffffffffffffffffffffffffffffffffffffffffffffffffffffffffff82620003ea565b620004358683620003ea565b95508019841693508086168417925050509392505050565b6000819050919050565b6000819050919050565b6000620004826200047c62000476846200044d565b62000457565b6200044d565b9050919050565b6000819050919050565b6200049e8362000461565b620004b6620004ad8262000489565b848454620003f7565b825550505050565b600090565b620004cd620004be565b620004da81848462000493565b505050565b5b818110156200050257620004f6600082620004c3565b600181019050620004e0565b5050565b601f82111562000551576200051b81620003c5565b6200052684620003da565b8101602085101562000536578190505b6200054e6200054585620003da565b830182620004df565b50505b505050565b600082821c905092915050565b6000620005766000198460080262000556565b1980831691505092915050565b600062000591838362000563565b9150826002028217905092915050565b620005ac8262000327565b67ffffffffffffffff811115620005c857620005c762000332565b5b620005d4825462000390565b620005e182828562000506565b600060209050601f83116001811462000619576000841562000604578287015190505b62000610858262000583565b86555062000680565b601f1984166200062986620003c5565b60005b8281101562000653578489015182556001820191506020850194506020810190506200062c565b868310156200067357848901516200066f601f89168262000563565b8355505b6001600288020188555050505b505050505050565b61294e80620006986000396000f3fe608060405234801561001057600080fd5b50600436106101a95760003560e01c8063715018a6116100f9578063a9059cbb11610097578063d547741f11610071578063d547741f146104e2578063dd62ed3e146104fe578063f2fde38b1461052e578063f81094f31461054a576101a9565b8063a9059cbb14610478578063c2e3273d146104a8578063d5391393146104c4576101a9565b806391d14854116100d357806391d14854146103dc57806395d89b411461040c578063a217fddf1461042a578063a457c2d714610448576101a9565b8063715018a61461039857806379cc6790146103a25780638da5cb5b146103be576101a9565b80632f2ff15d116101665780633950935111610140578063395093511461030057806340c10f191461033057806342966c681461034c57806370a0823114610368576101a9565b80632f2ff15d146102aa578063313ce567146102c657806336568abe146102e4576101a9565b806301ffc9a7146101ae57806306fdde03146101de578063095ea7b3146101fc57806318160ddd1461022c57806323b872dd1461024a578063248a9ca31461027a575b600080fd5b6101c860048036038101906101c39190611aec565b610566565b6040516101d59190611b34565b60405180910390f35b6101e66105e0565b6040516101f39190611bdf565b60405180910390f35b61021660048036038101906102119190611c95565b610672565b6040516102239190611b34565b60405180910390f35b610234610695565b6040516102419190611ce4565b60405180910390f35b610264600480360381019061025f9190611cff565b61069f565b6040516102719190611b34565b60405180910390f35b610294600480360381019061028f9190611d88565b6106ce565b6040516102a19190611dc4565b60405180910390f35b6102c460048036038101906102bf9190611ddf565b6106ee565b005b6102ce61070f565b6040516102db9190611e3b565b60405180910390f35b6102fe60048036038101906102f99190611ddf565b610718565b005b61031a60048036038101906103159190611c95565b61079b565b6040516103279190611b34565b60405180910390f35b61034a60048036038101906103459190611c95565b6107d2565b005b61036660048036038101906103619190611e56565b61080b565b005b610382600480360381019061037d9190611e83565b61081f565b60405161038f9190611ce4565b60405180910390f35b6103a0610867565b005b6103bc60048036038101906103b79190611c95565b61087b565b005b6103c661089b565b6040516103d39190611ebf565b60405180910390f35b6103f660048036038101906103f19190611ddf565b6108c5565b6040516104039190611b34565b60405180910390f35b610414610930565b6040516104219190611bdf565b60405180910390f35b6104326109c2565b60405161043f9190611dc4565b60405180910390f35b610462600480360381019061045d9190611c95565b6109c9565b60405161046f9190611b34565b60405180910390f35b610492600480360381019061048d9190611c95565b610a40565b60405161049f9190611b34565b60405180910390f35b6104c260048036038101906104bd9190611e83565b610a63565b005b6104cc610a98565b6040516104d99190611dc4565b60405180910390f35b6104fc60048036038101906104f79190611ddf565b610abc565b005b61051860048036038101906105139190611eda565b610add565b6040516105259190611ce4565b60405180910390f35b61054860048036038101906105439190611e83565b610b64565b005b610564600480360381019061055f9190611e83565b610be7565b005b60007f7965db0b000000000000000000000000000000000000000000000000000000007bffffffffffffffffffffffffffffffffffffffffffffffffffffffff1916827bffffffffffffffffffffffffffffffffffffffffffffffffffffffff191614806105d957506105d882610c1c565b5b9050919050565b6060600380546105ef90611f49565b80601f016020809104026020016040519081016040528092919081815260200182805461061b90611f49565b80156106685780601f1061063d57610100808354040283529160200191610668565b820191906000526020600020905b81548152906001019060200180831161064b57829003601f168201915b5050505050905090565b60008061067d610c86565b905061068a818585610c8e565b600191505092915050565b6000600254905090565b6000806106aa610c86565b90506106b7858285610e57565b6106c2858585610ee3565b60019150509392505050565b600060066000838152602001908152602001600020600101549050919050565b6106f7826106ce565b61070081611159565b61070a838361116d565b505050565b60006012905090565b610720610c86565b73ffffffffffffffffffffffffffffffffffffffff168173ffffffffffffffffffffffffffffffffffffffff161461078d576040517f08c379a000000000000000000000000000000000000000000000000000000000815260040161078490611fec565b60405180910390fd5b610797828261124e565b5050565b6000806107a6610c86565b90506107c78185856107b88589610add565b6107c2919061203b565b610c8e565b600191505092915050565b7f9f2df0fed2c77648de5860a4cc508cd0818c85b8b8a1ab4ceeef8d981c8956a66107fc81611159565b6108068383611330565b505050565b61081c610816610c86565b82611486565b50565b60008060008373ffffffffffffffffffffffffffffffffffffffff1673ffffffffffffffffffffffffffffffffffffffff168152602001908152602001600020549050919050565b61086f611653565b61087960006116d1565b565b61088d82610887610c86565b83610e57565b6108978282611486565b5050565b6000600560009054906101000a900473ffffffffffffffffffffffffffffffffffffffff16905090565b60006006600084815260200190815260200160002060000160008373ffffffffffffffffffffffffffffffffffffffff1673ffffffffffffffffffffffffffffffffffffffff16815260200190815260200160002060009054906101000a900460ff16905092915050565b60606004805461093f90611f49565b80601f016020809104026020016040519081016040528092919081815260200182805461096b90611f49565b80156109b85780601f1061098d576101008083540402835291602001916109b8565b820191906000526020600020905b81548152906001019060200180831161099b57829003601f168201915b5050505050905090565b6000801b81565b6000806109d4610c86565b905060006109e28286610add565b905083811015610a27576040517f08c379a0000000000000000000000000000000000000000000000000000000008152600401610a1e906120e1565b60405180910390fd5b610a348286868403610c8e565b60019250505092915050565b600080610a4b610c86565b9050610a58818585610ee3565b600191505092915050565b610a6b611653565b610a957f9f2df0fed2c77648de5860a4cc508cd0818c85b8b8a1ab4ceeef8d981c8956a68261116d565b50565b7f9f2df0fed2c77648de5860a4cc508cd0818c85b8b8a1ab4ceeef8d981c8956a681565b610ac5826106ce565b610ace81611159565b610ad8838361124e565b505050565b6000600160008473ffffffffffffffffffffffffffffffffffffffff1673ffffffffffffffffffffffffffffffffffffffff16815260200190815260200160002060008373ffffffffffffffffffffffffffffffffffffffff1673ffffffffffffffffffffffffffffffffffffffff16815260200190815260200160002054905092915050565b610b6c611653565b600073ffffffffffffffffffffffffffffffffffffffff168173ffffffffffffffffffffffffffffffffffffffff1603610bdb576040517f08c379a0000000000000000000000000000000000000000000000000000000008152600401610bd290612173565b60405180910390fd5b610be4816116d1565b50565b610bef611653565b610c197f9f2df0fed2c77648de5860a4cc508cd0818c85b8b8a1ab4ceeef8d981c8956a68261124e565b50565b60007f01ffc9a7000000000000000000000000000000000000000000000000000000007bffffffffffffffffffffffffffffffffffffffffffffffffffffffff1916827bffffffffffffffffffffffffffffffffffffffffffffffffffffffff1916149050919050565b600033905090565b600073ffffffffffffffffffffffffffffffffffffffff168373ffffffffffffffffffffffffffffffffffffffff1603610cfd576040517f08c379a0000000000000000000000000000000000000000000000000000000008152600401610cf490612205565b60405180910390fd5b600073ffffffffffffffffffffffffffffffffffffffff168273ffffffffffffffffffffffffffffffffffffffff1603610d6c576040517f08c379a0000000000000000000000000000000000000000000000000000000008152600401610d6390612297565b60405180910390fd5b80600160008573ffffffffffffffffffffffffffffffffffffffff1673ffffffffffffffffffffffffffffffffffffffff16815260200190815260200160002060008473ffffffffffffffffffffffffffffffffffffffff1673ffffffffffffffffffffffffffffffffffffffff168152602001908152602001600020819055508173ffffffffffffffffffffffffffffffffffffffff168373ffffffffffffffffffffffffffffffffffffffff167f8c5be1e5ebec7d5bd14f71427d1e84f3dd0314c0f7b2291e5b200ac8c7c3b92583604051610e4a9190611ce4565b60405180910390a3505050565b6000610e638484610add565b90507fffffffffffffffffffffffffffffffffffffffffffffffffffffffffffffffff8114610edd5781811015610ecf576040517f08c379a0000000000000000000000000000000000000000000000000000000008152600401610ec690612303565b60405180910390fd5b610edc8484848403610c8e565b5b50505050565b600073ffffffffffffffffffffffffffffffffffffffff168373ffffffffffffffffffffffffffffffffffffffff1603610f52576040517f08c379a0000000000000000000000000000000000000000000000000000000008152600401610f4990612395565b60405180910390fd5b600073ffffffffffffffffffffffffffffffffffffffff168273ffffffffffffffffffffffffffffffffffffffff1603610fc1576040517f08c379a0000000000000000000000000000000000000000000000000000000008152600401610fb890612427565b60405180910390fd5b610fcc838383611797565b60008060008573ffffffffffffffffffffffffffffffffffffffff1673ffffffffffffffffffffffffffffffffffffffff16815260200190815260200160002054905081811015611052576040517f08c379a0000000000000000000000000000000000000000000000000000000008152600401611049906124b9565b60405180910390fd5b8181036000808673ffffffffffffffffffffffffffffffffffffffff1673ffffffffffffffffffffffffffffffffffffffff16815260200190815260200160002081905550816000808573ffffffffffffffffffffffffffffffffffffffff1673ffffffffffffffffffffffffffffffffffffffff168152602001908152602001600020600082825401925050819055508273ffffffffffffffffffffffffffffffffffffffff168473ffffffffffffffffffffffffffffffffffffffff167fddf252ad1be2c89b69c2b068fc378daa952ba7f163c4a11628f55a4df523b3ef846040516111409190611ce4565b60405180910390a361115384848461179c565b50505050565b61116a81611165610c86565b6117a1565b50565b61117782826108c5565b61124a5760016006600084815260200190815260200160002060000160008373ffffffffffffffffffffffffffffffffffffffff1673ffffffffffffffffffffffffffffffffffffffff16815260200190815260200160002060006101000a81548160ff0219169083151502179055506111ef610c86565b73ffffffffffffffffffffffffffffffffffffffff168173ffffffffffffffffffffffffffffffffffffffff16837f2f8788117e7eff1d82e926ec794901d17c78024a50270940304540a733656f0d60405160405180910390a45b5050565b61125882826108c5565b1561132c5760006006600084815260200190815260200160002060000160008373ffffffffffffffffffffffffffffffffffffffff1673ffffffffffffffffffffffffffffffffffffffff16815260200190815260200160002060006101000a81548160ff0219169083151502179055506112d1610c86565b73ffffffffffffffffffffffffffffffffffffffff168173ffffffffffffffffffffffffffffffffffffffff16837ff6391f5c32d9c69d2a47ea670b442974b53935d1edc7fd64eb21e047a839171b60405160405180910390a45b5050565b600073ffffffffffffffffffffffffffffffffffffffff168273ffffffffffffffffffffffffffffffffffffffff160361139f576040517f08c379a000000000000000000000000000000000000000000000000000000000815260040161139690612525565b60405180910390fd5b6113ab60008383611797565b80600260008282546113bd919061203b565b92505081905550806000808473ffffffffffffffffffffffffffffffffffffffff1673ffffffffffffffffffffffffffffffffffffffff168152602001908152602001600020600082825401925050819055508173ffffffffffffffffffffffffffffffffffffffff16600073ffffffffffffffffffffffffffffffffffffffff167fddf252ad1be2c89b69c2b068fc378daa952ba7f163c4a11628f55a4df523b3ef8360405161146e9190611ce4565b60405180910390a36114826000838361179c565b5050565b600073ffffffffffffffffffffffffffffffffffffffff168273ffffffffffffffffffffffffffffffffffffffff16036114f5576040517f08c379a00000000000000000000000000000000000000000000000000000000081526004016114ec906125b7565b60405180910390fd5b61150182600083611797565b60008060008473ffffffffffffffffffffffffffffffffffffffff1673ffffffffffffffffffffffffffffffffffffffff16815260200190815260200160002054905081811015611587576040517f08c379a000000000000000000000000000000000000000000000000000000000815260040161157e90612649565b60405180910390fd5b8181036000808573ffffffffffffffffffffffffffffffffffffffff1673ffffffffffffffffffffffffffffffffffffffff1681526020019081526020016000208190555081600260008282540392505081905550600073ffffffffffffffffffffffffffffffffffffffff168373ffffffffffffffffffffffffffffffffffffffff167fddf252ad1be2c89b69c2b068fc378daa952ba7f163c4a11628f55a4df523b3ef8460405161163a9190611ce4565b60405180910390a361164e8360008461179c565b505050565b61165b610c86565b73ffffffffffffffffffffffffffffffffffffffff1661167961089b565b73ffffffffffffffffffffffffffffffffffffffff16146116cf576040517f08c379a00000000000000000000000000000000000000000000000000000000081526004016116c6906126b5565b60405180910390fd5b565b6000600560009054906101000a900473ffffffffffffffffffffffffffffffffffffffff16905081600560006101000a81548173ffffffffffffffffffffffffffffffffffffffff021916908373ffffffffffffffffffffffffffffffffffffffff1602179055508173ffffffffffffffffffffffffffffffffffffffff168173ffffffffffffffffffffffffffffffffffffffff167f8be0079c531659141344cd1fd0a4f28419497f9722a3daafe3b4186f6b6457e060405160405180910390a35050565b505050565b505050565b6117ab82826108c5565b611822576117b881611826565b6117c68360001c6020611853565b6040516020016117d79291906127a9565b6040516020818303038152906040526040517f08c379a00000000000000000000000000000000000000000000000000000000081526004016118199190611bdf565b60405180910390fd5b5050565b606061184c8273ffffffffffffffffffffffffffffffffffffffff16601460ff16611853565b9050919050565b60606000600283600261186691906127e3565b611870919061203b565b67ffffffffffffffff81111561188957611888612825565b5b6040519080825280601f01601f1916602001820160405280156118bb5781602001600182028036833780820191505090505b5090507f3000000000000000000000000000000000000000000000000000000000000000816000815181106118f3576118f2612854565b5b60200101907effffffffffffffffffffffffffffffffffffffffffffffffffffffffffffff1916908160001a9053507f78000000000000000000000000000000000000000000000000000000000000008160018151811061195757611956612854565b5b60200101907effffffffffffffffffffffffffffffffffffffffffffffffffffffffffffff1916908160001a9053506000600184600261199791906127e3565b6119a1919061203b565b90505b6001811115611a41577f3031323334353637383961626364656600000000000000000000000000000000600f8616601081106119e3576119e2612854565b5b1a60f81b8282815181106119fa576119f9612854565b5b60200101907effffffffffffffffffffffffffffffffffffffffffffffffffffffffffffff1916908160001a905350600485901c945080611a3a90612883565b90506119a4565b5060008414611a85576040517f08c379a0000000000000000000000000000000000000000000000000000000008152600401611a7c906128f8565b60405180910390fd5b8091505092915050565b600080fd5b60007fffffffff0000000000000000000000000000000000000000000000000000000082169050919050565b611ac981611a94565b8114611ad457600080fd5b50565b600081359050611ae681611ac0565b92915050565b600060208284031215611b0257611b01611a8f565b5b6000611b1084828501611ad7565b91505092915050565b60008115159050919050565b611b2e81611b19565b82525050565b6000602082019050611b496000830184611b25565b92915050565b600081519050919050565b600082825260208201905092915050565b60005b83811015611b89578082015181840152602081019050611b6e565b60008484015250505050565b6000601f19601f8301169050919050565b6000611bb182611b4f565b611bbb8185611b5a565b9350611bcb818560208601611b6b565b611bd481611b95565b840191505092915050565b60006020820190508181036000830152611bf98184611ba6565b905092915050565b600073ffffffffffffffffffffffffffffffffffffffff82169050919050565b6000611c2c82611c01565b9050919050565b611c3c81611c21565b8114611c4757600080fd5b50565b600081359050611c5981611c33565b92915050565b6000819050919050565b611c7281611c5f565b8114611c7d57600080fd5b50565b600081359050611c8f81611c69565b92915050565b60008060408385031215611cac57611cab611a8f565b5b6000611cba85828601611c4a565b9250506020611ccb85828601611c80565b9150509250929050565b611cde81611c5f565b82525050565b6000602082019050611cf96000830184611cd5565b92915050565b600080600060608486031215611d1857611d17611a8f565b5b6000611d2686828701611c4a565b9350506020611d3786828701611c4a565b9250506040611d4886828701611c80565b9150509250925092565b6000819050919050565b611d6581611d52565b8114611d7057600080fd5b50565b600081359050611d8281611d5c565b92915050565b600060208284031215611d9e57611d9d611a8f565b5b6000611dac84828501611d73565b91505092915050565b611dbe81611d52565b82525050565b6000602082019050611dd96000830184611db5565b92915050565b60008060408385031215611df657611df5611a8f565b5b6000611e0485828601611d73565b9250506020611e1585828601611c4a565b9150509250929050565b600060ff82169050919050565b611e3581611e1f565b82525050565b6000602082019050611e506000830184611e2c565b92915050565b600060208284031215611e6c57611e6b611a8f565b5b6000611e7a84828501611c80565b91505092915050565b600060208284031215611e9957611e98611a8f565b5b6000611ea784828501611c4a565b91505092915050565b611eb981611c21565b82525050565b6000602082019050611ed46000830184611eb0565b92915050565b60008060408385031215611ef157611ef0611a8f565b5b6000611eff85828601611c4a565b9250506020611f1085828601611c4a565b9150509250929050565b7f4e487b7100000000000000000000000000000000000000000000000000000000600052602260045260246000fd5b60006002820490506001821680611f6157607f821691505b602082108103611f7457611f73611f1a565b5b50919050565b7f416363657373436f6e74726f6c3a2063616e206f6e6c792072656e6f756e636560008201527f20726f6c657320666f722073656c660000000000000000000000000000000000602082015250565b6000611fd6602f83611b5a565b9150611fe182611f7a565b604082019050919050565b6000602082019050818103600083015261200581611fc9565b9050919050565b7f4e487b7100000000000000000000000000000000000000000000000000000000600052601160045260246000fd5b600061204682611c5f565b915061205183611c5f565b92508282019050808211156120695761206861200c565b5b92915050565b7f45524332303a2064656372656173656420616c6c6f77616e63652062656c6f7760008201527f207a65726f000000000000000000000000000000000000000000000000000000602082015250565b60006120cb602583611b5a565b91506120d68261206f565b604082019050919050565b600060208201905081810360008301526120fa816120be565b9050919050565b7f4f776e61626c653a206e6577206f776e657220697320746865207a65726f206160008201527f6464726573730000000000000000000000000000000000000000000000000000602082015250565b600061215d602683611b5a565b915061216882612101565b604082019050919050565b6000602082019050818103600083015261218c81612150565b9050919050565b7f45524332303a20617070726f76652066726f6d20746865207a65726f2061646460008201527f7265737300000000000000000000000000000000000000000000000000000000602082015250565b60006121ef602483611b5a565b91506121fa82612193565b604082019050919050565b6000602082019050818103600083015261221e816121e2565b9050919050565b7f45524332303a20617070726f766520746f20746865207a65726f20616464726560008201527f7373000000000000000000000000000000000000000000000000000000000000602082015250565b6000612281602283611b5a565b915061228c82612225565b604082019050919050565b600060208201905081810360008301526122b081612274565b9050919050565b7f45524332303a20696e73756666696369656e7420616c6c6f77616e6365000000600082015250565b60006122ed601d83611b5a565b91506122f8826122b7565b602082019050919050565b6000602082019050818103600083015261231c816122e0565b9050919050565b7f45524332303a207472616e736665722066726f6d20746865207a65726f20616460008201527f6472657373000000000000000000000000000000000000000000000000000000602082015250565b600061237f602583611b5a565b915061238a82612323565b604082019050919050565b600060208201905081810360008301526123ae81612372565b9050919050565b7f45524332303a207472616e7366657220746f20746865207a65726f206164647260008201527f6573730000000000000000000000000000000000000000000000000000000000602082015250565b6000612411602383611b5a565b915061241c826123b5565b604082019050919050565b6000602082019050818103600083015261244081612404565b9050919050565b7f45524332303a207472616e7366657220616d6f756e742065786365656473206260008201527f616c616e63650000000000000000000000000000000000000000000000000000602082015250565b60006124a3602683611b5a565b91506124ae82612447565b604082019050919050565b600060208201905081810360008301526124d281612496565b9050919050565b7f45524332303a206d696e7420746f20746865207a65726f206164647265737300600082015250565b600061250f601f83611b5a565b915061251a826124d9565b602082019050919050565b6000602082019050818103600083015261253e81612502565b9050919050565b7f45524332303a206275726e2066726f6d20746865207a65726f2061646472657360008201527f7300000000000000000000000000000000000000000000000000000000000000602082015250565b60006125a1602183611b5a565b91506125ac82612545565b604082019050919050565b600060208201905081810360008301526125d081612594565b9050919050565b7f45524332303a206275726e20616d6f756e7420657863656564732062616c616e60008201527f6365000000000000000000000000000000000000000000000000000000000000602082015250565b6000612633602283611b5a565b915061263e826125d7565b604082019050919050565b6000602082019050818103600083015261266281612626565b9050919050565b7f4f776e61626c653a2063616c6c6572206973206e6f7420746865206f776e6572600082015250565b600061269f602083611b5a565b91506126aa82612669565b602082019050919050565b600060208201905081810360008301526126ce81612692565b9050919050565b600081905092915050565b7f416363657373436f6e74726f6c3a206163636f756e7420000000000000000000600082015250565b60006127166017836126d5565b9150612721826126e0565b601782019050919050565b600061273782611b4f565b61274181856126d5565b9350612751818560208601611b6b565b80840191505092915050565b7f206973206d697373696e6720726f6c6520000000000000000000000000000000600082015250565b60006127936011836126d5565b915061279e8261275d565b601182019050919050565b60006127b482612709565b91506127c0828561272c565b91506127cb82612786565b91506127d7828461272c565b91508190509392505050565b60006127ee82611c5f565b91506127f983611c5f565b925082820261280781611c5f565b9150828204841483151761281e5761281d61200c565b5b5092915050565b7f4e487b7100000000000000000000000000000000000000000000000000000000600052604160045260246000fd5b7f4e487b7100000000000000000000000000000000000000000000000000000000600052603260045260246000fd5b600061288e82611c5f565b9150600082036128a1576128a061200c565b5b600182039050919050565b7f537472696e67733a20686578206c656e67746820696e73756666696369656e74600082015250565b60006128e2602083611b5a565b91506128ed826128ac565b602082019050919050565b60006020820190508181036000830152612911816128d5565b905091905056fea2646970667358221220f8e269351dca274b00282b61d7484b95c5017ee51bfd2bf4a6a2e4e78b8a981c64736f6c63430008130033",
  "immutableReferences": {},
  "source": "// SPDX-License-Identifier: UNLICENSED\npragma solidity ^0.8.19;\n\nimport \"@openzeppelin/contracts/token/ERC20/ERC20.sol\";\nimport \"@openzeppelin/contracts/token/ERC20/extensions/ERC20Burnable.sol\";\nimport \"@openzeppelin/contracts/access/Ownable.sol\";\nimport \"@openzeppelin/contracts/access/AccessControl.sol\";\n\ncontract SelfSovereignToken is ERC20, ERC20Burnable, Ownable, AccessControl {\n    bytes32 public constant MINTER_ROLE = keccak256(\"MINTER_ROLE\");\n    \n    constructor() ERC20(\"SelfSovereignToken\", \"SST\") {\n        _grantRole(MINTER_ROLE, msg.sender);\n    }\n\n    function grantMintRole(address minter) public onlyOwner{\n        _grantRole(MINTER_ROLE, minter);\n    }\n\n    function revokeMintRole(address minter) public onlyOwner{\n        _revokeRole(MINTER_ROLE, minter);\n    }\n\n    function mint(address to, uint256 amount) public onlyRole(MINTER_ROLE) {\n        _mint(to, amount);\n    }\n}",
  "sourcePath": "/Users/kim/projects/E2/prototype/contracts/SelfSovereignToken.sol",
  "compiler": {
    "name": "solc",
    "version": "0.8.19+commit.7dd6d404.Emscripten.clang"
  },
  "schemaVersion": "3.4.13",
  "updatedAt": "2023-03-25T18:56:49.903Z",
  "networkType": "ethereum",
  "devdoc": {
    "events": {
      "Approval(address,address,uint256)": {
        "details": "Emitted when the allowance of a `spender` for an `owner` is set by a call to {approve}. `value` is the new allowance."
      },
      "RoleAdminChanged(bytes32,bytes32,bytes32)": {
        "details": "Emitted when `newAdminRole` is set as ``role``'s admin role, replacing `previousAdminRole` `DEFAULT_ADMIN_ROLE` is the starting admin for all roles, despite {RoleAdminChanged} not being emitted signaling this. _Available since v3.1._"
      },
      "RoleGranted(bytes32,address,address)": {
        "details": "Emitted when `account` is granted `role`. `sender` is the account that originated the contract call, an admin role bearer except when using {AccessControl-_setupRole}."
      },
      "RoleRevoked(bytes32,address,address)": {
        "details": "Emitted when `account` is revoked `role`. `sender` is the account that originated the contract call:   - if using `revokeRole`, it is the admin role bearer   - if using `renounceRole`, it is the role bearer (i.e. `account`)"
      },
      "Transfer(address,address,uint256)": {
        "details": "Emitted when `value` tokens are moved from one account (`from`) to another (`to`). Note that `value` may be zero."
      }
    },
    "kind": "dev",
    "methods": {
      "allowance(address,address)": {
        "details": "See {IERC20-allowance}."
      },
      "approve(address,uint256)": {
        "details": "See {IERC20-approve}. NOTE: If `amount` is the maximum `uint256`, the allowance is not updated on `transferFrom`. This is semantically equivalent to an infinite approval. Requirements: - `spender` cannot be the zero address."
      },
      "balanceOf(address)": {
        "details": "See {IERC20-balanceOf}."
      },
      "burn(uint256)": {
        "details": "Destroys `amount` tokens from the caller. See {ERC20-_burn}."
      },
      "burnFrom(address,uint256)": {
        "details": "Destroys `amount` tokens from `account`, deducting from the caller's allowance. See {ERC20-_burn} and {ERC20-allowance}. Requirements: - the caller must have allowance for ``accounts``'s tokens of at least `amount`."
      },
      "decimals()": {
        "details": "Returns the number of decimals used to get its user representation. For example, if `decimals` equals `2`, a balance of `505` tokens should be displayed to a user as `5.05` (`505 / 10 ** 2`). Tokens usually opt for a value of 18, imitating the relationship between Ether and Wei. This is the value {ERC20} uses, unless this function is overridden; NOTE: This information is only used for _display_ purposes: it in no way affects any of the arithmetic of the contract, including {IERC20-balanceOf} and {IERC20-transfer}."
      },
      "decreaseAllowance(address,uint256)": {
        "details": "Atomically decreases the allowance granted to `spender` by the caller. This is an alternative to {approve} that can be used as a mitigation for problems described in {IERC20-approve}. Emits an {Approval} event indicating the updated allowance. Requirements: - `spender` cannot be the zero address. - `spender` must have allowance for the caller of at least `subtractedValue`."
      },
      "getRoleAdmin(bytes32)": {
        "details": "Returns the admin role that controls `role`. See {grantRole} and {revokeRole}. To change a role's admin, use {_setRoleAdmin}."
      },
      "grantRole(bytes32,address)": {
        "details": "Grants `role` to `account`. If `account` had not been already granted `role`, emits a {RoleGranted} event. Requirements: - the caller must have ``role``'s admin role. May emit a {RoleGranted} event."
      },
      "hasRole(bytes32,address)": {
        "details": "Returns `true` if `account` has been granted `role`."
      },
      "increaseAllowance(address,uint256)": {
        "details": "Atomically increases the allowance granted to `spender` by the caller. This is an alternative to {approve} that can be used as a mitigation for problems described in {IERC20-approve}. Emits an {Approval} event indicating the updated allowance. Requirements: - `spender` cannot be the zero address."
      },
      "name()": {
        "details": "Returns the name of the token."
      },
      "owner()": {
        "details": "Returns the address of the current owner."
      },
      "renounceOwnership()": {
        "details": "Leaves the contract without owner. It will not be possible to call `onlyOwner` functions anymore. Can only be called by the current owner. NOTE: Renouncing ownership will leave the contract without an owner, thereby removing any functionality that is only available to the owner."
      },
      "renounceRole(bytes32,address)": {
        "details": "Revokes `role` from the calling account. Roles are often managed via {grantRole} and {revokeRole}: this function's purpose is to provide a mechanism for accounts to lose their privileges if they are compromised (such as when a trusted device is misplaced). If the calling account had been revoked `role`, emits a {RoleRevoked} event. Requirements: - the caller must be `account`. May emit a {RoleRevoked} event."
      },
      "revokeRole(bytes32,address)": {
        "details": "Revokes `role` from `account`. If `account` had been granted `role`, emits a {RoleRevoked} event. Requirements: - the caller must have ``role``'s admin role. May emit a {RoleRevoked} event."
      },
      "supportsInterface(bytes4)": {
        "details": "See {IERC165-supportsInterface}."
      },
      "symbol()": {
        "details": "Returns the symbol of the token, usually a shorter version of the name."
      },
      "totalSupply()": {
        "details": "See {IERC20-totalSupply}."
      },
      "transfer(address,uint256)": {
        "details": "See {IERC20-transfer}. Requirements: - `to` cannot be the zero address. - the caller must have a balance of at least `amount`."
      },
      "transferFrom(address,address,uint256)": {
        "details": "See {IERC20-transferFrom}. Emits an {Approval} event indicating the updated allowance. This is not required by the EIP. See the note at the beginning of {ERC20}. NOTE: Does not update the allowance if the current allowance is the maximum `uint256`. Requirements: - `from` and `to` cannot be the zero address. - `from` must have a balance of at least `amount`. - the caller must have allowance for ``from``'s tokens of at least `amount`."
      },
      "transferOwnership(address)": {
        "details": "Transfers ownership of the contract to a new account (`newOwner`). Can only be called by the current owner."
      }
    },
    "version": 1
  },
  "userdoc": {
    "kind": "user",
    "methods": {},
    "version": 1
  }
}