{
  "contractName": "SelfSovereignToken",
  "abi": [
    {
      "inputs": [],
      "stateMutability": "nonpayable",
      "type": "constructor"
    },
    {
      "inputs": [],
      "name": "PRBMath_SD59x18_Abs_MinSD59x18",
      "type": "error"
    },
    {
      "inputs": [
        {
          "internalType": "SD59x18",
          "name": "x",
          "type": "int256"
        }
      ],
      "name": "PRBMath_SD59x18_Floor_Underflow",
      "type": "error"
    },
    {
      "inputs": [
        {
          "internalType": "SD59x18",
          "name": "x",
          "type": "int256"
        }
      ],
      "name": "PRBMath_SD59x18_IntoUint256_Underflow",
      "type": "error"
    },
    {
      "anonymous": false,
      "inputs": [
        {
          "indexed": true,
          "internalType": "address",
          "name": "owner",
          "type": "address"
        },
        {
          "indexed": true,
          "internalType": "address",
          "name": "spender",
          "type": "address"
        },
        {
          "indexed": false,
          "internalType": "uint256",
          "name": "value",
          "type": "uint256"
        }
      ],
      "name": "Approval",
      "type": "event"
    },
    {
      "anonymous": false,
      "inputs": [
        {
          "indexed": false,
          "internalType": "string",
          "name": "value",
          "type": "string"
        }
      ],
      "name": "Minted",
      "type": "event"
    },
    {
      "anonymous": false,
      "inputs": [
        {
          "indexed": true,
          "internalType": "bytes32",
          "name": "role",
          "type": "bytes32"
        },
        {
          "indexed": true,
          "internalType": "bytes32",
          "name": "previousAdminRole",
          "type": "bytes32"
        },
        {
          "indexed": true,
          "internalType": "bytes32",
          "name": "newAdminRole",
          "type": "bytes32"
        }
      ],
      "name": "RoleAdminChanged",
      "type": "event"
    },
    {
      "anonymous": false,
      "inputs": [
        {
          "indexed": true,
          "internalType": "bytes32",
          "name": "role",
          "type": "bytes32"
        },
        {
          "indexed": true,
          "internalType": "address",
          "name": "account",
          "type": "address"
        },
        {
          "indexed": true,
          "internalType": "address",
          "name": "sender",
          "type": "address"
        }
      ],
      "name": "RoleGranted",
      "type": "event"
    },
    {
      "anonymous": false,
      "inputs": [
        {
          "indexed": true,
          "internalType": "bytes32",
          "name": "role",
          "type": "bytes32"
        },
        {
          "indexed": true,
          "internalType": "address",
          "name": "account",
          "type": "address"
        },
        {
          "indexed": true,
          "internalType": "address",
          "name": "sender",
          "type": "address"
        }
      ],
      "name": "RoleRevoked",
      "type": "event"
    },
    {
      "anonymous": false,
      "inputs": [
        {
          "indexed": true,
          "internalType": "address",
          "name": "from",
          "type": "address"
        },
        {
          "indexed": true,
          "internalType": "address",
          "name": "to",
          "type": "address"
        },
        {
          "indexed": false,
          "internalType": "uint256",
          "name": "value",
          "type": "uint256"
        }
      ],
      "name": "Transfer",
      "type": "event"
    },
    {
      "inputs": [],
      "name": "DEFAULT_ADMIN_ROLE",
      "outputs": [
        {
          "internalType": "bytes32",
          "name": "",
          "type": "bytes32"
        }
      ],
      "stateMutability": "view",
      "type": "function",
      "constant": true
    },
    {
      "inputs": [],
      "name": "MINTER_ROLE",
      "outputs": [
        {
          "internalType": "bytes32",
          "name": "",
          "type": "bytes32"
        }
      ],
      "stateMutability": "view",
      "type": "function",
      "constant": true
    },
    {
      "inputs": [
        {
          "internalType": "SD59x18",
          "name": "n",
          "type": "int256"
        }
      ],
      "name": "SDtoString",
      "outputs": [
        {
          "internalType": "string",
          "name": "",
          "type": "string"
        }
      ],
      "stateMutability": "view",
      "type": "function",
      "constant": true
    },
    {
      "inputs": [
        {
          "internalType": "address",
          "name": "owner",
          "type": "address"
        },
        {
          "internalType": "address",
          "name": "spender",
          "type": "address"
        }
      ],
      "name": "allowance",
      "outputs": [
        {
          "internalType": "uint256",
          "name": "",
          "type": "uint256"
        }
      ],
      "stateMutability": "view",
      "type": "function",
      "constant": true
    },
    {
      "inputs": [
        {
          "internalType": "address",
          "name": "spender",
          "type": "address"
        },
        {
          "internalType": "uint256",
          "name": "amount",
          "type": "uint256"
        }
      ],
      "name": "approve",
      "outputs": [
        {
          "internalType": "bool",
          "name": "",
          "type": "bool"
        }
      ],
      "stateMutability": "nonpayable",
      "type": "function"
    },
    {
      "inputs": [
        {
          "internalType": "address",
          "name": "account",
          "type": "address"
        }
      ],
      "name": "balanceOf",
      "outputs": [
        {
          "internalType": "uint256",
          "name": "",
          "type": "uint256"
        }
      ],
      "stateMutability": "view",
      "type": "function",
      "constant": true
    },
    {
      "inputs": [
        {
          "internalType": "uint256",
          "name": "amount",
          "type": "uint256"
        }
      ],
      "name": "burn",
      "outputs": [],
      "stateMutability": "nonpayable",
      "type": "function"
    },
    {
      "inputs": [
        {
          "internalType": "address",
          "name": "account",
          "type": "address"
        },
        {
          "internalType": "uint256",
          "name": "amount",
          "type": "uint256"
        }
      ],
      "name": "burnFrom",
      "outputs": [],
      "stateMutability": "nonpayable",
      "type": "function"
    },
    {
      "inputs": [
        {
          "internalType": "string",
          "name": "s",
          "type": "string"
        },
        {
          "internalType": "SD59x18",
          "name": "n",
          "type": "int256"
        }
      ],
      "name": "consoleLogSD",
      "outputs": [],
      "stateMutability": "view",
      "type": "function",
      "constant": true
    },
    {
      "inputs": [],
      "name": "decimals",
      "outputs": [
        {
          "internalType": "uint8",
          "name": "",
          "type": "uint8"
        }
      ],
      "stateMutability": "view",
      "type": "function",
      "constant": true
    },
    {
      "inputs": [
        {
          "internalType": "address",
          "name": "spender",
          "type": "address"
        },
        {
          "internalType": "uint256",
          "name": "subtractedValue",
          "type": "uint256"
        }
      ],
      "name": "decreaseAllowance",
      "outputs": [
        {
          "internalType": "bool",
          "name": "",
          "type": "bool"
        }
      ],
      "stateMutability": "nonpayable",
      "type": "function"
    },
    {
      "inputs": [
        {
          "internalType": "bytes32",
          "name": "role",
          "type": "bytes32"
        }
      ],
      "name": "getRoleAdmin",
      "outputs": [
        {
          "internalType": "bytes32",
          "name": "",
          "type": "bytes32"
        }
      ],
      "stateMutability": "view",
      "type": "function",
      "constant": true
    },
    {
      "inputs": [
        {
          "internalType": "bytes32",
          "name": "role",
          "type": "bytes32"
        },
        {
          "internalType": "address",
          "name": "account",
          "type": "address"
        }
      ],
      "name": "grantRole",
      "outputs": [],
      "stateMutability": "nonpayable",
      "type": "function"
    },
    {
      "inputs": [
        {
          "internalType": "bytes32",
          "name": "role",
          "type": "bytes32"
        },
        {
          "internalType": "address",
          "name": "account",
          "type": "address"
        }
      ],
      "name": "hasRole",
      "outputs": [
        {
          "internalType": "bool",
          "name": "",
          "type": "bool"
        }
      ],
      "stateMutability": "view",
      "type": "function",
      "constant": true
    },
    {
      "inputs": [
        {
          "internalType": "address",
          "name": "spender",
          "type": "address"
        },
        {
          "internalType": "uint256",
          "name": "addedValue",
          "type": "uint256"
        }
      ],
      "name": "increaseAllowance",
      "outputs": [
        {
          "internalType": "bool",
          "name": "",
          "type": "bool"
        }
      ],
      "stateMutability": "nonpayable",
      "type": "function"
    },
    {
      "inputs": [],
      "name": "name",
      "outputs": [
        {
          "internalType": "string",
          "name": "",
          "type": "string"
        }
      ],
      "stateMutability": "view",
      "type": "function",
      "constant": true
    },
    {
      "inputs": [
        {
          "internalType": "bytes32",
          "name": "role",
          "type": "bytes32"
        },
        {
          "internalType": "address",
          "name": "account",
          "type": "address"
        }
      ],
      "name": "renounceRole",
      "outputs": [],
      "stateMutability": "nonpayable",
      "type": "function"
    },
    {
      "inputs": [
        {
          "internalType": "bytes32",
          "name": "role",
          "type": "bytes32"
        },
        {
          "internalType": "address",
          "name": "account",
          "type": "address"
        }
      ],
      "name": "revokeRole",
      "outputs": [],
      "stateMutability": "nonpayable",
      "type": "function"
    },
    {
      "inputs": [
        {
          "internalType": "bytes4",
          "name": "interfaceId",
          "type": "bytes4"
        }
      ],
      "name": "supportsInterface",
      "outputs": [
        {
          "internalType": "bool",
          "name": "",
          "type": "bool"
        }
      ],
      "stateMutability": "view",
      "type": "function",
      "constant": true
    },
    {
      "inputs": [],
      "name": "symbol",
      "outputs": [
        {
          "internalType": "string",
          "name": "",
          "type": "string"
        }
      ],
      "stateMutability": "view",
      "type": "function",
      "constant": true
    },
    {
      "inputs": [],
      "name": "testSDtoString",
      "outputs": [
        {
          "internalType": "string",
          "name": "",
          "type": "string"
        }
      ],
      "stateMutability": "view",
      "type": "function",
      "constant": true
    },
    {
      "inputs": [],
      "name": "totalSupply",
      "outputs": [
        {
          "internalType": "uint256",
          "name": "",
          "type": "uint256"
        }
      ],
      "stateMutability": "view",
      "type": "function",
      "constant": true
    },
    {
      "inputs": [
        {
          "internalType": "address",
          "name": "to",
          "type": "address"
        },
        {
          "internalType": "uint256",
          "name": "amount",
          "type": "uint256"
        }
      ],
      "name": "transfer",
      "outputs": [
        {
          "internalType": "bool",
          "name": "",
          "type": "bool"
        }
      ],
      "stateMutability": "nonpayable",
      "type": "function"
    },
    {
      "inputs": [
        {
          "internalType": "address",
          "name": "from",
          "type": "address"
        },
        {
          "internalType": "address",
          "name": "to",
          "type": "address"
        },
        {
          "internalType": "uint256",
          "name": "amount",
          "type": "uint256"
        }
      ],
      "name": "transferFrom",
      "outputs": [
        {
          "internalType": "bool",
          "name": "",
          "type": "bool"
        }
      ],
      "stateMutability": "nonpayable",
      "type": "function"
    },
    {
      "inputs": [
        {
          "internalType": "address",
          "name": "minter",
          "type": "address"
        }
      ],
      "name": "grantMintRole",
      "outputs": [],
      "stateMutability": "nonpayable",
      "type": "function"
    },
    {
      "inputs": [
        {
          "internalType": "address",
          "name": "minter",
          "type": "address"
        }
      ],
      "name": "revokeMintRole",
      "outputs": [],
      "stateMutability": "nonpayable",
      "type": "function"
    },
    {
      "inputs": [],
      "name": "totalSupplyStr",
      "outputs": [
        {
          "internalType": "string",
          "name": "",
          "type": "string"
        }
      ],
      "stateMutability": "nonpayable",
      "type": "function"
    },
    {
      "inputs": [
        {
          "internalType": "address",
          "name": "to",
          "type": "address"
        },
        {
          "internalType": "uint256",
          "name": "amount",
          "type": "uint256"
        }
      ],
      "name": "mint",
      "outputs": [],
      "stateMutability": "nonpayable",
      "type": "function"
    }
  ],
  "bytecode": "0x60806040523480156200001157600080fd5b506040518060400160405280601281526020017f53656c66536f7665726569676e546f6b656e00000000000000000000000000008152506040518060400160405280600381526020017f535354000000000000000000000000000000000000000000000000000000000081525081600390816200008f9190620004d0565b508060049081620000a19190620004d0565b505050620000b96000801b33620000f160201b60201c565b620000eb7f9f2df0fed2c77648de5860a4cc508cd0818c85b8b8a1ab4ceeef8d981c8956a633620000f160201b60201c565b620005b7565b620001038282620001e360201b60201c565b620001df5760016005600084815260200190815260200160002060000160008373ffffffffffffffffffffffffffffffffffffffff1673ffffffffffffffffffffffffffffffffffffffff16815260200190815260200160002060006101000a81548160ff021916908315150217905550620001846200024e60201b60201c565b73ffffffffffffffffffffffffffffffffffffffff168173ffffffffffffffffffffffffffffffffffffffff16837f2f8788117e7eff1d82e926ec794901d17c78024a50270940304540a733656f0d60405160405180910390a45b5050565b60006005600084815260200190815260200160002060000160008373ffffffffffffffffffffffffffffffffffffffff1673ffffffffffffffffffffffffffffffffffffffff16815260200190815260200160002060009054906101000a900460ff16905092915050565b600033905090565b600081519050919050565b7f4e487b7100000000000000000000000000000000000000000000000000000000600052604160045260246000fd5b7f4e487b7100000000000000000000000000000000000000000000000000000000600052602260045260246000fd5b60006002820490506001821680620002d857607f821691505b602082108103620002ee57620002ed62000290565b5b50919050565b60008190508160005260206000209050919050565b60006020601f8301049050919050565b600082821b905092915050565b600060088302620003587fffffffffffffffffffffffffffffffffffffffffffffffffffffffffffffffff8262000319565b62000364868362000319565b95508019841693508086168417925050509392505050565b6000819050919050565b6000819050919050565b6000620003b1620003ab620003a5846200037c565b62000386565b6200037c565b9050919050565b6000819050919050565b620003cd8362000390565b620003e5620003dc82620003b8565b84845462000326565b825550505050565b600090565b620003fc620003ed565b62000409818484620003c2565b505050565b5b81811015620004315762000425600082620003f2565b6001810190506200040f565b5050565b601f82111562000480576200044a81620002f4565b620004558462000309565b8101602085101562000465578190505b6200047d620004748562000309565b8301826200040e565b50505b505050565b600082821c905092915050565b6000620004a56000198460080262000485565b1980831691505092915050565b6000620004c0838362000492565b9150826002028217905092915050565b620004db8262000256565b67ffffffffffffffff811115620004f757620004f662000261565b5b620005038254620002bf565b6200051082828562000435565b600060209050601f83116001811462000548576000841562000533578287015190505b6200053f8582620004b2565b865550620005af565b601f1984166200055886620002f4565b60005b8281101562000582578489015182556001820191506020850194506020810190506200055b565b86831015620005a257848901516200059e601f89168262000492565b8355505b6001600288020188555050505b505050505050565b6133e180620005c76000396000f3fe608060405234801561001057600080fd5b50600436106101c45760003560e01c80636632ec12116100f9578063a9059cbb11610097578063d539139311610071578063d53913931461053f578063d547741f1461055d578063dd62ed3e14610579578063f81094f3146105a9576101c4565b8063a9059cbb146104c3578063b5f437a3146104f3578063c2e3273d14610523576101c4565b806391d14854116100d357806391d148541461042757806395d89b4114610457578063a217fddf14610475578063a457c2d714610493576101c4565b80636632ec12146103bd57806370a08231146103db57806379cc67901461040b576101c4565b80632f2ff15d116101665780633950935111610140578063395093511461033957806340c10f191461036957806342966c681461038557806361bca8da146103a1576101c4565b80632f2ff15d146102e3578063313ce567146102ff57806336568abe1461031d576101c4565b806318160ddd116101a257806318160ddd14610247578063201fbe631461026557806323b872dd14610283578063248a9ca3146102b3576101c4565b806301ffc9a7146101c957806306fdde03146101f9578063095ea7b314610217575b600080fd5b6101e360048036038101906101de91906121fc565b6105c5565b6040516101f09190612244565b60405180910390f35b61020161063f565b60405161020e91906122ef565b60405180910390f35b610231600480360381019061022c91906123a5565b6106d1565b60405161023e9190612244565b60405180910390f35b61024f6106f4565b60405161025c91906123f4565b60405180910390f35b61026d6106fe565b60405161027a91906122ef565b60405180910390f35b61029d6004803603810190610298919061240f565b610724565b6040516102aa9190612244565b60405180910390f35b6102cd60048036038101906102c89190612498565b610753565b6040516102da91906124d4565b60405180910390f35b6102fd60048036038101906102f891906124ef565b610773565b005b610307610794565b604051610314919061254b565b60405180910390f35b610337600480360381019061033291906124ef565b61079d565b005b610353600480360381019061034e91906123a5565b610820565b6040516103609190612244565b60405180910390f35b610383600480360381019061037e91906123a5565b610857565b005b61039f600480360381019061039a9190612566565b6108dd565b005b6103bb60048036038101906103b691906126fe565b6108f1565b005b6103c5610927565b6040516103d291906122ef565b60405180910390f35b6103f560048036038101906103f0919061275a565b61094c565b60405161040291906123f4565b60405180910390f35b610425600480360381019061042091906123a5565b610994565b005b610441600480360381019061043c91906124ef565b6109b4565b60405161044e9190612244565b60405180910390f35b61045f610a1f565b60405161046c91906122ef565b60405180910390f35b61047d610ab1565b60405161048a91906124d4565b60405180910390f35b6104ad60048036038101906104a891906123a5565b610ab8565b6040516104ba9190612244565b60405180910390f35b6104dd60048036038101906104d891906123a5565b610b2f565b6040516104ea9190612244565b60405180910390f35b61050d60048036038101906105089190612787565b610b52565b60405161051a91906122ef565b60405180910390f35b61053d6004803603810190610538919061275a565b610e00565b005b610547610e3b565b60405161055491906124d4565b60405180910390f35b610577600480360381019061057291906124ef565b610e5f565b005b610593600480360381019061058e91906127b4565b610e80565b6040516105a091906123f4565b60405180910390f35b6105c360048036038101906105be919061275a565b610f07565b005b60007f7965db0b000000000000000000000000000000000000000000000000000000007bffffffffffffffffffffffffffffffffffffffffffffffffffffffff1916827bffffffffffffffffffffffffffffffffffffffffffffffffffffffff19161480610638575061063782610f42565b5b9050919050565b60606003805461064e90612823565b80601f016020809104026020016040519081016040528092919081815260200182805461067a90612823565b80156106c75780601f1061069c576101008083540402835291602001916106c7565b820191906000526020600020905b8154815290600101906020018083116106aa57829003601f168201915b5050505050905090565b6000806106dc610fac565b90506106e9818585610fb4565b600191505092915050565b6000600254905090565b60606000610713670e083032ce3a71bc61117d565b905061071e81610b52565b91505090565b60008061072f610fac565b905061073c85828561118f565b61074785858561121b565b60019150509392505050565b600060056000838152602001908152602001600020600101549050919050565b61077c82610753565b61078581611491565b61078f83836114a5565b505050565b60006012905090565b6107a5610fac565b73ffffffffffffffffffffffffffffffffffffffff168173ffffffffffffffffffffffffffffffffffffffff1614610812576040517f08c379a0000000000000000000000000000000000000000000000000000000008152600401610809906128c6565b60405180910390fd5b61081c8282611586565b5050565b60008061082b610fac565b905061084c81858561083d8589610e80565b6108479190612915565b610fb4565b600191505092915050565b7f9f2df0fed2c77648de5860a4cc508cd0818c85b8b8a1ab4ceeef8d981c8956a661088181611491565b61088b8383611668565b60006108968361117d565b90507f845020906442ad0651b44a75d9767153912bfa586416784cf8ead41b37b1dbf56108c282610b52565b6040516108cf91906122ef565b60405180910390a150505050565b6108ee6108e8610fac565b826117be565b50565b610923826108fe83610b52565b60405160200161090f9291906129ab565b60405160208183030381529060405261198b565b5050565b6060600061093b6109366106f4565b61117d565b905061094681610b52565b91505090565b60008060008373ffffffffffffffffffffffffffffffffffffffff1673ffffffffffffffffffffffffffffffffffffffff168152602001908152602001600020549050919050565b6109a6826109a0610fac565b8361118f565b6109b082826117be565b5050565b60006005600084815260200190815260200160002060000160008373ffffffffffffffffffffffffffffffffffffffff1673ffffffffffffffffffffffffffffffffffffffff16815260200190815260200160002060009054906101000a900460ff16905092915050565b606060048054610a2e90612823565b80601f0160208091040260200160405190810160405280929190818152602001828054610a5a90612823565b8015610aa75780601f10610a7c57610100808354040283529160200191610aa7565b820191906000526020600020905b815481529060010190602001808311610a8a57829003601f168201915b5050505050905090565b6000801b81565b600080610ac3610fac565b90506000610ad18286610e80565b905083811015610b16576040517f08c379a0000000000000000000000000000000000000000000000000000000008152600401610b0d90612a50565b60405180910390fd5b610b238286868403610fb4565b60019250505092915050565b600080610b3a610fac565b9050610b4781858561121b565b600191505092915050565b6060600080604051806020016040528060008152509050610b85610b76600061117d565b85611a2490919063ffffffff16565b15610bd257610b9384611a41565b91506040518060400160405280600181526020017f2d000000000000000000000000000000000000000000000000000000000000008152509050610bd6565b8391505b6000610be183611ad1565b90506000610bf88285611b9e90919063ffffffff16565b90506000610c0d610c0884611bcc565b611be9565b90506000610c22610c1d84611cb7565b611be9565b905060008190506000601267ffffffffffffffff811115610c4657610c4561259d565b5b6040519080825280601f01601f191660200182016040528015610c785781602001600182028036833780820191505090505b509050601282511015610dcc57600082516012610c959190612a70565b905060005b6012811015610d9157808211610d1a57838282610cb79190612a70565b81518110610cc857610cc7612aa4565b5b602001015160f81c60f81b838281518110610ce657610ce5612aa4565b5b60200101907effffffffffffffffffffffffffffffffffffffffffffffffffffffffffffff1916908160001a905350610d7e565b7f3000000000000000000000000000000000000000000000000000000000000000838281518110610d4e57610d4d612aa4565b5b60200101907effffffffffffffffffffffffffffffffffffffffffffffffffffffffffffff1916908160001a9053505b8080610d8990612ad3565b915050610c9a565b506000829050888682604051602001610dac93929190612b41565b6040516020818303038152906040529a5050505050505050505050610dfb565b868484604051602001610de193929190612b41565b604051602081830303815290604052985050505050505050505b919050565b6000801b610e0d81611491565b610e377f9f2df0fed2c77648de5860a4cc508cd0818c85b8b8a1ab4ceeef8d981c8956a6836114a5565b5050565b7f9f2df0fed2c77648de5860a4cc508cd0818c85b8b8a1ab4ceeef8d981c8956a681565b610e6882610753565b610e7181611491565b610e7b8383611586565b505050565b6000600160008473ffffffffffffffffffffffffffffffffffffffff1673ffffffffffffffffffffffffffffffffffffffff16815260200190815260200160002060008373ffffffffffffffffffffffffffffffffffffffff1673ffffffffffffffffffffffffffffffffffffffff16815260200190815260200160002054905092915050565b6000801b610f1481611491565b610f3e7f9f2df0fed2c77648de5860a4cc508cd0818c85b8b8a1ab4ceeef8d981c8956a683611586565b5050565b60007f01ffc9a7000000000000000000000000000000000000000000000000000000007bffffffffffffffffffffffffffffffffffffffffffffffffffffffff1916827bffffffffffffffffffffffffffffffffffffffffffffffffffffffff1916149050919050565b600033905090565b600073ffffffffffffffffffffffffffffffffffffffff168373ffffffffffffffffffffffffffffffffffffffff1603611023576040517f08c379a000000000000000000000000000000000000000000000000000000000815260040161101a90612bf3565b60405180910390fd5b600073ffffffffffffffffffffffffffffffffffffffff168273ffffffffffffffffffffffffffffffffffffffff1603611092576040517f08c379a000000000000000000000000000000000000000000000000000000000815260040161108990612c85565b60405180910390fd5b80600160008573ffffffffffffffffffffffffffffffffffffffff1673ffffffffffffffffffffffffffffffffffffffff16815260200190815260200160002060008473ffffffffffffffffffffffffffffffffffffffff1673ffffffffffffffffffffffffffffffffffffffff168152602001908152602001600020819055508173ffffffffffffffffffffffffffffffffffffffff168373ffffffffffffffffffffffffffffffffffffffff167f8c5be1e5ebec7d5bd14f71427d1e84f3dd0314c0f7b2291e5b200ac8c7c3b9258360405161117091906123f4565b60405180910390a3505050565b600061118882611d0c565b9050919050565b600061119b8484610e80565b90507fffffffffffffffffffffffffffffffffffffffffffffffffffffffffffffffff81146112155781811015611207576040517f08c379a00000000000000000000000000000000000000000000000000000000081526004016111fe90612cf1565b60405180910390fd5b6112148484848403610fb4565b5b50505050565b600073ffffffffffffffffffffffffffffffffffffffff168373ffffffffffffffffffffffffffffffffffffffff160361128a576040517f08c379a000000000000000000000000000000000000000000000000000000000815260040161128190612d83565b60405180910390fd5b600073ffffffffffffffffffffffffffffffffffffffff168273ffffffffffffffffffffffffffffffffffffffff16036112f9576040517f08c379a00000000000000000000000000000000000000000000000000000000081526004016112f090612e15565b60405180910390fd5b611304838383611d16565b60008060008573ffffffffffffffffffffffffffffffffffffffff1673ffffffffffffffffffffffffffffffffffffffff1681526020019081526020016000205490508181101561138a576040517f08c379a000000000000000000000000000000000000000000000000000000000815260040161138190612ea7565b60405180910390fd5b8181036000808673ffffffffffffffffffffffffffffffffffffffff1673ffffffffffffffffffffffffffffffffffffffff16815260200190815260200160002081905550816000808573ffffffffffffffffffffffffffffffffffffffff1673ffffffffffffffffffffffffffffffffffffffff168152602001908152602001600020600082825401925050819055508273ffffffffffffffffffffffffffffffffffffffff168473ffffffffffffffffffffffffffffffffffffffff167fddf252ad1be2c89b69c2b068fc378daa952ba7f163c4a11628f55a4df523b3ef8460405161147891906123f4565b60405180910390a361148b848484611d1b565b50505050565b6114a28161149d610fac565b611d20565b50565b6114af82826109b4565b6115825760016005600084815260200190815260200160002060000160008373ffffffffffffffffffffffffffffffffffffffff1673ffffffffffffffffffffffffffffffffffffffff16815260200190815260200160002060006101000a81548160ff021916908315150217905550611527610fac565b73ffffffffffffffffffffffffffffffffffffffff168173ffffffffffffffffffffffffffffffffffffffff16837f2f8788117e7eff1d82e926ec794901d17c78024a50270940304540a733656f0d60405160405180910390a45b5050565b61159082826109b4565b156116645760006005600084815260200190815260200160002060000160008373ffffffffffffffffffffffffffffffffffffffff1673ffffffffffffffffffffffffffffffffffffffff16815260200190815260200160002060006101000a81548160ff021916908315150217905550611609610fac565b73ffffffffffffffffffffffffffffffffffffffff168173ffffffffffffffffffffffffffffffffffffffff16837ff6391f5c32d9c69d2a47ea670b442974b53935d1edc7fd64eb21e047a839171b60405160405180910390a45b5050565b600073ffffffffffffffffffffffffffffffffffffffff168273ffffffffffffffffffffffffffffffffffffffff16036116d7576040517f08c379a00000000000000000000000000000000000000000000000000000000081526004016116ce90612f13565b60405180910390fd5b6116e360008383611d16565b80600260008282546116f59190612915565b92505081905550806000808473ffffffffffffffffffffffffffffffffffffffff1673ffffffffffffffffffffffffffffffffffffffff168152602001908152602001600020600082825401925050819055508173ffffffffffffffffffffffffffffffffffffffff16600073ffffffffffffffffffffffffffffffffffffffff167fddf252ad1be2c89b69c2b068fc378daa952ba7f163c4a11628f55a4df523b3ef836040516117a691906123f4565b60405180910390a36117ba60008383611d1b565b5050565b600073ffffffffffffffffffffffffffffffffffffffff168273ffffffffffffffffffffffffffffffffffffffff160361182d576040517f08c379a000000000000000000000000000000000000000000000000000000000815260040161182490612fa5565b60405180910390fd5b61183982600083611d16565b60008060008473ffffffffffffffffffffffffffffffffffffffff1673ffffffffffffffffffffffffffffffffffffffff168152602001908152602001600020549050818110156118bf576040517f08c379a00000000000000000000000000000000000000000000000000000000081526004016118b690613037565b60405180910390fd5b8181036000808573ffffffffffffffffffffffffffffffffffffffff1673ffffffffffffffffffffffffffffffffffffffff1681526020019081526020016000208190555081600260008282540392505081905550600073ffffffffffffffffffffffffffffffffffffffff168373ffffffffffffffffffffffffffffffffffffffff167fddf252ad1be2c89b69c2b068fc378daa952ba7f163c4a11628f55a4df523b3ef8460405161197291906123f4565b60405180910390a361198683600084611d1b565b505050565b611a218160405160240161199f91906122ef565b6040516020818303038152906040527f41304fac000000000000000000000000000000000000000000000000000000007bffffffffffffffffffffffffffffffffffffffffffffffffffffffff19166020820180517bffffffffffffffffffffffffffffffffffffffffffffffffffffffff8381831617835250505050611da5565b50565b6000611a2f82611dca565b611a3884611dca565b12905092915050565b600080611a4d83611dca565b90507f80000000000000000000000000000000000000000000000000000000000000008103611aa8576040517fec2b9e6700000000000000000000000000000000000000000000000000000000815260040160405180910390fd5b60008112611ab65782611ac9565b611ac881611ac390613057565b611d0c565b5b915050919050565b600080611add83611dca565b90507f8000000000000000000000000000000000000000000000000afdc366fbc00000811215611b4457826040517f27064054000000000000000000000000000000000000000000000000000000008152600401611b3b91906130da565b60405180910390fd5b6000670de0b6b3a764000082611b5a9190613124565b905060008103611b6c57839250611b97565b600081830390506000831215611b8a57670de0b6b3a7640000810390505b611b9381611d0c565b9350505b5050919050565b6000611bc4611bac83611dca565b611bb585611dca565b611bbf9190613155565b611d0c565b905092915050565b6000670de0b6b3a764000082611be29190613198565b9050919050565b606060006001611bf884611dd4565b01905060008167ffffffffffffffff811115611c1757611c1661259d565b5b6040519080825280601f01601f191660200182016040528015611c495781602001600182028036833780820191505090505b509050600082602001820190505b600115611cac578080600190039150507f3031323334353637383961626364656600000000000000000000000000000000600a86061a8153600a8581611ca057611c9f6130f5565b5b04945060008503611c57575b819350505050919050565b6000808290506000811215611d0357826040517f2463f3d5000000000000000000000000000000000000000000000000000000008152600401611cfa91906130da565b60405180910390fd5b80915050919050565b6000819050919050565b505050565b505050565b611d2a82826109b4565b611da157611d3781611f27565b611d458360001c6020611f54565b604051602001611d5692919061329a565b6040516020818303038152906040526040517f08c379a0000000000000000000000000000000000000000000000000000000008152600401611d9891906122ef565b60405180910390fd5b5050565b60006a636f6e736f6c652e6c6f6790508151602083016000808383865afa5050505050565b6000819050919050565b600080600090507a184f03e93ff9f4daa797ed6e38ed64bf6a1f0100000000000000008310611e32577a184f03e93ff9f4daa797ed6e38ed64bf6a1f0100000000000000008381611e2857611e276130f5565b5b0492506040810190505b6d04ee2d6d415b85acef81000000008310611e6f576d04ee2d6d415b85acef81000000008381611e6557611e646130f5565b5b0492506020810190505b662386f26fc100008310611e9e57662386f26fc100008381611e9457611e936130f5565b5b0492506010810190505b6305f5e1008310611ec7576305f5e1008381611ebd57611ebc6130f5565b5b0492506008810190505b6127108310611eec576127108381611ee257611ee16130f5565b5b0492506004810190505b60648310611f0f5760648381611f0557611f046130f5565b5b0492506002810190505b600a8310611f1e576001810190505b80915050919050565b6060611f4d8273ffffffffffffffffffffffffffffffffffffffff16601460ff16611f54565b9050919050565b606060006002836002611f6791906132d4565b611f719190612915565b67ffffffffffffffff811115611f8a57611f8961259d565b5b6040519080825280601f01601f191660200182016040528015611fbc5781602001600182028036833780820191505090505b5090507f300000000000000000000000000000000000000000000000000000000000000081600081518110611ff457611ff3612aa4565b5b60200101907effffffffffffffffffffffffffffffffffffffffffffffffffffffffffffff1916908160001a9053507f78000000000000000000000000000000000000000000000000000000000000008160018151811061205857612057612aa4565b5b60200101907effffffffffffffffffffffffffffffffffffffffffffffffffffffffffffff1916908160001a9053506000600184600261209891906132d4565b6120a29190612915565b90505b6001811115612142577f3031323334353637383961626364656600000000000000000000000000000000600f8616601081106120e4576120e3612aa4565b5b1a60f81b8282815181106120fb576120fa612aa4565b5b60200101907effffffffffffffffffffffffffffffffffffffffffffffffffffffffffffff1916908160001a905350600485901c94508061213b90613316565b90506120a5565b5060008414612186576040517f08c379a000000000000000000000000000000000000000000000000000000000815260040161217d9061338b565b60405180910390fd5b8091505092915050565b6000604051905090565b600080fd5b600080fd5b60007fffffffff0000000000000000000000000000000000000000000000000000000082169050919050565b6121d9816121a4565b81146121e457600080fd5b50565b6000813590506121f6816121d0565b92915050565b6000602082840312156122125761221161219a565b5b6000612220848285016121e7565b91505092915050565b60008115159050919050565b61223e81612229565b82525050565b60006020820190506122596000830184612235565b92915050565b600081519050919050565b600082825260208201905092915050565b60005b8381101561229957808201518184015260208101905061227e565b60008484015250505050565b6000601f19601f8301169050919050565b60006122c18261225f565b6122cb818561226a565b93506122db81856020860161227b565b6122e4816122a5565b840191505092915050565b6000602082019050818103600083015261230981846122b6565b905092915050565b600073ffffffffffffffffffffffffffffffffffffffff82169050919050565b600061233c82612311565b9050919050565b61234c81612331565b811461235757600080fd5b50565b60008135905061236981612343565b92915050565b6000819050919050565b6123828161236f565b811461238d57600080fd5b50565b60008135905061239f81612379565b92915050565b600080604083850312156123bc576123bb61219a565b5b60006123ca8582860161235a565b92505060206123db85828601612390565b9150509250929050565b6123ee8161236f565b82525050565b600060208201905061240960008301846123e5565b92915050565b6000806000606084860312156124285761242761219a565b5b60006124368682870161235a565b93505060206124478682870161235a565b925050604061245886828701612390565b9150509250925092565b6000819050919050565b61247581612462565b811461248057600080fd5b50565b6000813590506124928161246c565b92915050565b6000602082840312156124ae576124ad61219a565b5b60006124bc84828501612483565b91505092915050565b6124ce81612462565b82525050565b60006020820190506124e960008301846124c5565b92915050565b600080604083850312156125065761250561219a565b5b600061251485828601612483565b92505060206125258582860161235a565b9150509250929050565b600060ff82169050919050565b6125458161252f565b82525050565b6000602082019050612560600083018461253c565b92915050565b60006020828403121561257c5761257b61219a565b5b600061258a84828501612390565b91505092915050565b600080fd5b600080fd5b7f4e487b7100000000000000000000000000000000000000000000000000000000600052604160045260246000fd5b6125d5826122a5565b810181811067ffffffffffffffff821117156125f4576125f361259d565b5b80604052505050565b6000612607612190565b905061261382826125cc565b919050565b600067ffffffffffffffff8211156126335761263261259d565b5b61263c826122a5565b9050602081019050919050565b82818337600083830152505050565b600061266b61266684612618565b6125fd565b90508281526020810184848401111561268757612686612598565b5b612692848285612649565b509392505050565b600082601f8301126126af576126ae612593565b5b81356126bf848260208601612658565b91505092915050565b6000819050919050565b6126db816126c8565b81146126e657600080fd5b50565b6000813590506126f8816126d2565b92915050565b600080604083850312156127155761271461219a565b5b600083013567ffffffffffffffff8111156127335761273261219f565b5b61273f8582860161269a565b9250506020612750858286016126e9565b9150509250929050565b6000602082840312156127705761276f61219a565b5b600061277e8482850161235a565b91505092915050565b60006020828403121561279d5761279c61219a565b5b60006127ab848285016126e9565b91505092915050565b600080604083850312156127cb576127ca61219a565b5b60006127d98582860161235a565b92505060206127ea8582860161235a565b9150509250929050565b7f4e487b7100000000000000000000000000000000000000000000000000000000600052602260045260246000fd5b6000600282049050600182168061283b57607f821691505b60208210810361284e5761284d6127f4565b5b50919050565b7f416363657373436f6e74726f6c3a2063616e206f6e6c792072656e6f756e636560008201527f20726f6c657320666f722073656c660000000000000000000000000000000000602082015250565b60006128b0602f8361226a565b91506128bb82612854565b604082019050919050565b600060208201905081810360008301526128df816128a3565b9050919050565b7f4e487b7100000000000000000000000000000000000000000000000000000000600052601160045260246000fd5b60006129208261236f565b915061292b8361236f565b9250828201905080821115612943576129426128e6565b5b92915050565b600081905092915050565b600061295f8261225f565b6129698185612949565b935061297981856020860161227b565b80840191505092915050565b7f2000000000000000000000000000000000000000000000000000000000000000815250565b60006129b78285612954565b91506129c282612985565b6001820191506129d28284612954565b91508190509392505050565b7f45524332303a2064656372656173656420616c6c6f77616e63652062656c6f7760008201527f207a65726f000000000000000000000000000000000000000000000000000000602082015250565b6000612a3a60258361226a565b9150612a45826129de565b604082019050919050565b60006020820190508181036000830152612a6981612a2d565b9050919050565b6000612a7b8261236f565b9150612a868361236f565b9250828203905081811115612a9e57612a9d6128e6565b5b92915050565b7f4e487b7100000000000000000000000000000000000000000000000000000000600052603260045260246000fd5b6000612ade8261236f565b91507fffffffffffffffffffffffffffffffffffffffffffffffffffffffffffffffff8203612b1057612b0f6128e6565b5b600182019050919050565b7f2e00000000000000000000000000000000000000000000000000000000000000815250565b6000612b4d8286612954565b9150612b598285612954565b9150612b6482612b1b565b600182019150612b748284612954565b9150819050949350505050565b7f45524332303a20617070726f76652066726f6d20746865207a65726f2061646460008201527f7265737300000000000000000000000000000000000000000000000000000000602082015250565b6000612bdd60248361226a565b9150612be882612b81565b604082019050919050565b60006020820190508181036000830152612c0c81612bd0565b9050919050565b7f45524332303a20617070726f766520746f20746865207a65726f20616464726560008201527f7373000000000000000000000000000000000000000000000000000000000000602082015250565b6000612c6f60228361226a565b9150612c7a82612c13565b604082019050919050565b60006020820190508181036000830152612c9e81612c62565b9050919050565b7f45524332303a20696e73756666696369656e7420616c6c6f77616e6365000000600082015250565b6000612cdb601d8361226a565b9150612ce682612ca5565b602082019050919050565b60006020820190508181036000830152612d0a81612cce565b9050919050565b7f45524332303a207472616e736665722066726f6d20746865207a65726f20616460008201527f6472657373000000000000000000000000000000000000000000000000000000602082015250565b6000612d6d60258361226a565b9150612d7882612d11565b604082019050919050565b60006020820190508181036000830152612d9c81612d60565b9050919050565b7f45524332303a207472616e7366657220746f20746865207a65726f206164647260008201527f6573730000000000000000000000000000000000000000000000000000000000602082015250565b6000612dff60238361226a565b9150612e0a82612da3565b604082019050919050565b60006020820190508181036000830152612e2e81612df2565b9050919050565b7f45524332303a207472616e7366657220616d6f756e742065786365656473206260008201527f616c616e63650000000000000000000000000000000000000000000000000000602082015250565b6000612e9160268361226a565b9150612e9c82612e35565b604082019050919050565b60006020820190508181036000830152612ec081612e84565b9050919050565b7f45524332303a206d696e7420746f20746865207a65726f206164647265737300600082015250565b6000612efd601f8361226a565b9150612f0882612ec7565b602082019050919050565b60006020820190508181036000830152612f2c81612ef0565b9050919050565b7f45524332303a206275726e2066726f6d20746865207a65726f2061646472657360008201527f7300000000000000000000000000000000000000000000000000000000000000602082015250565b6000612f8f60218361226a565b9150612f9a82612f33565b604082019050919050565b60006020820190508181036000830152612fbe81612f82565b9050919050565b7f45524332303a206275726e20616d6f756e7420657863656564732062616c616e60008201527f6365000000000000000000000000000000000000000000000000000000000000602082015250565b600061302160228361226a565b915061302c82612fc5565b604082019050919050565b6000602082019050818103600083015261305081613014565b9050919050565b6000613062826126c8565b91507f80000000000000000000000000000000000000000000000000000000000000008203613094576130936128e6565b5b816000039050919050565b6000819050919050565b60006130c46130bf6130ba846126c8565b61309f565b6126c8565b9050919050565b6130d4816130a9565b82525050565b60006020820190506130ef60008301846130cb565b92915050565b7f4e487b7100000000000000000000000000000000000000000000000000000000600052601260045260246000fd5b600061312f826126c8565b915061313a836126c8565b92508261314a576131496130f5565b5b828207905092915050565b6000613160826126c8565b915061316b836126c8565b9250828203905081811260008412168282136000851215161715613192576131916128e6565b5b92915050565b60006131a3826126c8565b91506131ae836126c8565b9250826131be576131bd6130f5565b5b600160000383147f8000000000000000000000000000000000000000000000000000000000000000831416156131f7576131f66128e6565b5b828205905092915050565b7f416363657373436f6e74726f6c3a206163636f756e7420000000000000000000600082015250565b6000613238601783612949565b915061324382613202565b601782019050919050565b7f206973206d697373696e6720726f6c6520000000000000000000000000000000600082015250565b6000613284601183612949565b915061328f8261324e565b601182019050919050565b60006132a58261322b565b91506132b18285612954565b91506132bc82613277565b91506132c88284612954565b91508190509392505050565b60006132df8261236f565b91506132ea8361236f565b92508282026132f88161236f565b9150828204841483151761330f5761330e6128e6565b5b5092915050565b60006133218261236f565b915060008203613334576133336128e6565b5b600182039050919050565b7f537472696e67733a20686578206c656e67746820696e73756666696369656e74600082015250565b600061337560208361226a565b91506133808261333f565b602082019050919050565b600060208201905081810360008301526133a481613368565b905091905056fea2646970667358221220007319f142ccdfadc6047a3a7de02d1b9a96675a3af3dcf56eb347467215778964736f6c63430008130033",
  "immutableReferences": {},
  "source": "// SPDX-License-Identifier: UNLICENSED\npragma solidity ^0.8.19;\n\nimport \"@openzeppelin/contracts/token/ERC20/ERC20.sol\";\nimport \"@openzeppelin/contracts/token/ERC20/extensions/ERC20Burnable.sol\";\n\nimport \"@openzeppelin/contracts/access/AccessControl.sol\";\nimport { SD59x18, sd, convert } from \"@prb/math/src/SD59x18.sol\";\nimport \"./Utils.sol\";\n\ncontract SelfSovereignToken is ERC20, ERC20Burnable, AccessControl, Utils {\n    bytes32 public constant MINTER_ROLE = keccak256(\"MINTER_ROLE\");\n\n    event Minted(string value);\n    //event Burned(string value);\n    \n    constructor() ERC20(\"SelfSovereignToken\", \"SST\") {\n        _grantRole(DEFAULT_ADMIN_ROLE, msg.sender);\n        _grantRole(MINTER_ROLE, msg.sender);\n    }\n\n    function grantMintRole(address minter) public onlyRole(DEFAULT_ADMIN_ROLE) {\n        _grantRole(MINTER_ROLE, minter);\n    }\n\n    function revokeMintRole(address minter) public onlyRole(DEFAULT_ADMIN_ROLE) {\n        _revokeRole(MINTER_ROLE, minter);\n    }\n\n    function totalSupplyStr() public returns(string memory) {\n        SD59x18 a = sd(int(totalSupply()));\n        return SDtoString(a);\n    }\n\n    function mint(address to, uint256 amount) public onlyRole(MINTER_ROLE) {\n        _mint(to, amount);\n        SD59x18 a = sd(int(amount));\n        emit Minted(SDtoString(a));\n        // uint256 b = amount / (10 ** 18);\n        // console.log(\"Minted \", b);\n    }\n}",
  "sourcePath": "/Users/kim/projects/E2/prototype/contracts/SelfSovereignToken.sol",
  "compiler": {
    "name": "solc",
    "version": "0.8.19+commit.7dd6d404.Emscripten.clang"
  },
  "schemaVersion": "3.4.13",
  "updatedAt": "2023-03-26T10:03:53.624Z",
  "networkType": "ethereum",
  "devdoc": {
    "events": {
      "Approval(address,address,uint256)": {
        "details": "Emitted when the allowance of a `spender` for an `owner` is set by a call to {approve}. `value` is the new allowance."
      },
      "RoleAdminChanged(bytes32,bytes32,bytes32)": {
        "details": "Emitted when `newAdminRole` is set as ``role``'s admin role, replacing `previousAdminRole` `DEFAULT_ADMIN_ROLE` is the starting admin for all roles, despite {RoleAdminChanged} not being emitted signaling this. _Available since v3.1._"
      },
      "RoleGranted(bytes32,address,address)": {
        "details": "Emitted when `account` is granted `role`. `sender` is the account that originated the contract call, an admin role bearer except when using {AccessControl-_setupRole}."
      },
      "RoleRevoked(bytes32,address,address)": {
        "details": "Emitted when `account` is revoked `role`. `sender` is the account that originated the contract call:   - if using `revokeRole`, it is the admin role bearer   - if using `renounceRole`, it is the role bearer (i.e. `account`)"
      },
      "Transfer(address,address,uint256)": {
        "details": "Emitted when `value` tokens are moved from one account (`from`) to another (`to`). Note that `value` may be zero."
      }
    },
    "kind": "dev",
    "methods": {
      "allowance(address,address)": {
        "details": "See {IERC20-allowance}."
      },
      "approve(address,uint256)": {
        "details": "See {IERC20-approve}. NOTE: If `amount` is the maximum `uint256`, the allowance is not updated on `transferFrom`. This is semantically equivalent to an infinite approval. Requirements: - `spender` cannot be the zero address."
      },
      "balanceOf(address)": {
        "details": "See {IERC20-balanceOf}."
      },
      "burn(uint256)": {
        "details": "Destroys `amount` tokens from the caller. See {ERC20-_burn}."
      },
      "burnFrom(address,uint256)": {
        "details": "Destroys `amount` tokens from `account`, deducting from the caller's allowance. See {ERC20-_burn} and {ERC20-allowance}. Requirements: - the caller must have allowance for ``accounts``'s tokens of at least `amount`."
      },
      "decimals()": {
        "details": "Returns the number of decimals used to get its user representation. For example, if `decimals` equals `2`, a balance of `505` tokens should be displayed to a user as `5.05` (`505 / 10 ** 2`). Tokens usually opt for a value of 18, imitating the relationship between Ether and Wei. This is the value {ERC20} uses, unless this function is overridden; NOTE: This information is only used for _display_ purposes: it in no way affects any of the arithmetic of the contract, including {IERC20-balanceOf} and {IERC20-transfer}."
      },
      "decreaseAllowance(address,uint256)": {
        "details": "Atomically decreases the allowance granted to `spender` by the caller. This is an alternative to {approve} that can be used as a mitigation for problems described in {IERC20-approve}. Emits an {Approval} event indicating the updated allowance. Requirements: - `spender` cannot be the zero address. - `spender` must have allowance for the caller of at least `subtractedValue`."
      },
      "getRoleAdmin(bytes32)": {
        "details": "Returns the admin role that controls `role`. See {grantRole} and {revokeRole}. To change a role's admin, use {_setRoleAdmin}."
      },
      "grantRole(bytes32,address)": {
        "details": "Grants `role` to `account`. If `account` had not been already granted `role`, emits a {RoleGranted} event. Requirements: - the caller must have ``role``'s admin role. May emit a {RoleGranted} event."
      },
      "hasRole(bytes32,address)": {
        "details": "Returns `true` if `account` has been granted `role`."
      },
      "increaseAllowance(address,uint256)": {
        "details": "Atomically increases the allowance granted to `spender` by the caller. This is an alternative to {approve} that can be used as a mitigation for problems described in {IERC20-approve}. Emits an {Approval} event indicating the updated allowance. Requirements: - `spender` cannot be the zero address."
      },
      "name()": {
        "details": "Returns the name of the token."
      },
      "renounceRole(bytes32,address)": {
        "details": "Revokes `role` from the calling account. Roles are often managed via {grantRole} and {revokeRole}: this function's purpose is to provide a mechanism for accounts to lose their privileges if they are compromised (such as when a trusted device is misplaced). If the calling account had been revoked `role`, emits a {RoleRevoked} event. Requirements: - the caller must be `account`. May emit a {RoleRevoked} event."
      },
      "revokeRole(bytes32,address)": {
        "details": "Revokes `role` from `account`. If `account` had been granted `role`, emits a {RoleRevoked} event. Requirements: - the caller must have ``role``'s admin role. May emit a {RoleRevoked} event."
      },
      "supportsInterface(bytes4)": {
        "details": "See {IERC165-supportsInterface}."
      },
      "symbol()": {
        "details": "Returns the symbol of the token, usually a shorter version of the name."
      },
      "totalSupply()": {
        "details": "See {IERC20-totalSupply}."
      },
      "transfer(address,uint256)": {
        "details": "See {IERC20-transfer}. Requirements: - `to` cannot be the zero address. - the caller must have a balance of at least `amount`."
      },
      "transferFrom(address,address,uint256)": {
        "details": "See {IERC20-transferFrom}. Emits an {Approval} event indicating the updated allowance. This is not required by the EIP. See the note at the beginning of {ERC20}. NOTE: Does not update the allowance if the current allowance is the maximum `uint256`. Requirements: - `from` and `to` cannot be the zero address. - `from` must have a balance of at least `amount`. - the caller must have allowance for ``from``'s tokens of at least `amount`."
      }
    },
    "version": 1
  },
  "userdoc": {
    "errors": {
      "PRBMath_SD59x18_Abs_MinSD59x18()": [
        {
          "notice": "Emitted when taking the absolute value of `MIN_SD59x18`."
        }
      ],
      "PRBMath_SD59x18_Floor_Underflow(int256)": [
        {
          "notice": "Emitted when flooring a number underflows SD59x18."
        }
      ],
      "PRBMath_SD59x18_IntoUint256_Underflow(int256)": [
        {
          "notice": "Emitted when trying to cast an UD60x18 number that doesn't fit in uint256."
        }
      ]
    },
    "kind": "user",
    "methods": {},
    "version": 1
  }
}