{
  "contractName": "SelfSovereignMoneySystem",
  "abi": [
    {
      "inputs": [
        {
          "internalType": "address",
          "name": "_addrSST",
          "type": "address"
        },
        {
          "internalType": "address",
          "name": "_addrPDT",
          "type": "address"
        },
        {
          "internalType": "address",
          "name": "_addrQLE",
          "type": "address"
        },
        {
          "internalType": "address",
          "name": "_addrDC",
          "type": "address"
        }
      ],
      "stateMutability": "nonpayable",
      "type": "constructor"
    },
    {
      "inputs": [
        {
          "internalType": "uint256",
          "name": "x",
          "type": "uint256"
        },
        {
          "internalType": "uint256",
          "name": "y",
          "type": "uint256"
        }
      ],
      "name": "PRBMath_MulDiv18_Overflow",
      "type": "error"
    },
    {
      "inputs": [
        {
          "internalType": "uint256",
          "name": "x",
          "type": "uint256"
        },
        {
          "internalType": "uint256",
          "name": "y",
          "type": "uint256"
        },
        {
          "internalType": "uint256",
          "name": "denominator",
          "type": "uint256"
        }
      ],
      "name": "PRBMath_MulDiv_Overflow",
      "type": "error"
    },
    {
      "inputs": [],
      "name": "PRBMath_SD59x18_Abs_MinSD59x18",
      "type": "error"
    },
    {
      "inputs": [
        {
          "internalType": "int256",
          "name": "x",
          "type": "int256"
        }
      ],
      "name": "PRBMath_SD59x18_Convert_Overflow",
      "type": "error"
    },
    {
      "inputs": [
        {
          "internalType": "int256",
          "name": "x",
          "type": "int256"
        }
      ],
      "name": "PRBMath_SD59x18_Convert_Underflow",
      "type": "error"
    },
    {
      "inputs": [],
      "name": "PRBMath_SD59x18_Div_InputTooSmall",
      "type": "error"
    },
    {
      "inputs": [
        {
          "internalType": "SD59x18",
          "name": "x",
          "type": "int256"
        },
        {
          "internalType": "SD59x18",
          "name": "y",
          "type": "int256"
        }
      ],
      "name": "PRBMath_SD59x18_Div_Overflow",
      "type": "error"
    },
    {
      "inputs": [
        {
          "internalType": "SD59x18",
          "name": "x",
          "type": "int256"
        }
      ],
      "name": "PRBMath_SD59x18_Exp2_InputTooBig",
      "type": "error"
    },
    {
      "inputs": [
        {
          "internalType": "SD59x18",
          "name": "x",
          "type": "int256"
        }
      ],
      "name": "PRBMath_SD59x18_Floor_Underflow",
      "type": "error"
    },
    {
      "inputs": [
        {
          "internalType": "SD59x18",
          "name": "x",
          "type": "int256"
        }
      ],
      "name": "PRBMath_SD59x18_IntoUint256_Underflow",
      "type": "error"
    },
    {
      "inputs": [
        {
          "internalType": "SD59x18",
          "name": "x",
          "type": "int256"
        }
      ],
      "name": "PRBMath_SD59x18_Log_InputTooSmall",
      "type": "error"
    },
    {
      "inputs": [],
      "name": "PRBMath_SD59x18_Mul_InputTooSmall",
      "type": "error"
    },
    {
      "inputs": [
        {
          "internalType": "SD59x18",
          "name": "x",
          "type": "int256"
        },
        {
          "internalType": "SD59x18",
          "name": "y",
          "type": "int256"
        }
      ],
      "name": "PRBMath_SD59x18_Mul_Overflow",
      "type": "error"
    },
    {
      "anonymous": false,
      "inputs": [
        {
          "indexed": true,
          "internalType": "address",
          "name": "previousOwner",
          "type": "address"
        },
        {
          "indexed": true,
          "internalType": "address",
          "name": "newOwner",
          "type": "address"
        }
      ],
      "name": "OwnershipTransferred",
      "type": "event"
    },
    {
      "inputs": [],
      "name": "DC",
      "outputs": [
        {
          "internalType": "contract DebtContracts",
          "name": "",
          "type": "address"
        }
      ],
      "stateMutability": "view",
      "type": "function",
      "constant": true
    },
    {
      "inputs": [],
      "name": "PDT",
      "outputs": [
        {
          "internalType": "contract PooledDebtToken",
          "name": "",
          "type": "address"
        }
      ],
      "stateMutability": "view",
      "type": "function",
      "constant": true
    },
    {
      "inputs": [],
      "name": "QLE",
      "outputs": [
        {
          "internalType": "contract QualifiedLegalEntites",
          "name": "",
          "type": "address"
        }
      ],
      "stateMutability": "view",
      "type": "function",
      "constant": true
    },
    {
      "inputs": [],
      "name": "SST",
      "outputs": [
        {
          "internalType": "contract SelfSovereignToken",
          "name": "",
          "type": "address"
        }
      ],
      "stateMutability": "view",
      "type": "function",
      "constant": true
    },
    {
      "inputs": [
        {
          "internalType": "string",
          "name": "s",
          "type": "string"
        },
        {
          "internalType": "SD59x18",
          "name": "n",
          "type": "int256"
        }
      ],
      "name": "consoleLogSD",
      "outputs": [],
      "stateMutability": "view",
      "type": "function",
      "constant": true
    },
    {
      "inputs": [],
      "name": "owner",
      "outputs": [
        {
          "internalType": "address",
          "name": "",
          "type": "address"
        }
      ],
      "stateMutability": "view",
      "type": "function",
      "constant": true
    },
    {
      "inputs": [],
      "name": "renounceOwnership",
      "outputs": [],
      "stateMutability": "nonpayable",
      "type": "function"
    },
    {
      "inputs": [
        {
          "internalType": "address",
          "name": "newOwner",
          "type": "address"
        }
      ],
      "name": "transferOwnership",
      "outputs": [],
      "stateMutability": "nonpayable",
      "type": "function"
    },
    {
      "inputs": [
        {
          "internalType": "address[]",
          "name": "airdropDestination",
          "type": "address[]"
        }
      ],
      "name": "secondInit",
      "outputs": [],
      "stateMutability": "nonpayable",
      "type": "function"
    },
    {
      "inputs": [],
      "name": "updateSystemInterestRate",
      "outputs": [],
      "stateMutability": "nonpayable",
      "type": "function"
    }
  ],
  "bytecode": "0x60806040523480156200001157600080fd5b50604051620035eb380380620035eb833981810160405281019062000037919062000310565b620000576200004b620001b660201b60201c565b620001be60201b60201c565b83600160006101000a81548173ffffffffffffffffffffffffffffffffffffffff021916908373ffffffffffffffffffffffffffffffffffffffff16021790555082600260006101000a81548173ffffffffffffffffffffffffffffffffffffffff021916908373ffffffffffffffffffffffffffffffffffffffff16021790555081600360006101000a81548173ffffffffffffffffffffffffffffffffffffffff021916908373ffffffffffffffffffffffffffffffffffffffff16021790555080600460006101000a81548173ffffffffffffffffffffffffffffffffffffffff021916908373ffffffffffffffffffffffffffffffffffffffff160217905550620001736608c30f2db2bee06200028260201b60201c565b60058190555060055460068190555042600881905550600a6009819055506000600a60006101000a81548160ff0219169083151502179055505050505062000382565b600033905090565b60008060009054906101000a900473ffffffffffffffffffffffffffffffffffffffff169050816000806101000a81548173ffffffffffffffffffffffffffffffffffffffff021916908373ffffffffffffffffffffffffffffffffffffffff1602179055508173ffffffffffffffffffffffffffffffffffffffff168173ffffffffffffffffffffffffffffffffffffffff167f8be0079c531659141344cd1fd0a4f28419497f9722a3daafe3b4186f6b6457e060405160405180910390a35050565b600062000295826200029c60201b60201c565b9050919050565b6000819050919050565b600080fd5b600073ffffffffffffffffffffffffffffffffffffffff82169050919050565b6000620002d882620002ab565b9050919050565b620002ea81620002cb565b8114620002f657600080fd5b50565b6000815190506200030a81620002df565b92915050565b600080600080608085870312156200032d576200032c620002a6565b5b60006200033d87828801620002f9565b94505060206200035087828801620002f9565b93505060406200036387828801620002f9565b92505060606200037687828801620002f9565b91505092959194509250565b61325980620003926000396000f3fe608060405234801561001057600080fd5b506004361061009e5760003560e01c80638da5cb5b116100665780638da5cb5b14610121578063c49c127a1461013f578063cfe012db1461015d578063f2fde38b1461017b578063fcedbc43146101975761009e565b80632383a230146100a35780633f1a34ce146100c157806361bca8da146100dd578063715018a6146100f9578063780249cd14610103575b600080fd5b6100ab6101a1565b6040516100b89190612719565b60405180910390f35b6100db60048036038101906100d691906127ad565b6101c7565b005b6100f760048036038101906100f29190612971565b610332565b005b610101610454565b005b61010b610468565b60405161011891906129ee565b60405180910390f35b61012961048e565b6040516101369190612a2a565b60405180910390f35b6101476104b7565b6040516101549190612a66565b60405180910390f35b6101656104dd565b6040516101729190612aa2565b60405180910390f35b61019560048036038101906101909190612ae9565b610503565b005b61019f610586565b005b600160009054906101000a900473ffffffffffffffffffffffffffffffffffffffff1681565b6101cf610c03565b60001515600a60009054906101000a900460ff161515146101ef57600080fd5b6101fc6305f5e100610c81565b600781905550600061022461021384849050610c81565b600754610d8590919063ffffffff16565b905060005b6001848490506102399190612b4f565b81101561031157600160009054906101000a900473ffffffffffffffffffffffffffffffffffffffff1673ffffffffffffffffffffffffffffffffffffffff166340c10f1985858481811061029157610290612b83565b5b90506020020160208101906102a69190612ae9565b6102af85610f1e565b6040518363ffffffff1660e01b81526004016102cc929190612bc1565b600060405180830381600087803b1580156102e657600080fd5b505af11580156102fa573d6000803e3d6000fd5b50505050808061030990612bea565b915050610229565b506001600a60006101000a81548160ff021916908315150217905550505050565b6000806040518060200160405280600081525090506103636103546000610f73565b84610f8590919063ffffffff16565b156103b05761037183610fa2565b91506040518060400160405280600181526020017f2d0000000000000000000000000000000000000000000000000000000000000081525090506103b4565b8291505b6000816103c86103c385611032565b61104f565b6040516020016103d9929190612cc9565b60405160208183030381529060405290506000826103fe6103f986610f1e565b61104f565b60405160200161040f929190612d22565b604051602081830303815290604052905061044c86838360405160200161043893929190612d55565b60405160208183030381529060405261111d565b505050505050565b61045c610c03565b61046660006111b6565b565b600460009054906101000a900473ffffffffffffffffffffffffffffffffffffffff1681565b60008060009054906101000a900473ffffffffffffffffffffffffffffffffffffffff16905090565b600260009054906101000a900473ffffffffffffffffffffffffffffffffffffffff1681565b600360009054906101000a900473ffffffffffffffffffffffffffffffffffffffff1681565b61050b610c03565b600073ffffffffffffffffffffffffffffffffffffffff168173ffffffffffffffffffffffffffffffffffffffff160361057a576040517f08c379a000000000000000000000000000000000000000000000000000000000815260040161057190612e09565b60405180910390fd5b610583816111b6565b50565b6000610593600854610c81565b905060006105a2600954610c81565b905060006105af42610c81565b905060006105d16105c06001610c81565b60055461127a90919063ffffffff16565b90506106126040518060400160405280600281526020017f737400000000000000000000000000000000000000000000000000000000000081525085610332565b6106516040518060400160405280600181526020017f700000000000000000000000000000000000000000000000000000000000000081525084610332565b6106906040518060400160405280600481526020017f5f6e6f770000000000000000000000000000000000000000000000000000000081525083610332565b60006106b7846106a987866112a890919063ffffffff16565b610d8590919063ffffffff16565b90506106f86040518060400160405280600481526020017f6e4e6f770000000000000000000000000000000000000000000000000000000081525082610332565b6000610703826112d6565b90506107446040518060400160405280600581526020017f6e4c61737400000000000000000000000000000000000000000000000000000081525082610332565b600061076d61075c83866113a390919063ffffffff16565b60075461142390919063ffffffff16565b90506107ae6040518060400160405280600581526020017f6d5f745f6e00000000000000000000000000000000000000000000000000000081525082610332565b60006107f26107e16107d26107c36001610c81565b8661127a90919063ffffffff16565b876113a390919063ffffffff16565b60075461142390919063ffffffff16565b90506108336040518060400160405280600781526020017f6d5f745f6e70310000000000000000000000000000000000000000000000000081525082610332565b600061084883836112a890919063ffffffff16565b90506108896040518060400160405280600981526020017f6d496e637265617365000000000000000000000000000000000000000000000081525082610332565b600061089e85876112a890919063ffffffff16565b90506108fa6040518060400160405280600c81526020017f70746e2e6d756c283130302900000000000000000000000000000000000000008152506108f56108e66064610c81565b8461142390919063ffffffff16565b610332565b6000610921610912838561142390919063ffffffff16565b8661127a90919063ffffffff16565b90506109626040518060400160405280600781526020017f6d5f745f6e6f770000000000000000000000000000000000000000000000000081525082610332565b6000610a9f600460009054906101000a900473ffffffffffffffffffffffffffffffffffffffff1673ffffffffffffffffffffffffffffffffffffffff166349d35b096040518163ffffffff1660e01b8152600401602060405180830381865afa1580156109d4573d6000803e3d6000fd5b505050506040513d601f19601f820116820180604052508101906109f89190612e3e565b610a91600160009054906101000a900473ffffffffffffffffffffffffffffffffffffffff1673ffffffffffffffffffffffffffffffffffffffff166318160ddd6040518163ffffffff1660e01b8152600401602060405180830381865afa158015610a68573d6000803e3d6000fd5b505050506040513d601f19601f82011682018060405250810190610a8c9190612e97565b610f73565b61127a90919063ffffffff16565b9050610ae06040518060400160405280600181526020017f6d0000000000000000000000000000000000000000000000000000000000000081525082610332565b6000610b10610aef6001610c81565b610b028486610d8590919063ffffffff16565b6112a890919063ffffffff16565b9050610b516040518060400160405280600781526020017f666163746f723a0000000000000000000000000000000000000000000000000081525082610332565b6000610b68826006546112a890919063ffffffff16565b9050610ba96040518060400160405280600581526020017f6e6577495200000000000000000000000000000000000000000000000000000081525082610332565b610bea6040518060400160405280600581526020017f6f6c644952000000000000000000000000000000000000000000000000000000815250600654610332565b610bf3816115b3565b5050505050505050505050505050565b610c0b61164a565b73ffffffffffffffffffffffffffffffffffffffff16610c2961048e565b73ffffffffffffffffffffffffffffffffffffffff1614610c7f576040517f08c379a0000000000000000000000000000000000000000000000000000000008152600401610c7690612f10565b60405180910390fd5b565b6000670de0b6b3a76400007f8000000000000000000000000000000000000000000000000000000000000000610cb79190612f5f565b821215610cfb57816040517f99474eeb000000000000000000000000000000000000000000000000000000008152600401610cf29190612fd8565b60405180910390fd5b670de0b6b3a76400007f7fffffffffffffffffffffffffffffffffffffffffffffffffffffffffffffff610d2f9190612f5f565b821315610d7357816040517f9d581091000000000000000000000000000000000000000000000000000000008152600401610d6a9190612fd8565b60405180910390fd5b670de0b6b3a764000082029050919050565b600080610d9184611652565b90506000610d9e84611652565b90507f8000000000000000000000000000000000000000000000000000000000000000821480610ded57507f800000000000000000000000000000000000000000000000000000000000000081145b15610e24576040517f9fe2b45000000000000000000000000000000000000000000000000000000000815260040160405180910390fd5b60008060008412610e355783610e3a565b836000035b915060008312610e4a5782610e4f565b826000035b90506000610e6683670de0b6b3a76400008461165c565b90507f7fffffffffffffffffffffffffffffffffffffffffffffffffffffffffffffff811115610ecf5787876040517fd49c26b3000000000000000000000000000000000000000000000000000000008152600401610ec6929190613024565b60405180910390fd5b60007fffffffffffffffffffffffffffffffffffffffffffffffffffffffffffffffff858718139050610f1081610f095782600003610f0b565b825b611773565b965050505050505092915050565b6000808290506000811215610f6a57826040517f2463f3d5000000000000000000000000000000000000000000000000000000008152600401610f61919061304d565b60405180910390fd5b80915050919050565b6000610f7e82611773565b9050919050565b6000610f9082611652565b610f9984611652565b12905092915050565b600080610fae83611652565b90507f80000000000000000000000000000000000000000000000000000000000000008103611009576040517fec2b9e6700000000000000000000000000000000000000000000000000000000815260040160405180910390fd5b60008112611017578261102a565b6110298161102490613068565b611773565b5b915050919050565b6000670de0b6b3a7640000826110489190612f5f565b9050919050565b60606000600161105e8461177d565b01905060008167ffffffffffffffff81111561107d5761107c612810565b5b6040519080825280601f01601f1916602001820160405280156110af5781602001600182028036833780820191505090505b509050600082602001820190505b600115611112578080600190039150507f3031323334353637383961626364656600000000000000000000000000000000600a86061a8153600a858161110657611105612f30565b5b049450600085036110bd575b819350505050919050565b6111b38160405160240161113191906130e9565b6040516020818303038152906040527f41304fac000000000000000000000000000000000000000000000000000000007bffffffffffffffffffffffffffffffffffffffffffffffffffffffff19166020820180517bffffffffffffffffffffffffffffffffffffffffffffffffffffffff83818316178352505050506118d0565b50565b60008060009054906101000a900473ffffffffffffffffffffffffffffffffffffffff169050816000806101000a81548173ffffffffffffffffffffffffffffffffffffffff021916908373ffffffffffffffffffffffffffffffffffffffff1602179055508173ffffffffffffffffffffffffffffffffffffffff168173ffffffffffffffffffffffffffffffffffffffff167f8be0079c531659141344cd1fd0a4f28419497f9722a3daafe3b4186f6b6457e060405160405180910390a35050565b60006112a061128883611652565b61129185611652565b61129b919061310b565b611773565b905092915050565b60006112ce6112b683611652565b6112bf85611652565b6112c9919061314f565b611773565b905092915050565b6000806112e283611652565b90507f8000000000000000000000000000000000000000000000000afdc366fbc0000081121561134957826040517f27064054000000000000000000000000000000000000000000000000000000008152600401611340919061304d565b60405180910390fd5b6000670de0b6b3a76400008261135f9190613192565b9050600081036113715783925061139c565b60008183039050600083121561138f57670de0b6b3a7640000810390505b61139881611773565b9350505b5050919050565b6000806113af84611652565b905060006113bc84611652565b9050600082036113e657600081146113d55760006113df565b670de0b6b3a76400005b925061141b565b670de0b6b3a764000081036113fd5784925061141a565b61141761141261140c876118f5565b86611423565b611a88565b92505b5b505092915050565b60008061142f84611652565b9050600061143c84611652565b90507f800000000000000000000000000000000000000000000000000000000000000082148061148b57507f800000000000000000000000000000000000000000000000000000000000000081145b156114c2576040517fa6070c2500000000000000000000000000000000000000000000000000000000815260040160405180910390fd5b600080600084126114d357836114d8565b836000035b9150600083126114e857826114ed565b826000035b905060006114fb8383611ba5565b90507f7fffffffffffffffffffffffffffffffffffffffffffffffffffffffffffffff8111156115645787876040517f120b5b4300000000000000000000000000000000000000000000000000000000815260040161155b929190613024565b60405180910390fd5b60007fffffffffffffffffffffffffffffffffffffffffffffffffffffffffffffffff8587181390506115a58161159e57826000036115a0565b825b611773565b965050505050505092915050565b80600681905550600460009054906101000a900473ffffffffffffffffffffffffffffffffffffffff1673ffffffffffffffffffffffffffffffffffffffff1663717198d5826040518263ffffffff1660e01b8152600401611615919061304d565b600060405180830381600087803b15801561162f57600080fd5b505af1158015611643573d6000803e3d6000fd5b5050505050565b600033905090565b6000819050919050565b60008060008019858709858702925082811083820303915050600081036116975783828161168d5761168c612f30565b5b049250505061176c565b8381106116df578585856040517f63a057780000000000000000000000000000000000000000000000000000000081526004016116d6939291906131c3565b60405180910390fd5b60008486880990508281118203915080830392506000600186190186169050808604955080840493506001818260000304019050808302841793506000600287600302189050808702600203810290508087026002038102905080870260020381029050808702600203810290508087026002038102905080870260020381029050808502955050505050505b9392505050565b6000819050919050565b600080600090507a184f03e93ff9f4daa797ed6e38ed64bf6a1f01000000000000000083106117db577a184f03e93ff9f4daa797ed6e38ed64bf6a1f01000000000000000083816117d1576117d0612f30565b5b0492506040810190505b6d04ee2d6d415b85acef81000000008310611818576d04ee2d6d415b85acef8100000000838161180e5761180d612f30565b5b0492506020810190505b662386f26fc10000831061184757662386f26fc10000838161183d5761183c612f30565b5b0492506010810190505b6305f5e1008310611870576305f5e100838161186657611865612f30565b5b0492506008810190505b612710831061189557612710838161188b5761188a612f30565b5b0492506004810190505b606483106118b857606483816118ae576118ad612f30565b5b0492506002810190505b600a83106118c7576001810190505b80915050919050565b60006a636f6e736f6c652e6c6f6790508151602083016000808383865afa5050505050565b60008061190183611652565b90506000811361194857826040517f059b101b00000000000000000000000000000000000000000000000000000000815260040161193f919061304d565b60405180910390fd5b6000670de0b6b3a7640000821261196257600190506119a8565b7fffffffffffffffffffffffffffffffffffffffffffffffffffffffffffffffff9050816ec097ce7bc90715b34b9f1000000000816119a4576119a3612f30565b5b0591505b60006119cb670de0b6b3a764000084816119c5576119c4612f30565b5b05611c90565b90506000670de0b6b3a76400008202905060008285901d9050670de0b6b3a76400008103611a0a576119fe848302611773565b95505050505050611a83565b6000671bc16d674ec80000905060006706f05b59d3b2000090505b6000811315611a6b57670de0b6b3a764000083840281611a4857611a47612f30565b5b059250818312611a5f578084019350600183901d92505b600181901d9050611a25565b508483029250611a7a83611773565b96505050505050505b919050565b600080611a9483611652565b90506000811215611b1b577ffffffffffffffffffffffffffffffffffffffffffffffffcc22e87f6eb468eeb811215611ad1576000915050611ba0565b611b14611af0611aeb611ae684600003611773565b611a88565b611652565b6ec097ce7bc90715b34b9f100000000081611b0e57611b0d612f30565b5b05611773565b9150611b9e565b680a688906bd8b0000008112611b6857826040517f0360d028000000000000000000000000000000000000000000000000000000008152600401611b5f919061304d565b60405180910390fd5b6000670de0b6b3a7640000604083901b81611b8657611b85612f30565b5b059050611b9a611b9582611d39565b611773565b9250505b505b919050565b60008060008019848609848602925082811083820303915050670de0b6b3a76400008110611c0c5784846040517f5173648d000000000000000000000000000000000000000000000000000000008152600401611c039291906131fa565b60405180910390fd5b6000670de0b6b3a7640000858709905060008203611c4757670de0b6b3a76400008381611c3c57611c3b612f30565b5b049350505050611c8a565b7faccb18165bd6fe31ae1cf318dc5b51eee0e1ba569b88cd74c1773b91fac106696001620400008060000304018483118403026204000083860304170293505050505b92915050565b60006fffffffffffffffffffffffffffffffff821160071b82811c925080821791505067ffffffffffffffff821160061b82811c925080821791505063ffffffff821160051b82811c925080821791505061ffff821160041b82811c925080821791505060ff821160031b82811c9250808217915050600f821160021b82811c92508082179150506003821160011b82811c925080821791505060018211808217915050919050565b6000778000000000000000000000000000000000000000000000009050600067ff0000000000000083161115611e9a57600067800000000000000083161115611d8f57604068016a09e667f3bcc9098202901c90505b600067400000000000000083161115611db55760406801306fe0a31b7152df8202901c90505b600067200000000000000083161115611ddb5760406801172b83c7d517adce8202901c90505b600067100000000000000083161115611e0157604068010b5586cf9890f62a8202901c90505b600067080000000000000083161115611e275760406801059b0d31585743ae8202901c90505b600067040000000000000083161115611e4d576040680102c9a3e778060ee78202901c90505b600067020000000000000083161115611e7357604068010163da9fb33356d88202901c90505b600067010000000000000083161115611e99576040680100b1afa5abcbed618202901c90505b5b600066ff00000000000083161115611fd5576000668000000000000083161115611ed157604068010058c86da1c09ea28202901c90505b6000664000000000000083161115611ef65760406801002c605e2e8cec508202901c90505b6000662000000000000083161115611f1b576040680100162f3904051fa18202901c90505b6000661000000000000083161115611f405760406801000b175effdc76ba8202901c90505b6000660800000000000083161115611f65576040680100058ba01fb9f96d8202901c90505b6000660400000000000083161115611f8a57604068010002c5cc37da94928202901c90505b6000660200000000000083161115611faf5760406801000162e525ee05478202901c90505b6000660100000000000083161115611fd457604068010000b17255775c048202901c90505b5b600065ff000000000083161115612107576000658000000000008316111561200a5760406801000058b91b5bc9ae8202901c90505b6000654000000000008316111561202e576040680100002c5c89d5ec6d8202901c90505b6000652000000000008316111561205257604068010000162e43f4f8318202901c90505b60006510000000000083161115612076576040680100000b1721bcfc9a8202901c90505b6000650800000000008316111561209a57604068010000058b90cf1e6e8202901c90505b600065040000000000831611156120be5760406801000002c5c863b73f8202901c90505b600065020000000000831611156120e2576040680100000162e430e5a28202901c90505b600065010000000000831611156121065760406801000000b1721835518202901c90505b5b600064ff00000000831611156122305760006480000000008316111561213a576040680100000058b90c0b498202901c90505b60006440000000008316111561215d57604068010000002c5c8601cc8202901c90505b6000642000000000831611156121805760406801000000162e42fff08202901c90505b6000641000000000831611156121a357604068010000000b17217fbb8202901c90505b6000640800000000831611156121c65760406801000000058b90bfce8202901c90505b6000640400000000831611156121e9576040680100000002c5c85fe38202901c90505b60006402000000008316111561220c57604068010000000162e42ff18202901c90505b60006401000000008316111561222f576040680100000000b17217f88202901c90505b5b600064ff000000008316111561235157600063800000008316111561226257604068010000000058b90bfc8202901c90505b60006340000000831611156122845760406801000000002c5c85fe8202901c90505b60006320000000831611156122a6576040680100000000162e42ff8202901c90505b60006310000000831611156122c85760406801000000000b17217f8202901c90505b60006308000000831611156122ea576040680100000000058b90c08202901c90505b600063040000008316111561230c57604068010000000002c5c8608202901c90505b600063020000008316111561232e5760406801000000000162e4308202901c90505b600063010000008316111561235057604068010000000000b172188202901c90505b5b600062ff00008316111561246857600062800000831611156123805760406801000000000058b90c8202901c90505b600062400000831611156123a1576040680100000000002c5c868202901c90505b600062200000831611156123c257604068010000000000162e438202901c90505b600062100000831611156123e3576040680100000000000b17218202901c90505b6000620800008316111561240457604068010000000000058b918202901c90505b600062040000831611156124255760406801000000000002c5c88202901c90505b60006202000083161115612446576040680100000000000162e48202901c90505b600062010000831611156124675760406801000000000000b1728202901c90505b5b600061ff008316111561257657600061800083161115612495576040680100000000000058b98202901c90505b6000614000831611156124b557604068010000000000002c5d8202901c90505b6000612000831611156124d55760406801000000000000162e8202901c90505b6000611000831611156124f557604068010000000000000b178202901c90505b6000610800831611156125155760406801000000000000058c8202901c90505b600061040083161115612535576040680100000000000002c68202901c90505b600061020083161115612555576040680100000000000001638202901c90505b600061010083161115612575576040680100000000000000b18202901c90505b5b600060ff8316111561267b5760006080831611156125a1576040680100000000000000598202901c90505b60006040831611156125c05760406801000000000000002c8202901c90505b60006020831611156125df576040680100000000000000168202901c90505b60006010831611156125fe5760406801000000000000000b8202901c90505b600060088316111561261d576040680100000000000000068202901c90505b600060048316111561263c576040680100000000000000038202901c90505b600060028316111561265b576040680100000000000000018202901c90505b600060018316111561267a576040680100000000000000018202901c90505b5b670de0b6b3a764000081029050604082901c60bf0381901c9050919050565b600073ffffffffffffffffffffffffffffffffffffffff82169050919050565b6000819050919050565b60006126df6126da6126d58461269a565b6126ba565b61269a565b9050919050565b60006126f1826126c4565b9050919050565b6000612703826126e6565b9050919050565b612713816126f8565b82525050565b600060208201905061272e600083018461270a565b92915050565b6000604051905090565b600080fd5b600080fd5b600080fd5b600080fd5b600080fd5b60008083601f84011261276d5761276c612748565b5b8235905067ffffffffffffffff81111561278a5761278961274d565b5b6020830191508360208202830111156127a6576127a5612752565b5b9250929050565b600080602083850312156127c4576127c361273e565b5b600083013567ffffffffffffffff8111156127e2576127e1612743565b5b6127ee85828601612757565b92509250509250929050565b600080fd5b6000601f19601f8301169050919050565b7f4e487b7100000000000000000000000000000000000000000000000000000000600052604160045260246000fd5b612848826127ff565b810181811067ffffffffffffffff8211171561286757612866612810565b5b80604052505050565b600061287a612734565b9050612886828261283f565b919050565b600067ffffffffffffffff8211156128a6576128a5612810565b5b6128af826127ff565b9050602081019050919050565b82818337600083830152505050565b60006128de6128d98461288b565b612870565b9050828152602081018484840111156128fa576128f96127fa565b5b6129058482856128bc565b509392505050565b600082601f83011261292257612921612748565b5b81356129328482602086016128cb565b91505092915050565b6000819050919050565b61294e8161293b565b811461295957600080fd5b50565b60008135905061296b81612945565b92915050565b600080604083850312156129885761298761273e565b5b600083013567ffffffffffffffff8111156129a6576129a5612743565b5b6129b28582860161290d565b92505060206129c38582860161295c565b9150509250929050565b60006129d8826126e6565b9050919050565b6129e8816129cd565b82525050565b6000602082019050612a0360008301846129df565b92915050565b6000612a148261269a565b9050919050565b612a2481612a09565b82525050565b6000602082019050612a3f6000830184612a1b565b92915050565b6000612a50826126e6565b9050919050565b612a6081612a45565b82525050565b6000602082019050612a7b6000830184612a57565b92915050565b6000612a8c826126e6565b9050919050565b612a9c81612a81565b82525050565b6000602082019050612ab76000830184612a93565b92915050565b612ac681612a09565b8114612ad157600080fd5b50565b600081359050612ae381612abd565b92915050565b600060208284031215612aff57612afe61273e565b5b6000612b0d84828501612ad4565b91505092915050565b6000819050919050565b7f4e487b7100000000000000000000000000000000000000000000000000000000600052601160045260246000fd5b6000612b5a82612b16565b9150612b6583612b16565b9250828203905081811115612b7d57612b7c612b20565b5b92915050565b7f4e487b7100000000000000000000000000000000000000000000000000000000600052603260045260246000fd5b612bbb81612b16565b82525050565b6000604082019050612bd66000830185612a1b565b612be36020830184612bb2565b9392505050565b6000612bf582612b16565b91507fffffffffffffffffffffffffffffffffffffffffffffffffffffffffffffffff8203612c2757612c26612b20565b5b600182019050919050565b7f4f726967696e616c3a2000000000000000000000000000000000000000000000815250565b600081519050919050565b600081905092915050565b60005b83811015612c8c578082015181840152602081019050612c71565b60008484015250505050565b6000612ca382612c58565b612cad8185612c63565b9350612cbd818560208601612c6e565b80840191505092915050565b6000612cd482612c32565b600a82019150612ce48285612c98565b9150612cf08284612c98565b91508190509392505050565b7f436f6e7665727465643a20000000000000000000000000000000000000000000815250565b6000612d2d82612cfc565b600b82019150612d3d8285612c98565b9150612d498284612c98565b91508190509392505050565b6000612d618286612c98565b9150612d6d8285612c98565b9150612d798284612c98565b9150819050949350505050565b600082825260208201905092915050565b7f4f776e61626c653a206e6577206f776e657220697320746865207a65726f206160008201527f6464726573730000000000000000000000000000000000000000000000000000602082015250565b6000612df3602683612d86565b9150612dfe82612d97565b604082019050919050565b60006020820190508181036000830152612e2281612de6565b9050919050565b600081519050612e3881612945565b92915050565b600060208284031215612e5457612e5361273e565b5b6000612e6284828501612e29565b91505092915050565b612e7481612b16565b8114612e7f57600080fd5b50565b600081519050612e9181612e6b565b92915050565b600060208284031215612ead57612eac61273e565b5b6000612ebb84828501612e82565b91505092915050565b7f4f776e61626c653a2063616c6c6572206973206e6f7420746865206f776e6572600082015250565b6000612efa602083612d86565b9150612f0582612ec4565b602082019050919050565b60006020820190508181036000830152612f2981612eed565b9050919050565b7f4e487b7100000000000000000000000000000000000000000000000000000000600052601260045260246000fd5b6000612f6a8261293b565b9150612f758361293b565b925082612f8557612f84612f30565b5b600160000383147f800000000000000000000000000000000000000000000000000000000000000083141615612fbe57612fbd612b20565b5b828205905092915050565b612fd28161293b565b82525050565b6000602082019050612fed6000830184612fc9565b92915050565b600061300e6130096130048461293b565b6126ba565b61293b565b9050919050565b61301e81612ff3565b82525050565b60006040820190506130396000830185613015565b6130466020830184613015565b9392505050565b60006020820190506130626000830184613015565b92915050565b60006130738261293b565b91507f800000000000000000000000000000000000000000000000000000000000000082036130a5576130a4612b20565b5b816000039050919050565b60006130bb82612c58565b6130c58185612d86565b93506130d5818560208601612c6e565b6130de816127ff565b840191505092915050565b6000602082019050818103600083015261310381846130b0565b905092915050565b60006131168261293b565b91506131218361293b565b92508282019050828112156000831216838212600084121516171561314957613148612b20565b5b92915050565b600061315a8261293b565b91506131658361293b565b925082820390508181126000841216828213600085121516171561318c5761318b612b20565b5b92915050565b600061319d8261293b565b91506131a88361293b565b9250826131b8576131b7612f30565b5b828207905092915050565b60006060820190506131d86000830186612bb2565b6131e56020830185612bb2565b6131f26040830184612bb2565b949350505050565b600060408201905061320f6000830185612bb2565b61321c6020830184612bb2565b939250505056fea2646970667358221220ff6162e82a7ccba04fb7558d5685101fb86543dd039eb87c1df60497744b480264736f6c63430008130033",
  "immutableReferences": {},
  "source": "// SPDX-License-Identifier: UNLICENSED\npragma solidity ^0.8.19;\n\nimport \"./SelfSovereignToken.sol\";\nimport \"./PooledDebtToken.sol\";\nimport \"./QualifiedLegalEntites.sol\";\nimport \"./DebtContracts.sol\";\nimport \"truffle/console.sol\";\nimport { SD59x18, sd, convert } from \"@prb/math/src/SD59x18.sol\";\n//import { UD60x18, ud } from \"@prb/math/src/UD60x18.sol\";\nimport \"@openzeppelin/contracts/access/Ownable.sol\";\nimport \"./Utils.sol\";\n\ncontract SelfSovereignMoneySystem is Ownable, Utils {\n\n  SelfSovereignToken public SST;\n  PooledDebtToken public PDT;\n  QualifiedLegalEntites public QLE;\n  DebtContracts public DC;\n\n  SD59x18 monthlyTarget; //gdp in monthly\n  SD59x18 systemInterestRate;\n  SD59x18 c_0;\n\n\n  uint256 startTimestamp;\n  uint256 periodicity; // one month in seconds\n  bool secondInitRan;\n\n  constructor(address _addrSST, address _addrPDT, address _addrQLE, address _addrDC) public {\n    SST = SelfSovereignToken(_addrSST);\n    PDT = PooledDebtToken(_addrPDT);\n    QLE = QualifiedLegalEntites(_addrQLE);\n    DC = DebtContracts(_addrDC);\n\n    monthlyTarget = sd(0.0024662697723e18); // 3% anually in monthly interest rate\n    systemInterestRate = monthlyTarget;\n    startTimestamp = block.timestamp;\n\n    // bruh time is wimey, and leap years can leap off a cliff, either way 3 normal years 1 leap year = 1461 days -> 31557600 seconds on average in a year, not counting leap seconds, other bs, and other leap year shenanigans. For a MVP, good enough :D\n    //periodicity = 2629800; // 1 month in seconds\n    periodicity = 10; // 5seconds\n    secondInitRan = false;\n  }\n  \n  function secondInit(address[] calldata airdropDestination) external onlyOwner {\n    require(secondInitRan == false);\n    c_0 = convert(100000000); // lets say we begin with 100 mill\n    SD59x18 toEach = c_0.div(convert(int(airdropDestination.length)));\n    for (uint i = 0; i < airdropDestination.length - 1; i++) {\n      SST.mint(airdropDestination[i], toEach.intoUint256());\n    }\n    secondInitRan = true;\n  }\n\n  function updateSIR(SD59x18 newIR) internal {\n    systemInterestRate = newIR;\n    \n    DC.setSystemInterestRate(newIR);\n  }\n\n  function updateSystemInterestRate() public {\n    \n    SD59x18 st = convert(int(startTimestamp));\n    SD59x18 p = convert(int(periodicity));\n    SD59x18 _now = convert(int(block.timestamp));\n    SD59x18 mt = monthlyTarget.add(convert(1));\n    consoleLogSD(\"st\", st);\n    consoleLogSD(\"p\", p);\n    consoleLogSD(\"_now\", _now);\n\n    // amount of periods elapsed, we are currently in the n+1 period\n    SD59x18 nNow = _now.sub(st).div(p);\n    consoleLogSD(\"nNow\", nNow);\n    SD59x18 nLast = nNow.floor();\n    consoleLogSD(\"nLast\", nLast);\n    \n    // calculate the money supply target of the last period n\n    SD59x18 m_t_n = c_0.mul(mt.pow(nLast));\n    consoleLogSD(\"m_t_n\", m_t_n);\n\n    // calculate the money supply target of n+1\n    SD59x18 m_t_np1 = c_0.mul(mt.pow(nLast.add(convert(1))));\n    consoleLogSD(\"m_t_np1\", m_t_np1 );\n\n    SD59x18 mIncrease = m_t_np1.sub(m_t_n);\n    consoleLogSD(\"mIncrease\", mIncrease);\n\n    // take a linear approach to figure out where we should be at this exact moment\n\n    SD59x18 percentageToNext = nNow.sub(nLast);\n    consoleLogSD(\"ptn.mul(100)\", percentageToNext.mul(convert(100)));\n\n    //SD59x18 m_t_now = m_t_np1.\n    SD59x18 m_t_now = m_t_n.add(mIncrease.mul(percentageToNext));\n    consoleLogSD(\"m_t_now\", m_t_now);\n\n    // figure out the current money supply\n    // m = sst + pdc.v\n    SD59x18 m = sd(int(SST.totalSupply())).add(DC.pooledDebtContractValue());    \n    consoleLogSD(\"m\", m);\n\n    // Factor\n    SD59x18 factor = m_t_now.div(m).sub(convert(1));\n    consoleLogSD(\"factor:\", factor);\n\n    // Apply formula 11\n    SD59x18 newIR = systemInterestRate.sub(factor);\n    consoleLogSD(\"newIR\", newIR);\n    consoleLogSD(\"oldIR\", systemInterestRate);\n\n    // set new interest rate and distribute\n    updateSIR(newIR);\n  }\n\n}\n",
  "sourcePath": "/Users/kim/projects/E2/prototype/contracts/SelfSovereignMoneySystem.sol",
  "compiler": {
    "name": "solc",
    "version": "0.8.19+commit.7dd6d404.Emscripten.clang"
  },
  "schemaVersion": "3.4.13",
  "updatedAt": "2023-03-25T18:56:49.952Z",
  "networkType": "ethereum",
  "devdoc": {
    "kind": "dev",
    "methods": {
      "owner()": {
        "details": "Returns the address of the current owner."
      },
      "renounceOwnership()": {
        "details": "Leaves the contract without owner. It will not be possible to call `onlyOwner` functions anymore. Can only be called by the current owner. NOTE: Renouncing ownership will leave the contract without an owner, thereby removing any functionality that is only available to the owner."
      },
      "transferOwnership(address)": {
        "details": "Transfers ownership of the contract to a new account (`newOwner`). Can only be called by the current owner."
      }
    },
    "version": 1
  },
  "userdoc": {
    "errors": {
      "PRBMath_MulDiv18_Overflow(uint256,uint256)": [
        {
          "notice": "Emitted when the ending result in the fixed-point version of `mulDiv` would overflow uint256."
        }
      ],
      "PRBMath_MulDiv_Overflow(uint256,uint256,uint256)": [
        {
          "notice": "Emitted when the ending result in `mulDiv` would overflow uint256."
        }
      ],
      "PRBMath_SD59x18_Abs_MinSD59x18()": [
        {
          "notice": "Emitted when taking the absolute value of `MIN_SD59x18`."
        }
      ],
      "PRBMath_SD59x18_Convert_Overflow(int256)": [
        {
          "notice": "Emitted when converting a basic integer to the fixed-point format overflows SD59x18."
        }
      ],
      "PRBMath_SD59x18_Convert_Underflow(int256)": [
        {
          "notice": "Emitted when converting a basic integer to the fixed-point format underflows SD59x18."
        }
      ],
      "PRBMath_SD59x18_Div_InputTooSmall()": [
        {
          "notice": "Emitted when dividing two numbers and one of them is `MIN_SD59x18`."
        }
      ],
      "PRBMath_SD59x18_Div_Overflow(int256,int256)": [
        {
          "notice": "Emitted when dividing two numbers and one of the intermediary unsigned results overflows SD59x18."
        }
      ],
      "PRBMath_SD59x18_Exp2_InputTooBig(int256)": [
        {
          "notice": "Emitted when taking the binary exponent of a base greater than 192."
        }
      ],
      "PRBMath_SD59x18_Floor_Underflow(int256)": [
        {
          "notice": "Emitted when flooring a number underflows SD59x18."
        }
      ],
      "PRBMath_SD59x18_IntoUint256_Underflow(int256)": [
        {
          "notice": "Emitted when trying to cast an UD60x18 number that doesn't fit in uint256."
        }
      ],
      "PRBMath_SD59x18_Log_InputTooSmall(int256)": [
        {
          "notice": "Emitted when taking the logarithm of a number less than or equal to zero."
        }
      ],
      "PRBMath_SD59x18_Mul_InputTooSmall()": [
        {
          "notice": "Emitted when multiplying two numbers and one of the inputs is `MIN_SD59x18`."
        }
      ],
      "PRBMath_SD59x18_Mul_Overflow(int256,int256)": [
        {
          "notice": "Emitted when multiplying two numbers and the intermediary absolute result overflows SD59x18."
        }
      ]
    },
    "kind": "user",
    "methods": {},
    "version": 1
  }
}