{
  "contractName": "SelfSovereignMoneySystem",
  "abi": [
    {
      "inputs": [
        {
          "internalType": "address",
          "name": "_addrSST",
          "type": "address"
        },
        {
          "internalType": "address",
          "name": "_addrPDT",
          "type": "address"
        },
        {
          "internalType": "address",
          "name": "_addrQLE",
          "type": "address"
        },
        {
          "internalType": "address",
          "name": "_addrDC",
          "type": "address"
        }
      ],
      "stateMutability": "nonpayable",
      "type": "constructor"
    },
    {
      "inputs": [],
      "name": "DC",
      "outputs": [
        {
          "internalType": "contract DebtContracts",
          "name": "",
          "type": "address"
        }
      ],
      "stateMutability": "view",
      "type": "function",
      "constant": true
    },
    {
      "inputs": [],
      "name": "PDT",
      "outputs": [
        {
          "internalType": "contract PooledDebtToken",
          "name": "",
          "type": "address"
        }
      ],
      "stateMutability": "view",
      "type": "function",
      "constant": true
    },
    {
      "inputs": [],
      "name": "QLE",
      "outputs": [
        {
          "internalType": "contract QualifiedLegalEntites",
          "name": "",
          "type": "address"
        }
      ],
      "stateMutability": "view",
      "type": "function",
      "constant": true
    },
    {
      "inputs": [],
      "name": "SST",
      "outputs": [
        {
          "internalType": "contract SelfSovereignToken",
          "name": "",
          "type": "address"
        }
      ],
      "stateMutability": "view",
      "type": "function",
      "constant": true
    }
  ],
  "bytecode": "0x608060405234801561001057600080fd5b50604051610538380380610538833981810160405281019061003291906101df565b836000806101000a81548173ffffffffffffffffffffffffffffffffffffffff021916908373ffffffffffffffffffffffffffffffffffffffff16021790555082600160006101000a81548173ffffffffffffffffffffffffffffffffffffffff021916908373ffffffffffffffffffffffffffffffffffffffff16021790555081600260006101000a81548173ffffffffffffffffffffffffffffffffffffffff021916908373ffffffffffffffffffffffffffffffffffffffff16021790555080600360006101000a81548173ffffffffffffffffffffffffffffffffffffffff021916908373ffffffffffffffffffffffffffffffffffffffff16021790555061014b666a94d74f43000061015a60201b60201c565b60048190555050505050610246565b600061016b8261017260201b60201c565b9050919050565b6000819050919050565b600080fd5b600073ffffffffffffffffffffffffffffffffffffffff82169050919050565b60006101ac82610181565b9050919050565b6101bc816101a1565b81146101c757600080fd5b50565b6000815190506101d9816101b3565b92915050565b600080600080608085870312156101f9576101f861017c565b5b6000610207878288016101ca565b9450506020610218878288016101ca565b9350506040610229878288016101ca565b925050606061023a878288016101ca565b91505092959194509250565b6102e3806102556000396000f3fe608060405234801561001057600080fd5b506004361061004c5760003560e01c80632383a23014610051578063780249cd1461006f578063c49c127a1461008d578063cfe012db146100ab575b600080fd5b6100596100c9565b60405161006691906101de565b60405180910390f35b6100776100ed565b604051610084919061021a565b60405180910390f35b610095610113565b6040516100a29190610256565b60405180910390f35b6100b3610139565b6040516100c09190610292565b60405180910390f35b60008054906101000a900473ffffffffffffffffffffffffffffffffffffffff1681565b600360009054906101000a900473ffffffffffffffffffffffffffffffffffffffff1681565b600160009054906101000a900473ffffffffffffffffffffffffffffffffffffffff1681565b600260009054906101000a900473ffffffffffffffffffffffffffffffffffffffff1681565b600073ffffffffffffffffffffffffffffffffffffffff82169050919050565b6000819050919050565b60006101a461019f61019a8461015f565b61017f565b61015f565b9050919050565b60006101b682610189565b9050919050565b60006101c8826101ab565b9050919050565b6101d8816101bd565b82525050565b60006020820190506101f360008301846101cf565b92915050565b6000610204826101ab565b9050919050565b610214816101f9565b82525050565b600060208201905061022f600083018461020b565b92915050565b6000610240826101ab565b9050919050565b61025081610235565b82525050565b600060208201905061026b6000830184610247565b92915050565b600061027c826101ab565b9050919050565b61028c81610271565b82525050565b60006020820190506102a76000830184610283565b9291505056fea2646970667358221220ae051c105f4f31675baaf84babec854eb62bffafa0579a9cd86f658ab0ab34de64736f6c63430008130033",
  "immutableReferences": {},
  "source": "// SPDX-License-Identifier: UNLICENSED\npragma solidity ^0.8.19;\n\nimport \"./SelfSovereignToken.sol\";\nimport \"./PooledDebtToken.sol\";\nimport \"./QualifiedLegalEntites.sol\";\nimport \"./DebtContracts.sol\";\nimport { SD59x18, sd } from \"@prb/math/src/SD59x18.sol\";\nimport { UD60x18, ud } from \"@prb/math/src/UD60x18.sol\";\n\ncontract SelfSovereignMoneySystem {\n\n  SelfSovereignToken public SST;\n  PooledDebtToken public PDT;\n  QualifiedLegalEntites public QLE;\n  DebtContracts public DC;\n\n  SD59x18 interestRate;\n\n  constructor(address _addrSST, address _addrPDT, address _addrQLE, address _addrDC) public {\n    SST = SelfSovereignToken(_addrSST);\n    PDT = PooledDebtToken(_addrPDT);\n    QLE = QualifiedLegalEntites(_addrQLE);\n    DC = DebtContracts(_addrDC);\n\n    interestRate = sd(0.03e18); // interest rate of 3% initialy?    \n  }\n\n}\n",
  "sourcePath": "/Users/kim/projects/E2/prototype/contracts/SelfSovereignMoneySystem.sol",
  "compiler": {
    "name": "solc",
    "version": "0.8.19+commit.7dd6d404.Emscripten.clang"
  },
  "schemaVersion": "3.4.13",
  "updatedAt": "2023-03-24T22:01:16.036Z",
  "networkType": "ethereum",
  "devdoc": {
    "kind": "dev",
    "methods": {},
    "version": 1
  },
  "userdoc": {
    "kind": "user",
    "methods": {},
    "version": 1
  }
}