{
  "contractName": "SelfSovereignMoneySystem",
  "abi": [
    {
      "inputs": [
        {
          "internalType": "address",
          "name": "_addrSST",
          "type": "address"
        },
        {
          "internalType": "address",
          "name": "_addrPDT",
          "type": "address"
        },
        {
          "internalType": "address",
          "name": "_addrQLE",
          "type": "address"
        },
        {
          "internalType": "address",
          "name": "_addrDC",
          "type": "address"
        }
      ],
      "stateMutability": "nonpayable",
      "type": "constructor"
    },
    {
      "inputs": [
        {
          "internalType": "uint256",
          "name": "x",
          "type": "uint256"
        },
        {
          "internalType": "uint256",
          "name": "y",
          "type": "uint256"
        }
      ],
      "name": "PRBMath_MulDiv18_Overflow",
      "type": "error"
    },
    {
      "inputs": [
        {
          "internalType": "uint256",
          "name": "x",
          "type": "uint256"
        },
        {
          "internalType": "uint256",
          "name": "y",
          "type": "uint256"
        },
        {
          "internalType": "uint256",
          "name": "denominator",
          "type": "uint256"
        }
      ],
      "name": "PRBMath_MulDiv_Overflow",
      "type": "error"
    },
    {
      "inputs": [],
      "name": "PRBMath_SD59x18_Abs_MinSD59x18",
      "type": "error"
    },
    {
      "inputs": [
        {
          "internalType": "int256",
          "name": "x",
          "type": "int256"
        }
      ],
      "name": "PRBMath_SD59x18_Convert_Overflow",
      "type": "error"
    },
    {
      "inputs": [
        {
          "internalType": "int256",
          "name": "x",
          "type": "int256"
        }
      ],
      "name": "PRBMath_SD59x18_Convert_Underflow",
      "type": "error"
    },
    {
      "inputs": [],
      "name": "PRBMath_SD59x18_Div_InputTooSmall",
      "type": "error"
    },
    {
      "inputs": [
        {
          "internalType": "SD59x18",
          "name": "x",
          "type": "int256"
        },
        {
          "internalType": "SD59x18",
          "name": "y",
          "type": "int256"
        }
      ],
      "name": "PRBMath_SD59x18_Div_Overflow",
      "type": "error"
    },
    {
      "inputs": [
        {
          "internalType": "SD59x18",
          "name": "x",
          "type": "int256"
        }
      ],
      "name": "PRBMath_SD59x18_Exp2_InputTooBig",
      "type": "error"
    },
    {
      "inputs": [
        {
          "internalType": "SD59x18",
          "name": "x",
          "type": "int256"
        }
      ],
      "name": "PRBMath_SD59x18_Floor_Underflow",
      "type": "error"
    },
    {
      "inputs": [
        {
          "internalType": "SD59x18",
          "name": "x",
          "type": "int256"
        }
      ],
      "name": "PRBMath_SD59x18_IntoUint256_Underflow",
      "type": "error"
    },
    {
      "inputs": [
        {
          "internalType": "SD59x18",
          "name": "x",
          "type": "int256"
        }
      ],
      "name": "PRBMath_SD59x18_Log_InputTooSmall",
      "type": "error"
    },
    {
      "inputs": [],
      "name": "PRBMath_SD59x18_Mul_InputTooSmall",
      "type": "error"
    },
    {
      "inputs": [
        {
          "internalType": "SD59x18",
          "name": "x",
          "type": "int256"
        },
        {
          "internalType": "SD59x18",
          "name": "y",
          "type": "int256"
        }
      ],
      "name": "PRBMath_SD59x18_Mul_Overflow",
      "type": "error"
    },
    {
      "anonymous": false,
      "inputs": [
        {
          "indexed": false,
          "internalType": "string",
          "name": "newSIR",
          "type": "string"
        }
      ],
      "name": "UpdatedSystemInterestRate",
      "type": "event"
    },
    {
      "inputs": [],
      "name": "DC",
      "outputs": [
        {
          "internalType": "contract DebtContracts",
          "name": "",
          "type": "address"
        }
      ],
      "stateMutability": "view",
      "type": "function"
    },
    {
      "inputs": [],
      "name": "PDT",
      "outputs": [
        {
          "internalType": "contract PooledDebtToken",
          "name": "",
          "type": "address"
        }
      ],
      "stateMutability": "view",
      "type": "function"
    },
    {
      "inputs": [],
      "name": "QLE",
      "outputs": [
        {
          "internalType": "contract QualifiedLegalEntites",
          "name": "",
          "type": "address"
        }
      ],
      "stateMutability": "view",
      "type": "function"
    },
    {
      "inputs": [
        {
          "internalType": "SD59x18",
          "name": "n",
          "type": "int256"
        }
      ],
      "name": "SDtoString",
      "outputs": [
        {
          "internalType": "string",
          "name": "",
          "type": "string"
        }
      ],
      "stateMutability": "view",
      "type": "function"
    },
    {
      "inputs": [],
      "name": "SST",
      "outputs": [
        {
          "internalType": "contract SelfSovereignToken",
          "name": "",
          "type": "address"
        }
      ],
      "stateMutability": "view",
      "type": "function"
    },
    {
      "inputs": [],
      "name": "c_0",
      "outputs": [
        {
          "internalType": "SD59x18",
          "name": "",
          "type": "int256"
        }
      ],
      "stateMutability": "view",
      "type": "function"
    },
    {
      "inputs": [
        {
          "internalType": "string",
          "name": "s",
          "type": "string"
        },
        {
          "internalType": "SD59x18",
          "name": "n",
          "type": "int256"
        }
      ],
      "name": "consoleLogSD",
      "outputs": [],
      "stateMutability": "view",
      "type": "function"
    },
    {
      "inputs": [],
      "name": "monthlyTarget",
      "outputs": [
        {
          "internalType": "SD59x18",
          "name": "",
          "type": "int256"
        }
      ],
      "stateMutability": "view",
      "type": "function"
    },
    {
      "inputs": [],
      "name": "periodicity",
      "outputs": [
        {
          "internalType": "uint256",
          "name": "",
          "type": "uint256"
        }
      ],
      "stateMutability": "view",
      "type": "function"
    },
    {
      "inputs": [],
      "name": "secondInitRan",
      "outputs": [
        {
          "internalType": "bool",
          "name": "",
          "type": "bool"
        }
      ],
      "stateMutability": "view",
      "type": "function"
    },
    {
      "inputs": [],
      "name": "startTimestamp",
      "outputs": [
        {
          "internalType": "uint256",
          "name": "",
          "type": "uint256"
        }
      ],
      "stateMutability": "view",
      "type": "function"
    },
    {
      "inputs": [],
      "name": "systemInterestRate",
      "outputs": [
        {
          "internalType": "SD59x18",
          "name": "",
          "type": "int256"
        }
      ],
      "stateMutability": "view",
      "type": "function"
    },
    {
      "inputs": [],
      "name": "testSDtoString",
      "outputs": [
        {
          "internalType": "string",
          "name": "",
          "type": "string"
        }
      ],
      "stateMutability": "view",
      "type": "function"
    },
    {
      "inputs": [],
      "name": "getStatus",
      "outputs": [
        {
          "internalType": "string",
          "name": "",
          "type": "string"
        }
      ],
      "stateMutability": "nonpayable",
      "type": "function"
    },
    {
      "inputs": [
        {
          "internalType": "address[]",
          "name": "airdropDestination",
          "type": "address[]"
        }
      ],
      "name": "secondInit",
      "outputs": [],
      "stateMutability": "nonpayable",
      "type": "function"
    },
    {
      "inputs": [],
      "name": "updateSystemInterestRate",
      "outputs": [],
      "stateMutability": "nonpayable",
      "type": "function"
    }
  ],
  "bytecode": "0x60806040523480156200001157600080fd5b50604051620043da380380620043da833981810160405281019062000037919062000ae5565b836000806101000a81548173ffffffffffffffffffffffffffffffffffffffff021916908373ffffffffffffffffffffffffffffffffffffffff16021790555082600160006101000a81548173ffffffffffffffffffffffffffffffffffffffff021916908373ffffffffffffffffffffffffffffffffffffffff16021790555081600260006101000a81548173ffffffffffffffffffffffffffffffffffffffff021916908373ffffffffffffffffffffffffffffffffffffffff16021790555080600360006101000a81548173ffffffffffffffffffffffffffffffffffffffff021916908373ffffffffffffffffffffffffffffffffffffffff160217905550620001526608c30f2db2bee06200019f60201b60201c565b6004819055506200016b600454620001b960201b60201c565b42600781905550603c6008819055506000600960006101000a81548160ff0219169083151502179055505050505062000fc0565b6000620001b2826200029d60201b60201c565b9050919050565b80600581905550600360009054906101000a900473ffffffffffffffffffffffffffffffffffffffff1673ffffffffffffffffffffffffffffffffffffffff1663717198d5826040518263ffffffff1660e01b81526004016200021d919062000ba4565b600060405180830381600087803b1580156200023857600080fd5b505af11580156200024d573d6000803e3d6000fd5b505050507f07f837fe9f6541a7b8cc6035d7625c34fc9d196bd11e08ff927fcfd4801df0676200028382620002a760201b60201c565b60405162000292919062000c5b565b60405180910390a150565b6000819050919050565b6060600080604051806020016040528060008152509050620002e4620002d460006200019f60201b60201c565b85620005b060201b90919060201c565b156200033b57620002fb84620005dd60201b60201c565b91506040518060400160405280600181526020017f2d0000000000000000000000000000000000000000000000000000000000000081525090506200033f565b8391505b600062000352836200068260201b60201c565b905060006200036b82856200076760201b90919060201c565b90506000620003906200038484620007af60201b60201c565b620007ce60201b60201c565b90506000620003b5620003a984620008ad60201b60201c565b620007ce60201b60201c565b905060008190506000601267ffffffffffffffff811115620003dc57620003db62000c7f565b5b6040519080825280601f01601f1916602001820160405280156200040f5781602001600182028036833780820191505090505b5090506012825110156200057a576000825160126200042f919062000ce7565b905060005b60128110156200053c57808211620004bf5783828262000455919062000ce7565b8151811062000469576200046862000d22565b5b602001015160f81c60f81b8382815181106200048a576200048962000d22565b5b60200101907effffffffffffffffffffffffffffffffffffffffffffffffffffffffffffff1916908160001a90535062000526565b7f3000000000000000000000000000000000000000000000000000000000000000838281518110620004f657620004f562000d22565b5b60200101907effffffffffffffffffffffffffffffffffffffffffffffffffffffffffffff1916908160001a9053505b8080620005339062000d51565b91505062000434565b506000829050888682604051602001620005599392919062000e06565b6040516020818303038152906040529a5050505050505050505050620005ab565b868484604051602001620005919392919062000e06565b604051602081830303815290604052985050505050505050505b919050565b6000620005c3826200090560201b60201c565b620005d4846200090560201b60201c565b12905092915050565b600080620005f1836200090560201b60201c565b90507f800000000000000000000000000000000000000000000000000000000000000081036200064d576040517fec2b9e6700000000000000000000000000000000000000000000000000000000815260040160405180910390fd5b600081126200065d57826200067a565b62000679816200066d9062000e4e565b6200029d60201b60201c565b5b915050919050565b60008062000696836200090560201b60201c565b90507f8000000000000000000000000000000000000000000000000afdc366fbc000008112156200070057826040517f27064054000000000000000000000000000000000000000000000000000000008152600401620006f7919062000ba4565b60405180910390fd5b6000670de0b6b3a76400008262000718919062000eca565b9050600081036200072c5783925062000760565b6000818303905060008312156200074b57670de0b6b3a7640000810390505b6200075c816200029d60201b60201c565b9350505b5050919050565b6000620007a76200077e836200090560201b60201c565b6200078f856200090560201b60201c565b6200079b919062000f02565b6200029d60201b60201c565b905092915050565b6000670de0b6b3a764000082620007c7919062000f4c565b9050919050565b606060006001620007e5846200090f60201b60201c565b01905060008167ffffffffffffffff81111562000807576200080662000c7f565b5b6040519080825280601f01601f1916602001820160405280156200083a5781602001600182028036833780820191505090505b509050600082602001820190505b600115620008a2578080600190039150507f3031323334353637383961626364656600000000000000000000000000000000600a86061a8153600a858162000895576200089462000e9b565b5b0494506000850362000848575b819350505050919050565b6000808290506000811215620008fc57826040517f2463f3d5000000000000000000000000000000000000000000000000000000008152600401620008f3919062000ba4565b60405180910390fd5b80915050919050565b6000819050919050565b600080600090507a184f03e93ff9f4daa797ed6e38ed64bf6a1f010000000000000000831062000971577a184f03e93ff9f4daa797ed6e38ed64bf6a1f010000000000000000838162000967576200096662000e9b565b5b0492506040810190505b6d04ee2d6d415b85acef81000000008310620009b2576d04ee2d6d415b85acef81000000008381620009a857620009a762000e9b565b5b0492506020810190505b662386f26fc100008310620009e557662386f26fc100008381620009db57620009da62000e9b565b5b0492506010810190505b6305f5e100831062000a12576305f5e100838162000a085762000a0762000e9b565b5b0492506008810190505b612710831062000a3b57612710838162000a315762000a3062000e9b565b5b0492506004810190505b6064831062000a62576064838162000a585762000a5762000e9b565b5b0492506002810190505b600a831062000a72576001810190505b80915050919050565b600080fd5b600073ffffffffffffffffffffffffffffffffffffffff82169050919050565b600062000aad8262000a80565b9050919050565b62000abf8162000aa0565b811462000acb57600080fd5b50565b60008151905062000adf8162000ab4565b92915050565b6000806000806080858703121562000b025762000b0162000a7b565b5b600062000b128782880162000ace565b945050602062000b258782880162000ace565b935050604062000b388782880162000ace565b925050606062000b4b8782880162000ace565b91505092959194509250565b6000819050919050565b6000819050919050565b600062000b8c62000b8662000b808462000b57565b62000b61565b62000b57565b9050919050565b62000b9e8162000b6b565b82525050565b600060208201905062000bbb600083018462000b93565b92915050565b600081519050919050565b600082825260208201905092915050565b60005b8381101562000bfd57808201518184015260208101905062000be0565b60008484015250505050565b6000601f19601f8301169050919050565b600062000c278262000bc1565b62000c33818562000bcc565b935062000c4581856020860162000bdd565b62000c508162000c09565b840191505092915050565b6000602082019050818103600083015262000c77818462000c1a565b905092915050565b7f4e487b7100000000000000000000000000000000000000000000000000000000600052604160045260246000fd5b6000819050919050565b7f4e487b7100000000000000000000000000000000000000000000000000000000600052601160045260246000fd5b600062000cf48262000cae565b915062000d018362000cae565b925082820390508181111562000d1c5762000d1b62000cb8565b5b92915050565b7f4e487b7100000000000000000000000000000000000000000000000000000000600052603260045260246000fd5b600062000d5e8262000cae565b91507fffffffffffffffffffffffffffffffffffffffffffffffffffffffffffffffff820362000d935762000d9262000cb8565b5b600182019050919050565b600081905092915050565b600062000db68262000bc1565b62000dc2818562000d9e565b935062000dd481856020860162000bdd565b80840191505092915050565b7f2e00000000000000000000000000000000000000000000000000000000000000815250565b600062000e14828662000da9565b915062000e22828562000da9565b915062000e2f8262000de0565b60018201915062000e41828462000da9565b9150819050949350505050565b600062000e5b8262000b57565b91507f8000000000000000000000000000000000000000000000000000000000000000820362000e905762000e8f62000cb8565b5b816000039050919050565b7f4e487b7100000000000000000000000000000000000000000000000000000000600052601260045260246000fd5b600062000ed78262000b57565b915062000ee48362000b57565b92508262000ef75762000ef662000e9b565b5b828207905092915050565b600062000f0f8262000b57565b915062000f1c8362000b57565b925082820390508181126000841216828213600085121516171562000f465762000f4562000cb8565b5b92915050565b600062000f598262000b57565b915062000f668362000b57565b92508262000f795762000f7862000e9b565b5b600160000383147f80000000000000000000000000000000000000000000000000000000000000008314161562000fb55762000fb462000cb8565b5b828205905092915050565b61340a8062000fd06000396000f3fe608060405234801561001057600080fd5b50600436106101005760003560e01c806361bca8da11610097578063cfe012db11610066578063cfe012db1461027b578063e6fd48bc14610299578063f4462d04146102b7578063fcedbc43146102d557610100565b806361bca8da146101f3578063780249cd1461020f578063b5f437a31461022d578063c49c127a1461025d57610100565b80633f59b1b4116100d35780633f59b1b41461017b57806343c325f6146101995780634e69d560146101b75780635aa79c30146101d557610100565b8063201fbe63146101055780632383a230146101235780632c2082ee146101415780633f1a34ce1461015f575b600080fd5b61010d6102df565b60405161011a9190612751565b60405180910390f35b61012b610305565b60405161013891906127f2565b60405180910390f35b610149610329565b6040516101569190612848565b60405180910390f35b610179600480360381019061017491906129fd565b61032f565b005b610183610472565b6040516101909190612848565b60405180910390f35b6101a1610478565b6040516101ae9190612a61565b60405180910390f35b6101bf61048b565b6040516101cc9190612751565b60405180910390f35b6101dd61065d565b6040516101ea9190612848565b60405180910390f35b61020d60048036038101906102089190612b5d565b610663565b005b610217610699565b6040516102249190612bda565b60405180910390f35b61024760048036038101906102429190612bf5565b6106bf565b6040516102549190612751565b60405180910390f35b61026561096d565b6040516102729190612c43565b60405180910390f35b610283610993565b6040516102909190612c7f565b60405180910390f35b6102a16109b9565b6040516102ae9190612cb3565b60405180910390f35b6102bf6109bf565b6040516102cc9190612cb3565b60405180910390f35b6102dd6109c5565b005b606060006102f4670e083032ce3a71bc610d18565b90506102ff816106bf565b91505090565b60008054906101000a900473ffffffffffffffffffffffffffffffffffffffff1681565b60045481565b60001515600960009054906101000a900460ff1615151461034f57600080fd5b61035c6305f5e100610d2a565b60068190555060006103826103718351610d2a565b600654610e2e90919063ffffffff16565b905060005b82518110156104525760008054906101000a900473ffffffffffffffffffffffffffffffffffffffff1673ffffffffffffffffffffffffffffffffffffffff166340c10f198483815181106103df576103de612cce565b5b60200260200101516103f085610fc7565b6040518363ffffffff1660e01b815260040161040d929190612d0c565b600060405180830381600087803b15801561042757600080fd5b505af115801561043b573d6000803e3d6000fd5b50505050808061044a90612d64565b915050610387565b506001600960006101000a81548160ff0219169083151502179055505050565b60065481565b600960009054906101000a900460ff1681565b6060600061049a6005546106bf565b6040516020016104aa9190612e0e565b604051602081830303815290604052905060008060009054906101000a900473ffffffffffffffffffffffffffffffffffffffff1673ffffffffffffffffffffffffffffffffffffffff16636632ec126040518163ffffffff1660e01b81526004016000604051808303816000875af115801561052b573d6000803e3d6000fd5b505050506040513d6000823e3d601f19601f820116820180604052508101906105549190612ea4565b6040516020016105649190612f13565b60405160208183030381529060405290506000610610600360009054906101000a900473ffffffffffffffffffffffffffffffffffffffff1673ffffffffffffffffffffffffffffffffffffffff166349d35b096040518163ffffffff1660e01b8152600401602060405180830381865afa1580156105e7573d6000803e3d6000fd5b505050506040513d601f19601f8201168201806040525081019061060b9190612f4e565b6106bf565b6040516020016106209190612fa1565b604051602081830303815290604052905082828260405160200161064693929190612fed565b604051602081830303815290604052935050505090565b60055481565b61069582610670836106bf565b604051602001610681929190613062565b60405160208183030381529060405261101c565b5050565b600360009054906101000a900473ffffffffffffffffffffffffffffffffffffffff1681565b60606000806040518060200160405280600081525090506106f26106e36000610d18565b856110b590919063ffffffff16565b1561073f57610700846110d2565b91506040518060400160405280600181526020017f2d000000000000000000000000000000000000000000000000000000000000008152509050610743565b8391505b600061074e83611162565b90506000610765828561122f90919063ffffffff16565b9050600061077a6107758461125d565b61127a565b9050600061078f61078a84610fc7565b61127a565b905060008190506000601267ffffffffffffffff8111156107b3576107b261287c565b5b6040519080825280601f01601f1916602001820160405280156107e55781602001600182028036833780820191505090505b509050601282511015610939576000825160126108029190613095565b905060005b60128110156108fe57808211610887578382826108249190613095565b8151811061083557610834612cce565b5b602001015160f81c60f81b83828151811061085357610852612cce565b5b60200101907effffffffffffffffffffffffffffffffffffffffffffffffffffffffffffff1916908160001a9053506108eb565b7f30000000000000000000000000000000000000000000000000000000000000008382815181106108bb576108ba612cce565b5b60200101907effffffffffffffffffffffffffffffffffffffffffffffffffffffffffffff1916908160001a9053505b80806108f690612d64565b915050610807565b506000829050888682604051602001610919939291906130ef565b6040516020818303038152906040529a5050505050505050505050610968565b86848460405160200161094e939291906130ef565b604051602081830303815290604052985050505050505050505b919050565b600160009054906101000a900473ffffffffffffffffffffffffffffffffffffffff1681565b600260009054906101000a900473ffffffffffffffffffffffffffffffffffffffff1681565b60075481565b60085481565b60006109d2600754610d2a565b905060006109e1600854610d2a565b905060006109ee42610d2a565b90506000610a106109ff6001610d2a565b60045461134890919063ffffffff16565b90506000610a3984610a2b878661122f90919063ffffffff16565b610e2e90919063ffffffff16565b90506000610a4682611162565b90506000610a71610a60838661137690919063ffffffff16565b6006546113f690919063ffffffff16565b90506000610ab7610aa6610a97610a886001610d2a565b8661134890919063ffffffff16565b8761137690919063ffffffff16565b6006546113f690919063ffffffff16565b90506000610ace838361122f90919063ffffffff16565b90506000610ae5858761122f90919063ffffffff16565b90506000610b0e610aff83856113f690919063ffffffff16565b8661134890919063ffffffff16565b90506000610c4b600360009054906101000a900473ffffffffffffffffffffffffffffffffffffffff1673ffffffffffffffffffffffffffffffffffffffff166349d35b096040518163ffffffff1660e01b8152600401602060405180830381865afa158015610b82573d6000803e3d6000fd5b505050506040513d601f19601f82011682018060405250810190610ba69190612f4e565b610c3d60008054906101000a900473ffffffffffffffffffffffffffffffffffffffff1673ffffffffffffffffffffffffffffffffffffffff166318160ddd6040518163ffffffff1660e01b8152600401602060405180830381865afa158015610c14573d6000803e3d6000fd5b505050506040513d601f19601f82011682018060405250810190610c38919061315b565b610d18565b61134890919063ffffffff16565b9050610c69610c5a6000610d18565b8261158690919063ffffffff16565b15610c7f57505050505050505050505050610d16565b6000610c948284610e2e90919063ffffffff16565b90506000610cb4610ca56001610d2a565b8361122f90919063ffffffff16565b90506000610ccd8260055461122f90919063ffffffff16565b9050610ceb610cdc6000610d18565b826110b590919063ffffffff16565b15610cfd57610cfa6000610d18565b90505b610d06816115a3565b5050505050505050505050505050505b565b6000610d2382611679565b9050919050565b6000670de0b6b3a76400007f8000000000000000000000000000000000000000000000000000000000000000610d6091906131b7565b821215610da457816040517f99474eeb000000000000000000000000000000000000000000000000000000008152600401610d9b9190613230565b60405180910390fd5b670de0b6b3a76400007f7fffffffffffffffffffffffffffffffffffffffffffffffffffffffffffffff610dd891906131b7565b821315610e1c57816040517f9d581091000000000000000000000000000000000000000000000000000000008152600401610e139190613230565b60405180910390fd5b670de0b6b3a764000082029050919050565b600080610e3a84611683565b90506000610e4784611683565b90507f8000000000000000000000000000000000000000000000000000000000000000821480610e9657507f800000000000000000000000000000000000000000000000000000000000000081145b15610ecd576040517f9fe2b45000000000000000000000000000000000000000000000000000000000815260040160405180910390fd5b60008060008412610ede5783610ee3565b836000035b915060008312610ef35782610ef8565b826000035b90506000610f0f83670de0b6b3a76400008461168d565b90507f7fffffffffffffffffffffffffffffffffffffffffffffffffffffffffffffff811115610f785787876040517fd49c26b3000000000000000000000000000000000000000000000000000000008152600401610f6f92919061324b565b60405180910390fd5b60007fffffffffffffffffffffffffffffffffffffffffffffffffffffffffffffffff858718139050610fb981610fb25782600003610fb4565b825b611679565b965050505050505092915050565b600080829050600081121561101357826040517f2463f3d500000000000000000000000000000000000000000000000000000000815260040161100a9190612848565b60405180910390fd5b80915050919050565b6110b2816040516024016110309190612751565b6040516020818303038152906040527f41304fac000000000000000000000000000000000000000000000000000000007bffffffffffffffffffffffffffffffffffffffffffffffffffffffff19166020820180517bffffffffffffffffffffffffffffffffffffffffffffffffffffffff83818316178352505050506117a4565b50565b60006110c082611683565b6110c984611683565b12905092915050565b6000806110de83611683565b90507f80000000000000000000000000000000000000000000000000000000000000008103611139576040517fec2b9e6700000000000000000000000000000000000000000000000000000000815260040160405180910390fd5b60008112611147578261115a565b6111598161115490613274565b611679565b5b915050919050565b60008061116e83611683565b90507f8000000000000000000000000000000000000000000000000afdc366fbc000008112156111d557826040517f270640540000000000000000000000000000000000000000000000000000000081526004016111cc9190612848565b60405180910390fd5b6000670de0b6b3a7640000826111eb91906132bc565b9050600081036111fd57839250611228565b60008183039050600083121561121b57670de0b6b3a7640000810390505b61122481611679565b9350505b5050919050565b600061125561123d83611683565b61124685611683565b61125091906132ed565b611679565b905092915050565b6000670de0b6b3a76400008261127391906131b7565b9050919050565b606060006001611289846117c9565b01905060008167ffffffffffffffff8111156112a8576112a761287c565b5b6040519080825280601f01601f1916602001820160405280156112da5781602001600182028036833780820191505090505b509050600082602001820190505b60011561133d578080600190039150507f3031323334353637383961626364656600000000000000000000000000000000600a86061a8153600a858161133157611330613188565b5b049450600085036112e8575b819350505050919050565b600061136e61135683611683565b61135f85611683565b6113699190613330565b611679565b905092915050565b60008061138284611683565b9050600061138f84611683565b9050600082036113b957600081146113a85760006113b2565b670de0b6b3a76400005b92506113ee565b670de0b6b3a764000081036113d0578492506113ed565b6113ea6113e56113df8761191c565b866113f6565b611aaf565b92505b5b505092915050565b60008061140284611683565b9050600061140f84611683565b90507f800000000000000000000000000000000000000000000000000000000000000082148061145e57507f800000000000000000000000000000000000000000000000000000000000000081145b15611495576040517fa6070c2500000000000000000000000000000000000000000000000000000000815260040160405180910390fd5b600080600084126114a657836114ab565b836000035b9150600083126114bb57826114c0565b826000035b905060006114ce8383611bcc565b90507f7fffffffffffffffffffffffffffffffffffffffffffffffffffffffffffffff8111156115375787876040517f120b5b4300000000000000000000000000000000000000000000000000000000815260040161152e92919061324b565b60405180910390fd5b60007fffffffffffffffffffffffffffffffffffffffffffffffffffffffffffffffff858718139050611578816115715782600003611573565b825b611679565b965050505050505092915050565b600061159182611683565b61159a84611683565b14905092915050565b80600581905550600360009054906101000a900473ffffffffffffffffffffffffffffffffffffffff1673ffffffffffffffffffffffffffffffffffffffff1663717198d5826040518263ffffffff1660e01b81526004016116059190612848565b600060405180830381600087803b15801561161f57600080fd5b505af1158015611633573d6000803e3d6000fd5b505050507f07f837fe9f6541a7b8cc6035d7625c34fc9d196bd11e08ff927fcfd4801df067611661826106bf565b60405161166e9190612751565b60405180910390a150565b6000819050919050565b6000819050919050565b60008060008019858709858702925082811083820303915050600081036116c8578382816116be576116bd613188565b5b049250505061179d565b838110611710578585856040517f63a0577800000000000000000000000000000000000000000000000000000000815260040161170793929190613374565b60405180910390fd5b60008486880990508281118203915080830392506000600186190186169050808604955080840493506001818260000304019050808302841793506000600287600302189050808702600203810290508087026002038102905080870260020381029050808702600203810290508087026002038102905080870260020381029050808502955050505050505b9392505050565b60006a636f6e736f6c652e6c6f6790508151602083016000808383865afa5050505050565b600080600090507a184f03e93ff9f4daa797ed6e38ed64bf6a1f0100000000000000008310611827577a184f03e93ff9f4daa797ed6e38ed64bf6a1f010000000000000000838161181d5761181c613188565b5b0492506040810190505b6d04ee2d6d415b85acef81000000008310611864576d04ee2d6d415b85acef8100000000838161185a57611859613188565b5b0492506020810190505b662386f26fc10000831061189357662386f26fc10000838161188957611888613188565b5b0492506010810190505b6305f5e10083106118bc576305f5e10083816118b2576118b1613188565b5b0492506008810190505b61271083106118e15761271083816118d7576118d6613188565b5b0492506004810190505b6064831061190457606483816118fa576118f9613188565b5b0492506002810190505b600a8310611913576001810190505b80915050919050565b60008061192883611683565b90506000811361196f57826040517f059b101b0000000000000000000000000000000000000000000000000000000081526004016119669190612848565b60405180910390fd5b6000670de0b6b3a7640000821261198957600190506119cf565b7fffffffffffffffffffffffffffffffffffffffffffffffffffffffffffffffff9050816ec097ce7bc90715b34b9f1000000000816119cb576119ca613188565b5b0591505b60006119f2670de0b6b3a764000084816119ec576119eb613188565b5b05611cb7565b90506000670de0b6b3a76400008202905060008285901d9050670de0b6b3a76400008103611a3157611a25848302611679565b95505050505050611aaa565b6000671bc16d674ec80000905060006706f05b59d3b2000090505b6000811315611a9257670de0b6b3a764000083840281611a6f57611a6e613188565b5b059250818312611a86578084019350600183901d92505b600181901d9050611a4c565b508483029250611aa183611679565b96505050505050505b919050565b600080611abb83611683565b90506000811215611b42577ffffffffffffffffffffffffffffffffffffffffffffffffcc22e87f6eb468eeb811215611af8576000915050611bc7565b611b3b611b17611b12611b0d84600003611679565b611aaf565b611683565b6ec097ce7bc90715b34b9f100000000081611b3557611b34613188565b5b05611679565b9150611bc5565b680a688906bd8b0000008112611b8f57826040517f0360d028000000000000000000000000000000000000000000000000000000008152600401611b869190612848565b60405180910390fd5b6000670de0b6b3a7640000604083901b81611bad57611bac613188565b5b059050611bc1611bbc82611d60565b611679565b9250505b505b919050565b60008060008019848609848602925082811083820303915050670de0b6b3a76400008110611c335784846040517f5173648d000000000000000000000000000000000000000000000000000000008152600401611c2a9291906133ab565b60405180910390fd5b6000670de0b6b3a7640000858709905060008203611c6e57670de0b6b3a76400008381611c6357611c62613188565b5b049350505050611cb1565b7faccb18165bd6fe31ae1cf318dc5b51eee0e1ba569b88cd74c1773b91fac106696001620400008060000304018483118403026204000083860304170293505050505b92915050565b60006fffffffffffffffffffffffffffffffff821160071b82811c925080821791505067ffffffffffffffff821160061b82811c925080821791505063ffffffff821160051b82811c925080821791505061ffff821160041b82811c925080821791505060ff821160031b82811c9250808217915050600f821160021b82811c92508082179150506003821160011b82811c925080821791505060018211808217915050919050565b6000778000000000000000000000000000000000000000000000009050600067ff0000000000000083161115611ec157600067800000000000000083161115611db657604068016a09e667f3bcc9098202901c90505b600067400000000000000083161115611ddc5760406801306fe0a31b7152df8202901c90505b600067200000000000000083161115611e025760406801172b83c7d517adce8202901c90505b600067100000000000000083161115611e2857604068010b5586cf9890f62a8202901c90505b600067080000000000000083161115611e4e5760406801059b0d31585743ae8202901c90505b600067040000000000000083161115611e74576040680102c9a3e778060ee78202901c90505b600067020000000000000083161115611e9a57604068010163da9fb33356d88202901c90505b600067010000000000000083161115611ec0576040680100b1afa5abcbed618202901c90505b5b600066ff00000000000083161115611ffc576000668000000000000083161115611ef857604068010058c86da1c09ea28202901c90505b6000664000000000000083161115611f1d5760406801002c605e2e8cec508202901c90505b6000662000000000000083161115611f42576040680100162f3904051fa18202901c90505b6000661000000000000083161115611f675760406801000b175effdc76ba8202901c90505b6000660800000000000083161115611f8c576040680100058ba01fb9f96d8202901c90505b6000660400000000000083161115611fb157604068010002c5cc37da94928202901c90505b6000660200000000000083161115611fd65760406801000162e525ee05478202901c90505b6000660100000000000083161115611ffb57604068010000b17255775c048202901c90505b5b600065ff00000000008316111561212e57600065800000000000831611156120315760406801000058b91b5bc9ae8202901c90505b60006540000000000083161115612055576040680100002c5c89d5ec6d8202901c90505b6000652000000000008316111561207957604068010000162e43f4f8318202901c90505b6000651000000000008316111561209d576040680100000b1721bcfc9a8202901c90505b600065080000000000831611156120c157604068010000058b90cf1e6e8202901c90505b600065040000000000831611156120e55760406801000002c5c863b73f8202901c90505b60006502000000000083161115612109576040680100000162e430e5a28202901c90505b6000650100000000008316111561212d5760406801000000b1721835518202901c90505b5b600064ff000000008316111561225757600064800000000083161115612161576040680100000058b90c0b498202901c90505b60006440000000008316111561218457604068010000002c5c8601cc8202901c90505b6000642000000000831611156121a75760406801000000162e42fff08202901c90505b6000641000000000831611156121ca57604068010000000b17217fbb8202901c90505b6000640800000000831611156121ed5760406801000000058b90bfce8202901c90505b600064040000000083161115612210576040680100000002c5c85fe38202901c90505b60006402000000008316111561223357604068010000000162e42ff18202901c90505b600064010000000083161115612256576040680100000000b17217f88202901c90505b5b600064ff000000008316111561237857600063800000008316111561228957604068010000000058b90bfc8202901c90505b60006340000000831611156122ab5760406801000000002c5c85fe8202901c90505b60006320000000831611156122cd576040680100000000162e42ff8202901c90505b60006310000000831611156122ef5760406801000000000b17217f8202901c90505b6000630800000083161115612311576040680100000000058b90c08202901c90505b600063040000008316111561233357604068010000000002c5c8608202901c90505b60006302000000831611156123555760406801000000000162e4308202901c90505b600063010000008316111561237757604068010000000000b172188202901c90505b5b600062ff00008316111561248f57600062800000831611156123a75760406801000000000058b90c8202901c90505b600062400000831611156123c8576040680100000000002c5c868202901c90505b600062200000831611156123e957604068010000000000162e438202901c90505b6000621000008316111561240a576040680100000000000b17218202901c90505b6000620800008316111561242b57604068010000000000058b918202901c90505b6000620400008316111561244c5760406801000000000002c5c88202901c90505b6000620200008316111561246d576040680100000000000162e48202901c90505b6000620100008316111561248e5760406801000000000000b1728202901c90505b5b600061ff008316111561259d576000618000831611156124bc576040680100000000000058b98202901c90505b6000614000831611156124dc57604068010000000000002c5d8202901c90505b6000612000831611156124fc5760406801000000000000162e8202901c90505b60006110008316111561251c57604068010000000000000b178202901c90505b60006108008316111561253c5760406801000000000000058c8202901c90505b60006104008316111561255c576040680100000000000002c68202901c90505b60006102008316111561257c576040680100000000000001638202901c90505b60006101008316111561259c576040680100000000000000b18202901c90505b5b600060ff831611156126a25760006080831611156125c8576040680100000000000000598202901c90505b60006040831611156125e75760406801000000000000002c8202901c90505b6000602083161115612606576040680100000000000000168202901c90505b60006010831611156126255760406801000000000000000b8202901c90505b6000600883161115612644576040680100000000000000068202901c90505b6000600483161115612663576040680100000000000000038202901c90505b6000600283161115612682576040680100000000000000018202901c90505b60006001831611156126a1576040680100000000000000018202901c90505b5b670de0b6b3a764000081029050604082901c60bf0381901c9050919050565b600081519050919050565b600082825260208201905092915050565b60005b838110156126fb5780820151818401526020810190506126e0565b60008484015250505050565b6000601f19601f8301169050919050565b6000612723826126c1565b61272d81856126cc565b935061273d8185602086016126dd565b61274681612707565b840191505092915050565b6000602082019050818103600083015261276b8184612718565b905092915050565b600073ffffffffffffffffffffffffffffffffffffffff82169050919050565b6000819050919050565b60006127b86127b36127ae84612773565b612793565b612773565b9050919050565b60006127ca8261279d565b9050919050565b60006127dc826127bf565b9050919050565b6127ec816127d1565b82525050565b600060208201905061280760008301846127e3565b92915050565b6000819050919050565b600061283261282d6128288461280d565b612793565b61280d565b9050919050565b61284281612817565b82525050565b600060208201905061285d6000830184612839565b92915050565b6000604051905090565b600080fd5b600080fd5b600080fd5b7f4e487b7100000000000000000000000000000000000000000000000000000000600052604160045260246000fd5b6128b482612707565b810181811067ffffffffffffffff821117156128d3576128d261287c565b5b80604052505050565b60006128e6612863565b90506128f282826128ab565b919050565b600067ffffffffffffffff8211156129125761291161287c565b5b602082029050602081019050919050565b600080fd5b600061293382612773565b9050919050565b61294381612928565b811461294e57600080fd5b50565b6000813590506129608161293a565b92915050565b6000612979612974846128f7565b6128dc565b9050808382526020820190506020840283018581111561299c5761299b612923565b5b835b818110156129c557806129b18882612951565b84526020840193505060208101905061299e565b5050509392505050565b600082601f8301126129e4576129e3612877565b5b81356129f4848260208601612966565b91505092915050565b600060208284031215612a1357612a1261286d565b5b600082013567ffffffffffffffff811115612a3157612a30612872565b5b612a3d848285016129cf565b91505092915050565b60008115159050919050565b612a5b81612a46565b82525050565b6000602082019050612a766000830184612a52565b92915050565b600080fd5b600067ffffffffffffffff821115612a9c57612a9b61287c565b5b612aa582612707565b9050602081019050919050565b82818337600083830152505050565b6000612ad4612acf84612a81565b6128dc565b905082815260208101848484011115612af057612aef612a7c565b5b612afb848285612ab2565b509392505050565b600082601f830112612b1857612b17612877565b5b8135612b28848260208601612ac1565b91505092915050565b612b3a8161280d565b8114612b4557600080fd5b50565b600081359050612b5781612b31565b92915050565b60008060408385031215612b7457612b7361286d565b5b600083013567ffffffffffffffff811115612b9257612b91612872565b5b612b9e85828601612b03565b9250506020612baf85828601612b48565b9150509250929050565b6000612bc4826127bf565b9050919050565b612bd481612bb9565b82525050565b6000602082019050612bef6000830184612bcb565b92915050565b600060208284031215612c0b57612c0a61286d565b5b6000612c1984828501612b48565b91505092915050565b6000612c2d826127bf565b9050919050565b612c3d81612c22565b82525050565b6000602082019050612c586000830184612c34565b92915050565b6000612c69826127bf565b9050919050565b612c7981612c5e565b82525050565b6000602082019050612c946000830184612c70565b92915050565b6000819050919050565b612cad81612c9a565b82525050565b6000602082019050612cc86000830184612ca4565b92915050565b7f4e487b7100000000000000000000000000000000000000000000000000000000600052603260045260246000fd5b612d0681612928565b82525050565b6000604082019050612d216000830185612cfd565b612d2e6020830184612ca4565b9392505050565b7f4e487b7100000000000000000000000000000000000000000000000000000000600052601160045260246000fd5b6000612d6f82612c9a565b91507fffffffffffffffffffffffffffffffffffffffffffffffffffffffffffffffff8203612da157612da0612d35565b5b600182019050919050565b7f73797374656d496e746572657374526174652000000000000000000000000000815250565b600081905092915050565b6000612de8826126c1565b612df28185612dd2565b9350612e028185602086016126dd565b80840191505092915050565b6000612e1982612dac565b601382019150612e298284612ddd565b915081905092915050565b6000612e47612e4284612a81565b6128dc565b905082815260208101848484011115612e6357612e62612a7c565b5b612e6e8482856126dd565b509392505050565b600082601f830112612e8b57612e8a612877565b5b8151612e9b848260208601612e34565b91505092915050565b600060208284031215612eba57612eb961286d565b5b600082015167ffffffffffffffff811115612ed857612ed7612872565b5b612ee484828501612e76565b91505092915050565b7f535354546f74616c537570706c79200000000000000000000000000000000000815250565b6000612f1e82612eed565b600f82019150612f2e8284612ddd565b915081905092915050565b600081519050612f4881612b31565b92915050565b600060208284031215612f6457612f6361286d565b5b6000612f7284828501612f39565b91505092915050565b7f56616c7565504443200000000000000000000000000000000000000000000000815250565b6000612fac82612f7b565b600982019150612fbc8284612ddd565b915081905092915050565b7f3b20000000000000000000000000000000000000000000000000000000000000815250565b6000612ff98286612ddd565b915061300482612fc7565b6002820191506130148285612ddd565b915061301f82612fc7565b60028201915061302f8284612ddd565b9150819050949350505050565b7f2000000000000000000000000000000000000000000000000000000000000000815250565b600061306e8285612ddd565b91506130798261303c565b6001820191506130898284612ddd565b91508190509392505050565b60006130a082612c9a565b91506130ab83612c9a565b92508282039050818111156130c3576130c2612d35565b5b92915050565b7f2e00000000000000000000000000000000000000000000000000000000000000815250565b60006130fb8286612ddd565b91506131078285612ddd565b9150613112826130c9565b6001820191506131228284612ddd565b9150819050949350505050565b61313881612c9a565b811461314357600080fd5b50565b6000815190506131558161312f565b92915050565b6000602082840312156131715761317061286d565b5b600061317f84828501613146565b91505092915050565b7f4e487b7100000000000000000000000000000000000000000000000000000000600052601260045260246000fd5b60006131c28261280d565b91506131cd8361280d565b9250826131dd576131dc613188565b5b600160000383147f80000000000000000000000000000000000000000000000000000000000000008314161561321657613215612d35565b5b828205905092915050565b61322a8161280d565b82525050565b60006020820190506132456000830184613221565b92915050565b60006040820190506132606000830185612839565b61326d6020830184612839565b9392505050565b600061327f8261280d565b91507f800000000000000000000000000000000000000000000000000000000000000082036132b1576132b0612d35565b5b816000039050919050565b60006132c78261280d565b91506132d28361280d565b9250826132e2576132e1613188565b5b828207905092915050565b60006132f88261280d565b91506133038361280d565b925082820390508181126000841216828213600085121516171561332a57613329612d35565b5b92915050565b600061333b8261280d565b91506133468361280d565b92508282019050828112156000831216838212600084121516171561336e5761336d612d35565b5b92915050565b60006060820190506133896000830186612ca4565b6133966020830185612ca4565b6133a36040830184612ca4565b949350505050565b60006040820190506133c06000830185612ca4565b6133cd6020830184612ca4565b939250505056fea2646970667358221220eb9737c9fbd24f31a02230286b9502f8226aad1f4bef204cbd954a09d02f2e0964736f6c63430008130033",
  "immutableReferences": {},
  "source": "// SPDX-License-Identifier: UNLICENSED\npragma solidity ^0.8.19;\n\nimport \"./SelfSovereignToken.sol\";\nimport \"./PooledDebtToken.sol\";\nimport \"./QualifiedLegalEntites.sol\";\nimport \"./DebtContracts.sol\";\nimport \"truffle/console.sol\";\nimport { SD59x18, sd, convert } from \"@prb/math/src/SD59x18.sol\";\n//import { UD60x18, ud } from \"@prb/math/src/UD60x18.sol\";\nimport \"@openzeppelin/contracts/access/Ownable.sol\";\nimport \"./Utils.sol\";\n\ncontract SelfSovereignMoneySystem is Utils {\n\n  SelfSovereignToken public SST;\n  PooledDebtToken public PDT;\n  QualifiedLegalEntites public QLE;\n  DebtContracts public DC;\n\n  SD59x18 public monthlyTarget; //gdp in monthly\n  SD59x18 public systemInterestRate;\n\n  function getStatus() public returns(string memory) {\n    string memory ir = string.concat(\"systemInterestRate \", SDtoString(systemInterestRate));\n    string memory ts = string.concat(\"SSTTotalSupply \", SST.totalSupplyStr());\n    string memory vpdc = string.concat(\"ValuePDC \", SDtoString(DC.pooledDebtContractValue()));\n    return string.concat(ir, \"; \", ts, \"; \", vpdc);\n  }\n\n  SD59x18 public c_0;\n\n\n  uint256 public startTimestamp;\n  uint256 public periodicity; // one month in seconds\n  bool public secondInitRan;\n\n  event UpdatedSystemInterestRate(string newSIR);\n\n\n  constructor(address _addrSST, address _addrPDT, address _addrQLE, address _addrDC) public {\n    SST = SelfSovereignToken(_addrSST);\n    PDT = PooledDebtToken(_addrPDT);\n    QLE = QualifiedLegalEntites(_addrQLE);\n    DC = DebtContracts(_addrDC);\n\n    monthlyTarget = sd(0.0024662697723e18); // 3% anually in monthly interest rate\n    updateSIR(monthlyTarget);\n    startTimestamp = block.timestamp;\n\n    // bruh time is wimey, and leap years can leap off a cliff, either way 3 normal years 1 leap year = 1461 days -> 31557600 seconds on average in a year, not counting leap seconds, other bs, and other leap year shenanigans. For a MVP, good enough :D\n    //periodicity = 2629800; // 1 month in seconds\n    periodicity = 60; // 60seconds\n    secondInitRan = false;\n  }\n  \n  function secondInit(address[] memory airdropDestination) public {\n    require(secondInitRan == false);\n    c_0 = convert(100000000); // lets say we begin with 100 mill\n    // console.log(\"airdroplength\", airdropDestination.length);\n    SD59x18 toEach = c_0.div(convert(int(airdropDestination.length)));\n    // consoleLogSD(\"toEach\", toEach);\n    for (uint i = 0; i < airdropDestination.length; i++) {\n      SST.mint(airdropDestination[i], toEach.intoUint256());\n    }\n    secondInitRan = true;\n  }\n\n  function updateSIR(SD59x18 newIR) internal {\n    systemInterestRate = newIR;\n    \n    DC.setSystemInterestRate(newIR);\n\n    emit UpdatedSystemInterestRate(SDtoString(newIR));\n  }\n\n  // event Debug(string desc, string s);\n\n  function updateSystemInterestRate() public {\n    \n    SD59x18 st = convert(int(startTimestamp));\n    SD59x18 p = convert(int(periodicity));\n    SD59x18 _now = convert(int(block.timestamp));\n    SD59x18 mt = monthlyTarget.add(convert(1));\n    // consoleLogSD(\"st\", st);\n    // consoleLogSD(\"p\", p);\n    // consoleLogSD(\"_now\", _now);\n    \n    // amount of periods elapsed, we are currently in the n+1 period\n    // emit Debug(\"p\", SDtoString(p));\n    SD59x18 nNow = _now.sub(st).div(p);\n    // consoleLogSD(\"nNow\", nNow);\n    SD59x18 nLast = nNow.floor();\n    // consoleLogSD(\"nLast\", nLast);\n\n    \n\n    \n    // calculate the money supply target of the last period n\n    SD59x18 m_t_n = c_0.mul(mt.pow(nLast));\n    // consoleLogSD(\"m_t_n\", m_t_n);\n\n    // calculate the money supply target of n+1\n    SD59x18 m_t_np1 = c_0.mul(mt.pow(nLast.add(convert(1))));\n    // consoleLogSD(\"m_t_np1\", m_t_np1 );\n\n    SD59x18 mIncrease = m_t_np1.sub(m_t_n);\n    // consoleLogSD(\"mIncrease\", mIncrease);\n\n    \n    // take a linear approach to figure out where we should be at this exact moment\n\n    SD59x18 percentageToNext = nNow.sub(nLast);\n    // consoleLogSD(\"ptn\", percentageToNext);\n\n    //SD59x18 m_t_now = m_t_np1.\n    SD59x18 m_t_now = m_t_n.add(mIncrease.mul(percentageToNext));\n    // consoleLogSD(\"m_t_now\", m_t_now);\n\n    // figure out the current money supply\n    // m = sst + pdc.v\n    // consoleLogSD(\"vPDC\", DC.pooledDebtContractValue());\n    // consoleLogSD(\"ts\", sd(int(SST.totalSupply())));\n    SD59x18 m = sd(int(SST.totalSupply())).add(DC.pooledDebtContractValue());    \n    // consoleLogSD(\"m\", m);\n\n    // emit Debug(\"m\", SDtoString(m));\n\n    if (m.eq(sd(0))) {\n      // consoleLogSD(\"m is 0\", m);\n      // consoleLogSD(\"m is 0\", m);\n      // consoleLogSD(\"m is 0\", m);\n      return;\n    }\n    // Factor\n    SD59x18 factor1 = m_t_now.div(m);\n    // consoleLogSD(\"factor1:\", factor1);\n    // console.log(factor1.intoUint256());\n\n\n    SD59x18 factor2 = factor1.sub(convert(1));\n    // consoleLogSD(\"factor2:\", factor2);\n\n    // Apply formula 11\n    SD59x18 newIR = systemInterestRate.sub(factor2);\n    if (newIR.lt(sd(0))) {\n      newIR = sd(0);\n    }\n    // consoleLogSD(\"newIR\", newIR);\n    // consoleLogSD(\"oldIR\", systemInterestRate);\n\n    // set new interest rate and distribute\n    updateSIR(newIR);\n  }\n\n}\n",
  "sourcePath": "/Users/kim/projects/E2/prototype/contracts/SelfSovereignMoneySystem.sol",
  "compiler": {
    "name": "solc",
    "version": "0.8.19+commit.7dd6d404.Emscripten.clang"
  },
  "schemaVersion": "3.4.13",
  "updatedAt": "2023-03-26T12:42:09.105Z",
  "devdoc": {
    "kind": "dev",
    "methods": {},
    "version": 1
  },
  "userdoc": {
    "errors": {
      "PRBMath_MulDiv18_Overflow(uint256,uint256)": [
        {
          "notice": "Emitted when the ending result in the fixed-point version of `mulDiv` would overflow uint256."
        }
      ],
      "PRBMath_MulDiv_Overflow(uint256,uint256,uint256)": [
        {
          "notice": "Emitted when the ending result in `mulDiv` would overflow uint256."
        }
      ],
      "PRBMath_SD59x18_Abs_MinSD59x18()": [
        {
          "notice": "Emitted when taking the absolute value of `MIN_SD59x18`."
        }
      ],
      "PRBMath_SD59x18_Convert_Overflow(int256)": [
        {
          "notice": "Emitted when converting a basic integer to the fixed-point format overflows SD59x18."
        }
      ],
      "PRBMath_SD59x18_Convert_Underflow(int256)": [
        {
          "notice": "Emitted when converting a basic integer to the fixed-point format underflows SD59x18."
        }
      ],
      "PRBMath_SD59x18_Div_InputTooSmall()": [
        {
          "notice": "Emitted when dividing two numbers and one of them is `MIN_SD59x18`."
        }
      ],
      "PRBMath_SD59x18_Div_Overflow(int256,int256)": [
        {
          "notice": "Emitted when dividing two numbers and one of the intermediary unsigned results overflows SD59x18."
        }
      ],
      "PRBMath_SD59x18_Exp2_InputTooBig(int256)": [
        {
          "notice": "Emitted when taking the binary exponent of a base greater than 192."
        }
      ],
      "PRBMath_SD59x18_Floor_Underflow(int256)": [
        {
          "notice": "Emitted when flooring a number underflows SD59x18."
        }
      ],
      "PRBMath_SD59x18_IntoUint256_Underflow(int256)": [
        {
          "notice": "Emitted when trying to cast an UD60x18 number that doesn't fit in uint256."
        }
      ],
      "PRBMath_SD59x18_Log_InputTooSmall(int256)": [
        {
          "notice": "Emitted when taking the logarithm of a number less than or equal to zero."
        }
      ],
      "PRBMath_SD59x18_Mul_InputTooSmall()": [
        {
          "notice": "Emitted when multiplying two numbers and one of the inputs is `MIN_SD59x18`."
        }
      ],
      "PRBMath_SD59x18_Mul_Overflow(int256,int256)": [
        {
          "notice": "Emitted when multiplying two numbers and the intermediary absolute result overflows SD59x18."
        }
      ]
    },
    "kind": "user",
    "methods": {},
    "version": 1
  }
}