{
  "contractName": "DebtContracts",
  "abi": [
    {
      "inputs": [],
      "stateMutability": "nonpayable",
      "type": "constructor"
    },
    {
      "anonymous": false,
      "inputs": [
        {
          "indexed": true,
          "internalType": "address",
          "name": "previousOwner",
          "type": "address"
        },
        {
          "indexed": true,
          "internalType": "address",
          "name": "newOwner",
          "type": "address"
        }
      ],
      "name": "OwnershipTransferred",
      "type": "event"
    },
    {
      "anonymous": false,
      "inputs": [
        {
          "indexed": false,
          "internalType": "address",
          "name": "account",
          "type": "address"
        }
      ],
      "name": "Paused",
      "type": "event"
    },
    {
      "anonymous": false,
      "inputs": [
        {
          "indexed": true,
          "internalType": "bytes32",
          "name": "role",
          "type": "bytes32"
        },
        {
          "indexed": true,
          "internalType": "bytes32",
          "name": "previousAdminRole",
          "type": "bytes32"
        },
        {
          "indexed": true,
          "internalType": "bytes32",
          "name": "newAdminRole",
          "type": "bytes32"
        }
      ],
      "name": "RoleAdminChanged",
      "type": "event"
    },
    {
      "anonymous": false,
      "inputs": [
        {
          "indexed": true,
          "internalType": "bytes32",
          "name": "role",
          "type": "bytes32"
        },
        {
          "indexed": true,
          "internalType": "address",
          "name": "account",
          "type": "address"
        },
        {
          "indexed": true,
          "internalType": "address",
          "name": "sender",
          "type": "address"
        }
      ],
      "name": "RoleGranted",
      "type": "event"
    },
    {
      "anonymous": false,
      "inputs": [
        {
          "indexed": true,
          "internalType": "bytes32",
          "name": "role",
          "type": "bytes32"
        },
        {
          "indexed": true,
          "internalType": "address",
          "name": "account",
          "type": "address"
        },
        {
          "indexed": true,
          "internalType": "address",
          "name": "sender",
          "type": "address"
        }
      ],
      "name": "RoleRevoked",
      "type": "event"
    },
    {
      "anonymous": false,
      "inputs": [
        {
          "indexed": false,
          "internalType": "address",
          "name": "account",
          "type": "address"
        }
      ],
      "name": "Unpaused",
      "type": "event"
    },
    {
      "inputs": [],
      "name": "DEFAULT_ADMIN_ROLE",
      "outputs": [
        {
          "internalType": "bytes32",
          "name": "",
          "type": "bytes32"
        }
      ],
      "stateMutability": "view",
      "type": "function",
      "constant": true
    },
    {
      "inputs": [],
      "name": "QLE_ROLE",
      "outputs": [
        {
          "internalType": "bytes32",
          "name": "",
          "type": "bytes32"
        }
      ],
      "stateMutability": "view",
      "type": "function",
      "constant": true
    },
    {
      "inputs": [
        {
          "internalType": "bytes32",
          "name": "role",
          "type": "bytes32"
        }
      ],
      "name": "getRoleAdmin",
      "outputs": [
        {
          "internalType": "bytes32",
          "name": "",
          "type": "bytes32"
        }
      ],
      "stateMutability": "view",
      "type": "function",
      "constant": true
    },
    {
      "inputs": [
        {
          "internalType": "bytes32",
          "name": "role",
          "type": "bytes32"
        },
        {
          "internalType": "address",
          "name": "account",
          "type": "address"
        }
      ],
      "name": "grantRole",
      "outputs": [],
      "stateMutability": "nonpayable",
      "type": "function"
    },
    {
      "inputs": [
        {
          "internalType": "bytes32",
          "name": "role",
          "type": "bytes32"
        },
        {
          "internalType": "address",
          "name": "account",
          "type": "address"
        }
      ],
      "name": "hasRole",
      "outputs": [
        {
          "internalType": "bool",
          "name": "",
          "type": "bool"
        }
      ],
      "stateMutability": "view",
      "type": "function",
      "constant": true
    },
    {
      "inputs": [],
      "name": "owner",
      "outputs": [
        {
          "internalType": "address",
          "name": "",
          "type": "address"
        }
      ],
      "stateMutability": "view",
      "type": "function",
      "constant": true
    },
    {
      "inputs": [],
      "name": "paused",
      "outputs": [
        {
          "internalType": "bool",
          "name": "",
          "type": "bool"
        }
      ],
      "stateMutability": "view",
      "type": "function",
      "constant": true
    },
    {
      "inputs": [
        {
          "internalType": "uint256",
          "name": "",
          "type": "uint256"
        }
      ],
      "name": "preliminaryDebtContracts",
      "outputs": [
        {
          "internalType": "uint256",
          "name": "",
          "type": "uint256"
        }
      ],
      "stateMutability": "view",
      "type": "function",
      "constant": true
    },
    {
      "inputs": [],
      "name": "renounceOwnership",
      "outputs": [],
      "stateMutability": "nonpayable",
      "type": "function"
    },
    {
      "inputs": [
        {
          "internalType": "bytes32",
          "name": "role",
          "type": "bytes32"
        },
        {
          "internalType": "address",
          "name": "account",
          "type": "address"
        }
      ],
      "name": "renounceRole",
      "outputs": [],
      "stateMutability": "nonpayable",
      "type": "function"
    },
    {
      "inputs": [
        {
          "internalType": "bytes32",
          "name": "role",
          "type": "bytes32"
        },
        {
          "internalType": "address",
          "name": "account",
          "type": "address"
        }
      ],
      "name": "revokeRole",
      "outputs": [],
      "stateMutability": "nonpayable",
      "type": "function"
    },
    {
      "inputs": [
        {
          "internalType": "bytes4",
          "name": "interfaceId",
          "type": "bytes4"
        }
      ],
      "name": "supportsInterface",
      "outputs": [
        {
          "internalType": "bool",
          "name": "",
          "type": "bool"
        }
      ],
      "stateMutability": "view",
      "type": "function",
      "constant": true
    },
    {
      "inputs": [],
      "name": "systemInterestRate",
      "outputs": [
        {
          "internalType": "SD59x18",
          "name": "",
          "type": "int256"
        }
      ],
      "stateMutability": "view",
      "type": "function",
      "constant": true
    },
    {
      "inputs": [
        {
          "internalType": "address",
          "name": "newOwner",
          "type": "address"
        }
      ],
      "name": "transferOwnership",
      "outputs": [],
      "stateMutability": "nonpayable",
      "type": "function"
    },
    {
      "inputs": [],
      "name": "pauseSystem",
      "outputs": [],
      "stateMutability": "nonpayable",
      "type": "function"
    },
    {
      "inputs": [],
      "name": "unpauseSystem",
      "outputs": [],
      "stateMutability": "nonpayable",
      "type": "function"
    },
    {
      "inputs": [
        {
          "internalType": "SD59x18",
          "name": "_systemInterestRate",
          "type": "int256"
        }
      ],
      "name": "setSystemInterestRate",
      "outputs": [],
      "stateMutability": "nonpayable",
      "type": "function"
    },
    {
      "inputs": [
        {
          "internalType": "address",
          "name": "_qle",
          "type": "address"
        }
      ],
      "name": "grantQLERole",
      "outputs": [],
      "stateMutability": "nonpayable",
      "type": "function"
    },
    {
      "inputs": [
        {
          "internalType": "address",
          "name": "borrower",
          "type": "address"
        },
        {
          "internalType": "address",
          "name": "qualifiedLegalEntity",
          "type": "address"
        },
        {
          "internalType": "uint256",
          "name": "creditworthiness",
          "type": "uint256"
        },
        {
          "internalType": "uint256",
          "name": "loanCategory",
          "type": "uint256"
        },
        {
          "internalType": "uint256",
          "name": "collateralCategory",
          "type": "uint256"
        },
        {
          "internalType": "uint256",
          "name": "collateralValue",
          "type": "uint256"
        },
        {
          "internalType": "uint256",
          "name": "principalTotal",
          "type": "uint256"
        },
        {
          "internalType": "uint256",
          "name": "durationLength",
          "type": "uint256"
        },
        {
          "internalType": "uint256",
          "name": "paymentPeriodicity",
          "type": "uint256"
        },
        {
          "internalType": "SD59x18",
          "name": "interestRateMultiplier",
          "type": "int256"
        }
      ],
      "name": "createDebtContract",
      "outputs": [
        {
          "internalType": "uint256",
          "name": "",
          "type": "uint256"
        }
      ],
      "stateMutability": "nonpayable",
      "type": "function"
    },
    {
      "inputs": [
        {
          "internalType": "uint256",
          "name": "numContracts",
          "type": "uint256"
        },
        {
          "internalType": "uint256",
          "name": "startTau",
          "type": "uint256"
        }
      ],
      "name": "processPreliminaryDebtContracts",
      "outputs": [
        {
          "internalType": "uint256",
          "name": "",
          "type": "uint256"
        }
      ],
      "stateMutability": "nonpayable",
      "type": "function"
    }
  ],
  "bytecode": "0x608060405234801561001057600080fd5b5061002d61002261004d60201b60201c565b61005560201b60201c565b6000600160146101000a81548160ff02191690831515021790555061011b565b600033905090565b6000600160009054906101000a900473ffffffffffffffffffffffffffffffffffffffff16905081600160006101000a81548173ffffffffffffffffffffffffffffffffffffffff021916908373ffffffffffffffffffffffffffffffffffffffff1602179055508173ffffffffffffffffffffffffffffffffffffffff168173ffffffffffffffffffffffffffffffffffffffff167f8be0079c531659141344cd1fd0a4f28419497f9722a3daafe3b4186f6b6457e060405160405180910390a35050565b611e9d8061012a6000396000f3fe608060405234801561001057600080fd5b506004361061012c5760003560e01c8063717198d5116100ad578063c65b474511610071578063c65b47451461030b578063cabe970e1461033b578063d547741f1461036b578063dc1d4fb714610387578063f2fde38b146103915761012c565b8063717198d51461026557806375fb5319146102815780638da5cb5b1461029f57806391d14854146102bd578063a217fddf146102ed5761012c565b806336568abe116100f457806336568abe146101f95780634c761240146102155780635aa79c301461021f5780635c975abb1461023d578063715018a61461025b5761012c565b806301ffc9a71461013157806318f7f9c714610161578063248a9ca31461017d5780632f2ff15d146101ad57806335264b8d146101c9575b600080fd5b61014b60048036038101906101469190611320565b6103ad565b6040516101589190611368565b60405180910390f35b61017b600480360381019061017691906113e1565b610427565b005b61019760048036038101906101929190611444565b61045c565b6040516101a49190611480565b60405180910390f35b6101c760048036038101906101c2919061149b565b61047b565b005b6101e360048036038101906101de9190611547565b61049c565b6040516101f09190611635565b60405180910390f35b610213600480360381019061020e919061149b565b6106e4565b005b61021d610767565b005b610227610779565b604051610234919061168b565b60405180910390f35b61024561077f565b6040516102529190611368565b60405180910390f35b610263610796565b005b61027f600480360381019061027a91906116a6565b6107aa565b005b6102896107bc565b6040516102969190611480565b60405180910390f35b6102a76107e0565b6040516102b491906116e2565b60405180910390f35b6102d760048036038101906102d2919061149b565b61080a565b6040516102e49190611368565b60405180910390f35b6102f5610874565b6040516103029190611480565b60405180910390f35b610325600480360381019061032091906116fd565b61087b565b6040516103329190611635565b60405180910390f35b6103556004803603810190610350919061173d565b6109f0565b6040516103629190611635565b60405180910390f35b6103856004803603810190610380919061149b565b610a14565b005b61038f610a35565b005b6103ab60048036038101906103a691906113e1565b610a47565b005b60007f7965db0b000000000000000000000000000000000000000000000000000000007bffffffffffffffffffffffffffffffffffffffffffffffffffffffff1916827bffffffffffffffffffffffffffffffffffffffffffffffffffffffff19161480610420575061041f82610aca565b5b9050919050565b61042f610b34565b6104597f4e8e4103f8a7bb86e2b34057884c362523b15b127fc3c34b8f6e81545bd455b082610bb2565b50565b6000806000838152602001908152602001600020600101549050919050565b6104848261045c565b61048d81610c92565b6104978383610bb2565b505050565b60007f4e8e4103f8a7bb86e2b34057884c362523b15b127fc3c34b8f6e81545bd455b06104c881610c92565b6104d0610ca6565b600260008154809291906104e390611799565b91905055506000604051806101a001604052806001151581526020018e73ffffffffffffffffffffffffffffffffffffffff1681526020018d73ffffffffffffffffffffffffffffffffffffffff1681526020018c81526020018b81526020018a8152602001898152602001888152602001888152602001878152602001600081526020018681526020018581525090508060036000600254815260200190815260200160002060008201518160000160006101000a81548160ff02191690831515021790555060208201518160000160016101000a81548173ffffffffffffffffffffffffffffffffffffffff021916908373ffffffffffffffffffffffffffffffffffffffff16021790555060408201518160010160006101000a81548173ffffffffffffffffffffffffffffffffffffffff021916908373ffffffffffffffffffffffffffffffffffffffff160217905550606082015181600201556080820151816003015560a0820151816004015560c0820151816005015560e0820151816006015561010082015181600701556101208201518160080155610140820151816009015561016082015181600a015561018082015181600b015590505060046002549080600181540180825580915050600190039060005260206000200160009091909190915055600254925050509a9950505050505050505050565b6106ec610cf0565b73ffffffffffffffffffffffffffffffffffffffff168173ffffffffffffffffffffffffffffffffffffffff1614610759576040517f08c379a000000000000000000000000000000000000000000000000000000000815260040161075090611864565b60405180910390fd5b6107638282610cf8565b5050565b61076f610b34565b610777610dd9565b565b60055481565b6000600160149054906101000a900460ff16905090565b61079e610b34565b6107a86000610e3c565b565b6107b2610b34565b8060058190555050565b7f4e8e4103f8a7bb86e2b34057884c362523b15b127fc3c34b8f6e81545bd455b081565b6000600160009054906101000a900473ffffffffffffffffffffffffffffffffffffffff16905090565b600080600084815260200190815260200160002060000160008373ffffffffffffffffffffffffffffffffffffffff1673ffffffffffffffffffffffffffffffffffffffff16815260200190815260200160002060009054906101000a900460ff16905092915050565b6000801b81565b6000610885610b34565b61088d610f02565b6000600480549050116108d5576040517f08c379a00000000000000000000000000000000000000000000000000000000081526004016108cc906118f6565b60405180910390fd5b600060016004805490506108e99190611916565b90506000806109018684610f4b90919063ffffffff16565b91509150811561091057600090505b60008390505b8181106109de57600160036000600484815481106109375761093661194a565b5b9060005260206000200154815260200190815260200160002060000160006101000a81548160ff0219169083151502179055508560036000600484815481106109835761098261194a565b5b906000526020600020015481526020019081526020016000206009018190555060048054806109b5576109b4611979565b5b6001900381819060005260206000200160009055905580806109d6906119a8565b915050610916565b50600480549050935050505092915050565b60048181548110610a0057600080fd5b906000526020600020016000915090505481565b610a1d8261045c565b610a2681610c92565b610a308383610cf8565b505050565b610a3d610b34565b610a45610f73565b565b610a4f610b34565b600073ffffffffffffffffffffffffffffffffffffffff168173ffffffffffffffffffffffffffffffffffffffff1603610abe576040517f08c379a0000000000000000000000000000000000000000000000000000000008152600401610ab590611a43565b60405180910390fd5b610ac781610e3c565b50565b60007f01ffc9a7000000000000000000000000000000000000000000000000000000007bffffffffffffffffffffffffffffffffffffffffffffffffffffffff1916827bffffffffffffffffffffffffffffffffffffffffffffffffffffffff1916149050919050565b610b3c610cf0565b73ffffffffffffffffffffffffffffffffffffffff16610b5a6107e0565b73ffffffffffffffffffffffffffffffffffffffff1614610bb0576040517f08c379a0000000000000000000000000000000000000000000000000000000008152600401610ba790611aaf565b60405180910390fd5b565b610bbc828261080a565b610c8e57600160008084815260200190815260200160002060000160008373ffffffffffffffffffffffffffffffffffffffff1673ffffffffffffffffffffffffffffffffffffffff16815260200190815260200160002060006101000a81548160ff021916908315150217905550610c33610cf0565b73ffffffffffffffffffffffffffffffffffffffff168173ffffffffffffffffffffffffffffffffffffffff16837f2f8788117e7eff1d82e926ec794901d17c78024a50270940304540a733656f0d60405160405180910390a45b5050565b610ca381610c9e610cf0565b610fd5565b50565b610cae61077f565b15610cee576040517f08c379a0000000000000000000000000000000000000000000000000000000008152600401610ce590611b1b565b60405180910390fd5b565b600033905090565b610d02828261080a565b15610dd557600080600084815260200190815260200160002060000160008373ffffffffffffffffffffffffffffffffffffffff1673ffffffffffffffffffffffffffffffffffffffff16815260200190815260200160002060006101000a81548160ff021916908315150217905550610d7a610cf0565b73ffffffffffffffffffffffffffffffffffffffff168173ffffffffffffffffffffffffffffffffffffffff16837ff6391f5c32d9c69d2a47ea670b442974b53935d1edc7fd64eb21e047a839171b60405160405180910390a45b5050565b610de1610f02565b6000600160146101000a81548160ff0219169083151502179055507f5db9ee0a495bf2e6ff9c91a7834c1ba4fdd244a5e8aa4e537bd38aeae4b073aa610e25610cf0565b604051610e3291906116e2565b60405180910390a1565b6000600160009054906101000a900473ffffffffffffffffffffffffffffffffffffffff16905081600160006101000a81548173ffffffffffffffffffffffffffffffffffffffff021916908373ffffffffffffffffffffffffffffffffffffffff1602179055508173ffffffffffffffffffffffffffffffffffffffff168173ffffffffffffffffffffffffffffffffffffffff167f8be0079c531659141344cd1fd0a4f28419497f9722a3daafe3b4186f6b6457e060405160405180910390a35050565b610f0a61077f565b610f49576040517f08c379a0000000000000000000000000000000000000000000000000000000008152600401610f4090611b87565b60405180910390fd5b565b60008083831115610f625760008091509150610f6c565b6001838503915091505b9250929050565b610f7b610ca6565b60018060146101000a81548160ff0219169083151502179055507f62e78cea01bee320cd4e420270b5ea74000d11b0c9f74754ebdbfc544b05a258610fbe610cf0565b604051610fcb91906116e2565b60405180910390a1565b610fdf828261080a565b61105657610fec8161105a565b610ffa8360001c6020611087565b60405160200161100b929190611cb0565b6040516020818303038152906040526040517f08c379a000000000000000000000000000000000000000000000000000000000815260040161104d9190611d34565b60405180910390fd5b5050565b60606110808273ffffffffffffffffffffffffffffffffffffffff16601460ff16611087565b9050919050565b60606000600283600261109a9190611d56565b6110a49190611d98565b67ffffffffffffffff8111156110bd576110bc611dcc565b5b6040519080825280601f01601f1916602001820160405280156110ef5781602001600182028036833780820191505090505b5090507f3000000000000000000000000000000000000000000000000000000000000000816000815181106111275761112661194a565b5b60200101907effffffffffffffffffffffffffffffffffffffffffffffffffffffffffffff1916908160001a9053507f78000000000000000000000000000000000000000000000000000000000000008160018151811061118b5761118a61194a565b5b60200101907effffffffffffffffffffffffffffffffffffffffffffffffffffffffffffff1916908160001a905350600060018460026111cb9190611d56565b6111d59190611d98565b90505b6001811115611275577f3031323334353637383961626364656600000000000000000000000000000000600f8616601081106112175761121661194a565b5b1a60f81b82828151811061122e5761122d61194a565b5b60200101907effffffffffffffffffffffffffffffffffffffffffffffffffffffffffffff1916908160001a905350600485901c94508061126e906119a8565b90506111d8565b50600084146112b9576040517f08c379a00000000000000000000000000000000000000000000000000000000081526004016112b090611e47565b60405180910390fd5b8091505092915050565b600080fd5b60007fffffffff0000000000000000000000000000000000000000000000000000000082169050919050565b6112fd816112c8565b811461130857600080fd5b50565b60008135905061131a816112f4565b92915050565b600060208284031215611336576113356112c3565b5b60006113448482850161130b565b91505092915050565b60008115159050919050565b6113628161134d565b82525050565b600060208201905061137d6000830184611359565b92915050565b600073ffffffffffffffffffffffffffffffffffffffff82169050919050565b60006113ae82611383565b9050919050565b6113be816113a3565b81146113c957600080fd5b50565b6000813590506113db816113b5565b92915050565b6000602082840312156113f7576113f66112c3565b5b6000611405848285016113cc565b91505092915050565b6000819050919050565b6114218161140e565b811461142c57600080fd5b50565b60008135905061143e81611418565b92915050565b60006020828403121561145a576114596112c3565b5b60006114688482850161142f565b91505092915050565b61147a8161140e565b82525050565b60006020820190506114956000830184611471565b92915050565b600080604083850312156114b2576114b16112c3565b5b60006114c08582860161142f565b92505060206114d1858286016113cc565b9150509250929050565b6000819050919050565b6114ee816114db565b81146114f957600080fd5b50565b60008135905061150b816114e5565b92915050565b6000819050919050565b61152481611511565b811461152f57600080fd5b50565b6000813590506115418161151b565b92915050565b6000806000806000806000806000806101408b8d03121561156b5761156a6112c3565b5b60006115798d828e016113cc565b9a5050602061158a8d828e016113cc565b995050604061159b8d828e016114fc565b98505060606115ac8d828e016114fc565b97505060806115bd8d828e016114fc565b96505060a06115ce8d828e016114fc565b95505060c06115df8d828e016114fc565b94505060e06115f08d828e016114fc565b9350506101006116028d828e016114fc565b9250506101206116148d828e01611532565b9150509295989b9194979a5092959850565b61162f816114db565b82525050565b600060208201905061164a6000830184611626565b92915050565b6000819050919050565b600061167561167061166b84611511565b611650565b611511565b9050919050565b6116858161165a565b82525050565b60006020820190506116a0600083018461167c565b92915050565b6000602082840312156116bc576116bb6112c3565b5b60006116ca84828501611532565b91505092915050565b6116dc816113a3565b82525050565b60006020820190506116f760008301846116d3565b92915050565b60008060408385031215611714576117136112c3565b5b6000611722858286016114fc565b9250506020611733858286016114fc565b9150509250929050565b600060208284031215611753576117526112c3565b5b6000611761848285016114fc565b91505092915050565b7f4e487b7100000000000000000000000000000000000000000000000000000000600052601160045260246000fd5b60006117a4826114db565b91507fffffffffffffffffffffffffffffffffffffffffffffffffffffffffffffffff82036117d6576117d561176a565b5b600182019050919050565b600082825260208201905092915050565b7f416363657373436f6e74726f6c3a2063616e206f6e6c792072656e6f756e636560008201527f20726f6c657320666f722073656c660000000000000000000000000000000000602082015250565b600061184e602f836117e1565b9150611859826117f2565b604082019050919050565b6000602082019050818103600083015261187d81611841565b9050919050565b7f746865726520617265206e6f207072656c696d696e617279206465627420636f60008201527f6e74726163747320746f2070726f636573730000000000000000000000000000602082015250565b60006118e06032836117e1565b91506118eb82611884565b604082019050919050565b6000602082019050818103600083015261190f816118d3565b9050919050565b6000611921826114db565b915061192c836114db565b92508282039050818111156119445761194361176a565b5b92915050565b7f4e487b7100000000000000000000000000000000000000000000000000000000600052603260045260246000fd5b7f4e487b7100000000000000000000000000000000000000000000000000000000600052603160045260246000fd5b60006119b3826114db565b9150600082036119c6576119c561176a565b5b600182039050919050565b7f4f776e61626c653a206e6577206f776e657220697320746865207a65726f206160008201527f6464726573730000000000000000000000000000000000000000000000000000602082015250565b6000611a2d6026836117e1565b9150611a38826119d1565b604082019050919050565b60006020820190508181036000830152611a5c81611a20565b9050919050565b7f4f776e61626c653a2063616c6c6572206973206e6f7420746865206f776e6572600082015250565b6000611a996020836117e1565b9150611aa482611a63565b602082019050919050565b60006020820190508181036000830152611ac881611a8c565b9050919050565b7f5061757361626c653a2070617573656400000000000000000000000000000000600082015250565b6000611b056010836117e1565b9150611b1082611acf565b602082019050919050565b60006020820190508181036000830152611b3481611af8565b9050919050565b7f5061757361626c653a206e6f7420706175736564000000000000000000000000600082015250565b6000611b716014836117e1565b9150611b7c82611b3b565b602082019050919050565b60006020820190508181036000830152611ba081611b64565b9050919050565b600081905092915050565b7f416363657373436f6e74726f6c3a206163636f756e7420000000000000000000600082015250565b6000611be8601783611ba7565b9150611bf382611bb2565b601782019050919050565b600081519050919050565b60005b83811015611c27578082015181840152602081019050611c0c565b60008484015250505050565b6000611c3e82611bfe565b611c488185611ba7565b9350611c58818560208601611c09565b80840191505092915050565b7f206973206d697373696e6720726f6c6520000000000000000000000000000000600082015250565b6000611c9a601183611ba7565b9150611ca582611c64565b601182019050919050565b6000611cbb82611bdb565b9150611cc78285611c33565b9150611cd282611c8d565b9150611cde8284611c33565b91508190509392505050565b6000601f19601f8301169050919050565b6000611d0682611bfe565b611d1081856117e1565b9350611d20818560208601611c09565b611d2981611cea565b840191505092915050565b60006020820190508181036000830152611d4e8184611cfb565b905092915050565b6000611d61826114db565b9150611d6c836114db565b9250828202611d7a816114db565b91508282048414831517611d9157611d9061176a565b5b5092915050565b6000611da3826114db565b9150611dae836114db565b9250828201905080821115611dc657611dc561176a565b5b92915050565b7f4e487b7100000000000000000000000000000000000000000000000000000000600052604160045260246000fd5b7f537472696e67733a20686578206c656e67746820696e73756666696369656e74600082015250565b6000611e316020836117e1565b9150611e3c82611dfb565b602082019050919050565b60006020820190508181036000830152611e6081611e24565b905091905056fea2646970667358221220479b280b565c1d8d73974d2b78619f120842429107d85515945e730b78b2d58964736f6c63430008130033",
  "immutableReferences": {},
  "source": "// SPDX-License-Identifier: UNLICENSED\npragma solidity ^0.8.19;\n\nimport \"@openzeppelin/contracts/access/Ownable.sol\";\nimport \"@openzeppelin/contracts/access/AccessControl.sol\";\nimport { SD59x18, sd } from \"@prb/math/src/SD59x18.sol\";\nimport { UD60x18, ud } from \"@prb/math/src/UD60x18.sol\";\nimport \"@openzeppelin/contracts/utils/math/SafeMath.sol\";\nimport \"@openzeppelin/contracts/security/Pausable.sol\";\n\n// This contract is an MVP, a proper contract would be way more complex\ncontract DebtContracts is AccessControl, Ownable, Pausable {\n    using SafeMath for uint256;\n    /*\n        Encapsulate all personal variables, such as credit history, income, employement, savings, debt-to-income ratio, personal liquid assets, personal illiquid assets, etc.. into a single metric (1) for simplicity and MVPiniess, (2) for privacy. Can these variables be zkified? This variable can be called creditwhortiness. Increase the decentralization of these variables, so that they cannot be manipulated, ex: get employement from employer, degree from university, value of liquid assets from wallet, etc etc.\n\n        Assume montly payments happens exactly when they should, no early payback, exact repayments, etc\n    */\n    bytes32 public constant QLE_ROLE = keccak256(\"QLE_ROLE\");\n\n    // MVP: 256 variables because I like to pay for gas\n    struct DebtContract {\n        bool activated;\n        address borrower; // const\n        address qualifiedLegalEntity; // const\n        uint256 creditworthiness;\n        uint256 loanCategory;\n        uint256 collateralCategory; \n        uint256 collateralValue;\n        // address collateral;\n        uint256 principalTotal; // The principal at the start of the loan, how much money was borrowed?\n        uint256 remainingDebt; // the remaining debt\n        uint256 durationLength; // in tau\n        uint256 startTau; \n        uint256 paymentPeriodicity; // in tau\n        SD59x18 interestRateMultiplier;\n    }\n\n    uint256 private nonce;\n    mapping(uint256 => DebtContract) debtContracts;\n    uint[] public preliminaryDebtContracts;\n    SD59x18 public systemInterestRate;\n    \n    constructor() {\n    }\n    /**\n    * @dev Pauses the creation of new debt contracts during a tau cycle to process new debt applications\n    */\n    function pauseSystem() external onlyOwner {\n        _pause();\n    }\n\n    /**\n    * @dev Unpauses the system after the tau cycles finnishes\n    */\n    function unpauseSystem() external onlyOwner {\n        _unpause();\n    }\n\n    /**\n     * @dev Sets the system interest rate\n     * @param _systemInterestRate The new system interest rate, in basis points\n     */\n    function setSystemInterestRate(SD59x18 _systemInterestRate) external onlyOwner {\n        systemInterestRate = _systemInterestRate;\n    }\n\n    /**\n    * @dev Grants the QLE role to the specified address.\n    * @param _qle The address to grant the QLE role to.\n    */\n    function grantQLERole(address _qle) external onlyOwner {\n        _grantRole(QLE_ROLE, _qle);\n    }\n\n    /**\n    * @dev Creates a new debt contract and stores it in the `debtContracts` mapping\n    * @param borrower The address of the borrower\n    * @param qualifiedLegalEntity The address of the qualified legal entity\n    * @param creditworthiness The creditworthiness of the borrower\n    * @param loanCategory The category of the loan\n    * @param collateralCategory The category of the collateral\n    * @param collateralValue The value of the collateral\n    * @param principalTotal The total principal of the loan\n    * @param durationLength The length of the loan in tau\n    * @param paymentPeriodicity The payment periodicity of the loan in tau\n    * @param interestRateMultiplier The interest rate multiplier for the loan\n    * @return ID nonce of the new debt contract\n    */\n    function createDebtContract(\n        address borrower,\n        address qualifiedLegalEntity,\n        uint256 creditworthiness,\n        uint256 loanCategory,\n        uint256 collateralCategory,\n        uint256 collateralValue,\n        uint256 principalTotal,\n        uint256 durationLength,\n        uint256 paymentPeriodicity,\n        SD59x18 interestRateMultiplier\n    ) external onlyRole(QLE_ROLE) whenNotPaused  returns (uint256) {\n        nonce++;\n        DebtContract memory newDebtContract = DebtContract({\n            activated: true,\n            borrower: borrower,\n            qualifiedLegalEntity: qualifiedLegalEntity,\n            creditworthiness: creditworthiness,\n            loanCategory: loanCategory,\n            collateralCategory: collateralCategory,\n            collateralValue: collateralValue,\n            principalTotal: principalTotal,\n            remainingDebt: principalTotal,\n            durationLength: durationLength,\n            startTau: 0,\n            paymentPeriodicity: paymentPeriodicity,\n            interestRateMultiplier: interestRateMultiplier\n        });\n        debtContracts[nonce] = newDebtContract;\n        preliminaryDebtContracts.push(nonce);\n        return nonce;\n    }\n\n    /**\n    * @dev Processes a specified number of preliminary debt contracts and deletes them from the array\n    * @param numContracts The number of contracts to process\n    * @param startTau The starting tau to set for the activated contracts\n    * @return The remaining length of the preliminaryDebtContracts array. \n    */\n    function processPreliminaryDebtContracts(uint256 numContracts, uint256 startTau) external onlyOwner whenPaused returns (uint256) {\n        require(preliminaryDebtContracts.length > 0, \"there are no preliminary debt contracts to process\");\n        uint256 lastIndex = preliminaryDebtContracts.length - 1;\n        (bool overflow, uint256 iterationStop) = lastIndex.trySub(numContracts);\n        if (overflow) {\n            iterationStop = 0;\n        }\n        for (uint256 i = lastIndex; i >= iterationStop; i--) {\n            debtContracts[preliminaryDebtContracts[i]].activated = true;\n            debtContracts[preliminaryDebtContracts[i]].startTau = startTau;\n            preliminaryDebtContracts.pop();\n        }\n        return preliminaryDebtContracts.length;\n    }\n\n    // calculate value\n\n    // calculate how much that needs to be paid\n\n    // process a payment from borrower\n\n}",
  "sourcePath": "/Users/kim/projects/E2/hackathon prototype/contracts/DebtContracts.sol",
  "compiler": {
    "name": "solc",
    "version": "0.8.19+commit.7dd6d404.Emscripten.clang"
  },
  "schemaVersion": "3.4.13",
  "updatedAt": "2023-03-23T16:55:22.792Z",
  "networkType": "ethereum",
  "devdoc": {
    "events": {
      "Paused(address)": {
        "details": "Emitted when the pause is triggered by `account`."
      },
      "RoleAdminChanged(bytes32,bytes32,bytes32)": {
        "details": "Emitted when `newAdminRole` is set as ``role``'s admin role, replacing `previousAdminRole` `DEFAULT_ADMIN_ROLE` is the starting admin for all roles, despite {RoleAdminChanged} not being emitted signaling this. _Available since v3.1._"
      },
      "RoleGranted(bytes32,address,address)": {
        "details": "Emitted when `account` is granted `role`. `sender` is the account that originated the contract call, an admin role bearer except when using {AccessControl-_setupRole}."
      },
      "RoleRevoked(bytes32,address,address)": {
        "details": "Emitted when `account` is revoked `role`. `sender` is the account that originated the contract call:   - if using `revokeRole`, it is the admin role bearer   - if using `renounceRole`, it is the role bearer (i.e. `account`)"
      },
      "Unpaused(address)": {
        "details": "Emitted when the pause is lifted by `account`."
      }
    },
    "kind": "dev",
    "methods": {
      "createDebtContract(address,address,uint256,uint256,uint256,uint256,uint256,uint256,uint256,int256)": {
        "details": "Creates a new debt contract and stores it in the `debtContracts` mapping",
        "params": {
          "borrower": "The address of the borrower",
          "collateralCategory": "The category of the collateral",
          "collateralValue": "The value of the collateral",
          "creditworthiness": "The creditworthiness of the borrower",
          "durationLength": "The length of the loan in tau",
          "interestRateMultiplier": "The interest rate multiplier for the loan",
          "loanCategory": "The category of the loan",
          "paymentPeriodicity": "The payment periodicity of the loan in tau",
          "principalTotal": "The total principal of the loan",
          "qualifiedLegalEntity": "The address of the qualified legal entity"
        },
        "returns": {
          "_0": "ID nonce of the new debt contract"
        }
      },
      "getRoleAdmin(bytes32)": {
        "details": "Returns the admin role that controls `role`. See {grantRole} and {revokeRole}. To change a role's admin, use {_setRoleAdmin}."
      },
      "grantQLERole(address)": {
        "details": "Grants the QLE role to the specified address.",
        "params": {
          "_qle": "The address to grant the QLE role to."
        }
      },
      "grantRole(bytes32,address)": {
        "details": "Grants `role` to `account`. If `account` had not been already granted `role`, emits a {RoleGranted} event. Requirements: - the caller must have ``role``'s admin role. May emit a {RoleGranted} event."
      },
      "hasRole(bytes32,address)": {
        "details": "Returns `true` if `account` has been granted `role`."
      },
      "owner()": {
        "details": "Returns the address of the current owner."
      },
      "pauseSystem()": {
        "details": "Pauses the creation of new debt contracts during a tau cycle to process new debt applications"
      },
      "paused()": {
        "details": "Returns true if the contract is paused, and false otherwise."
      },
      "processPreliminaryDebtContracts(uint256,uint256)": {
        "details": "Processes a specified number of preliminary debt contracts and deletes them from the array",
        "params": {
          "numContracts": "The number of contracts to process",
          "startTau": "The starting tau to set for the activated contracts"
        },
        "returns": {
          "_0": "The remaining length of the preliminaryDebtContracts array. "
        }
      },
      "renounceOwnership()": {
        "details": "Leaves the contract without owner. It will not be possible to call `onlyOwner` functions anymore. Can only be called by the current owner. NOTE: Renouncing ownership will leave the contract without an owner, thereby removing any functionality that is only available to the owner."
      },
      "renounceRole(bytes32,address)": {
        "details": "Revokes `role` from the calling account. Roles are often managed via {grantRole} and {revokeRole}: this function's purpose is to provide a mechanism for accounts to lose their privileges if they are compromised (such as when a trusted device is misplaced). If the calling account had been revoked `role`, emits a {RoleRevoked} event. Requirements: - the caller must be `account`. May emit a {RoleRevoked} event."
      },
      "revokeRole(bytes32,address)": {
        "details": "Revokes `role` from `account`. If `account` had been granted `role`, emits a {RoleRevoked} event. Requirements: - the caller must have ``role``'s admin role. May emit a {RoleRevoked} event."
      },
      "setSystemInterestRate(int256)": {
        "details": "Sets the system interest rate",
        "params": {
          "_systemInterestRate": "The new system interest rate, in basis points"
        }
      },
      "supportsInterface(bytes4)": {
        "details": "See {IERC165-supportsInterface}."
      },
      "transferOwnership(address)": {
        "details": "Transfers ownership of the contract to a new account (`newOwner`). Can only be called by the current owner."
      },
      "unpauseSystem()": {
        "details": "Unpauses the system after the tau cycles finnishes"
      }
    },
    "version": 1
  },
  "userdoc": {
    "kind": "user",
    "methods": {},
    "version": 1
  }
}