{
  "contractName": "SelfSovereignMoneySystem",
  "abi": [
    {
      "inputs": [
        {
          "internalType": "contract SelfSovereignToken",
          "name": "_addrSST",
          "type": "address"
        },
        {
          "internalType": "contract PooledDebtToken",
          "name": "_addrPDT",
          "type": "address"
        }
      ],
      "stateMutability": "nonpayable",
      "type": "constructor"
    },
    {
      "inputs": [],
      "name": "PDT",
      "outputs": [
        {
          "internalType": "contract PooledDebtToken",
          "name": "",
          "type": "address"
        }
      ],
      "stateMutability": "view",
      "type": "function",
      "constant": true
    },
    {
      "inputs": [],
      "name": "SST",
      "outputs": [
        {
          "internalType": "contract SelfSovereignToken",
          "name": "",
          "type": "address"
        }
      ],
      "stateMutability": "view",
      "type": "function",
      "constant": true
    }
  ],
  "bytecode": "0x608060405234801561001057600080fd5b506040516103893803806103898339818101604052810190610032919061016d565b816000806101000a81548173ffffffffffffffffffffffffffffffffffffffff021916908373ffffffffffffffffffffffffffffffffffffffff16021790555080600160006101000a81548173ffffffffffffffffffffffffffffffffffffffff021916908373ffffffffffffffffffffffffffffffffffffffff16021790555050506101ad565b600080fd5b600073ffffffffffffffffffffffffffffffffffffffff82169050919050565b60006100ea826100bf565b9050919050565b60006100fc826100df565b9050919050565b61010c816100f1565b811461011757600080fd5b50565b60008151905061012981610103565b92915050565b600061013a826100df565b9050919050565b61014a8161012f565b811461015557600080fd5b50565b60008151905061016781610141565b92915050565b60008060408385031215610184576101836100ba565b5b60006101928582860161011a565b92505060206101a385828601610158565b9150509250929050565b6101cd806101bc6000396000f3fe608060405234801561001057600080fd5b50600436106100365760003560e01c80632383a2301461003b578063c49c127a14610059575b600080fd5b610043610077565b6040516100509190610140565b60405180910390f35b61006161009b565b60405161006e919061017c565b60405180910390f35b60008054906101000a900473ffffffffffffffffffffffffffffffffffffffff1681565b600160009054906101000a900473ffffffffffffffffffffffffffffffffffffffff1681565b600073ffffffffffffffffffffffffffffffffffffffff82169050919050565b6000819050919050565b60006101066101016100fc846100c1565b6100e1565b6100c1565b9050919050565b6000610118826100eb565b9050919050565b600061012a8261010d565b9050919050565b61013a8161011f565b82525050565b60006020820190506101556000830184610131565b92915050565b60006101668261010d565b9050919050565b6101768161015b565b82525050565b6000602082019050610191600083018461016d565b9291505056fea26469706673582212206ce4bcd0ca12b783e7626bf0fb8d3a39e9e0c397a44dc7e241475b3998b0d1bb64736f6c63430008130033",
  "immutableReferences": {},
  "source": "// SPDX-License-Identifier: UNLICENSED\npragma solidity ^0.8.19;\n\nimport \"./SelfSovereignToken.sol\";\nimport \"./PooledDebtToken.sol\";\n\ncontract SelfSovereignMoneySystem {\n\n  SelfSovereignToken public SST;\n  PooledDebtToken public PDT;\n\n  constructor(SelfSovereignToken _addrSST, PooledDebtToken _addrPDT) public {\n    SST = _addrSST;\n    PDT = _addrPDT;\n  }\n}\n",
  "sourcePath": "/Users/kim/projects/E2/hackathon prototype/contracts/SelfSovereignMoneySystem.sol",
  "compiler": {
    "name": "solc",
    "version": "0.8.19+commit.7dd6d404.Emscripten.clang"
  },
  "schemaVersion": "3.4.13",
  "updatedAt": "2023-03-22T21:56:45.978Z",
  "networkType": "ethereum",
  "devdoc": {
    "kind": "dev",
    "methods": {},
    "version": 1
  },
  "userdoc": {
    "kind": "user",
    "methods": {},
    "version": 1
  }
}